:020000040800F2
:10000000E8EA0020450100081B1800080116000856
:1000100059170008E90C0008C97200080000000028
:10002000000000000000000000000000A56B0008B8
:10003000C910000800000000AB090008C535000821
:100040005F0100085F0100085F0100085F01000810
:100050005F0100085F0100085F0100085F01000800
:100060005F0100085F010008AD1100085F01000892
:100070005F0100085F0100085F0100085F010008E0
:100080005F0100085F0100085F0100085F010008D0
:100090005F0100085F0100085F0100085F010008C0
:1000A0005F0100085F0100085F0100085F010008B0
:1000B0005F0100085F0100085F0100085F010008A0
:1000C0005F0100085F0100085F0100085F01000890
:1000D0005F010008216F00085F0100085F01000850
:1000E0005F0100085F0100085F0100085F01000870
:1000F0005F0100085F0100085F0100085F01000860
:100100005F0100085F0100085F0100085F0100084F
:100110005F0100085F0100085F0100085F0100083F
:100120005F0100085F0100085F0100085F0100082F
:10013000DFF80CD000F09AFB004800470D8600085D
:10014000E8EA00200648804706480047FEE7FEE749
:10015000FEE7FEE7FEE7FEE7FEE7FEE7FEE7FEE777
:10016000FD6D00083101000872B6704762B6704735
:10017000EFF3108072B6704780F31088704730BF7D
:10018000704720BF7047B0FA80F0704790FAA0F037
:10019000B0FA80F0704790FAA0F07047A0F14101EA
:1001A000192900D82030704740EA01039B0703D08B
:1001B00009E008C9121F08C0042AFAD203E011F8A6
:1001C000013B00F8013B521EF9D27047D2B201E068
:1001D00000F8012B491EFBD270470022F6E710B54C
:1001E00013460A4604461946FFF7F0FF204610BDA5
:1001F000421E12F8013F002BFBD111F8013B02F81F
:10020000013B002BF9D17047CAB2401E10F8011F04
:100210008A4202D00029F9D100207047421C10F810
:10022000011B0029FBD1801A704710B5002200E0A5
:10023000521C835C8C5CA34201D1002BF8D1D8B254
:10024000E1B2401A10BD034611F8012B00F8012B52
:10025000002AF9D11846704730B5054600200346FC
:1002600000E05B1C934205D2EC5CC85C201A01D113
:10027000002CF6D130BD2DE9FE4F804681EA030007
:10028000C00F0C46009021F0004123F00045B8EB70
:100290000200A94105D24046214690461C460B4625
:1002A000024623F00040104347D0270DC7F30A0051
:1002B000C3F30A510290401A019040286BDAC3F34D
:1002C000130040F4801B0098924620B10023D2EB2B
:1002D000030A63EB0B0B01985946C0F140025046EC
:1002E00000F097F906460D4650465946019A00F02F
:1002F000AFF910EB08006141002487EA115284EA4B
:10030000E7731A4340D0009A62B3019A012A4FEA78
:10031000075215DC001B61EB02014FF0004202EABC
:100320000752CDE90042001C41F5801132462B46B0
:1003300000F0AFF903B0BDE8F08F40462146F9E781
:10034000001B61EB0201001C41F5801300185B41AA
:100350002018A2F5001747EB030140EAD570B61943
:100360006D4111E06D084FEA360645EAC0754FEA67
:100370000752001B61EB0201001C41F58011490886
:100380004FEA30000019514132462B4603B0BDE818
:10039000F04F00F06FB90098012240000023D0EB2D
:1003A000020263EBE073009821464FEAE074B8EB79
:1003B000000061EB0401E9E783F000435BE781F0B3
:1003C000004158E72DE9FE4F81EA030404F00044A0
:1003D00021F0004100944FF0000B23F0004350EA5D
:1003E00001045ED052EA03045BD0C3F30A54C1F3A4
:1003F0000A552C44A4F2F3340194A0FB0254C1F337
:10040000130141F48011C3F3130343F4801301FB80
:10041000024400FB034E840A970A44EA815447EAE7
:100420008357A4FB076802958D0A05FB07854FEAF1
:10043000932C04FB0C542705029D4FEA065847EA0B
:100440001637B5EB08056EEB070C870E920E47EAE0
:10045000811742EA8312A7FB0201B6EB0B0164EBA2
:1004600000042B0D43EA0C335E1844EB1C50DA46B3
:100470005146E7FB0201C5F313044FEA0B3343EA8D
:1004800014534FEA0432019C43EA0603A4F10C041E
:100490000294009CCDE900B400F0FBF803B0BDE885
:1004A000F08F00200146F9E70EB5C10F80EAE07039
:1004B0000844CA07002140F233438DE80E000A4683
:1004C0000B4600F0E6F803B000BD0EB540F2334134
:1004D00002910021CDE900110A460B4600F0D9F83F
:1004E00003B000BD70B5C1F30A5201F0004500240D
:1004F000C1F3130140F2FF3341F480119A4201DA53
:10050000002070BD40F233439A42A2F2334203DC32
:10051000524200F08DF800E090402C43F1D0404270
:1005200070BD000030B5041E71F1000404DB4FF013
:100530000044404264EB0101141E73F1000405DB2A
:100540001C464FF00043524263EB04038B4208BF4A
:10055000824230BD30B5041E71F1000404DB4FF05F
:100560000044404264EB0101141E73F1000405DBFA
:100570001C464FF00043524263EB0403994208BF0C
:10058000904230BD30B50B460146002020220124A8
:1005900009E021FA02F59D4205D303FA02F5491B51
:1005A00004FA02F52844151EA2F10102F1DC30BD67
:1005B0002DE9F05F0546002092469B468846064698
:1005C000814640241BE0284641464746224600F02B
:1005D0002FF853465A46C01A914110D31146184677
:1005E000224600F016F82D1A67EB01084F46224606
:1005F0000120002100F00DF817EB00094E41201EEC
:10060000A4F10104DFDC484631462A464346BDE8F2
:10061000F09F202A04DB203A00FA02F10020704704
:100620009140C2F1200320FA03F319439040704730
:10063000202A04DB203A21FA02F00021704721FA37
:1006400002F3D040C2F1200291400843194670479E
:10065000202A06DBCB17203A41FA02F043EAE07386
:1006600006E041FA02F3D040C2F120029140084373
:100670001946704710B5141E73F1000408DA401CC7
:1006800041F1000192185B411A4301D120F00100B1
:1006900010BD2DE9F04D92469B4611B1B1FA81F2A1
:1006A00002E0B0FA80F220329046FFF7B2FF044633
:1006B0000F4640EA0A0041EA0B0153465A460843F6
:1006C00013D0114653EA010019D0C8F14002504638
:1006D000FFF7AEFF05460E46504659464246FFF725
:1006E00098FF084305D0012004E020463946BDE8C4
:1006F000F08D0020054346EAE0762C4337430A9804
:100700006305E40AA0EB08000022FD0A44EA47540E
:100710000A3002D500200146E9E7010510196941B8
:10072000DDE9084500196941BDE8F04DA2E72DE972
:10073000F04D81EA030404F0004B21F0004514461B
:100740004FF0000A23F0004150EA050220D054EA9D
:1007500001021DD0C5F30A570246C5F31303C1F3C6
:100760001300C1F30A5640F4801543F48013A7EB3D
:100770000608101BD64608F2FD3873EB050002D3BD
:1007800008F1010801E092185B41B8F1000F03DAAB
:1007900000200146BDE8F08D00204FF48011064690
:1007A00084460EE0171B73EB050705D3121B63EBA2
:1007B000050306434CEA010C49084FEA3000921841
:1007C0005B4150EA0107EDD152EA030012D082EA00
:1007D000040083EA0501084305D0101BAB4106D293
:1007E0000122002306E000224FF0004302E06FF0F8
:1007F000010253101AEB06004CEB085110EB0A00F3
:1008000041EB0B01BDE8F04DFFF734BF70B521F0AF
:10081000004303430CD0C1F30A550024D5EB040573
:1008200064EB0403D617AD1AB34102DB0020014686
:1008300070BD201841EB025170BDC1F30A52C1F3E3
:10084000130140F2FF3341F480119A4202DA002092
:100850000146704740F233439A42A2F2334202DC2F
:100860005242FFF7E5BEFFF7D4BE0000064C074D2D
:1008700006E0E06840F0010394E807009847103470
:10088000AC42F6D3FFF758FCF8A2000818A3000802
:100890002DE9F04D00231A461B1A8A4103DB002084
:1008A0000146BDE8F08DC1F30A52C1F3130141F4D2
:1008B00080154FF0000BD10702D100186D41521E78
:1008C0000027044640F2FF11384601EB620A3E461B
:1008D0008046024600204FF48011FFF7A9FEC2199E
:1008E0007141BB1846EB0100B4EB030C75EB000C37
:1008F00004D3E41A65EB000517460E46241908F1E7
:1009000001006D4180463428E3DDF91946EB06000D
:10091000091BA84103D24FF0FF32134601E0002229
:1009200013461BEB070046EB0A51BDE8F04DFFF7FD
:10093000A1BE70B58C1810F8015B15F0070301D14A
:1009400010F8013B2A1106D110F8012B03E010F832
:10095000016B01F8016B5B1EF9D12B0705D4002355
:10096000521E0DD401F8013BFAE710F8013BCB1AF7
:10097000921C03E013F8015B01F8015B521EF9D5EC
:10098000A142D8D3002070BD18484FF0FF0101707C
:10099000002080F309881648016881F3088815480B
:1009A0004FF08051016062B6FEE772B6EFF3098046
:1009B00028B1203880E8F00F0F490968086000B5B9
:1009C0000E4880475DF804EB0D480E490A78027026
:1009D00009480D490A680260106890E8F00F20305D
:1009E00080F309884EF0040E62B6704722ED00E0F5
:1009F0003C01002004ED00E0340100204D310008EE
:100A0000C2000020C30000203801002070B58AB069
:100A1000064600F059F900F069F900F04DF9044676
:100A20002B480068B4FBF0F5284602F0EBFD00F01F
:100A30009FFE09A801F020FE00F0C6F909AA0021D6
:100A4000012001F0ABFC09AA22A1244801F0BCF866
:100A500009AA23A1244801F0B7F809AA23A125482F
:100A600001F0B2F809A8032100220592CDE9062180
:100A7000089032204FF4007133221F4BCDE9013230
:100A8000CDE90310032000231C4A1DA10090224839
:100A900001F07CFE09A8032100220592CDE9062180
:100AA000089032204FF4007133221C4BCDE9013203
:100AB000CDE9031003200023194A1AA100901E4813
:100AC00001F064FE09A9002001F0B6FF0AB070BD74
:100AD000B4A000084C697374000000008801002075
:100AE0005573617274000000B4010020536F636B92
:100AF00065740000E00100208C060020950B0008C2
:100B00004170705F5461736B5F436865636B5F44F2
:100B10006576696365000000FC0200208C0E0020F1
:100B20003D0B00084170705F5461736B5F5443501C
:100B30005F53657276657200C40300200EB500F045
:100B4000D1FD06F00DFC06F083FC1DE006F0FAFC7A
:100B50000E48007808B106F085FC0D48007800F0DA
:100B6000010040B10A48007820F0010008490870EF
:100B7000002005F069FD02A800210A230A46CDE9FC
:100B80000010084602F0DCFBE0E7000063010020F3
:100B90006201002086B000250124142101A8FFF77E
:100BA0001CFB80E03F2C00DD0024204600F070FBA1
:100BB0003D490870AD208DF80400DA208DF805005D
:100BC00002208DF806008DF8074020208DF80800DF
:100BD00003208DF80900062101A806F0FDF900BFE9
:100BE00000BF00BFFFF7C4FA054600BF00F018F9C8
:100BF00000BF2E480078401C2C4908700846007839
:100C0000012801D103F0B4FE00BF00F023F900BFBA
:100C10002846FFF7B1FA00BF00BF00BF802124487B
:100C200000F007FC20B18021214800F00BFC03E01C
:100C300080211F4800F008FC00BF00BF00BFFFF785
:100C400097FA054600BF00F0EBF800BF17480078A0
:100C5000401E1649087008460078D0B903F096FE89
:100C60001448008800280BDD00BF00F0F3F800BF37
:100C70002846FFF781FA00BF00BF03F04BFE11E0EA
:100C800000BF00F0E7F800BF2846FFF775FA00BF85
:100C900008E000BF00F0DEF800BF2846FFF76CFA5E
:100CA00000BF00BF00BF7DE71C000020DC0000206B
:100CB000001C0140A000002000B585B0684605F08A
:100CC0004FFD019805B000BD10B500F0C1FC00F06B
:100CD000F3FC06F089FA00F0E3FD0249086006F033
:100CE000F5FA10BD1800002000BFFEE710B500F0B7
:100CF000FBF800F003F800F0F3F810BD70B5002623
:100D000000201849088018490880184908601849C7
:100D100008601849086018490860184908600024EC
:100D200000BFFFF725FA064600BF00250BE00020B4
:100D30001049086000F074F800F08CF80D48006865
:100D40000444681C85B2002DF1D00C4804600020DA
:100D5000084908600849086000BF3046FFF70CFAF0
:100D600000BF70BD4C0000204E000020500000204D
:100D7000540000205C00002060000020580000208B
:100D800001460846044A1268904203D9024A126892
:100D9000801A00E0002070475800002070B5002540
:100DA00000BFFFF7E5F9054600BF0648046800BF2D
:100DB0002846FFF7E1F900BF2046FFF7E1FF0646AE
:100DC000304670BD5C00002070B50025FFF7E6FFDF
:100DD000044600BFFFF7CCF9054600BF00200449D8
:100DE000086000BF2846FFF7C7F900BF204670BD66
:100DF0005C00002070B5002500BFFFF7B9F905467B
:100E000000BF0648046800BF2846FFF7B5F900BFD9
:100E10002046FFF7B5FF0646304670BD6000002053
:100E200010B509480088401C074908800748008819
:100E300018B900F083F80649086004480088401C8F
:100E40000249088010BD00004C0000204E00002028
:100E50005000002010B50F480088401E0D49088042
:100E600008460088A0B900F069F80B4908600846F8
:100E700000680A490968441A09480068A04201D27A
:100E80000748046007480068A04201D20548046092
:100E900010BD00004E000020540000205000002033
:100EA0005C0000206000002010B5002400BF00BFDF
:100EB000FFF75EF9044600BFFFF7B2FF00BF102145
:100EC000064800F04BFC00BFFFF7C4FF00BF204600
:100ED000FFF752F900BF00BF10BD0000A05A00206C
:100EE00010B5FFF7E1FF10BD10B500200249086002
:100EF00000F00AF810BD0000480000200149086019
:100F0000704700004800002010B50A48006840F013
:100F1000807008490860002007494860084600685A
:100F200040F001000860FFF7C7FE04462046FFF7C7
:100F3000E5FF10BDFCED00E0001000E00148406856
:100F400070470000001000E02DE9F04704462046FD
:100F500000F09EF900282AD007F0BAF9804615A0C3
:100F600007F0BFF905462A4615A1404607F086F965
:100F700014A007F0B6F905462A4614A1404607F02A
:100F80007DF92046FFF7A1FA064607F08FF90546DE
:100F90002A4610A1404607F071F9404607F038FA9A
:100FA0008146404607F0ACF9484607F01FFCBDE813
:100FB000F08700006865617274626561740000000A
:100FC000636D640070657266653100006D6F646505
:100FD0006C00000061646472000000002DE9F04FB5
:100FE000E7B005460E4691461C46DDF8C4B1DDF873
:100FF000C0A1C82133A8FFF7F0F8C82101A8FFF766
:10100000ECF833AB4A463146284600F01FFA01AAF5
:101010005146204600F08CFA07F05AF966901EA05F
:1010200007F05FF907463A461DA1669807F026F9D2
:101030001CA007F056F907463A461CA1669807F02F
:101040001DF95846FFF741FA074607F02FF9024607
:1010500018A10090669807F011F933A807F041F93C
:1010600007463A4615A1669807F008F901A807F067
:1010700038F907463A4612A1669807F0FFF86698D5
:1010800007F0C6F96590669807F03AF9659807F099
:10109000ADFB67B0BDE8F08F7265706F72740000D1
:1010A000636D640070657266653100006D6F646524
:1010B0006C0000006164647200000000696F000051
:1010C00072656C6179000000704700001FB53648FA
:1010D0000078401CC0B28DF8080033484078401CAE
:1010E000C0B28DF8090030488078401CC0B28DF83D
:1010F0000A002D48C078401CC0B28DF80B0002AA2F
:101100000C21002006F046FB01220021084606F0D3
:1011100005FB01221146002006F000FB03A8002178
:1011200005230A46CDE90010084602F009F903211B
:10113000002005F035FC132807D0102201210020E3
:1011400006F0ECFA002004B010BD042201210020BA
:1011500006F0E4FA00BF00240221002005F020FC84
:10116000044624B122460221002006F0D7FA03A843
:10117000002105230A46CDE90010084602F0E0F8F8
:1011800004F00800082801D10020DCE70621002037
:1011900005F006FCFF2806D010220121002006F0F1
:1011A000BDFAFF20CFE7D6E74E01002010B5102092
:1011B00000F010F828B1102000F006F801200149D5
:1011C000087010BD630100200149086070470000ED
:1011D00014040140014600200022074B1B6803EA6B
:1011E0000102054B14331B680B4013B10AB10120F7
:1011F00000E0002070470000000401400021234966
:101200008279002A3AD00A46126803689A430B464C
:101210001A600A1D126803689A430B1D1A6002794E
:1012200011440A6803681A430A60184A08321268AF
:1012300003689A43154B08331A601A1D1268036835
:101240009A43124B0C331A604279102A0ED11A1F9E
:10125000126803681A430D4B08331A601A1D12688E
:1012600003681A43094B0C331A600DE007494279B1
:1012700011440A6803681A430A6005E002791144C0
:101280000A6803689A430A6070470000000401403E
:101290007CB505460F480068446901A800231A463A
:1012A000194600900C4800F003FD0AE02078A8429F
:1012B00006D101AA0021084800F08EFE01207CBD65
:1012C0006469002CF2D101AA0021034800F084FED9
:1012D0000020F4E7180000208801002030B500222B
:1012E0008B071C0F0F2303FA04F20B4B8C1053F8DF
:1012F00024309343084C8D1044F8253023468C103D
:1013000053F824308C07240F00FA04F42343024CD2
:101310008D1044F8253030BD080001402DE9F04122
:10132000024600250026002000230024002791F813
:1013300003C00CF00F0591F803C00CF0100CBCF1C9
:10134000000F03D091F802C04CEA050591F800C0E7
:10135000BCF1000F31D0146800202BE04FF0010CDD
:101360000CFA00F3B1F800C00CEA03069E4220D14B
:1013700083004FF00F0C0CFA03F7BC4305FA03FC93
:101380004CEA040491F803C0BCF1280F06D14FF0D9
:10139000010C0CFA00FCC2F814C00AE091F803C07A
:1013A000BCF1480F05D14FF0010C0CFA00FCC2F85B
:1013B00010C0401C0828D1D31460B1F800C0BCF1A3
:1013C000FF0F34DD546800202EE000F1080C4FF0D0
:1013D000010808FA0CF3B1F800C00CEA03069E42BB
:1013E00021D183004FF00F0C0CFA03F7BC4305FA30
:1013F00003FC4CEA040491F803C0BCF1280F05D1AA
:1014000000F1080C08FA0CF8C2F8148091F803C037
:10141000BCF1480F07D100F1080C4FF0010808FAA1
:101420000CF8C2F81080401C0828CED35460BDE8E8
:10143000F08102460020D3680B400BB1012000E090
:101440000020704741617047016170472DE9F04706
:101450008046894616461F460024A24600250A20DB
:1014600007F004F982460A2007F000F9054624A097
:101470000088388000BF31E018F8042021A15046D0
:1014800006F0E4F919F8040028B121A001682960E8
:101490004068686006E020A00168296041686960D2
:1014A000008928811EA13846FEF7A2FE5146384623
:1014B000FEF79EFE1BA13846FEF79AFE29463846E7
:1014C000FEF796FE16A13846FEF792FE601CC4B2E7
:1014D000B44203DA14A13846FEF78AFEB442CBDBED
:1014E000504607F06BF8284607F068F84FF0000AFE
:1014F00000250EA13846FEF77BFEBDE8F087000010
:101500007B0000006368616E6E656C5F256400009F
:101510007072657373000000756E7072657373008E
:1015200022000000223A22002C0000007D00000072
:101530002DE9F04780460E4617460024A1460025B7
:101540000A2007F093F881460A2007F08FF8054635
:1015500021A00088388000BF2CE022461FA1484609
:1015600006F074F918F8040028B11FA0018829803A
:101570008078A87002E01DA0006828601CA1384691
:10158000FEF736FE49463846FEF732FE19A13846C8
:10159000FEF72EFE29463846FEF72AFE14A13846ED
:1015A000FEF726FE601CC4B2B44203DA12A138462C
:1015B000FEF71EFEB442D0DB484606F0FFFF284689
:1015C00006F0FCFF4FF0000900250CA13846FEF79D
:1015D0000FFEBDE8F08700007B0000006368616ECD
:1015E0006E656C5F256400006F6E00006F666600BC
:1015F00022000000223A22002C0000007D000000A2
:1016000000BFFEE708B50121042005F099F801208C
:10161000ADF8000028208DF8030069460148FFF767
:101620007DFE08BD0008014008B50121102005F02D
:1016300087F84FF40050ADF8000028208DF8030023
:1016400069460248FFF76AFE08BD0000001001402D
:1016500010B5FFF7D7FFFFF7E7FF10BD08B5012171
:10166000082005F06DF80120ADF8000010208DF87D
:10167000030003208DF8020069460D48FFF74EFE77
:101680000121802005F05CF88020ADF8000069465B
:101690000848FFF743FE0121802005F051F84FF480
:1016A0008070ADF8000069460248FFF737FE08BDBC
:1016B000000C0140001C014010B5FFF7CFFF0121D5
:1016C0000648FFF7C1FE80210548FFF7BDFE4FF435
:1016D00080710348FFF7B8FE10BD0000000C014008
:1016E000001C0140C02016490870A8204870012045
:1016F0008870C870FF2013490870487088700020F7
:10170000C8700C201049087029204870AB208870E0
:101710007C20C8700020087112204871C0200B493D
:101720000870A8204870012088705920C8701320C4
:1017300007490870882048700020064908707047E3
:101740004001002044010020480100204E010020FB
:10175000520100206001002000BFFEE730B50546C1
:101760000C4622460021284600F026F830BD000035
:101770000D480E4901600146416000218160C16051
:10178000016141618161C16101620163C1624162C4
:1017900007498163C1634FF4D84101644164014644
:1017A000044A116070470000B05A0020484541507B
:1017B000F85A0020640000202DE9F04103460C4651
:1017C00017460FB9BDE8F08103B9FBE700250022F9
:1017D00002E02D022543521C042AFAD3384603F0B6
:1017E000030C1946BCF1000F08D0624603E001F873
:1017F000014B401E521C08B1042AF8D30E4601E0EA
:1018000020C6001F0428FBD2314602E001F8014B3C
:10181000401E0028FAD100BFD4E7704770B5002100
:1018200000230F22C47804B3154C246804F4E06448
:10183000C4F5E064210AC1F10403CA40447804FA03
:1018400003F184781440214309010E4C0678A15518
:10185000047804F01F050124AC4005786D11AD003B
:1018600005F1E025C5F8004109E0047804F01F0502
:101870000124AC40044D0678761145F8264070BD31
:101880000CED00E000E400E080E100E002490143EB
:10189000024A1160704700000000FA050CED00E0FC
:1018A00010B5182006F0E2FE1449086008460068EA
:1018B00020B913A005F0BAFF002010BD00200F4989
:1018C000096808700D49096848700C4909688870F2
:1018D0000A480068002140F8031F8180074800681B
:1018E00040F8091F818005480068C0F80F100020EB
:1018F00002490968486101480068DEE718000020D5
:1019000066616C73653100007047000010B50348D4
:10191000006810B101480068804710BD78000020C1
:1019200070B5044600F0C2F80020484908704849E4
:1019300008704849087048490860484908604849A3
:101940000870484908704849087048490860484983
:1019500008604849086048490870484800680A21FA
:10196000B0FBF1F0464908604648006858B1464867
:10197000056845B14348066803E0761E00202860EC
:101980002D1D002EF9D10020404908604049086013
:101990004049086040490860404908604049086083
:1019A000404908604049087002F0FEFD02F0FCFE6C
:1019B000204601F019FF208800B170BD204602F0DA
:1019C00033FB208800B1F8E7204602F039FB20887D
:1019D00000B1F2E7204602F035FC208800B1ECE7C8
:1019E000204602F011FE208800B1E6E7204603F011
:1019F00061F8208800B1E0E7204603F0CBFB2088A7
:101A000000B1DAE7204602F07BFA208800B1D4E783
:101A1000204602F085F8208800B1CEE7204604F089
:101A200021FC208800B1C8E7204603F0F7FA20889F
:101A300000B1C2E7204604F071FC208800B1BCE789
:101A400001F0F8FDFFF760FF00BFB6E78C00002053
:101A500094000020DC000020340100203801002028
:101A6000C2000020C3000020C4000020D0000020DD
:101A7000D4000020D8000020E4000020B4A000081A
:101A8000E000002084A0000880A000086C00002076
:101A90007000002074000020780000207C000020EE
:101AA0008000002084000020120100200A4A1168F2
:101AB000002002E0002204C1401C084A1268904243
:101AC000F8D3054A1268054B1B6802EB8302121F0C
:101AD000034B1A607047000080A0000884A0000833
:101AE0003C01002010B500242E480078012800D0C9
:101AF00010BD00BFFEF73CFB044600BF2A4800783B
:101B000028B900BF2046FEF737FB00BFF0E72648A4
:101B10000078401E2449087008460078002805DD3A
:101B200000BF2046FEF728FB00BFE1E71F48007812
:101B3000002805DD00BF2046FEF71EFB00BFD7E7EB
:101B400002F01EFD1A4908700846007800EB4000BC
:101B5000184951F8200018490860084600681749DC
:101B60000968884205D100BF2046FEF705FB00BF8B
:101B7000BEE711480068D0F89000401C0E49096883
:101B8000C1F890000E480068401C0D4908604FF0F5
:101B900080500C49086000BF2046FEF7EDFA00BFF8
:101BA00000BFA5E7940000208C000020DC0000208E
:101BB000C300002024DD0020380100203401002073
:101BC0000801002004ED00E02DE9F04104460E4636
:101BD0001546002732480078002804DD42F6E1600F
:101BE0002880BDE8F0811CB945F6C3502880F8E78D
:101BF00000BF00BF00BFFEF7BBFA074600BFFFF7FC
:101C00000FF900BF27480078401C26490870084695
:101C10000078012801D102F0ABFE00BFFFF71AF9EE
:101C200000BF3846FEF7A8FA00BF00BF00BF1E483D
:101C3000206066600020206284F82500A0622020D9
:101C400084F8240004F1080002F0B3FB204602F0FF
:101C5000E1FA16480088401C1449088000BF00BF04
:101C600000BFFEF785FA074600BFFFF7D9F800BFAF
:101C70000C480078401E0B4908700846007808B9E7
:101C800002F084FE00BFFFF7E5F800BF3846FEF71C
:101C900073FA00BF00BF00BF0020288000BFA0E78C
:101CA0008C000020DC0000204D555458C00000205E
:101CB0002DE9F04788B00546894690461C46109E9F
:101CC0004FF0000ABF480078002805DD46F2AE104C
:101CD000308008B0BDE8F0871DB945F6C3503080AC
:101CE000F7E7B8F1000F03D0B8F5004F02D100E0DC
:101CF00000BF03E045F625603080EAE700BFB24947
:101D00002868884203D045F6C4503080E1E70CB122
:101D10000020206000BF00BFFEF72AFA824600BF05
:101D2000FFF77EF800BF95F82500D0B9A7480068F6
:101D30002862A648006890F8370085F82400012042
:101D400085F825000CB1A86A206000BFFFF782F873
:101D500000BF5046FEF710FA00BF00BF00203080E1
:101D6000B7E79A49286A0968884214D195F825008E
:101D7000401C85F825000CB1A86A206000BFFFF761
:101D800069F800BF5046FEF7F7F900BF00BF45F203
:101D9000827030809DE708F4004060B100BFFFF71B
:101DA00059F800BF5046FEF7E7F900BF00BF46F202
:101DB000B01030808DE78648007800280CDD00BF29
:101DC000FFF748F800BF5046FEF7D6F900BF00BF46
:101DD00046F6635030807CE700BF7D480078401CA9
:101DE0007B49087008460078012801D102F0C0FD47
:101DF00000BFFFF72FF800BF5046FEF7BDF900BF48
:101E000000BF00BF2F6A97F837007049096891F842
:101E1000371088426ADD97F8360008282AD2DFE8B2
:101E200000F004151E1F17162021384602F044FD4D
:101E30006648006890F8370087F8370097F8370051
:101E400002F0BEFB384602F0D7FC4EE000BF00BFF8
:101E50005E48006890F8370087F8370045E000BF1B
:101E600000BF00BF5948006890F83710384602F0AC
:101E70007DFA3AE000BF00BF00BFFEF779F9824665
:101E800000BFFEF7CDFF00BF51480078401E50490B
:101E9000087008460078D0B902F078FD4D480088F7
:101EA00000280BDD00BFFEF7D5FF00BF5046FEF750
:101EB00063F900BF00BF02F02DFD11E000BFFEF787
:101EC000C9FF00BF5046FEF757F900BF08E000BF4A
:101ED000FEF7C0FF00BF5046FEF74EF900BF00BF3F
:101EE00000BF46F62D603080F3E600BF4B4604226B
:101EF0002946684602F0B2F900BF00BF00BFFEF7F6
:101F000037F9824600BFFEF78BFF00BF30480078EC
:101F1000401E2F4908700846007808B902F036FDC7
:101F200000BFFEF797FF00BF5046FEF725F900BF40
:101F300000BF00BF00F0A0F900BF00BFFEF718F916
:101F4000824600BFFEF76CFF00BF2048006890F893
:101F5000350030B101280CD002281AD0032821D135
:101F600010E01CB119480068006C2060002030802F
:101F70001CE01CB115480068006C206046F2A910F6
:101F8000308013E00CB10020206047F2D92030806F
:101F90000CE01CB10D480068006C206045F6C25092
:101FA000308003E046F62E60308000BF00BF00BFE7
:101FB000FEF750FF00BF5046FEF7DEF800BF00BF3F
:101FC00000BF86E68C0000204D5554583401002097
:101FD000DC000020A00000202DE9F84F04468846D0
:101FE00015464FF0000A9E480078002804DD46F2AE
:101FF0000E202880BDE8F88F1CB945F6C350288014
:10200000F8E7B8F1000F03D0B8F5004F02D100E0B7
:1020100000BF03E045F625602880EBE700BF91494B
:102020002068884203D045F6C4502880E2E700BF0C
:1020300000BFFEF79DF8824600BFFEF7F1FE00BF2D
:102040008949206A096888420CD000BFFEF702FF68
:1020500000BF5046FEF790F800BF00BF45F2817008
:102060002880C7E700BF81480078401C7F4908707E
:1020700008460078012801D102F07AFC00BFFEF783
:10208000E9FE00BF5046FEF777F800BF00BF00BF73
:10209000FEF754FF0746A76294F82500401E84F817
:1020A000250094F8250000283ADD00BF00BF00BFDE
:1020B000FEF75EF8824600BFFEF7B2FE00BF6B4837
:1020C0000078401E6949087008460078D0B902F0CF
:1020D0005DFC6748008800280BDD00BFFEF7BAFEF4
:1020E00000BF5046FEF748F800BF00BF02F012FCE8
:1020F00011E000BFFEF7AEFE00BF5046FEF73CF811
:1021000000BF08E000BFFEF7A5FE00BF5046FEF787
:1021100033F800BF00BF00BF45F28370288069E735
:1021200004F10809B9F8080080BB0020206284F897
:10213000250000BF00BF00BFFEF71AF8824600BFAF
:10214000FEF76EFE00BF49480078401E4749087000
:1021500008460078D8B902F019FC454800880028E4
:102160000BDD00BFFEF776FE00BF5046FEF704F819
:1021700000BF00BF02F0CEFB12E000BFFEF76AFE18
:1021800000BF5046FDF7F8FF00BF09E00CE000BFBC
:10219000FEF760FE00BF5046FDF7EEFF00BF00BF38
:1021A00000BF0020288025E72F48006890F83700FE
:1021B00094F82410884219D02B48006802F07CFB68
:1021C00094F824002849096881F8370026490968ED
:1021D00091F8370002F0F4F92348006802F02CFB74
:1021E0002148006890F8370022490870D9F80000AB
:1021F0008668266296F8370084F82400012084F867
:10220000250000231A4631462046009702F042F985
:1022100000BF00BF00BFFDF7ABFF824600BFFEF767
:10222000FFFD00BF11480078401E104908700846A5
:10223000007808B902F0AAFB00BFFEF70BFE00BF52
:102240005046FDF799FF00BF00BF00BF08F40040F3
:1022500008B900F011F80020288000BFCAE600008D
:102260008C0000204D55545834010020DC00002023
:10227000A0000020C200002010B5002420480078F3
:10228000002800DD10BD1F480078002800DDF9E7B8
:1022900000BFFDF76DFF044600BF02F071F91A4957
:1022A00008700846007800EB4000184951F82000FB
:1022B000174908600846006816490968884205D130
:1022C00000BF2046FDF758FF00BFDBE7104800685D
:1022D000D0F89000401C0E490968C1F890000E48E3
:1022E0000068401C0C4908604FF080500B490860A2
:1022F00000BF2046FDF740FF00BF00BFC2E700005F
:102300008C000020DC000020C300002024DD002021
:1023100038010020340100200801002004ED00E015
:1023200070B5044600251A480078002803DD46F6FB
:102330006250208070BD17480078012803D045F610
:1023400089602080F6E714480078FA2803DB45F21C
:1023500009202080EEE700BF00BFFDF709FF05461A
:1023600000BFFEF75DFD00BF0B480078401C0A4926
:10237000087002F0FDFA00BFFEF76CFD00BF2846B2
:10238000FDF7FAFE00BF00BF0020208000BFD1E7AC
:102390008C00002094000020DC0000202DE9F0419A
:1023A00005460C461646002700BF00BFFDF7E0FEBD
:1023B000074600BFFEF734FD00BF012D03D000200B
:1023C0000E49087002E001200C49087014B10C4855
:1023D000046006E00B4800680A21B0FBF1F00849F0
:1023E000086000BFFEF736FD00BF3846FDF7C4FEAB
:1023F00000BF00BF00203080BDE8F081E400002075
:10240000E0000020B4A0000870B504460025234871
:102410000078002803DD46F66550208070BD204816
:102420000078012803D045F689602080F6E71D4832
:10243000007818B946F664502080EFE700BF00BF6F
:10244000FDF796FE054600BFFEF7EAFC00BF154803
:102450000078401E134908700846007800280CDDFB
:1024600000BFFEF7F7FC00BF2846FDF785FE00BF62
:1024700000BF46F663502080D0E702F087FA00BF25
:10248000FEF7E8FC00BF2846FDF776FE00BF00BF60
:10249000FFF7F2FE0020208000BFBFE78C00002085
:1024A00094000020DC00002010B50446124800789B
:1024B000E8B902F065F8114908700846007810493B
:1024C00008700E48007800EB40000E4951F82000DB
:1024D0000D490860084600680C490860012006495B
:1024E0000870FEF751FA43F69920208002E045F685
:1024F0008A60208010BD000094000020C3000020EE
:10250000C200002024DD002038010020340100201A
:102510002DE9F04107464FF0000800BF00BFFDF76E
:1025200027FE804600BFFEF77BFC00BF0020474926
:10253000086047490880474908804749086047497B
:1025400008604749086047490860474908604749AB
:10255000088100BFFEF77EFC00BF4046FDF70CFE81
:1025600000BF00BF00BF00BFFDF702FE804600BFF6
:10257000FEF756FC00BF3E48046800BFFEF76AFC49
:1025800000BF4046FDF7F8FD00BF00BF26E000BFDA
:1025900000BFFDF7EDFD804600BFFEF741FC00BF28
:1025A00000207834E063206420602063A061A08272
:1025B000E0826062A062FEF7C1FC2062783C04F118
:1025C00064060020B081D4F8C04000BFFEF742FC92
:1025D00000BF4046FDF7D0FD00BF00BF002CD6D1A4
:1025E00000BF00BFFDF7C4FD804600BFFEF718FC2A
:1025F00000BF2048056800BFFEF72CFC00BF404626
:10260000FDF7BAFD00BF00BF16E000BF00BFFDF739
:10261000AFFD804600BFFEF703FC00BF05F12006BA
:102620000020B081AD6900BFFEF714FC00BF40463A
:10263000FDF7A2FD00BF00BF002DE6D103F0DAFCDC
:1026400003F068FF00203880BDE8F081A80000207A
:10265000A2000020F2000020040100201801002048
:102660002401002090000020D400002018DD00206C
:102670000C010020C8000020F8B504460026694679
:10268000364800F033FDBDF8000018B1BDF8000079
:102690002080F8BD6A460021022000F0A9FDBDF8A7
:1026A000000018B1BDF800002080F2E700BF00BFB5
:1026B000FDF75EFD064600BFFEF7B2FB00BF00203F
:1026C0002749086000BFFEF7C5FB00BF3046FDF795
:1026D00053FD00BF00BF0025224800682249096859
:1026E000884205D91F4800681F490968B0FBF1F509
:1026F00025B91C4800680A21B0FBF1F56A460021A3
:10270000284600F075FD6946144800F0A5FABDF8AA
:10271000000018B1BDF800002080BAE700BF00BF7C
:10272000FDF726FD064600BFFEF77AFB00BF00203E
:102730000E4908600A4800680D49086001200D49EB
:10274000087000BFFEF786FB00BF3046FDF714FDA2
:1027500000BF00BF0020208000BF9AE734E00020C7
:10276000F4000020B4A000089CA000080401002090
:10277000F80000200001002010B50348006810B1E7
:1027800001480068804710BD7C0000202DE9FF4F04
:1027900087B004469046DDE91BA5DDE91496179F36
:1027A0000020039095480078002805DD47F24A1084
:1027B00028800BB0BDE8F08F1CB947F2AD1028801F
:1027C000F7E7B8F1000F03D147F24F102880F0E788
:1027D0001EB946F62F602880EBE7894800688742DB
:1027E00003D246F630602880E3E71698B84203D358
:1027F00046F631602880DCE7B9F1200F03D346F2BA
:1028000073202880D5E7B9F1000F06D17D488442B6
:1028100003D046F273202880CBE7B9F11F0F06D111
:102820007948844203D046F273202880C1E72046CD
:1028300002F0C0FC002028800AF0010090B10AF0EC
:10284000020078B105960020069008E00021059866
:1028500001600598001D05900698401C069006989A
:10286000B842F3D3169806EB80000490CDE9007AC5
:1028700032464046049B0A9900F0D8FB0590C4F804
:1028800028800A98E0620898206284F837900598BA
:1028900020600498A06019986065199818B95B4881
:1028A0000068A06501E01998A0651A9860606662EA
:1028B000A763A4F83CA04FF0000B08E0002104F14E
:1028C0007C0040F82B100BF1010000F0FF0BBBF176
:1028D000000FF3D004F16400189901F011FC2046B8
:1028E00000F09EF800BF00BF00BFFDF741FC039061
:1028F00000BFFEF795FA00BF45480078401C4449E8
:10290000087008460078012801D102F031F800BFB4
:10291000FEF7A0FA00BF0398FDF72EFC00BF00BF32
:1029200000BF94F8370001F04BFE204601F084FF11
:10293000204602F0F5FB37480088401C35490880E6
:1029400035480078012837D000BF00BF00BFFDF731
:102950000FFC039000BFFEF763FA00BF2C4800781D
:10296000401E2B49087008460078D0B902F00EF8D6
:102970002A48008800280BDD00BFFEF76BFA00BF75
:102980000398FDF7F9FB00BF00BF01F0C3FF11E0A2
:1029900000BFFEF75FFA00BF0398FDF7EDFB00BF35
:1029A00008E000BFFEF756FA00BF0398FDF7E4FB0E
:1029B00000BF00BF00BFFCE600BF00BF00BFFDF7C7
:1029C000D7FB039000BFFEF72BFA00BF104800783A
:1029D000401E0F4908700846007808B901F0D6FF7C
:1029E00000BFFEF737FA00BF0398FDF7C5FB00BF35
:1029F00000BF00BFFFF740FC00BFDAE68C000020FC
:102A0000B0A0000850DC002088DB0020E00000209F
:102A1000DC0000201001002094000020A000002015
:102A200010B504460348006818B1204601490968FA
:102A3000884710BD6C00002070B504460D46002686
:102A400078480078002803DD47F24E10288070BDDA
:102A50007548844203D147F24C102880F7E7734849
:102A6000844203D147F24D102880F0E79CB900BFA3
:102A700000BFFDF77DFB064600BFFEF7D1F900BFA2
:102A80006B48046800BFFEF7E5F900BF3046FDF76C
:102A900073FB00BF00BF00BF00BF00BFFDF768FBB6
:102AA000064600BFFEF7BCF900BF62480078401C34
:102AB0006049087008460078012801D101F058FFEC
:102AC00000BFFEF7C7F900BF3046FDF755FB00BF5A
:102AD00000BF00BF94F8360008282DD2DFE800F0D0
:102AE00004090E10080A0F11204601F0E5FE5EE011
:102AF0005DE000BF204603F061FA58E000BF00BF70
:102B000000BF204603F05AFA94F83400082810D287
:102B1000DFE800F004070508090A0B0600BF00BF44
:102B200008E000BF00BF00BF00BF204601F079FCF5
:102B300000E000BF00BF3AE000BF00BF00BFFDF7EC
:102B400017FB064600BFFEF76BF900BF3948007857
:102B5000401E3849087008460078D0B901F016FFC9
:102B60003548008800280BDD00BFFEF773F900BF71
:102B70003046FDF701FB00BF00BF01F0CBFE11E0C6
:102B800000BFFEF767F900BF3046FDF7F5FA00BF5A
:102B900008E000BFFEF75EF900BF3046FDF7ECFA33
:102BA00000BF00BF00BF46F62D6028804FE700BF82
:102BB00004F1640001F082FA204600F041F820465A
:102BC00002F0C6FA1D480088401E1C4908802046B5
:102BD00002F0F0FAFF2084F8360000BF00BF00BF0B
:102BE000FDF7C6FA064600BFFEF71AF900BF114806
:102BF0000078401E0F4908700846007808B901F0B7
:102C0000C5FE00BFFEF726F900BF3046FDF7B4FA57
:102C100000BF00BF00BF00202880FFF72DFB00BFD2
:102C200015E700008C00002088DB002050DC00202D
:102C300034010020DC000020A00000201001002052
:102C400010B504460348006818B1204601490968D8
:102C5000884710BD700000207FB504460D46002651
:102C600000BF00BFFDF784FA064600BFFEF7D8F8A4
:102C700000BF1CB11748006884420CD100BFFEF7AA
:102C8000E9F800BF3046FDF777FA00BF00BF47F212
:102C9000571028807FBD00BFFEF7DCF800BF30462C
:102CA000FDF76AFA00BF00BF0B48007800280BDD73
:102CB000002000900190034602462146CDE902051E
:102CC000064800F065FFE5E72946204602F01EFCB5
:102CD00000BFDFE7340100208C0000205452455330
:102CE00010B504460348006818B120460149096838
:102CF000884710BD740000202DE9F04780460E463D
:102D000014461D464FF000098C480078002805DD68
:102D100046F2AE1028800020BDE8F0871EB1B6F55F
:102D2000004F02D100E000BF04E045F62560288096
:102D30000020F1E700BF0CB10020206000BF00BF01
:102D4000FDF716FA814600BFFEF76AF800BF7C481F
:102D50000068406CB8B37A480068406C401E7849FF
:102D60000968486476480068476C1CB1744800687C
:102D7000006C2060FEF7E2F871490968096C401A9E
:102D80006F490968C1F8A4006D480068D0F8A80030
:102D90006B490968D1F8A410884207D268480068D6
:102DA000D0F8A40066490968C1F8A80000BFFEF782
:102DB00051F800BF4846FDF7DFF900BF00BF002013
:102DC00028803846A8E7FFE706F4004068B100BF56
:102DD000FEF740F800BF4846FDF7CEF900BF00BF40
:102DE00046F2B0102880002096E756480078002868
:102DF0000DDD00BFFEF72EF800BF4846FDF7BCF919
:102E000000BF00BF46F663502880002084E700BF63
:102E10004C480078401C4B4908700846007801284F
:102E200001D101F0A5FD00BFFEF714F800BF484630
:102E3000FDF7A2F900BF00BF00BF434607220021F3
:102E4000084601F00BFA00BF00BF00BFFDF790F984
:102E5000814600BFFDF7E4FF00BF3A480078401EFE
:102E6000384908700846007808B901F08FFD00BFA6
:102E7000FDF7F0FF00BF4846FDF77EF900BF00BF39
:102E800000BFFFF7F9F900BF00BFFDF771F98146F8
:102E900000BFFDF7C5FF00BF2948006890F8350066
:102EA00020B1012826D0032834D12CE0FCB12448DD
:102EB0000068006C2060FEF741F821490968096C40
:102EC000401A1F490968C1F8A4001D480068D0F8DD
:102ED000A8001B490968D1F8A410884207D21848F5
:102EE0000068D0F8A40016490968C1F8A8000020BD
:102EF000288013E01CB112480068006C206046F284
:102F0000A91028800AE00CB10020206047F2D920E7
:102F1000288003E046F62E60288000BF00BF0848E6
:102F20000068476C00BFFDF795FF00BF4846FDF7FE
:102F300023F900BF00BF3846EEE600008C000020F9
:102F400034010020DC0000202DE9F04705460E4644
:102F500017461C464FF0000A32480078002804DD6E
:102F600047F259102080BDE8F0871EB946F2D520FF
:102F70002080F8E71FB946F2D5202080F3E700BF94
:102F800000BFFDF7F5F8824600BFFDF749FF00BF1F
:102F90000DB925480568286878B900BFFDF75AFFC4
:102FA00000BF5046FDF7E8F800BF00BF00203060CA
:102FB000386047F252102080D5E795F83C0000F0C9
:102FC000010078B900BFFDF745FF00BF5046FDF78F
:102FD000D3F800BF00BF00203060386047F25410C3
:102FE0002080C0E700BFFDF735FF00BF5046FDF76A
:102FF000C3F800BF00BF4FF00008D5F8249003E0ED
:1030000009F1040908F10108D9F800000028F7D0F7
:10301000C6F80080A86BA0EB080038600020208074
:1030200000BFA0E78C00002034010020F0B504466A
:10303000DDE9055602EB85004FF0807C071F38461E
:10304000C7F800C0071F38463C60DFF89CC0071F68
:103050003846C7F800C04FF0123C071F3846C7F883
:1030600000C04FF0033C071F3846C7F800C04FF0C0
:10307000023C071F3846C7F800C0071F38463B60B0
:10308000071F384639604FF0113C071F3846C7F814
:1030900000C04FF0103C071F3846C7F800C04FF083
:1030A000093C071F3846C7F800C04FF0083C071F0F
:1030B0003846C7F800C04FF0073C071F3846C7F82E
:1030C00000C04FF0063C071F3846C7F800C04FF05D
:1030D000053C071F3846C7F800C04FF0043C071FE7
:1030E0003846C7F800C0F0BD895600087FB50546D0
:1030F0000C461248854203D147F25B1020807FBD09
:103100000F48854203D147F25C102080F7E70D4855
:10311000007800280BDD0020009001900346024655
:103120002946CDE90204084800F032FDE7E72146D0
:10313000284602F089FD00BFE1E7000088DB00209F
:1031400050DC00208C0000205453555370B52448A7
:10315000006810B1224800688047FDF7EFFE044682
:103160002048006820490968884215D01D48006839
:10317000D0F89800201A1B490968C1F89400194832
:103180000068D0F89C0017490968D1F894100844E9
:1031900014490968C1F89C0013480068C0F89840B9
:1031A000FDF712FE05460F480068D0F8B400A842AB
:1031B00003D20C480068C0F8B4500A480068D0F840
:1031C000B8000A490968884205D2084800680549DC
:1031D0000968C1F8B80000200449086070BD00000B
:1031E000800000203401002038010020D800002099
:1031F0002DE9F04105460E46144600274D4800785B
:10320000002804DD47F275202080BDE8F0814A489F
:103210000078002803DD46F663502080F5E736B1DC
:10322000022E05D0042E0AD0082E09D101E000BFDD
:1032300000BF1DB947F27E202080E6E704E003E0EE
:1032400045F625602080E0E700BF00BF00BF00BF5B
:10325000FCF78EFF074600BFFDF7E2FD00BF3648D2
:103260000078401C3449087008460078012801D1D4
:1032700001F07EFB00BFFDF7EDFD00BF3846FCF717
:103280007BFF00BF00BF00BF01202C49096881F807
:1032900036002346324629462848006802F0B0FD31
:1032A0002088F0B100BF00BF00BFFCF761FF0746F8
:1032B00000BFFDF7B5FD00BF1F480078401E1E4946
:1032C00008700846007808B901F060FB00BFFDF700
:1032D000C1FD00BF3846FCF74FFF00BF00BF00BF75
:1032E00093E71648006801F0E7FA00BF00BF00BF8F
:1032F000FCF73EFF074600BFFDF792FD00BF0E48FA
:103300000078401E0C4908700846007808B901F0A2
:103310003DFB00BFFDF79EFD00BF3846FCF72CFFCC
:1033200000BF00BF00BFFEF7A7FF0020208000BF46
:103330006BE700008C000020DC000020340100203E
:103340002DE9FF5F05460E4617469846DDE90EA4B7
:103350000020009081480078002804DD47F27520A5
:103360002080BDE8FF9F7E480078002803DD46F6F8
:1033700063502080F5E70AF00E0BBBF1000F09D077
:10338000BBF1020F07D0BBF1040F10D0BBF1080F47
:103390000ED101E000BF00BFB8F1000F06D12FB978
:1033A00026B91DB947F27E202080DAE704E003E069
:1033B00045F625602080D4E700BF2AF01E0008B142
:1033C000012000E0002003900398012803D145F676
:1033D00025602080C5E7CAF3001002900298C0B9AA
:1033E000B8F57A7F03D347F27B202080B9E73B2FE3
:1033F00003DD47F27A202080B3E73B2E03DD47F25E
:1034000079202080ADE7632D12DD47F278202080FF
:10341000A7E742F20F70864203DD47F27920208051
:103420009FE7B5F57A7F03DB47F27820208098E7A5
:103430004C48D0F800904FF4FA70B0FBF9F04044DB
:1034400000FB09F04FF47A71B0FBF1F14FF46160C9
:103450006843C6EB061200EB8200384400FB0910FB
:1034600001900198002873D000BF00BF00BFFCF797
:103470007FFE009000BFFDF7D3FC00BF3848007806
:10348000401C3749087008460078012801D101F036
:103490006FFA00BFFDF7DEFC00BF0098FCF76CFE82
:1034A00000BF00BF00BF01202F49096881F8360026
:1034B00023465A462C480199006802F0A1FC208856
:1034C000F0B100BF00BF00BFFCF752FE009000BF8C
:1034D000FDF7A6FC00BF22480078401E2049087076
:1034E0000846007808B901F051FA00BFFDF7B2FCB8
:1034F00000BF0098FCF740FE00BF00BF00BF30E7F0
:103500001948006801F0D8F900BF00BF00BFFCF700
:103510002FFE009000BFFDF783FC00BF104800782D
:10352000401E0F4908700846007808B901F02EFACD
:1035300000BFFDF78FFC00BF0098FCF71DFE00BF29
:1035400000BF00BFFEF798FE0020208003E0FFE7E9
:1035500047F27E20208000BF03E700008C0000209F
:10356000DC000020B4A000083401002010B586B0B3
:1035700000F01EF8FDF7E2FC044605A800210091CA
:10358000CDE9011403900748007800EB4000064A9B
:1035900002EB800100231A46044800F0F9FA06B055
:1035A00010BD0000C200002024DD00205449434B20
:1035B00010B50348006810B101480068804710BD8D
:1035C0008400002010B5002400BF00BFFCF7D0FD30
:1035D000044600BFFDF724FC00BF09480078401CEA
:1035E0000749087000BFFDF735FC00BF2046FCF717
:1035F000C3FD00BF00BFFFF7B9FFFEF773FA10BDB0
:103600008C00002001464A1E4FF0E0235A61084A10
:10361000106820F07F4000BF10601A46126942F027
:1036200005021A611A46126942F002021A617047D5
:1036300020ED00E0254A2649264A274A2749284AFC
:103640002848294A294A2A4A2A4A2B482B482C48E2
:103650002C4A2D482D4A2E482E4A2F482F483048B4
:103660003048314A314A324A3248334A334A344880
:10367000344835483548364836483748374A384A56
:10368000384A394A39483A483A483B4A3B4A3C4A20
:103690003C483D483D483E493E483F4A3F4A404AF3
:1036A000404A414A414A424A4248434A434A4448BE
:1036B0004448454A454A4648464A474A4748484892
:1036C000484800BF00BF00BF70470000F8A00008D6
:1036D00060A20008F9A00008FAA00008FCA00008F9
:1036E00000A1000804A1000801A100082CA1000805
:1036F0002DA100082EA1000830A1000832A1000869
:1037000034A1000836A1000838A1000858A100081B
:103710005AA100085CA100085EA1000860A1000891
:1037200062A1000864A1000890A1000891A100080E
:1037300092A1000894A1000896A1000897A1000892
:1037400098A100089AA100089CA100089EA1000869
:10375000A0A10008A2A10008A4A10008D4A100080B
:10376000D5A10008D6A10008D7A10008D8A100085B
:10377000DAA10008DCA1000804A2000805A20008E4
:1037800006A2000807A2000808A200080AA2000872
:103790000CA2000810A2000811A2000812A2000842
:1037A00013A2000814A2000815A2000816A200081F
:1037B00017A2000818A200081AA200081BA20008FD
:1037C0001CA200081EA2000820A2000821A20008D6
:1037D00024A2000858A2000859A200085AA2000812
:1037E0005CA200085EA200080021034A1160034A9F
:1037F0001180018070470000AC000020B000002064
:103800002DE9F04F85B00446894692469B46DDF887
:1038100038800020009000BF00BFFCF7A9FC00909A
:1038200000BFFDF7FDFA00BFBAF1000F0AD0BAF1F0
:10383000010F0DD0BAF5004F05D06FF40040504491
:1038400060B906E000BF206A40EA0900206216E085
:1038500000BF206A20EA0900206210E000BFFDF7E7
:10386000F9FA00BF0098FCF787FC00BF00BF45F6DF
:103870002560A8F80000002005B0BDE8F08F00BF6B
:10388000C4F824B004F1080001900198008968B9D7
:1038900000BFFDF7DFFA00BF0098FCF76DFC00BF2A
:1038A00000BF0020A8F80000206AE5E700BF7148CB
:1038B0000078401C6F49087008460078012801D143
:1038C00001F056F800BFFDF7C5FA00BF0098FCF7FD
:1038D00053FC00BF00BF00BF01980768BD6889E0C6
:1038E0007868029095F8880000F00F000390039824
:1038F000012821D002282ED0042802D0082836D151
:103900000EE0206AD5F8801000EA0106D5F88000A4
:10391000B04204D15A463146284600F0AFF863E081
:10392000206AD5F8801000EA010626B15A463146D1
:10393000284600F0A3F857E0D5F88000216A20EA75
:103940000106D5F88000B04204D15A4631462846D7
:1039500000F094F848E0D5F88000216A20EA0106DA
:1039600026B15A463146284600F088F83CE000BFB0
:1039700000BF00BFFCF7FCFB009000BFFDF750FA52
:1039800000BF3C480078401E3A490870084600785D
:10399000D0B900F0FBFF3848008800280BDD00BFDD
:1039A000FDF758FA00BF0098FCF7E6FB00BF00BF28
:1039B00000F0B0FF11E000BFFDF74CFA00BF009827
:1039C000FCF7DAFB00BF08E000BFFDF743FA00BFD9
:1039D0000098FCF7D1FB00BF00BF00BF43F6FF20FB
:1039E000A8F80000002047E700BF029F0FB1BD68A4
:1039F00000E00025002D7FF473AF00BF00BF00BFC3
:103A0000FCF7B6FB009000BFFDF70AFA00BF1948AB
:103A10000078401E174908700846007808B900F081
:103A2000B5FF00BFFDF716FA00BF0098FCF7A4FB36
:103A300000BF00BF00BF0AF4004008B9FEF71CFC3D
:103A400000BF00BFFCF794FB009000BFFDF7E8F952
:103A500000BF206A049000BFFDF7FCF900BF00988A
:103A6000FCF78AFB00BF00BF0020A8F80000049804
:103A700002E70000DC000020A000002070B5044632
:103A80000E46154634342665002060702070E560CF
:103A9000A078343C082816D2DFE800F004050809B5
:103AA0000706101100BF00BF00BF0DE000BF204699
:103AB00001F01EFD002084F8360005E000BF042060
:103AC00084F8360000E000BF00BF204600F0A9FCEB
:103AD00070BD0000002400BF1DE000BF00BFFCF768
:103AE00047FB044600BFFDF79BF900BF0A4800688A
:103AF000401C0949086009480068401C07490860E3
:103B000000BFFDF7A7F900BF2046FCF735FB00BF5B
:103B100000BFFDF7FBFEE0E788000020F400002076
:103B200010B58AB0044600200E4908600B20002121
:103B30000591CDE90704069108460B4909680B4A2F
:103B400012680B4B1B68CDE90132CDE903101F2031
:103B50000023084A08A100900C48FEF717FE0AB09F
:103B600010BD0000880000205CA0000858A00008DC
:103B700054A00008D53A000875432F4F532D4949EA
:103B8000492049646C65205461736B0088DB002018
:103B90002DE9F84F04460D4616461F46DDE90BABEE
:103BA000DDF82890DDF834800020009000BF00BFD1
:103BB000FCF7DEFA009000BFFDF732F900BF2C4899
:103BC00000882C49098888423EDA29480088401C30
:103BD00027490880284800880988884203DA244851
:103BE000008825490880254800680460234800684B
:103BF000856022480068C6602048006807821F4828
:103C00000068C0F814901D480068A0F818A01B4870
:103C10000068C0F81CB0194800684068174908607F
:103C2000012017490881174808604860002000F00B
:103C3000C7FC1548007818B113480078134908707C
:103C40000020A8F8000008E011480088401C104936
:103C5000088044F25360A8F8000000BFFDF7FAF8AE
:103C600000BF0098FCF788FA00BF00BFBDE8F88FDE
:103C7000A000002068A00008A200002098000020FA
:103C800024DD002050DC0020C2000020C400002001
:103C9000A40000203EB5594800680068584A811ABF
:103CA000904279D00FDC5749084400283ED056494D
:103CB0000844A8B155490844002860D05449084434
:103CC00000286AD13FE053480844002850D05249A8
:103CD0000844002862D0514908440028F1D110E07E
:103CE00002A8464D00902D68EB69444D2D682A8B43
:103CF000424D2D686969414D2D68A868FFF780FD28
:103D00007AE002A93D480068C0693C4DCDE9000158
:103D10002D682B8B394D2D682A8A384D2D68E9681E
:103D2000364D2D68A86800F07BFC65E0334B1B68BE
:103D3000DA69324B1B68198B304B1B68986802ABF1
:103D400000F0C4FE58E002A92C480068C0692B4D61
:103D5000CDE900012D682B8B284D2D682A8A274D2F
:103D60002D68E968254D2D68A86801F08BFA43E0BD
:103D700022490968886802A901F0C8FB3CE01F4B92
:103D80001B68DA691D4B1B68198B1C4B1B689868F4
:103D900002AB01F085FC2FE007E02CE01749096831
:103DA000886802A901F050FF26E01D49097801EB5F
:103DB00041011C4A02EB810000F006FE0F4800683A
:103DC00002AB0021C269184801F06AFC174800687C
:103DD000401E164908600846006858B91448006833
:103DE0000860FDF7ABF8044602AB224600211148FB
:103DF00001F056FC00E000BF00BF3EBD9C0000206B
:103E00005449434BADBAB2BE0DF90BFAF2F8F7FFC5
:103E10000006F6FF00F7FDF700FFEFFF03FE0FFEC1
:103E2000C400002024DD00206CDF002030010020D1
:103E30002C01002034E00020002700BF56E00026BF
:103E400052E000BF00BFFCF793F9074600BFFCF744
:103E5000E7FF00BF2648008898B90020254908815F
:103E60000860486000F0BEFB00BFFCF7F3FF00BF36
:103E70003846FCF781F900BF00BFFEF7FDF90126C7
:103E800032E000BFFCF7E6FF00BF3846FCF774F9EC
:103E900000BF00BFFDF752F80546FFF7FBFEFDF738
:103EA0004DF8441B14480068A04201D21248046037
:103EB00000BF00BFFCF75CF9074600BFFCF7B0FF8E
:103EC00000BF0E48006840680C4908600848008838
:103ED000401E0749088000BFFCF7BCFF00BF384602
:103EE000FCF74AF900BF00BF002EAAD0A7E70000E8
:103EF000A000002024DD0020A80000209C0000205D
:103F0000F0B589B005460020314908803148006885
:103F100020B944F25260288009B0F0BD2E480088D4
:103F2000022803DA44F254602880F5E700202B4988
:103F30000860284804682646203600270CE02848F8
:103F400020600020A060E0602082606120836660C5
:103F500020342036781C87B21F4800888742EEDB69
:103F6000203C1C48066866601E4806601E480660C5
:103F700000201E4908801E4908801E48006818B9A4
:103F800044F255602880C7E71B4800681B49096850
:103F9000884203D244F256602880BDE70320002106
:103FA0000591CDE90705069113480068144A126887
:103FB000104B1B68CDE90301CDE9013200910B469E
:103FC000104A11A11748FEF7E1FB00BFA4E700006B
:103FD000A400002064A0000868A00008A800002039
:103FE0004E4F4E45980000209C000020A00000206D
:103FF000A200002070A0000878A00008B0A000086F
:1040000074A00008393E000875432F4F532D4949CD
:104010004920495352205175657565205461736B71
:104020000000000050DC00200021034A1160034A18
:104030001180018070470000B4000020B80000200B
:1040400070B501461A4D2D681DB945F21E750D80DB
:1040500070BD184D2D881DB945F21D750D80F7E70F
:10406000134D28682A681032124D2D886D1EACB28F
:10407000002308E00260002545600581C56010301E
:1040800010325D1CABB2A342F4DB00250560456035
:104090000581C560064D2D68074E3560054D2D889C
:1040A000B5800025F58035810D8000BFD0E7000088
:1040B00094A000088CA0000818DD002010B501466F
:1040C00048894B89002B17DD0A680C4B1B6813606D
:1040D0000A4C4B6823602346DB884C891B1B074C2A
:1040E000E38023469B884C892344044CA38000230F
:1040F0004B818B810B604B6010BD000018DD0020F0
:10410000018100224281828102604260704700008A
:104110002DE9F0410D46DDE90674B0F80AC0B0F8AB
:104120000880C44505DB46F2935CA4F800C0BDE8F6
:10413000F081DFF8DCC0BCF804C0BCF1000F04D192
:1041400045F21D7CA4F800C0F1E7DFF8C4C0DCF83C
:104150000010DFF8BC80D1F800C0C8F800C0C44629
:10416000BCF804C0ACF1010CA8F804C0C446BCF80B
:1041700006C00CF1010CA8F806C0C446BCF808C083
:10418000B8F80680C44507DADFF884C0BCF806C07A
:10419000DFF87C80A8F808C0B0F80AC0BCF1000FB6
:1041A0000AD1016041604FF0010CA0F80AC04FF045
:1041B000000CC1F800C017E003F0100CBCF1000FB8
:1041C00007D10668316001604FF0000CC1F800C0F3
:1041D00004E0D0F804C0C1F800C04160B0F80AC0E3
:1041E0000CF1010CA0F80AC0B0F80CC0B0F80A80BD
:1041F000C44503DAB0F80AC0A0F80CC04D600A81CB
:10420000CF604FF0000CA4F800C000BF8FE70000A3
:1042100018DD002009A1C161002141610849096838
:1042200011B90021816105E00549096881610449EE
:1042300009684861024908607047000020000000DA
:10424000BC0000200021034A1160034A1180018054
:1042500070470000BC000020C00000202DE9F041A4
:1042600005460C4616461F461548006880F834601F
:1042700000201349096881F8350039461048006864
:1042800000F032FF6CB104F10808EC60012229460D
:104290000B48006800F016F82946404600F08EF8FA
:1042A00006E0002006490968C887054909680863CF
:1042B00003480168204600F019F8BDE8F0810000CD
:1042C0003401002010B5C287016300230AE00024F6
:1042D0004C600C600C614C610C83CC6188602031B7
:1042E0005C1CA3B29342F2DB10BD000030B548B1B4
:1042F0004568C1F8C45000F10804226893681D6A3B
:10430000C56113E091F83450022D02D0072D08D179
:1043100003E007A5C1F8C45007E007A5C1F8C450E1
:1043200003E008A5C1F8C45000BF00BF30BD0000C5
:104330005461736B205100005461736B2053656DA1
:10434000000000002000000030B507A5C1F8C450EF
:1043500000F1080422681AB193681D6AC56101E082
:1043600001A5C56130BD0000200000002DE9F0432B
:1043700004460F4684F83770256BB4F83E8013E08E
:10438000D5F80C9009F108063089012807D929468B
:10439000304600F05EF82946304600F00FF8203530
:1043A000A8F101001FFA80F8B8F1000FE8D1BDE8CC
:1043B000F08300210160416001817047F0B58E6893
:1043C00096F8375007893FB90127078100274F60CA
:1043D0000F600160416023E007897F1C078102684C
:1043E00006E0946894F83770AF4200DD02E052684E
:1043F000002AF6D100BF32B900274F6043680B6036
:10440000596041600CE017682FB9116000270F60F8
:104410004A60016004E013680B604A6059601160F3
:10442000F0BD2DE9F0410446256BE68F0AE0D5F892
:104430000C8008F108072946384600F00AF82035B4
:10444000701E86B2002EF2DC0020E0872063BDE8FB
:10445000F08110B50489012C03D10024046044606C
:1044600011E00C6824B94A680024146002600AE074
:104470004C6824B90B6800245C60436003E00B685F
:104480004A685A6013600489641E048100244C60E9
:104490000C6010BD2DE9F84306460C4617469846B9
:1044A000089D94F83600082850D2DFE800F0040593
:1044B000080906072B2C00BF00BF00BF47E000BF64
:1044C00094F83400032807D143463A462146304643
:1044D000009500F03FF803E0E765A4F860802564EC
:1044E00036B12046FFF79DFF21463046FFF72CFFEF
:1044F000204600F0FDFF00203434A070607004F806
:10450000340924E000BF94F83400032807D143465F
:104510003A4621463046009500F01CF803E0E76576
:10452000A4F860802564204601F048FD36B120469D
:10453000FFF777FF21463046FFF706FF04203434AB
:10454000A0700020607004F8340900E000BF00BFD4
:10455000BDE8F883F0B50446059E086BCD8F0AE0F0
:10456000C768A74204D1046142610383C66104E0C5
:1045700020306F1EBDB2002DF2DC00BFF0BD000088
:1045800070B50025074C03E005F12000C5B2241DDD
:1045900020680028F8D02068FBF7F5FD2844C5B254
:1045A000284670BD68000020002004E00021034A76
:1045B00042F82010401C0028F8D070476800002006
:1045C00030B5420900F01F030121C3F11F04A140CF
:1045D000034C54F822400C43014D45F8224030BDB5
:1045E0006800002030B5420900F01F030121C3F12B
:1045F0001F04A140034C54F822408C43014D45F860
:10460000224030BD680000200021034A1160034AA7
:104610001180018070470000C8000020CC000020FD
:104620002DE9F04F85B007468A4693461C46002088
:10463000029000BF00BF00BFFBF79AFD029000BFD1
:10464000FCF7EEFB00BF56480078401C5449087048
:1046500008460078012801D100F08AF900BFFCF774
:10466000F9FB00BF0298FBF787FD00BF00BF00BF4A
:1046700007F10806308900284CD104F0100010B969
:104680004FF0000801E04FF01008DDE90E0143464D
:104690005A46CDE90001514607F12000FFF738FDE9
:1046A00000BF00BF00BFFBF763FD029000BFFCF737
:1046B000B7FB00BF3A480078401E394908700846E9
:1046C0000078D0B900F062F93648008800280BDD88
:1046D00000BFFCF7BFFB00BF0298FBF74DFD00BF1A
:1046E00000BF00F017F911E000BFFCF7B3FB00BFFB
:1046F0000298FBF741FD00BF08E000BFFCF7AAFBF2
:1047000000BF0298FBF738FD00BF00BF00BF05B037
:10471000BDE8F08F04F4007008B1358900E0012590
:10472000D6F8009011E0D9F808000390D9F80400F9
:1047300004900E985B465246009038460399FFF766
:10474000A9FEDDF81090681E85B2002DEBD100BFE8
:1047500000BF00BFFBF70CFD029000BFFCF760FB41
:1047600000BF0F480078401E0D49087008460078C9
:1047700008B900F00BF900BFFCF76CFB00BF029812
:10478000FBF7FAFC00BF00BF00BF04F4004008B90B
:10479000FDF772FD00210F98018000BFB7E7000010
:1047A000DC000020A000002000210AE001EB410213
:1047B000054B03EB820000220281026042604A1C2A
:1047C000D1B22029F2D3704724DD002010B5044671
:1047D00094F83700FFF7F4FE94F83700054909789C
:1047E000884203D1204600F027F802E0204600F07E
:1047F00003F810BDC200002010B590F8373003EB6D
:1048000043030C4C04EB83010B893BB901230B815F
:104810000023C36003610860486009E00B895B1CEA
:104820000B810B68C360002303610A681061086094
:1048300010BD000024DD002010B590F8373003EBE8
:1048400043030B4C04EB83010B893BB901230B8120
:104850000023C36003610860486008E00B895B1CAB
:104860000B810023C3604A680261D060486010BDBC
:1048700024DD002010B501460C8924B1012C03D0A1
:10488000022C0CD101E000BF14E008684A68026104
:104890000024C4601461D0600A6048600AE00868BF
:1048A0004A68C36800241C61C4600261D0600B6068
:1048B000486000BF00BF10BD2DE9F041054695F8E6
:1048C000370000EB4000124901EB80042F69EE68CD
:1048D00087B946B9002020812060606095F83700D4
:1048E000FFF780FE0EE02089401E2081002030610D
:1048F000266007E02089401E2081FE600EB96760B7
:1049000000E0376100202861E860BDE8F081000028
:1049100024DD002010B5002400BFFBF729FC04466D
:1049200000BF00200D4908700D480E490860084678
:104930000068D0F89000401C0968C1F890000A484F
:104940000068401C084908604FF080500749086023
:1049500000BF2046FBF710FC00BF10BDC3000020C5
:1049600050DC0020380100200801002004ED00E0A8
:1049700010B504480078012803D1FCF7DFFA02499A
:10498000086010BDDC000020D000002010B50A48EF
:10499000007880B9FCF7D2FA08490968441A084837
:1049A0000068A04201D20648046006480068A042A0
:1049B00001D20448046010BDDC000020D0000020BB
:1049C000D4000020D800002070B5054600263548E8
:1049D0000078012800D070BD00BF00BFFBF7C8FB06
:1049E000064600BFFCF71CFA00BF2C684CB900BF9C
:1049F000FCF730FA00BF3046FBF7BEFB00BF00BF3C
:104A0000E9E72948844209D100BFFCF723FA00BF37
:104A10003046FBF7B1FB00BF00BFDCE7A06D10B173
:104A2000A06D401EA065A06D48B100BFFCF712FA52
:104A300000BF3046FBF7A0FB00BF00BFCBE72889D3
:104A4000022809DA00BFFCF705FA00BF3046FBF781
:104A500093FB00BF00BFBEE714480078002809DDC3
:104A600000BFFCF7F7F900BF3046FBF785FB00BF3E
:104A700000BFB0E72846FFF7FDFE2C68606D18B94F
:104A80000B480068A06501E0606DA06500BFFCF701
:104A9000E1F900BF3046FBF76FFB00BF00BF00BF6E
:104AA00099E70000E400002088DB0020DC00002003
:104AB000E00000200021034A1160034A11800180B8
:104AC00070470000E8000020EC0000202DE9FF5FA7
:104AD0000446884691461D460020019000BF00BF55
:104AE000FBF746FB019000BFFCF79AF900BF04F109
:104AF00008073889002857D10420012804D002284B
:104B000016D004283AD127E0206AFF280FD100BF31
:104B1000FCF7A0F900BF0198FBF72EFB00BF00BF18
:104B200046F6C5502880002004B0BDE8F09F26E07E
:104B30004FF6FF71206A88420DD100BFFCF78AF959
:104B400000BF0198FBF718FB00BF00BF46F6C55039
:104B500028800020E8E712E0206A401C68B900BF06
:104B6000FCF778F900BF0198FBF706FB00BF00BF18
:104B700046F6C55028800020D6E700E000BF00BF01
:104B8000206A401C2062D4F820A0C4F8249000BF02
:104B9000FCF760F900BF0198FBF7EEFA00BF00BF19
:104BA000002028805046BFE700BF2D480078401CF9
:104BB0002B49087008460078012801D1FFF7D8FE7C
:104BC00000BFFCF747F900BF0198FBF7D5FA00BF1B
:104BD00000BF00BF08F4007008B13E8900E0012664
:104BE000D7F800B011E0DBF808000290DBF8040011
:104BF000039000231A46CDF8009020460299FFF753
:104C000049FCDDF80CB0701E86B2002EEBD1D4F852
:104C100020A000BF00BF00BFFBF7AAFA019000BFB1
:104C2000FCF7FEF800BF0E480078401E0C490870E3
:104C30000846007808B9FFF7A9FE00BFFCF70AF99B
:104C400000BF0198FBF798FA00BF00BF00BF08F44F
:104C5000004008B9FDF710FB00202880504663E7AC
:104C6000DC00002086B00020009000BF06E0D9499B
:104C70000968480001AA0021FEF7BAFAD648007870
:104C80000128F4D101A8FDF743FC0027D3480068B0
:104C9000D0490968884205D9D0480068CD490968DB
:104CA000B0FBF1F727B9CD4800680A21B0FBF1F756
:104CB0008EE1FCF743F98246FCF79CF8C84908608E
:104CC00000BF00BFFBF754FA009000BFFCF7A8F844
:104CD00000BFC4480068C44908600020C14908609A
:104CE00000BFFCF7B7F800BF0098FBF745FA00BF1C
:104CF00000BFBE480068BC490968884248D9BB4823
:104D00000068BB49884205D242F21070039001202E
:104D1000029023E0B5480068B649884205D24FF4B6
:104D20007A7003900A20029018E0B0480068B249F7
:104D3000884203D26420039002900FE0AB480068E1
:104D4000AE49884205D20A2003904FF47A7002904F
:104D500004E00120039042F210700290A348016821
:104D60000298B1FBF0F9A049039809684843B0FBE9
:104D7000F9F042F21071081AA1490880A148008890
:104D80000988884208DA9E4800889E49088003E026
:104D900042F210709A490880FDF7EEFC002500BF32
:104DA00000BFFBF7E5F9009000BFFCF739F800BF42
:104DB0009548046800BFFCF74DF800BF0098FBF76A
:104DC000DBF900BF00BF72E000BF00BF00BFFBF710
:104DD000CFF9009000BFFCF723F800BF8B480078A4
:104DE000401C8A49087008460078012801D1FFF765
:104DF000BFFD00BFFCF72EF800BF0098FBF7BCF921
:104E000000BF00BF00BF54F89C0F6060002044F852
:104E10009C0900BF00BF00BFFBF7AAF9009000BFCC
:104E2000FBF7FEFF00BF79480078401E7749087005
:104E300008460078D0B9FFF7A9FD7548008800281A
:104E40000BDD00BFFCF706F800BF0098FBF794F9F4
:104E500000BF00BFFFF75EFD11E000BFFBF7FAFFE8
:104E600000BF0098FBF788F900BF08E000BFFBF720
:104E7000F1FF00BF0098FBF77FF900BF00BF00BF44
:104E8000D4F8A000054400BF00BFFBF771F9009003
:104E900000BFFBF7C5FF00BFD4F8C04000BFFBF761
:104EA000D9FF00BF0098FBF767F900BF00BF002CD7
:104EB0008AD145B34E48854205D242F21070059022
:104EC0004FF0010B1BE04B48854205D24FF47A703E
:104ED00005904FF00A0B12E04748854203D2642048
:104EE000059083460BE04548854204D20A20059090
:104EF0004FF47A7B03E00120059042F2107BB5FB72
:104F0000FBF0049003E0002005900120049000BF16
:104F100000BFFBF72DF9009000BFFBF781FF00BF3A
:104F20003948046800BFFBF795FF00BF0098FBF706
:104F300023F900BF00BF2FE0D4F8A0000599484333
:104F40000499B0FBF1F086B242F21070864200D9AB
:104F50000646A4F88C60B4F88E00B04201DAA4F8DA
:104F60008E6001AB04F1AC02111D2046FDF7ECFF91
:104F700000BF00BFFBF7FCF8009000BFFBF750FF3D
:104F800000BFD4F8C04000BFFBF764FF00BF00982B
:104F9000FBF7F2F800BF00BF002CCDD11D48007810
:104FA000012805D100201B49087001A8FDF7B0FABF
:104FB000FBF7C4FFA0EB0A0817480068404502D27F
:104FC0001548C0F8008001AA00213846FEF710F904
:104FD0006FE600009CA0000800010020B4A00008BB
:104FE00090000020F4000020FC000020F8000020C9
:104FF000801A060000093D00005A62020084D7179B
:10500000F0000020F20000200C010020DC00002055
:10501000A0000020EE0000200401002010B58AB09E
:10502000044600201F4908601F4908601F490860A6
:105030001F4908701F4908701F48006820B946F6CC
:105040002B6020800AB010BD1C4800681C4909680C
:10505000884203D246F62C602080F3E71948007896
:105060001F2803D346F62A602080EBE703200021A7
:105070000591CDE907040691084610490968124ACE
:1050800012680D4B1B68CDE90132CDE903100D48C4
:10509000007800230D4A0EA100901248FDF776FB20
:1050A00000BFCFE7F4000020FC000020F800002043
:1050B00000010020EE000020A0A00008A8A0000829
:1050C000B0A0000898A00008A4A00008654C000843
:1050D00075432F4F532D494949205374617420540F
:1050E00061736B00A4DE002038B504460D4685B11F
:1050F0006B4602222946204600F082FEBDF80000E1
:1051000018B9032084F8360006E0022084F836003F
:1051100002E0022084F836002046FFF7CDFB38BDC0
:105120000021C0F8BC100949096819B90021C0F86C
:10513000C01007E005490968C0F8C01003490968B4
:10514000C1F8BC0001490860704700000C01002054
:10515000D0F8BC20D0F8C0104AB90D4B196011B17D
:105160000023C1F8BC300023C0F8C0300FE029B9DB
:105170000023C2F8C030C0F8BC3008E0C2F8C0104C
:10518000C1F8BC200023C0F8C030C0F8BC30704764
:105190000C0100200021044A1160044A1180044AD5
:1051A00011600180704700000C01002010010020F8
:1051B0000801002070B5044600202060A0606060F7
:1051C000E06020616061A061E0612BA020620020AE
:1051D0006062A062E0622063E0872064E065A4F87A
:1051E0006000002104F16400FEF78AFF002044F80B
:1051F000740F6060E060A0822061743C002506E0CE
:10520000002104F17C0040F82510681CC5B2002D77
:10521000F6D000203434206120676067606084F835
:105220005600E067A06720814FF0004060610020D9
:10523000A061E06120626062A4F85800A4F85A00FE
:10524000E0652066FBF77AFE064666660020A066EB
:10525000C4F88000C4F8840020706070A070202022
:10526000E0700020C4F88800C4F88C0004A0C4F8E2
:105270009000343C70BD00003F5461736B0000002F
:10528000200000002DE9FC4704460F469046994651
:10529000DDE90A654FF0000A00BF00BF00BFFAF762
:1052A00067FF824600BFFBF7BBFD00BF8D4800785B
:1052B000401C8C49087008460078012801D1FFF78E
:1052C00057FB00BFFBF7C6FD00BF5046FAF754FF7F
:1052D00000BF00BF00BF0CB98348046800202880CD
:1052E00094F8360008287CD2DFE800F0040548492D
:1052F00006074A4B00BF00BF00BF4B464246394637
:1053000004F16400CDE90065FEF702FF00BF00BFB5
:1053100000BFFAF72DFF824600BFFBF781FD00BFFB
:1053200070480078401E6F49087008460078D0B970
:10533000FFF72CFB6D48008800280BDD00BFFBF752
:1053400089FD00BF5046FAF717FF00BF00BFFFF707
:10535000E1FA11E000BFFBF77DFD00BF5046FAF710
:105360000BFF00BF08E000BFFBF774FD00BF504615
:10537000FAF702FF00BF00BF00BFAFE000BF00BFF1
:1053800000BF94F8340002282CD143463A46214607
:1053900000200096FFF77EF800BF00BF00BFFAF7BD
:1053A000E7FE824600BFFBF73BFD00BF4D4800789B
:1053B000401E4C4908700846007808B9FFF7E6FA25
:1053C00000BFFBF747FD00BF5046FAF7D5FE00BF10
:1053D00000BF00BF09F40040002843D1FCF74CFF98
:1053E00040E040E04B464246394604F16400CDE9D6
:1053F0000065FEF78DFE00BF00BF00BFFAF7B8FEE4
:10540000824600BFFBF70CFD00BF36480078401E07
:105410003449087008460078D0B9FFF7B7FA334826
:10542000008800280BDD00BFFBF714FD00BF5046CD
:10543000FAF7A2FE00BF00BFFFF76CFA11E000BF51
:10544000FBF708FD00BF5046FAF796FE00BF08E0E4
:1054500000BFFBF7FFFC00BF5046FAF78DFE00BF10
:1054600000BF00BF3AE000BF00BF00BFFAF780FEF8
:10547000824600BFFBF7D4FC00BF1A480078401EEC
:105480001849087008460078D0B9FFF77FFA174826
:10549000008800280BDD00BFFBF7DCFC00BF504696
:1054A000FAF76AFE00BF00BFFFF734FA11E000BF51
:1054B000FBF7D0FC00BF5046FAF75EFE00BF08E0E5
:1054C00000BFFBF7C7FC00BF5046FAF755FE00BF10
:1054D00000BF00BF46F62D60288000BF00BFBDE8BA
:1054E000FC870000DC00002034010020A000002028
:1054F00010B50446204600F061FD94F8360000F037
:10550000040010B92046FFF761F910BD70B50446DC
:105510000D46002600BF00BFFAF72AFE064600BF70
:10552000FBF77EFC00BF0020288094F83600082896
:105530007ED2DFE800F00405060714566A8000BF3B
:1055400000BF00BF00BFFBF785FC00BF3046FAF785
:1055500013FE00BF00BF47F2531028808CE000BF4D
:1055600048480078401C47490870084600780128E0
:1055700001D1FFF7FDF900BFFBF76CFC00BF30461F
:10558000FAF7FAFD00BF00BF00BF14F88A0F401EF3
:10559000207014F88A0928B9002084F836002046C3
:1055A000FFF7A6FF00BF00BF00BFFAF7E1FD064608
:1055B00000BFFBF735FC00BF32480078401E314980
:1055C00008700846007808B9FFF7E0F900BFFBF75C
:1055D00041FC00BF3046FAF7CFFD00BF00BF00BF5F
:1055E0004AE014F88A0F401E207014F88A0910B996
:1055F000012084F8360000BFFBF72CFC00BF3046CA
:10560000FAF7BAFD00BF00BF36E014F88A0F401E5B
:10561000207014F88A0910B9022084F8360000BFFF
:10562000FBF718FC00BF3046FAF7A6FD00BF00E00C
:1056300015E000BF20E014F88A0F401E207014F817
:105640008A0910B9032084F8360000BFFBF702FC7A
:1056500000BF3046FAF790FD00BF00BF0CE000BF6E
:10566000FBF7F8FB00BF3046FAF786FD00BF00BF2E
:1056700046F62D60288070BD00BFFCF7FDFD00BF21
:10568000F9E70000DC00002008B504480068FDF7D9
:1056900027FB69460020FDF7CFF908BD3401002043
:1056A0002DE9F8430446884617461D464FF0000989
:1056B00000BF00BF00BFFAF75BFD814600BFFBF7EC
:1056C000AFFB00BFFB480078401CFA490870084651
:1056D0000078012801D1FFF74BF900BFFBF7BAFBB7
:1056E00000BF4846FAF748FD00BF00BF00BF0CB935
:1056F000F148046827640020288094F836000828C0
:105700007AD2DFE800F00405FEFD0607FCFB00BFCF
:1057100000BF00BF0420012804D0022843D0042881
:105720006BD184E0606CFF283CD100BF00BF00BF9C
:10573000FAF71EFD814600BFFBF772FB00BFDD4894
:105740000078401EDB49087008460078D0B9FFF7A2
:105750001DF9DA48008800280BDD00BFFBF77AFB53
:1057600000BF4846FAF708FD00BF00BFFFF7D2F8B8
:1057700011E000BFFBF76EFB00BF4846FAF7FCFCE8
:1057800000BF08E000BFFBF765FB00BF4846FAF723
:10579000F3FC00BF00BF00BF46F6C55028800020C4
:1057A000BDE8F88385E04FF6FF71606C88423DD11B
:1057B00000BF00BF00BFFAF7DBFC814600BFFBF76C
:1057C0002FFB00BFBB480078401EBA49087008464E
:1057D0000078E0B9FFF7DAF8B848008800280DDD56
:1057E00000BFFBF737FB00BF4846FAF7C5FC00BF18
:1057F00000BFFFF78FF813E0E2E159E000BFFBF7CD
:1058000029FB00BF4846FAF7B7FC00BF08E000BF1D
:10581000FBF720FB00BF4846FAF7AEFC00BF00BF15
:1058200000BF46F6C55028800020B9E741E0606C13
:10583000401CD8BB00BF00BF00BFFAF799FC8146EF
:1058400000BFFBF7EDFA00BF9A480078401E994967
:10585000087008460078D0B9FFF798F89748008894
:1058600000280BDD00BFFBF7F5FA00BF4846FAF74A
:1058700083FC00BF00BFFFF74DF811E000BFFBF74E
:10588000E9FA00BF4846FAF777FC00BF08E000BF1E
:10589000FBF7E0FA00BF4846FAF76EFC00BF00BF16
:1058A00000BF46F6C5502880002079E7FFE700E0FA
:1058B00000BF00BF606C401C6064666C00BF00BF2E
:1058C00000BFFAF755FC814600BFFBF7A9FA00BFFD
:1058D00078480078401E7749087008460078F8B983
:1058E000FFF754F875480088002810DD00BFFBF76B
:1058F000B1FA00BF4846FAF73FFC03E01EE01CE0A7
:105900001AE018E000BF00BFFFF704F811E000BF85
:10591000FBF7A0FA00BF4846FAF72EFC00BF08E0EC
:1059200000BFFBF797FA00BF4846FAF725FC00BF17
:1059300000BF00BF80E100BF00BF00BF94F834008B
:1059400007282CD100231A46214618460097FEF757
:10595000A1FD666C00BF00BF00BFFAF709FC8146DD
:1059600000BFFBF75DFA00BF52480078401E514966
:1059700008700846007808B9FFF708F800BFFBF781
:1059800069FA00BF4846FAF7F7FB00BF00BF00BF47
:1059900008F40040002801D1FCF76EFC0FE1042060
:1059A000012804D0022842D0042872D189E0606C1A
:1059B000FF283BD100BF00BF00BFFAF7D9FB8146EB
:1059C00000BFFBF72DFA00BF3A480078401E394966
:1059D000087008460078D0B9FEF7D8FF374800882D
:1059E00000280BDD00BFFBF735FA00BF4846FAF789
:1059F000C3FB00BF00BFFEF78DFF11E000BFFBF748
:105A000029FA00BF4846FAF7B7FB00BF08E000BF1D
:105A1000FBF720FA00BF4846FAF7AEFB00BF00BF15
:105A200000BF46F6C55028800020B9E68BE04FF64F
:105A3000FF71606C884243D100BF00BF00BFFAF71E
:105A400097FB814600BFFBF7EBF900BF19480078D0
:105A5000401E1849087008460078D8B9FEF796FF2E
:105A60001648008800280BDD00BFFBF7F3F900BFE4
:105A70004846FAF781FB00BF00BFFEF74BFF12E07C
:105A800000BFFBF7E7F900BF4846FAF775FB00BF18
:105A900009E057E000BFFBF7DDF900BF4846FAF721
:105AA0006BFB00BF00BF00BF46F6C550288000203A
:105AB00076E60000DC00002034010020A000002079
:105AC00041E0606C401CD8BB00BF00BF00BFFAF7CC
:105AD0004FFB814600BFFBF7A3F900BF5848007891
