:020000040800F2
:10000000C8E7002045010008A71800085516000899
:10001000E5170008290E00083D71000800000000E7
:10002000000000000000000000000000616B0008FC
:100030000113000800000000930800085939000867
:100040005F0100085F0100085F0100085F01000810
:100050005F0100085F0100085F0100085F01000800
:100060005F0100085F0100085F0100085F010008F0
:100070005F0100085F0100085F0100085F010008E0
:100080005F0100085F0100085F0100085F010008D0
:100090005F0100085F0100085F0100085F010008C0
:1000A0005F0100085F0100085F0100085F010008B0
:1000B0005F0100085F0100085F0100085F010008A0
:1000C0005F0100085F0100085F0100085F01000890
:1000D0005F010008AD6C00085F0100085F010008C7
:1000E0005F0100085F0100085F0100085F01000870
:1000F0005F0100085F0100085F0100085F01000860
:100100005F0100085F0100085F0100085F0100084F
:100110005F0100085F0100085F0100085F0100083F
:100120005F0100085F0100085F0100085F0100082F
:10013000DFF80CD000F05EFB00480047157D00089A
:10014000C8E700200648804706480047FEE7FEE76C
:10015000FEE7FEE7FEE7FEE7FEE7FEE7FEE7FEE777
:100160004D6C00083101000872B6704762B67047E6
:10017000EFF3108072B6704780F31088704730BF7D
:10018000704720BF7047B0FA80F0704790FAA0F037
:10019000B0FA80F0704790FAA0F0704740EA01038F
:1001A0009B0703D009E008C9121F08C0042AFAD22D
:1001B00003E011F8013B00F8013B521EF9D27047F1
:1001C000D2B201E000F8012B491EFBD27047002299
:1001D000F6E710B513460A4604461946FFF7F0FF46
:1001E000204610BD421E12F8013F002BFBD111F832
:1001F000013B02F8013B002BF9D17047CAB2401E07
:1002000010F8011F8A4202D00029F9D1002070475E
:10021000421C10F8011B0029FBD1801A70470346CD
:1002200011F8012B00F8012B002AF9D1184670476C
:100230002DE9FE4F804681EA0300C00F0C46009076
:1002400021F0004123F00045B8EB0200A94105D29E
:100250004046214690461C460B46024623F000408D
:10026000104347D0270DC7F30A00C3F30A51029089
:10027000401A019040286BDAC3F3130040F4801B4E
:100280000098924620B10023D2EB030A63EB0B0BDC
:1002900001985946C0F14002504600F096F90646D2
:1002A0000D4650465946019A00F0AEF910EB080091
:1002B0006141002487EA115284EAE7731A4340D06F
:1002C000009A62B3019A012A4FEA075215DC001B1B
:1002D00061EB02014FF0004202EA0752CDE9004211
:1002E000001C41F5801132462B4600F0AEF903B0F8
:1002F000BDE8F08F40462146F9E7001B61EB0201A3
:10030000001C41F5801300185B412018A2F500176E
:1003100047EB030140EAD570B6196D4111E06D0855
:100320004FEA360645EAC0754FEA0752001B61EBFB
:100330000201001C41F5801149084FEA3000001904
:10034000514132462B4603B0BDE8F04F00F06EB984
:100350000098012240000023D0EB020263EBE0731F
:10036000009821464FEAE074B8EB000061EB04010D
:10037000E9E783F000435BE781F0004158E72DE9AE
:10038000FE4F81EA030404F0004421F00041009490
:100390004FF0000B23F0004350EA01045ED052EA14
:1003A00003045BD0C3F30A54C1F30A552C44A4F2EE
:1003B000F3340194A0FB0254C1F3130141F4801102
:1003C000C3F3130343F4801301FB024400FB034E09
:1003D000840A970A44EA815447EA8357A4FB0768D2
:1003E00002958D0A05FB07854FEA932C04FB0C54FC
:1003F0002705029D4FEA065847EA1637B5EB080570
:100400006EEB070C870E920E47EA811742EA8312C1
:10041000A7FB0201B6EB0B0164EB00042B0D43EAD2
:100420000C335E1844EB1C50DA465146E7FB0201E0
:10043000C5F313044FEA0B3343EA14534FEA043273
:10044000019C43EA0603A4F10C040294009CCDE94C
:1004500000B400F0FAF803B0BDE8F08F00200146C8
:10046000F9E70EB5C10F80EAE0700844CA07002121
:1004700040F233438DE80E000A460B4600F0E5F8E3
:1004800003B000BD0EB540F2334102910021CDE929
:1004900000110A460B4600F0D8F803B000BD70B555
:1004A000C1F30A5201F000450024C1F3130140F2E8
:1004B000FF3341F480119A4201DA002070BD40F20E
:1004C00033439A42A2F2334203DC524200F08CF8EA
:1004D00000E090402C43F1D0404270BD30B5041E86
:1004E00071F1000404DB4FF00044404264EB010171
:1004F000141E73F1000405DB1C464FF0004352420A
:1005000063EB04038B4208BF824230BD30B5041E4A
:1005100071F1000404DB4FF00044404264EB010140
:10052000141E73F1000405DB1C464FF000435242D9
:1005300063EB0403994208BF904230BD30B50B46CF
:10054000014600202022012409E021FA02F59D4203
:1005500005D303FA02F5491B04FA02F52844151ED7
:10056000A2F10102F1DC30BD2DE9F05F054600206B
:1005700092469B4688460646814640241BE0284614
:1005800041464746224600F02FF853465A46C01AC5
:10059000914110D311461846224600F016F82D1A44
:1005A00067EB01084F4622460120002100F00DF8BC
:1005B00017EB00094E41201EA4F10104DFDC484680
:1005C00031462A464346BDE8F09F202A04DB203A04
:1005D00000FA02F1002070479140C2F1200320FA96
:1005E00003F3194390407047202A04DB203A21FA94
:1005F00002F00021704721FA02F3D040C2F120023C
:100600009140084319467047202A06DBCB17203A51
:1006100041FA02F043EAE07306E041FA02F3D04007
:10062000C2F12002914008431946704710B5141ECC
:1006300073F1000408DA401C41F1000192185B419B
:100640001A4301D120F0010010BD2DE9F04D924672
:100650009B4611B1B1FA81F202E0B0FA80F2203289
:100660009046FFF7B2FF04460F4640EA0A0041EA0F
:100670000B0153465A46084313D0114653EA010072
:1006800019D0C8F140025046FFF7AEFF05460E46AE
:10069000504659464246FFF798FF084305D00120CF
:1006A00004E020463946BDE8F08D0020054346EAC7
:1006B000E0762C4337430A986305E40AA0EB080070
:1006C0000022FD0A44EA47540A3002D500200146C0
:1006D000E9E7010510196941DDE90845001969419B
:1006E000BDE8F04DA2E72DE9F04D81EA030404F0E6
:1006F000004B21F0004514464FF0000A23F0004162
:1007000050EA050220D054EA01021DD0C5F30A5771
:100710000246C5F31303C1F31300C1F30A5640F4B4
:10072000801543F48013A7EB0608101BD64608F289
:10073000FD3873EB050002D308F1010801E09218BF
:100740005B41B8F1000F03DA00200146BDE8F08DEF
:1007500000204FF48011064684460EE0171B73EB11
:10076000050705D3121B63EB050306434CEA010C96
:1007700049084FEA300092185B4150EA0107EDD179
:1007800052EA030012D082EA040083EA050108431A
:1007900005D0101BAB4106D20122002306E0002247
:1007A0004FF0004302E06FF0010253101AEB060015
:1007B0004CEB085110EB0A0041EB0B01BDE8F04D8A
:1007C000FFF734BFC1F30A52C1F3130140F2FF3304
:1007D00041F480119A4202DA00200146704740F24B
:1007E00033439A42A2F2334202DC5242FFF7FCBE8C
:1007F000FFF7EBBE064C074D06E0E06840F0010352
:1008000094E8070098471034AC42F6D3FFF794FC05
:10081000388800085888000870B58C1810F8015BFB
:1008200015F0070301D110F8013B2A1106D110F889
:10083000012B03E010F8016B01F8016B5B1EF9D18D
:100840002B0705D40023521E0DD401F8013BFAE713
:1008500010F8013BCB1A921C03E013F8015B01F87E
:10086000015B521EF9D5A142D8D3002070BD000013
:1008700018484FF0FF010170002080F309881648E6
:10088000016881F3088815484FF08051016062B615
:10089000FEE772B6EFF3098028B1203880E8F00F48
:1008A0000F490968086000B50E4880475DF804EB01
:1008B0000D480E490A78027009480D490A6802601D
:1008C000106890E8F00F203080F309884EF0040E95
:1008D00062B6704722ED00E03C01002004ED00E02C
:1008E000340100200D370008C2000020C3000020A2
:1008F0003801002098B000260124502102A8FFF7FB
:1009000066FC0025D9E03F2C00DD002417A8002359
:100910001A4619460090694801F048FB204600F04D
:1009200015FD6749087017AA0021644801F0D2FC40
:10093000AD200290DA20039002200490059420203C
:10094000069003200790062102A806F023FA17A8B4
:10095000002316AA1946009041F2883002F0FAFAF4
:10096000054600BF00BF00BFFFF702FC064600BF00
:1009700000F0F6FA00BF53480078401C5149087057
:1009800008460078012801D104F004FA00BF00F005
:1009900001FB00BF3046FFF7EFFB00BF00BF00BF09
:1009A000E868A04201D1012000E00020464908701B
:1009B0004348007820B30846007880B117A8002388
:1009C0001A46194600903D4801F0F0FA284606F014
:1009D0005BFB17AA0021394801F07CFC23E017A833
:1009E00000231A4619460090344801F0DFFA2046E9
:1009F00000F088FC17AA0021304801F06BFC12E0DF
:100A00003148007878B117A800231A46194600909B
:100A10002A4801F0CBFA284600F01EFE17AA002152
:100A2000264801F057FC17AA2946284801F00CFA7D
:100A30008021274800F027FD20B18021244800F0C4
:100A40002BFD03E08021224800F028FD00BF00BFFD
:100A500000BFFFF78DFB064600BF00F081FA00BF24
:100A600018480078401E1749087008460078D0B929
:100A700004F09EF91748008800280BDD00BF00F045
:100A800089FA00BF3046FFF777FB00BF00BF04F0D4
:100A900053F911E000BF00F07DFA00BF3046FFF7C8
:100AA0006BFB00BF08E000BF00F074FA00BF3046E7
:100AB000FFF762FB00BF00BF00BF24E7600100201A
:100AC00024000020DC00002025000020B4010020CC
:100AD000001C0140A00000200EB50024002583E08A
:100AE00002A8002301AA19460090184602F032FA23
:100AF000044600BF00BF00BFFFF73AFB054600BF3A
:100B000000F02EFA00BF39480078401C37490870C1
:100B100008460078012801D104F03CF900BF00F03C
:100B200039FA00BF2846FFF727FB00BF00BF00BF10
:100B300002A800231A46194600902D4801F036FA03
:100B4000BDF80410204606F025F90121294800F0DF
:100B50009AFC20B10121274800F09EFC03E001210E
:100B6000244800F09BFC02AA0021214801F0B2FBBE
:100B700002AA2146204801F067F900BF00BF00BF6C
:100B8000FFF7F6FA054600BF00F0EAF900BF174884
:100B90000078401E1549087008460078D0B904F066
:100BA00007F91648008800280BDD00BF00F0F2F9B5
:100BB00000BF2846FFF7E0FA00BF00BF04F0BCF812
:100BC00011E000BF00F0E6F900BF2846FFF7D4FAB5
:100BD00000BF08E000BF00F0DDF900BF2846FFF7C6
:100BE000CBFA00BF00BF00BF7AE70000DC000020A6
:100BF00060010020000C0140B4010020A000002092
:100C000070B58AB0064600F001F900F00FF900F067
:100C1000F5F804462B480068B4FBF0F5284602F0CE
:100C2000BBFE00F0EBFD09A801F0A4FE00F06CF99A
:100C300009AA0021012001F02FFD09AA22A12448C0
:100C400001F040F909A864210323224ACDE90010EC
:100C500021A1254801F014F809A8032100220592DA
:100C6000CDE90621089032204FF4007133221F4B4A
:100C7000CDE90132CDE90310032000231C4A1DA158
:100C80000090224801F000FF09A8032100220592EC
:100C9000CDE90621089032204FF4007133221C4B1D
:100CA000CDE90132CDE9031003200023194A1AA12E
:100CB00000901D4801F0E8FE09A9002002F03AF872
:100CC0000AB070BD888600084C697374000000008B
:100CD00060010020D40100204D656D20466F722018
:100CE0005465737400000000B40100206C070020FC
:100CF000F50800084170705F5461736B5F4368656D
:100D0000636B5F446576696365000000DC03002067
:100D10006C0F0020D90A0008417070205461736B79
:100D20002050656E64000000A404002070B586B0F9
:100D300006460D460024287B8DF80400287D8DF89A
:100D4000060000208DF8050000BF1AE06100E86988
:100D5000C84000F00200022801D1102100E000216B
:100D60000DF1070001556100E869C84000F001007D
:100D700008B1102100E000210DF10D000155601CAB
:100D8000C4B2042CE2DB00241CE06100A869C84066
:100D900000F00200022801D1102200E00022201DF4
:100DA0000DF107010A546100A869C84000F0010074
:100DB00008B1102200E00022201D0DF10D010A549F
:100DC000601CC4B2022CE0DB00240EE06100286A43
:100DD000C84000F00200022801D1102100E00021EB
:100DE0000DF113000155601CC4B2042CEEDB13227C
:100DF00001A93046FFF7D2F906B070BD00B585B045
:100E0000684605F043FE019805B000BD10B500F03E
:100E10009FFC00F0D1FC06F0C7F800F087FD014907
:100E2000086010BD2000002000BFFEE710B500F0F4
:100E3000FBF800F003F800F0F3F810BD70B50026E1
:100E40000020184908801849088018490860184986
:100E500008601849086018490860184908600024AB
:100E600000BFFFF785F9064600BF00250BE0002014
:100E70001049086000F074F800F08CF80D48006824
:100E80000444681C85B2002DF1D00C480460002099
:100E9000084908600849086000BF3046FFF76CF950
:100EA00000BF70BD4C0000204E000020500000200C
:100EB000540000205C00002060000020580000204A
:100EC00001460846044A1268904203D9024A126851
:100ED000801A00E0002070475800002070B50025FF
:100EE00000BFFFF745F9054600BF0648046800BF8C
:100EF0002846FFF741F900BF2046FFF7E1FF06460D
:100F0000304670BD5C00002070B50025FFF7E6FF9D
:100F1000044600BFFFF72CF9054600BF0020044936
:100F2000086000BF2846FFF727F900BF204670BDC4
:100F30005C00002070B5002500BFFFF719F90546D9
:100F400000BF0648046800BF2846FFF715F900BF38
:100F50002046FFF7B5FF0646304670BD6000002012
:100F600010B509480088401C0749088007480088D8
:100F700018B900F083F80649086004480088401C4E
:100F80000249088010BD00004C0000204E000020E7
:100F90005000002010B50F480088401E0D49088001
:100FA00008460088A0B900F069F80B4908600846B7
:100FB00000680A490968441A09480068A04201D239
:100FC0000748046007480068A04201D20548046051
:100FD00010BD00004E0000205400002050000020F2
:100FE0005C0000206000002010B5002400BF00BF9E
:100FF000FFF7BEF8044600BFFFF7B2FF00BF1021A5
:10100000064800F0F1FB00BFFFF7C4FF00BF204619
:10101000FFF7B2F800BF00BF10BD00006C5B0020FE
:1010200010B5FFF7E1FF10BD10B5002002490860C0
:1010300000F00AF810BD00004800002001490860D7
:10104000704700004800002010B50A48006840F0D2
:101050008070084908600020074948600846006819
:1010600040F001000860FFF7C9FE04462046FFF784
:10107000E5FF10BDFCED00E0001000E00148406815
:1010800070470000001000E02DE9F04FE7B0054682
:101090000E4691461C46DDF8C0A1C82133A8FFF7D3
:1010A00096F8C82101A8FFF792F833AB4A463146BB
:1010B000284600F0F5F901AA5146204600F062FAF0
:1010C00006F000FD669020A006F005FD07463A46B2
:1010D0001FA1669806F0CCFC1EA006F0FCFC07469B
:1010E0003A461EA1669806F0C3FC7198FFF7CAF94C
:1010F000074606F0D5FC83465A461AA1669806F0C4
:10110000B7FC33A806F0E7FC07463A4617A16698F5
:1011100006F0AEFC01A806F0DEFC07463A4614A134
:10112000669806F0A5FC669806F01CFD659066982A
:1011300006F0E0FC10A0659906F002F8659806F04C
:10114000D9FE67B0BDE8F08F6A6F696E00000000DD
:10115000636D640070657266653100006D6F646573
:101160006C0000006164647200000000696F0000A0
:1011700072656C617900000025730A002DE9F04763
:10118000044606F09FFC814616A006F0A4FC054626
:101190002A4616A1484606F06BFC15A006F09BFCFB
:1011A00005462A4614A1484606F062FC2046FFF791
:1011B00069F9064606F074FC05462A4610A1484621
:1011C00006F056FC484606F0CDFC8046484606F040
:1011D00091FC41460CA005F0B3FF404606F08AFEA4
:1011E000BDE8F0876F66666C696E6500636D6400CC
:1011F00070657266653100006D6F64656C0000009B
:10120000616464720000000025730A002DE9F04F4C
:10121000E7B005460E4691461C46DDF8C0A1C82140
:1012200033A8FEF7D4FFC82101A8FEF7D0FF33ABE7
:101230004A463146284600F033F901AA5146204675
:1012400000F0A0F906F03EFC669020A006F043FCFA
:1012500007463A461FA1669806F00AFC1EA006F053
:101260003AFC07463A461EA1669806F001FC7198C2
:10127000FFF708F9074606F013FC83465A461AA101
:10128000669806F0F5FB33A806F025FC07463A46BB
:1012900017A1669806F0ECFB01A806F01CFC0746B7
:1012A0003A4614A1669806F0E3FB669806F05AFCED
:1012B0006590669806F01EFC10A0659905F040FF49
:1012C000659806F017FE67B0BDE8F08F7265706F25
:1012D00072740000636D64007065726665310000B1
:1012E0006D6F64656C000000616464720000000052
:1012F000696F000072656C617900000025730A0057
:101300007047000070B506460F48006844690E48F3
:10131000056815E02078B04210D16078032809DD17
:1013200060696861204606F0CDFC6C693046FFF7C5
:1013300025FF02E06078401C607003E02546646988
:10134000002CE7D100BF70BD2000002002460748F6
:101350000068416905E00878904201D1012070479A
:1013600049690029F7D10020F9E70000200000209A
:101370002DE9F0410246002500260020002300242C
:10138000002791F803C00CF00F0591F803C00CF092
:10139000100CBCF1000F03D091F802C04CEA050517
:1013A00091F800C0BCF1000F31D0146800202BE090
:1013B0004FF0010C0CFA00F3B1F800C00CEA030680
:1013C0009E4220D183004FF00F0C0CFA03F7BC4370
:1013D00005FA03FC4CEA040491F803C0BCF1280FA1
:1013E00006D14FF0010C0CFA00FCC2F814C00AE060
:1013F00091F803C0BCF1480F05D14FF0010C0CFA75
:1014000000FCC2F810C0401C0828D1D31460B1F809
:1014100000C0BCF1FF0F34DD546800202EE000F165
:10142000080C4FF0010808FA0CF3B1F800C00CEA00
:1014300003069E4221D183004FF00F0C0CFA03F7F4
:10144000BC4305FA03FC4CEA040491F803C0BCF168
:10145000280F05D100F1080C08FA0CF8C2F8148026
:1014600091F803C0BCF1480F07D100F1080C4FF010
:10147000010808FA0CF8C2F81080401C0828CED3E6
:101480005460BDE8F08102460020D3680B400BB1E8
:10149000012000E000207047416170470161704702
:1014A0002DE9F0478046894616461F460024A2468D
:1014B00000250A2006F05EFC82460A2006F05AFC4F
:1014C000054624A00088388000BF31E018F80420C9
:1014D00021A1504605F044FE19F8040028B121A0CE
:1014E000016829604068686006E020A00168296002
:1014F00041686960008928811EA13846FEF772FEA6
:1015000051463846FEF76EFE1BA13846FEF76AFECE
:1015100029463846FEF766FE16A13846FEF762FEFB
:10152000601CC4B2B44203DA14A13846FEF75AFE76
:10153000B442CBDB504606F0C5FB284606F0C2FBA2
:101540004FF0000A00250EA13846FEF74BFEBDE81D
:10155000F08700007B0000006368616E6E656C5F61
:10156000256400007072657373000000756E707200
:101570006573730022000000223A22002C00000054
:101580007D0000002DE9F04780460E4617460024F6
:10159000A14600250A2006F0EDFB81460A2006F050
:1015A000E9FB054621A00088388000BF2CE02246D8
:1015B0001FA1484605F0D4FD18F8040028B11FA06B
:1015C000018829808078A87002E01DA0006828604A
:1015D0001CA13846FEF706FE49463846FEF702FED5
:1015E00019A13846FEF7FEFD29463846FEF7FAFDFA
:1015F00014A13846FEF7F6FD601CC4B2B44203DA0B
:1016000012A13846FEF7EEFDB442D0DB484606F0A4
:1016100059FB284606F056FB4FF0000900250CA1A7
:101620003846FEF7DFFDBDE8F08700007B000000D4
:101630006368616E6E656C5F256400006F6E00000C
:101640006F66660022000000223A22002C00000093
:101650007D00000000BFFEE72DE9F0438BB081461E
:1016600000240026002009900A9007900890069018
:101670002348006847692248D0F80080182006F007
:1016800079FB0546494601A8FFF750FB132201A943
:101690002846FEF783FD01E0B8467F69002FFBD1A5
:1016A000D8F814006861C8F8145000240DE0E81C54
:1016B000005D40B109A8845505F10900005D07A946
:1016C0008855701CC6B2601CC4B2062CEFDB002427
:1016D00006E005F10F00005D06A90855601CC4B2C4
:1016E000A878A042F5DC2878A97806AB3246CDE987
:1016F000001007A909A8FFF7C7FC0BB0BDE8F083ED
:101700002000002008B50121042005F0AFF90120D8
:10171000ADF8000028208DF8030069460148FFF766
:1017200027FE08BD0008014008B50121102005F082
:101730009DF94FF40050ADF8000028208DF803000B
:1017400069460248FFF714FE08BD00000010014082
:1017500010B5FFF7D7FFFFF7E7FF10BD08B5012170
:10176000082005F083F90120ADF8000010208DF865
:10177000030003208DF8020069460D48FFF7F8FDCD
:101780000121802005F072F98020ADF80000694643
:101790000848FFF7EDFD0121802005F067F94FF4BF
:1017A0008070ADF8000069460248FFF7E1FD08BD12
:1017B000000C0140001C014010B5FFF7CFFF0121D4
:1017C0000648FFF76BFE80210548FFF767FE4FF4E0
:1017D00080710348FFF762FE10BD0000000C01405D
:1017E000001C014000BFFEE730B505460C4622460E
:1017F0000021284600F026F830BD00000D480E49B3
:1018000001600146416000218160C1600161416168
:101810008161C16101620163C16241620749816303
:10182000C1634FF4D841016441640146044A116028
:10183000704700007C5B002048454150C45B00209D
:10184000640000202DE9F04103460C4617460FB90D
:10185000BDE8F08103B9FBE70025002202E02D027C
:101860002543521C042AFAD3384603F0030C1946C8
:10187000BCF1000F08D0624603E001F8014B401EA6
:10188000521C08B1042AF8D30E4601E020C6001FFE
:101890000428FBD2314602E001F8014B401E00282B
:1018A000FAD100BFD4E7704770B5002100230F22A2
:1018B000C47804B3154C246804F4E064C4F5E0640F
:1018C000210AC1F10403CA40447804FA03F1847880
:1018D0001440214309010E4C0678A155047804F008
:1018E0001F050124AC4005786D11AD0005F1E02520
:1018F000C5F8004109E0047804F01F050124AC405C
:10190000044D0678761145F8264070BD0CED00E0D8
:1019100000E400E080E100E002490143024A116076
:10192000704700000000FA050CED00E010B518202B
:1019300006F020FA144908600846006820B913A090
:1019400005F0FEFB002010BD00200F49096808705B
:101950000D49096848700C49096888700A48006890
:10196000002140F8031F81800748006840F8091FE4
:10197000818005480068C0F80F10002002490968FE
:10198000486101480068DEE72000002066616C7352
:10199000653100007047000010B50348006810B1C1
:1019A00001480068804710BD7800002070B50446EB
:1019B00000F0C2F8002048490870484908704849BA
:1019C0000870484908604849086048490870484913
:1019D0000870484908704849086048490860484903
:1019E000086048490870484800680A21B0FBF1F0D7
:1019F000464908604648006858B14648056845B100
:101A00004348066803E0761E002028602D1D002E46
:101A1000F9D1002040490860404908604049086009
:101A200040490860404908604049086040490860F2
:101A30004049087002F0CAFF03F0C8F8204602F0DF
:101A40009DF8208800B170BD204602F0CBFC2088B4
:101A500000B1F8E7204602F0D1FC208800B1F2E79F
:101A6000204602F001FE208800B1ECE7204602F09B
:101A7000DDFF208800B1E6E7204603F02DFA20883C
:101A800000B1E0E7204603F097FD208800B1DAE7D7
:101A9000204602F0FFFB208800B1D4E7204602F088
:101AA00009FA208800B1CEE7204604F0EDFD208839
:101AB00000B1C8E7204603F0C3FC208800B1C2E7AC
:101AC000204604F03DFE208800B1BCE701F07CFF19
:101AD000FFF760FF00BFB6E78C00002094000020F5
:101AE000DC0000203401002038010020C20000206A
:101AF000C3000020C4000020D0000020D40000203B
:101B0000D8000020E400002088860008E0000020C3
:101B100058860008548600086C00002070000020E1
:101B200074000020780000207C000020800000204D
:101B300084000020120100200A4A1168002002E0FF
:101B4000002204C1401C084A12689042F8D3054A9A
:101B50001268054B1B6802EB8302121F034B1A60CD
:101B60007047000054860008588600083C01002099
:101B700008480078012800D0704707480078FA2804
:101B800000DBF9E704480078401C0349087000BFF7
:101B9000F2E70000940000208C00002010B5002423
:101BA0002E480078012800D010BD00BFFEF7E0FAF3
:101BB000044600BF2A48007828B900BF2046FEF737
:101BC000DBFA00BFF0E726480078401E2449087081
:101BD00008460078002805DD00BF2046FEF7CCFA55
:101BE00000BFE1E71F480078002805DD00BF204660
:101BF000FEF7C2FA00BFD7E702F0D4FE1A49087018
:101C00000846007800EB4000184951F820001849B8
:101C100008600846006817490968884205D100BF76
:101C20002046FEF7A9FA00BFBEE711480068D0F8C9
:101C30009000401C0E490968C1F890000E480068E9
:101C4000401C0D4908604FF080500C49086000BFEF
:101C50002046FEF791FA00BF00BFA5E794000020E0
:101C60008C000020DC000020C3000020F0DD0020FC
:101C700038010020340100200801002004ED00E0BC
:101C80002DE9FF4F83B0044615461F46DDE9109647
:101C9000002000904C480078002805DD45F2B9602E
:101CA000308007B0BDE8F08F1DB945F2BB603080D1
:101CB000F7E7022F03DA45F2BC603080F1E7B9F1B3
:101CC000040F03D245F2C1603080EAE74FF0030A07
:101CD000BAF1000F0DD005EA0A0018B145F2BB6059
:101CE0003080DEE709EA0A0018B145F2C1603080B1
:101CF000D7E7AB46A846781E80B20190002002903C
:101D000007E0C844CBF80080C3460298401C80B26C
:101D10000290DDE901108842F3DB0020CBF80000DF
:101D200000BF00BF00BFFEF723FA009000BFFFF71F
:101D300017F900BF25480078401C24490870084660
:101D40000078012801D103F025F800BFFFF722F940
:101D500000BF0098FEF710FA00BF00BF00BF1C488C
:101D600020600498A0606560E560A7826782A4F89F
:101D70001090204602F022FB16480088401C1549AE
:101D8000088000BF00BF00BFFEF7F2F9009000BF5F
:101D9000FFF7E6F800BF0D480078401E0B490870B9
:101DA0000846007808B903F003F800BFFFF7F2F81F
:101DB00000BF0098FEF7E0F900BF00BF00BF0020A1
:101DC000308000BF6DE700008C000020DC000020A8
:101DD0004D454D20B80000202DE9F04104460D4648
:101DE00000272CB945F2BF6028800020BDE8F081B3
:101DF00000BF00BFFEF7BCF9074600BFFFF7B0F811
:101E000000BFA08A68B900BFFFF7C4F800BF38461A
:101E1000FEF7B2F900BF00BF45F2C2602880002083
:101E2000E4E7E6683068E060A08A401EA08200BF58
:101E3000FFF7B0F800BF3846FEF79EF900BF00BFBD
:101E4000002028803046D1E72DE9F04104460E46B7
:101E50001546002724B945F2BF602880BDE8F0810F
:101E60001EB945F2BE602880F8E700BF00BFFEF74C
:101E70007FF9074600BFFFF773F800BFA08A618AA9
:101E800088420CDB00BFFFF785F800BF3846FEF73D
:101E900073F900BF00BF45F2BA602880DEE7E06852
:101EA0003060E660A08A401CA08200BFFFF772F895
:101EB00000BF3846FEF760F900BF00BF0020288051
:101EC00000BFCBE72DE9F04104460E46154600273A
:101ED00032480078002804DD42F6E1602880BDE841
:101EE000F0811CB945F6C3502880F8E700BF00BF59
:101EF00000BFFEF73DF9074600BFFFF731F800BF0E
:101F000027480078401C26490870084600780128B8
:101F100001D102F03FFF00BFFFF73CF800BF384699
:101F2000FEF72AF900BF00BF00BF1E4820606660B0
:101F30000020206284F82500A062202084F824007C
:101F400004F1080002F047FC204602F075FB164839
:101F50000088401C1449088000BF00BF00BFFEF786
:101F600007F9074600BFFEF7FBFF00BF0C480078EB
:101F7000401E0B4908700846007808B902F018FFA7
:101F800000BFFFF707F800BF3846FEF7F5F800BFBF
:101F900000BF00BF0020288000BFA0E78C00002009
:101FA000DC0000204D555458C00000202DE9F047BA
:101FB00088B00546894690461C46109E4FF0000AA0
:101FC000BF480078002805DD46F2AE10308008B02A
:101FD000BDE8F0871DB945F6C3503080F7E7B8F18A
:101FE000000F03D0B8F5004F02D100E000BF03E0BE
:101FF00045F625603080EAE700BFB249286888428C
:1020000003D045F6C4503080E1E70CB100202060D9
:1020100000BF00BFFEF7ACF8824600BFFEF7A0FF8E
:1020200000BF95F82500D0B9A74800682862A648E7
:10203000006890F8370085F82400012085F8250015
:102040000CB1A86A206000BFFEF7A4FF00BF504695
:10205000FEF792F800BF00BF00203080B7E79A4932
:10206000286A0968884214D195F82500401C85F833
:1020700025000CB1A86A206000BFFEF78BFF00BFEF
:102080005046FEF779F800BF00BF45F282703080FD
:102090009DE708F4004060B100BFFEF77BFF00BF82
:1020A0005046FEF769F800BF00BF46F2B01030801E
:1020B0008DE78648007800280CDD00BFFEF76AFF38
:1020C00000BF5046FEF758F800BF00BF46F6635009
:1020D00030807CE700BF7D480078401C7B49087059
:1020E00008460078012801D102F054FE00BFFEF737
:1020F00051FF00BF5046FEF73FF800BF00BF00BFD2
:102100002F6A97F837007049096891F837108842AC
:102110006ADD97F8360008282AD2DFE800F00415B7
:102120001E1F17162021384602F0D8FD66480068A9
:1021300090F8370087F8370097F8370002F052FC24
:10214000384602F06BFD4EE000BF00BF5E480068FD
:1021500090F8370087F8370045E000BF00BF00BFA8
:102160005948006890F83710384602F011FB3AE001
:1021700000BF00BF00BFFDF7FBFF824600BFFEF7B8
:10218000EFFE00BF51480078401E504908700846D5
:102190000078D0B902F00CFE4D48008800280BDD15
:1021A00000BFFEF7F7FE00BF5046FDF7E5FF00BF9A
:1021B00000BF02F0C1FD11E000BFFEF7EBFE00BF63
:1021C0005046FDF7D9FF00BF08E000BFFEF7E2FE72
:1021D00000BF5046FDF7D0FF00BF00BF00BF46F66E
:1021E0002D603080F3E600BF4B4604222946684646
:1021F00002F046FA00BF00BF00BFFDF7B9FF8246FC
:1022000000BFFEF7ADFE00BF30480078401E2F49EA
:1022100008700846007808B902F0CAFD00BFFEF752
:10222000B9FE00BF5046FDF7A7FF00BF00BF00BFCB
:1022300000F0A0F900BF00BFFDF79AFF824600BF83
:10224000FEF78EFE00BF2048006890F8350030B1E0
:1022500001280CD002281AD0032821D110E01CB18B
:1022600019480068006C2060002030801CE01CB120
:1022700015480068006C206046F2A910308013E019
:102280000CB10020206047F2D92030800CE01CB156
:102290000D480068006C206045F6C250308003E0B5
:1022A00046F62E60308000BF00BF00BFFEF772FE12
:1022B00000BF5046FDF760FF00BF00BF00BF86E6CD
:1022C0008C0000204D55545834010020DC000020C3
:1022D000A00000202DE9F84F0446884615464FF02F
:1022E000000A9E480078002804DD46F20E2028806F
:1022F000BDE8F88F1CB945F6C3502880F8E7B8F15F
:10230000000F03D0B8F5004F02D100E000BF03E09A
:1023100045F625602880EBE700BF91492068884298
:1023200003D045F6C4502880E2E700BF00BFFDF7A8
:102330001FFF824600BFFEF713FE00BF8949206AD7
:10234000096888420CD000BFFEF724FE00BF50464B
:10235000FDF712FF00BF00BF45F281702880C7E77C
:1023600000BF81480078401C7F490870084600780B
:10237000012801D102F00EFD00BFFEF70BFE00BFE9
:102380005046FDF7F9FE00BF00BF00BFFEF776FE26
:102390000746A76294F82500401E84F8250094F8AB
:1023A000250000283ADD00BF00BF00BFFDF7E0FEBA
:1023B000824600BFFEF7D4FD00BF6B480078401E88
:1023C0006949087008460078D0B902F0F1FC674806
:1023D000008800280BDD00BFFEF7DCFD00BF504683
:1023E000FDF7CAFE00BF00BF02F0A6FC11E000BF6F
:1023F000FEF7D0FD00BF5046FDF7BEFE00BF08E06F
:1024000000BFFEF7C7FD00BF5046FDF7B5FE00BF99
:1024100000BF00BF45F28370288069E704F1080916
:10242000B9F8080080BB0020206284F8250000BFB6
:1024300000BF00BFFDF79CFE824600BFFEF790FD87
:1024400000BF49480078401E474908700846007898
:10245000D8B902F0ADFC4548008800280BDD00BF6C
:10246000FEF798FD00BF5046FDF786FE00BF00BF97
:1024700002F062FC12E000BFFEF78CFD00BF504688
:10248000FDF77AFE00BF09E00CE000BFFEF782FD19
:1024900000BF5046FDF770FE00BF00BF00BF002028
:1024A000288025E72F48006890F8370094F824101A
:1024B000884219D02B48006802F010FC94F82400E0
:1024C0002849096881F837002649096891F83700DA
:1024D00002F088FA2348006802F0C0FB2148006837
:1024E00090F8370022490870D9F800008668266203
:1024F00096F8370084F82400012084F82500002392
:102500001A4631462046009702F0D6F900BF00BFB8
:1025100000BFFDF72DFE824600BFFEF721FD00BF84
:1025200011480078401E104908700846007808B924
:1025300002F03EFC00BFFEF72DFD00BF5046FDF748
:102540001BFE00BF00BF00BF08F4004008B900F048
:1025500011F80020288000BFCAE600008C0000208F
:102560004D55545834010020DC000020A00000200C
:10257000C200002010B5002420480078002800DDAB
:1025800010BD1F480078002800DDF9E700BFFDF707
:10259000EFFD044600BF02F005FA1A49087008462C
:1025A000007800EB4000184951F8200017490860F6
:1025B0000846006816490968884205D100BF2046D0
:1025C000FDF7DAFD00BFDBE710480068D0F89000A7
:1025D000401C0E490968C1F890000E480068401C74
:1025E0000C4908604FF080500B49086000BF20463E
:1025F000FDF7C2FD00BF00BFC2E700008C00002055
:10260000DC000020C3000020F0DD002038010020A5
:10261000340100200801002004ED00E070B50446FC
:1026200000251A480078002803DD46F66250208015
:1026300070BD17480078012803D045F689602080D6
:10264000F6E714480078FA2803DB45F209202080D9
:10265000EEE700BF00BFFDF78BFD054600BFFEF7AC
:102660007FFC00BF0B480078401C0A49087002F04C
:1026700091FB00BFFEF78EFC00BF2846FDF77CFDF6
:1026800000BF00BF0020208000BFD1E78C000020E9
:1026900094000020DC0000202DE9F04105460C46A6
:1026A0001646002700BF00BFFDF762FD074600BFCA
:1026B000FEF756FC00BF012D03D000200E49087024
:1026C00002E001200C49087014B10C48046006E0D7
:1026D0000B4800680A21B0FBF1F00849086000BF10
:1026E000FEF758FC00BF3846FDF746FD00BF00BFAF
:1026F00000203080BDE8F081E4000020E0000020F0
:102700008886000870B50446002523480078002814
:1027100003DD46F66550208070BD20480078012812
:1027200003D045F689602080F6E71D48007818B987
:1027300046F664502080EFE700BF00BFFDF718FDAC
:10274000054600BFFEF70CFC00BF15480078401E90
:10275000134908700846007800280CDD00BFFEF71A
:1027600019FC00BF2846FDF707FD00BF00BF46F675
:1027700063502080D0E702F01BFB00BFFEF70AFC8D
:1027800000BF2846FDF7F8FC00BF00BFFFF7F2FED0
:102790000020208000BFBFE78C00002094000020B4
:1027A000DC00002010B5044612480078E8B902F0B9
:1027B000F9F81149087008460078104908700E4869
:1027C000007800EB40000E4951F820000D490860E8
:1027D000084600680C490860012006490870FEF7A9
:1027E00047F843F69920208002E045F68A60208071
:1027F00010BD000094000020C3000020C200002093
:10280000F0DD002038010020340100202DE9F041E6
:1028100007464FF0000800BF00BFFDF7A9FC804647
:1028200000BFFEF79DFB00BF0020474908604749F5
:102830000880474908804749086047490860474978
:10284000086047490860474908604749088100BF58
:10285000FEF7A0FB00BF4046FDF78EFC00BF00BFA7
:1028600000BF00BFFDF784FC804600BFFEF778FB89
:1028700000BF3E48046800BFFEF78CFB00BF404627
:10288000FDF77AFC00BF00BF26E000BF00BFFDF7E8
:102890006FFC804600BFFEF763FB00BF002078346A
:1028A000E063206420602063A061A082E082606217
:1028B000A062FEF7E3FB2062783C04F1640600208E
:1028C000B081D4F8C04000BFFEF764FB00BF4046B3
:1028D000FDF752FC00BF00BF002CD6D100BF00BFE7
:1028E000FDF746FC804600BFFEF73AFB00BF2048DC
:1028F000056800BFFEF74EFB00BF4046FDF73CFCFD
:1029000000BF00BF16E000BF00BFFDF731FC8046EE
:1029100000BFFEF725FB00BF05F120060020B081B7
:10292000AD6900BFFEF736FB00BF4046FDF724FC53
:1029300000BF00BF002DE6D103F06EFD03F0FCFFE9
:1029400000203880BDE8F081A8000020A20000200F
:10295000F2000020040100201801002024010020C2
:1029600090000020D4000020E4DD00200C010020B5
:10297000C8000020F8B5044600266946364800F035
:1029800095FEBDF8000018B1BDF800002080F8BD2C
:102990006A460021022000F00BFFBDF8000018B1CC
:1029A000BDF800002080F2E700BF00BFFDF7E0FBAC
:1029B000064600BFFEF7D4FA00BF00202749086092
:1029C00000BFFEF7E7FA00BF3046FDF7D5FB00BFBA
:1029D00000BF00252248006822490968884205D9BD
:1029E0001F4800681F490968B0FBF1F525B91C486C
:1029F00000680A21B0FBF1F56A460021284600F084
:102A0000D7FE6946144800F007FCBDF8000018B175
:102A1000BDF800002080BAE700BF00BFFDF7A8FBAB
:102A2000064600BFFEF79CFA00BF00200E49086072
:102A30000A4800680D49086001200D49087000BF70
:102A4000FEF7A8FA00BF3046FDF796FB00BF00BFB7
:102A50000020208000BF9AE700E10020F400002061
:102A6000888600087086000804010020F800002015
:102A70000001002010B50348006810B1014800684B
:102A8000804710BD7C0000202DE9FF4F87B0044631
:102A90009046DDE91BA5DDE91496179F0020039001
:102AA00095480078002805DD47F24A1028800BB0D1
:102AB000BDE8F08F1CB947F2AD102880F7E7B8F1F8
:102AC000000F03D147F24F102880F0E71EB946F6F9
:102AD0002F602880EBE789480068874203D246F6DA
:102AE00030602880E3E71698B84203D346F6316099
:102AF0002880DCE7B9F1200F03D346F27320288049
:102B0000D5E7B9F1000F06D17D48844203D046F2E3
:102B100073202880CBE7B9F11F0F06D17948844292
:102B200003D046F273202880C1E7204602F054FD0E
:102B3000002028800AF0010090B10AF0020078B16C
:102B400005960020069008E0002105980160059890
:102B5000001D05900698401C06900698B842F3D3D5
:102B6000169806EB80000490CDE9007A3246404684
:102B7000049B0A9900F03AFD0590C4F828800A9851
:102B8000E0620898206284F83790059820600498E5
:102B9000A06019986065199818B95B480068A0652D
:102BA00001E01998A0651A9860606662A763A4F8AE
:102BB0003CA04FF0000B08E0002104F17C0040F83D
:102BC0002B100BF1010000F0FF0BBBF1000FF3D055
:102BD00004F16400189901F0A5FC204600F09EF86D
:102BE00000BF00BF00BFFDF7C3FA039000BFFEF7B0
:102BF000B7F900BF45480078401C444908700846B2
:102C00000078012801D102F0C5F800BFFEF7C2F933
:102C100000BF0398FDF7B0FA00BF00BF00BF94F8F3
:102C2000370001F0DFFE204602F018F8204602F0DF
:102C300089FC37480088401C3549088035480078B1
:102C4000012837D000BF00BF00BFFDF791FA039005
:102C500000BFFEF785F900BF2C480078401E2B49C5
:102C6000087008460078D0B902F0A2F82A48008817
:102C700000280BDD00BFFEF78DF900BF0398FDF7BC
:102C80007BFA00BF00BF02F057F811E000BFFEF76B
:102C900081F900BF0398FDF76FFA00BF08E000BF9D
:102CA000FEF778F900BF0398FDF766FA00BF00BF92
:102CB00000BFFCE600BF00BF00BFFDF759FA03905C
:102CC00000BFFEF74DF900BF10480078401E0F49C5
:102CD00008700846007808B902F06AF800BFFEF7ED
:102CE00059F900BF0398FDF747FA00BF00BF00BFC6
:102CF000FFF740FC00BFDAE68C0000208486000865
:102D00001CDD002054DC0020E0000020DC0000205E
:102D10001001002094000020A000002010B50446FF
:102D20000348006818B1204601490968884710BD6A
:102D30006C00002070B504460D46002678480078E7
:102D4000002803DD47F24E10288070BD754884428C
:102D500003D147F24C102880F7E77348844203D12F
:102D600047F24D102880F0E79CB900BF00BFFDF787
:102D7000FFF9064600BFFEF7F3F800BF6B48046892
:102D800000BFFEF707F900BF3046FDF7F5F900BFB9
:102D900000BF00BF00BF00BFFDF7EAF9064600BF55
:102DA000FEF7DEF800BF62480078401C60490870FA
:102DB00008460078012801D101F0ECFF00BFFEF7C2
:102DC000E9F800BF3046FDF7D7F900BF00BF00BFEC
:102DD00094F8360008282DD2DFE800F004090E1020
:102DE000080A0F11204601F079FF5EE05DE000BFA8
:102DF000204603F0F5FA58E000BF00BF00BF2046B0
:102E000003F0EEFA94F83400082810D2DFE800F05E
:102E100004070508090A0B0600BF00BF08E000BF51
:102E200000BF00BF00BF204601F00DFD00E000BF65
:102E300000BF3AE000BF00BF00BFFDF799F90646AA
:102E400000BFFEF78DF800BF39480078401E3849B2
:102E5000087008460078D0B901F0AAFF354800880C
:102E600000280BDD00BFFEF795F800BF3046FDF7E8
:102E700083F900BF00BF01F05FFF11E000BFFEF764
:102E800089F800BF3046FDF777F900BF08E000BFC2
:102E9000FEF780F800BF3046FDF76EF900BF00BFB7
:102EA00000BF46F62D6028804FE700BF04F16400A4
:102EB00001F0E2FA204600F041F8204602F05AFB09
:102EC0001D480088401E1C490880204602F084FBF3
:102ED000FF2084F8360000BF00BF00BFFDF748F9AF
:102EE000064600BFFEF73CF800BF11480078401EC0
:102EF0000F4908700846007808B901F059FF00BF73
:102F0000FEF748F800BF3046FDF736F900BF00BFB6
:102F100000BF00202880FFF72DFB00BF15E7000051
:102F20008C00002054DC00201CDD00203401002037
:102F3000DC000020A00000201001002010B5044695
:102F40000348006818B1204601490968884710BD48
:102F5000700000202DE9F05F80460F4616461C46A3
:102F60000A9D4FF0000B8A480078002805DD46F2E4
:102F7000AE1028800020BDE8F09F26B946F2D5208B
:102F800028800020F7E71FB1B7F5004F02D100E01D
:102F900000BF04E045F6256028800020EBE700BF75
:102FA0000CB10020206000BF00BFFDF7E1F88346B0
:102FB00000BFFDF7D5FF00BF7648006800F1640947
:102FC0002B4622463146484601F078FA8246288848
:102FD00000BBA4B1FEF752F82168401A6D49096898
:102FE00048676C480068806F6A490968496F884281
:102FF00005D268480068406F66490968886700BF65
:10300000FDF7C8FF00BF5846FDF7B6F800BF00BF88
:103010005046B0E707F4004068B146F2B01028808F
:1030200000BFFDF7B7FF00BF5846FDF7A5F800BF8A
:1030300000BF00209FE75848007800280DDD00BF42
:10304000FDF7A8FF00BF5846FDF796F800BF00BF88
:1030500046F66350288000208DE700BF4E48007878
:10306000401C4D49087008460078012801D101F044
:1030700091FE00BFFDF78EFF00BF5846FDF77CF8BC
:1030800000BF00BF00BF434602220021084601F0F6
:10309000F7FA00BF00BF00BFFDF76AF8834600BF24
:1030A000FDF75EFF00BF3C480078401E3A490870BB
:1030B0000846007808B901F07BFE00BFFDF76AFF03
:1030C00000BF5846FDF758F800BF00BF00BFFFF72C
:1030D00051FA00BF00BFFDF74BF8834600BFFDF774
:1030E0003FFF00BF2B48006890F8350020B1012851
:1030F0002AD0032832D132E026480068D0F85CA0FC
:1031000024480068B0F860003080D4B121480068DD
:10311000006C2060FDF7B2FF1E490968096C401A77
:103120001C49096848671B480068806F194909688D
:10313000496F884205D217480068406F15490968F1
:1031400088670020288017E04FF0000A00203080B8
:1031500004B1206046F2A91028800DE000BF4FF0B6
:10316000000A002030801CB10A480068006C206012
:1031700047F2D920288000BF00BF00BFFDF70AFF3B
:1031800000BF5846FCF7F8FF00BF00BF5046F2E60C
:103190008C00002034010020DC0000202DE9FF47D6
:1031A0000746884691461D460C9E4DB1102D08D00D
:1031B000B5F5004F06D0A5F50040103820B902E063
:1031C00000BF00BF00BF04E045F625603080BDE8C9
:1031D000FF8700BFFDF752FF04460D480078002826
:1031E0000BDD00204B4642463946CDE90246CDE98B
:1031F0000005084800F096FEE9E72B464A4641469E
:103200003846CDE9004602F04FFA00BFDFE7000084
:103210008C000020544D53477FB504460D460026D0
:1032200000BF00BFFCF7A4FF064600BFFDF798FEF5
:1032300000BF1CB11748006884420CD100BFFDF7E5
:10324000A9FE00BF3046FCF797FF00BF00BF47F262
:10325000571028807FBD00BFFDF79CFE00BF3046A1
:10326000FCF78AFF00BF00BF0B48007800280BDD89
:10327000002000900190034602462146CDE9020558
:10328000064800F04FFEE5E72946204602F050FBD5
:1032900000BFDFE7340100208C000020545245536A
:1032A00010B504460348006818B120460149096872
:1032B000884710BD740000202DE9F04780460E4677
:1032C00014461D464FF000098C480078002805DDA3
:1032D00046F2AE1028800020BDE8F0871EB1B6F59A
:1032E000004F02D100E000BF04E045F625602880D1
:1032F0000020F1E700BF0CB10020206000BF00BF3C
:10330000FCF736FF814600BFFDF72AFE00BF7C4870
:103310000068406CB8B37A480068406C401E784939
:103320000968486476480068476C1CB174480068B6
:10333000006C2060FDF7A2FE71490968096C401A13
:103340006F490968C1F8A4006D480068D0F8A8006A
:103350006B490968D1F8A410884207D26848006810
:10336000D0F8A40066490968C1F8A80000BFFDF7BD
:1033700011FE00BF4846FCF7FFFE00BF00BF002063
:1033800028803846A8E7FFE706F4004068B100BF90
:10339000FDF700FE00BF4846FCF7EEFE00BF00BF91
:1033A00046F2B0102880002096E7564800780028A2
:1033B0000DDD00BFFDF7EEFD00BF4846FCF7DCFE6B
:1033C00000BF00BF46F663502880002084E700BF9E
:1033D0004C480078401C4B4908700846007801288A
:1033E00001D101F0D7FC00BFFDF7D4FD00BF484676
:1033F000FCF7C2FE00BF00BF00BF4346072200210A
:10340000084601F03DF900BF00BF00BFFCF7B0FE69
:10341000814600BFFDF7A4FD00BF3A480078401E7A
:10342000384908700846007808B901F0C1FC00BFAF
:10343000FDF7B0FD00BF4846FCF79EFE00BF00BF91
:1034400000BFFFF797F800BF00BFFCF791FE814671
:1034500000BFFDF785FD00BF2948006890F83500E2
:1034600020B1012826D0032834D12CE0FCB1244817
:103470000068006C2060FDF701FE21490968096CB5
:10348000401A1F490968C1F8A4001D480068D0F817
:10349000A8001B490968D1F8A410884207D218482F
:1034A0000068D0F8A40016490968C1F8A8000020F7
:1034B000288013E01CB112480068006C206046F2BE
:1034C000A91028800AE00CB10020206047F2D92022
:1034D000288003E046F62E60288000BF00BF084821
:1034E0000068476C00BFFDF755FD00BF4846FCF77C
:1034F00043FE00BF00BF3846EEE600008C0000200F
:1035000034010020DC0000202DE9F04705460E467E
:1035100017461C464FF0000A32480078002804DDA8
:1035200047F259102080BDE8F0871EB946F2D52039
:103530002080F8E71FB946F2D5202080F3E700BFCE
:1035400000BFFCF715FE824600BFFDF709FD00BF76
:103550000DB925480568286878B900BFFDF71AFD40
:1035600000BF5046FCF708FE00BF00BF00203060DF
:10357000386047F252102080D5E795F83C0000F003
:10358000010078B900BFFDF705FD00BF5046FCF70C
:10359000F3FD00BF00BF00203060386047F25410D8
:1035A0002080C0E700BFFDF7F5FC00BF5046FCF7E8
:1035B000E3FD00BF00BF4FF00008D5F8249003E002
:1035C00009F1040908F10108D9F800000028F7D032
:1035D000C6F80080A86BA0EB0800386000202080AF
:1035E00000BFA0E78C00002034010020F0B50446A5
:1035F000DDE9055602EB85004FF0807C071F384659
:10360000C7F800C0071F38463C60DFF89CC0071FA2
:103610003846C7F800C04FF0123C071F3846C7F8BD
:1036200000C04FF0033C071F3846C7F800C04FF0FA
:10363000023C071F3846C7F800C0071F38463B60EA
:10364000071F384639604FF0113C071F3846C7F84E
:1036500000C04FF0103C071F3846C7F800C04FF0BD
:10366000093C071F3846C7F800C04FF0083C071F49
:103670003846C7F800C04FF0073C071F3846C7F868
:1036800000C04FF0063C071F3846C7F800C04FF097
:10369000053C071F3846C7F800C04FF0043C071F21
:1036A0003846C7F800C0F0BDAD5A00087FB50546E2
:1036B0000C461248854203D147F25B1020807FBD43
:1036C0000F48854203D147F25C102080F7E70D4890
:1036D000007800280BDD0020009001900346024690
:1036E0002946CDE90204084800F01CFCE7E7214622
:1036F000284602F0BBFC00BFE1E7000054DC0020DC
:103700001CDD00208C0000205453555370B5244814
:10371000006810B1224800688047FDF7AFFC0446FE
:103720002048006820490968884215D01D48006873
:10373000D0F89800201A1B490968C1F8940019486C
:103740000068D0F89C0017490968D1F89410084423
:1037500014490968C1F89C0013480068C0F89840F3
:10376000FDF7D2FB05460F480068D0F8B400A84228
:1037700003D20C480068C0F8B4500A480068D0F87A
:10378000B8000A490968884205D208480068054916
:103790000968C1F8B80000200449086070BD000045
:1037A000800000203401002038010020D8000020D3
:1037B0002DE9F04105460E46144600274D48007895
:1037C000002804DD47F275202080BDE8F0814A48DA
:1037D0000078002803DD46F663502080F5E736B117
:1037E000022E05D0042E0AD0082E09D101E000BF18
:1037F00000BF1DB947F27E202080E6E704E003E029
:1038000045F625602080E0E700BF00BF00BF00BF95
:10381000FCF7AEFC074600BFFDF7A2FB00BF364831
:103820000078401C3449087008460078012801D10E
:1038300001F0B0FA00BFFDF7ADFB00BF3846FCF762
:103840009BFC00BF00BF00BF01202C49096881F824
:1038500036002346324629462848006802F0E2FC3A
:103860002088F0B100BF00BF00BFFCF781FC074615
:1038700000BFFDF775FB00BF1F480078401E1E49C2
:1038800008700846007808B901F092FA00BFFDF709
:1038900081FB00BF3846FCF76FFC00BF00BF00BFD4
:1038A00093E71648006801F019FA00BF00BF00BF97
:1038B000FCF75EFC074600BFFDF752FB00BF0E4859
:1038C0000078401E0C4908700846007808B901F0DD
:1038D0006FFA00BFFDF75EFB00BF3846FCF74CFCFB
:1038E00000BF00BF00BFFEF745FE0020208000BFE4
:1038F0006BE700008C000020DC0000203401002079
:1039000010B586B000F01EF8FDF7B8FB044605A818
:1039100000210091CDE9011403900748007800EBE5
:103920004000064A02EB800100231A46044800F0DA
:10393000F9FA06B010BD0000C2000020F0DD002042
:103940005449434B10B50348006810B10148006862
:10395000804710BD8400002010B5002400BF00BFC8
:10396000FCF706FC044600BFFDF7FAFA00BF094861
:103970000078401C0749087000BFFDF70BFB00BF33
:103980002046FCF7F9FB00BF00BFFFF7B9FFFEF7C9
:1039900005F910BD8C00002001464A1E4FF0E023BF
:1039A0005A61084A106820F07F4000BF10601A4634
:1039B000126942F005021A611A46126942F00202C7
:1039C0001A61704720ED00E0254A2649264A274A19
:1039D0002749284A2848294A294A2A4A2A4A2B4854
:1039E0002B482C482C4A2D482D4A2E482E4A2F4829
:1039F0002F4830483048314A314A324A3248334AF7
:103A0000334A3448344835483548364836483748CC
:103A1000374A384A384A394A39483A483A483B4A94
:103A20003B4A3C4A3C483D483D483E493E483F4A67
:103A30003F4A404A404A414A414A424A4248434A30
:103A4000434A44484448454A454A4648464A474A04
:103A500047484848484800BF00BF00BF70470000C3
:103A6000CC86000834880008CD860008CE86000881
:103A7000D0860008D4860008D8860008D5860008BD
:103A800000870008018700080287000804870008F3
:103A900006870008088700080A8700080C870008C6
:103AA0002C8700082E87000830870008328700081E
:103AB00034870008368700083887000864870008C4
:103AC0006587000866870008688700086A8700081D
:103AD0006B8700086C8700086E87000870870008F5
:103AE00072870008748700087687000878870008C6
:103AF000A8870008A9870008AA870008AB870008E4
:103B0000AC870008AE870008B0870008D887000897
:103B1000D9870008DA870008DB870008DC870008FF
:103B2000DE870008E0870008E4870008E5870008D2
:103B3000E6870008E7870008E8870008E9870008AB
:103B4000EA870008EB870008EC870008EE8700088A
:103B5000EF870008F0870008F2870008F487000864
:103B6000F5870008F88700082C8800082D880008D1
:103B70002E88000830880008328800080021034A97
:103B80001160034A1180018070470000AC000020E2
:103B9000B00000202DE9F04F85B0044689469246DA
:103BA0009B46DDF838800020009000BF00BFFCF786
:103BB000DFFA009000BFFDF7D3F900BFBAF1000FA4
:103BC0000AD0BAF1010F0DD0BAF5004F05D06FF44D
:103BD0000040504460B906E000BF206A40EA090096
:103BE000206216E000BF206A20EA0900206210E08F
:103BF00000BFFDF7CFF900BF0098FCF7BDFA00BF8A
:103C000000BF45F62560A8F80000002005B0BDE81B
:103C1000F08F00BFC4F824B004F1080001900198AF
:103C2000008968B900BFFDF7B5F900BF0098FCF73F
:103C3000A3FA00BF00BF0020A8F80000206AE5E753
:103C400000BF71480078401C6F4908700846007832
:103C5000012801D101F09EF800BFFDF79BF900BFDC
:103C60000098FCF789FA00BF00BF00BF0198076801
:103C7000BD6889E07868029095F8880000F00F0030
:103C800003900398012821D002282ED0042802D0C6
:103C9000082836D10EE0206AD5F8801000EA010627
:103CA000D5F88000B04204D15A463146284600F08B
:103CB000AFF863E0206AD5F8801000EA010626B16B
:103CC0005A463146284600F0A3F857E0D5F8800060
:103CD000216A20EA0106D5F88000B04204D15A4694
:103CE0003146284600F094F848E0D5F88000216A73
:103CF00020EA010626B15A463146284600F088F8E7
:103D00003CE000BF00BF00BFFCF732FA009000BFEC
:103D1000FDF726F900BF3C480078401E3A4908707C
:103D200008460078D0B901F043F8384800880028E8
:103D30000BDD00BFFDF72EF900BF0098FCF71CFA61
:103D400000BF00BF00F0F8FF11E000BFFDF722F94F
:103D500000BF0098FCF710FA00BF08E000BFFDF7B5
:103D600019F900BF0098FCF707FA00BF00BF00BFB9
:103D700043F6FF20A8F80000002047E700BF029F9D
:103D80000FB1BD6800E00025002D7FF473AF00BFC8
:103D900000BF00BFFCF7ECF9009000BFFDF7E0F8B2
:103DA00000BF19480078401E17490870084600787F
:103DB00008B900F0FDFF00BFFDF7ECF800BF009868
:103DC000FCF7DAF900BF00BF00BF0AF4004008B9F1
:103DD000FEF7D0FB00BF00BFFCF7CAF9009000BFA0
:103DE000FDF7BEF800BF206A049000BFFDF7D2F8CF
:103DF00000BF0098FCF7C0F900BF00BF0020A8F882
:103E00000000049802E70000DC000020A000002071
:103E100070B504460E4615463434266500206070A1
:103E20002070E560A078343C082816D2DFE800F066
:103E3000040508090706101100BF00BF00BF0DE010
:103E400000BF204601F066FD002084F8360005E042
:103E500000BF042084F8360000E000BF00BF204609
:103E600000F0F1FC70BD0000002400BF1DE000BFA9
:103E700000BFFCF77DF9044600BFFDF771F800BFF5
:103E80000A480068401C0949086009480068401C4D
:103E90000749086000BFFDF77DF800BF2046FCF72A
:103EA0006BF900BF00BFFDF777FDE0E78800002059
:103EB000F400002010B58AB0044600200E490860C6
:103EC0000B2000210591CDE90704069108460B4916
:103ED00009680B4A12680B4B1B68CDE90132CDE92A
:103EE00003101F200023084A08A100900C48FEF789
:103EF000CBFD0AB010BD000088000020308600080D
:103F00002C86000828860008693E000875432F4F5C
:103F1000532D4949492049646C65205461736B00F5
:103F200054DC00202DE9F84F04460D4616461F4686
:103F3000DDE90BABDDF82890DDF83480002000903F
:103F400000BF00BFFCF714F9009000BFFDF708F8B0
:103F500000BF2C4800882C49098888423EDA29484D
:103F60000088401C27490880284800880988884222
:103F700003DA244800882549088025480068046041
:103F800023480068856022480068C66020480068B1
:103F900007821F480068C0F814901D480068A0F808
:103FA00018A01B480068C0F81CB019480068406899
:103FB00017490860012017490881174808604860C0
:103FC000002000F00FFD1548007818B11348007864
:103FD000134908700020A8F8000008E01148008884
:103FE000401C1049088044F25360A8F8000000BF4C
:103FF000FCF7D0FF00BF0098FCF7BEF800BF00BF81
:10400000BDE8F88FA00000203C860008A200002038
:1040100098000020F0DD00201CDD0020C200002000
:10402000C4000020A40000203EB559480068006884
:10403000584A811A904279D00FDC57490844002829
:104040003ED056490844A8B155490844002860D0DC
:104050005449084400286AD13FE0534808440028E6
:1040600050D052490844002862D0514908440028E1
:10407000F1D110E002A8464D00902D68EB69444D47
:104080002D682A8B424D2D686969414D2D68A868BD
:10409000FFF780FD7AE002A93D480068C0693C4D09
:1040A000CDE900012D682B8B394D2D682A8A384DBA
:1040B0002D68E968364D2D68A86800F0C3FC65E0FE
:1040C000334B1B68DA69324B1B68198B304B1B680A
:1040D000986802AB00F00CFF58E002A92C48006879
:1040E000C0692B4DCDE900012D682B8B284D2D6823
:1040F0002A8A274D2D68E968254D2D68A86801F0AA
:10410000D3FA43E022490968886802A901F010FC4B
:104110003CE01F4B1B68DA691D4B1B68198B1C4B5D
:104120001B68986802AB01F0CDFC2FE007E02CE0A3
:1041300017490968886802A901F098FF26E01D491F
:10414000097801EB41011C4A02EB810000F04EFEB0
:104150000F48006802AB0021C269184801F0B2FCA8
:1041600017480068401E164908600846006858B99C
:10417000144800680860FCF781FF044602AB224641
:104180000021114801F09EFC00E000BF00BF3EBDD1
:104190009C0000205449434BADBAB2BE0DF90BFA56
:1041A000F2F8F7FF0006F6FF00F7FDF700FFEFFF5C
:1041B00003FE0FFEC4000020F0DD002038E00020E8
:1041C000300100202C01002000E10020002700BF6A
:1041D00056E0002652E000BF00BFFBF7C9FF0746CC
:1041E00000BFFCF7BDFE00BF2648008898B900203C
:1041F000254908810860486000F006FC00BFFCF714
:10420000C9FE00BF3846FBF7B7FF00BF00BFFEF78F
:10421000B1F9012632E000BFFCF7BCFE00BF384612
:10422000FBF7AAFF00BF00BFFCF728FF0546FFF71A
:10423000FBFEFCF723FF441B14480068A04201D298
:104240001248046000BF00BFFBF792FF074600BFA3
:10425000FCF786FE00BF0E48006840680C49086005
:1042600008480088401E0749088000BFFCF792FEFE
:1042700000BF3846FBF780FF00BF00BF002EAAD06A
:10428000A7E70000A0000020F0DD0020A80000202B
:104290009C000020F0B589B0054600203149088017
:1042A0003148006820B944F25260288009B0F0BD5E
:1042B0002E480088022803DA44F254602880F5E78B
:1042C00000202B490860284804682646203600272D
:1042D0000CE0284820600020A060E060208260613F
:1042E0002083666020342036781C87B21F480088FF
:1042F0008742EEDB203C1C48066866601E4806606C
:104300001E48066000201E4908801E4908801E487D
:10431000006818B944F255602880C7E71B48006858
:104320001B490968884203D244F256602880BDE7E1
:10433000032000210591CDE9070506911348006887
:10434000144A1268104B1B68CDE90301CDE9013214
:1043500000910B46104A11A11748FEF795FB00BFCC
:10436000A4E70000A4000020388600083C8600086E
:10437000A80000204E4F4E45980000209C000020D1
:10438000A0000020A2000020448600084C860008FF
:104390008486000848860008CD41000875432F4FE9
:1043A000532D49494920495352205175657565205F
:1043B0005461736B000000001CDD0020002181614E
:1043C0000749096811B90021C16105E0044909687C
:1043D000C1610349096888610149086070470000AC
:1043E000B40000200021034A1160034A11800180BB
:1043F00070470000B4000020B800002070B50146EE
:104400001A4D2D681DB945F21E750D8070BD184DF1
:104410002D881DB945F21D750D80F7E7134D2868ED
:104420002A681032124D2D886D1EACB2002308E0B0
:104430000260002545600581C560103010325D1CAA
:10444000ABB2A342F4DB0025056045600581C56081
:10445000064D2D68074E3560054D2D88B580002529
:10446000F58035810D8000BFD0E700006886000828
:1044700060860008E4DD002010B5014648894B89BC
:10448000002B17DD0A680C4B1B6813600A4C4B6845
:1044900023602346DB884C891B1B074CE3802346A3
:1044A0009B884C892344044CA38000234B818B813F
:1044B0000B604B6010BD0000E4DD0020F0B5044649
:1044C0000D46608940B90020288002B1106046F294
:1044D000925018800020F0BD61684E6808892880DD
:1044E0000AB1C868106008686060606818B9002088
:1044F0002060608102E06089401E60810848006899
:104500000860074801608088401C054FB880384625
:10451000C088401EF880002018803046DBE700008D
:10452000E4DD00200181002242818281026042603C
:10453000704700002DE9F0410D46DDE90674B0F842
:104540000AC0B0F80880C44505DB46F2935CA4F8C5
:1045500000C0BDE8F081DFF8DCC0BCF804C0BCF1ED
:10456000000F04D145F21D7CA4F800C0F1E7DFF88C
:10457000C4C0DCF80010DFF8BC80D1F800C0C8F877
:1045800000C0C446BCF804C0ACF1010CA8F804C0DB
:10459000C446BCF806C00CF1010CA8F806C0C4461D
:1045A000BCF808C0B8F80680C44507DADFF884C054
:1045B000BCF806C0DFF87C80A8F808C0B0F80AC0D4
:1045C000BCF1000F0AD1016041604FF0010CA0F86E
:1045D0000AC04FF0000CC1F800C017E003F0100C47
:1045E000BCF1000F07D10668316001604FF0000C8C
:1045F000C1F800C004E0D0F804C0C1F800C04160B8
:10460000B0F80AC00CF1010CA0F80AC0B0F80CC058
:10461000B0F80A80C44503DAB0F80AC0A0F80CC0AC
:104620004D600A81CF604FF0000CA4F800C000BFBD
:104630008FE70000E4DD002009A1C1610021416194
:104640000849096811B90021816105E00549096837
:1046500081610449096848610249086070470000A7
:1046600020000000BC0000200021034A1160034A22
:104670001180018070470000BC000020C0000020B5
:104680002DE9F04105460C4616461F4615480068C0
:1046900080F8346000201349096881F835003946F4
:1046A0001048006800F032FF6CB104F10808EC60BB
:1046B000012229460B48006800F016F829464046BA
:1046C00000F08EF806E0002006490968C887054911
:1046D0000968086303480168204600F019F8BDE83E
:1046E000F08100003401002010B5C287016300236F
:1046F0000AE000244C600C600C614C610C83CC61BE
:10470000886020315C1CA3B29342F2DB10BD000034
:1047100030B548B14568C1F8C45000F108042268BA
:1047200093681D6AC56113E091F83450022D02D0E0
:10473000072D08D103E007A5C1F8C45007E007A57D
:10474000C1F8C45003E008A5C1F8C45000BF00BFC1
:1047500030BD00005461736B205100005461736BD5
:104760002053656D000000002000000030B507A553
:10477000C1F8C45000F1080422681AB193681D6A98
:10478000C56101E001A5C56130BD00002000000049
:104790002DE9F04304460F4684F83770256BB4F8D2
:1047A0003E8013E0D5F80C9009F108063089012805
:1047B00007D92946304600F05EF82946304600F019
:1047C0000FF82035A8F101001FFA80F8B8F1000FAA
:1047D000E8D1BDE8F08300210160416001817047AC
:1047E000F0B58E6896F8375007893FB901270781E1
:1047F00000274F600F600160416023E007897F1C44
:104800000781026806E0946894F83770AF4200DDD3
:1048100002E05268002AF6D100BF32B900274F608B
:1048200043680B60596041600CE017682FB9116054
:1048300000270F604A60016004E013680B604A6063
:1048400059601160F0BD2DE9F0410446256BE68FFB
:104850000AE0D5F80C8008F108072946384600F030
:104860000AF82035701E86B2002EF2DC0020E087A8
:104870002063BDE8F08110B50489012C03D1002428
:104880000460446011E00C6824B94A680024146094
:1048900002600AE04C6824B90B6800245C60436045
:1048A00003E00B684A685A6013600489641E04813F
:1048B00000244C600C6010BD2DE9F84306460C4600
:1048C00017469846089D94F83600082850D2DFE82D
:1048D00000F00405080906072B2C00BF00BF00BF2D
:1048E00047E000BF94F83400032807D143463A4616
:1048F00021463046009500F03FF803E0E765A4F854
:104900006080256436B12046FFF79DFF2146304682
:10491000FFF72CFF204600F0FDFF00203434A0708C
:10492000607004F8340924E000BF94F834000328D0
:1049300007D143463A4621463046009500F01CF820
:1049400003E0E765A4F860802564204601F048FD97
:1049500036B12046FFF777FF21463046FFF706FFC6
:1049600004203434A0700020607004F8340900E0A2
:1049700000BF00BFBDE8F883F0B50446059E086B94
:10498000CD8F0AE0C768A74204D104614261038366
:10499000C66104E020306F1EBDB2002DF2DC00BF06
:1049A000F0BD000070B50025074C03E005F12000C4
:1049B000C5B2241D20680028F8D02068FBF7E3FB6F
:1049C0002844C5B2284670BD68000020002004E0DD
:1049D0000021034A42F82010401C0028F8D07047FC
:1049E0006800002030B5420900F01F030121C3F127
:1049F0001F04A140034C54F822400C43014D45F8DC
:104A0000224030BD6800002030B5420900F01F038D
:104A10000121C3F11F04A140034C54F822408C43F0
:104A2000014D45F8224030BD680000200021034AB6
:104A30001160034A1180018070470000C800002007
:104A4000CC0000202DE9F04F85B007468A469346FA
:104A50001C460020029000BF00BF00BFFBF788FB90
:104A6000029000BFFCF77CFA00BF56480078401C5B
:104A70005449087008460078012801D100F08AF9ED
:104A800000BFFCF787FA00BF0298FBF775FB00BF79
:104A900000BF00BF07F10806308900284CD104F0A0
:104AA000100010B94FF0000801E04FF01008DDE9E8
:104AB0000E0143465A46CDE90001514607F1200058
:104AC000FFF738FD00BF00BF00BFFBF751FB0290AE
:104AD00000BFFCF745FA00BF3A480078401E39494C
:104AE000087008460078D0B900F062F936480088AE
:104AF00000280BDD00BFFCF74DFA00BF0298FBF762
:104B00003BFB00BF00BF00F017F911E000BFFCF74E
:104B100041FA00BF0298FBF72FFB00BF08E000BF7F
:104B2000FCF738FA00BF0298FBF726FB00BF00BF76
:104B300000BF05B0BDE8F08F04F4007008B13589FE
:104B400000E00125D6F8009011E0D9F808000390A4
:104B5000D9F8040004900E985B46524600903846FF
:104B60000399FFF7A9FEDDF81090681E85B2002DAD
:104B7000EBD100BF00BF00BFFBF7FAFA029000BF05
:104B8000FCF7EEF900BF0F480078401E0D49087091
:104B90000846007808B900F00BF900BFFCF7FAF9F5
:104BA00000BF0298FBF7E8FA00BF00BF00BF04F4A3
:104BB000004008B9FDF7DEFC00210F98018000BF1E
:104BC000B7E70000DC000020A000002000210AE080
:104BD00001EB4102054B03EB8200002202810260DF
:104BE00042604A1CD1B22029F2D37047F0DD002088
:104BF00010B5044694F83700FFF7F4FE94F8370038
:104C000005490978884203D1204600F027F802E0E0
:104C1000204600F003F810BDC200002010B590F847
:104C2000373003EB43030C4C04EB83010B893BB996
:104C300001230B810023C36003610860486009E021
:104C40000B895B1C0B810B68C360002303610A683E
:104C50001061086010BD0000F0DD002010B590F874
:104C6000373003EB43030B4C04EB83010B893BB957
:104C700001230B810023C36003610860486008E0E2
:104C80000B895B1C0B810023C3604A680261D06002
:104C9000486010BDF0DD002010B501460C8924B13C
:104CA000012C03D0022C0CD101E000BF14E00868F5
:104CB0004A6802610024C4601461D0600A604860E0
:104CC0000AE008684A68C36800241C61C460026185
:104CD000D0600B60486000BF00BF10BD2DE9F041FF
:104CE000054695F8370000EB4000124901EB8004BF
:104CF0002F69EE6887B946B9002020812060606086
:104D000095F83700FFF780FE0EE02089401E2081D5
:104D100000203061266007E02089401E2081FE606F
:104D20000EB9676000E0376100202861E860BDE8E7
:104D3000F0810000F0DD002010B5002400BFFBF77B
:104D400017FA044600BF00200D4908700D480E49AF
:104D5000086008460068D0F89000401C0968C1F857
:104D600090000A480068401C084908604FF08050D5
:104D70000749086000BF2046FBF7FEF900BF10BDE1
:104D8000C30000201CDD00203801002008010020A5
:104D900004ED00E010B504480078012803D1FCF7C9
:104DA0006DF90249086010BDDC000020D000002031
:104DB00010B50A48007880B9FCF760F9084909681D
:104DC000441A08480068A04201D206480460064818
:104DD0000068A04201D20448046010BDDC0000203D
:104DE000D0000020D4000020D800002070B5054677
:104DF000002635480078012800D070BD00BF00BFF4
:104E0000FBF7B6F9064600BFFCF7AAF800BF2C680E
:104E10004CB900BFFCF7BEF800BF3046FBF7ACF959
:104E200000BF00BFE9E72948844209D100BFFCF771
:104E3000B1F800BF3046FBF79FF900BF00BFDCE7C9
:104E4000A06D10B1A06D401EA065A06D48B100BF5F
:104E5000FCF7A0F800BF3046FBF78EF900BF00BF9B
:104E6000CBE72889022809DA00BFFCF793F800BFD6
:104E70003046FBF781F900BF00BFBEE71448007859
:104E8000002809DD00BFFCF785F800BF3046FBF7BE
:104E900073F900BF00BFB0E72846FFF7FDFE2C689E
:104EA000606D18B90B480068A06501E0606DA065F1
:104EB00000BFFCF76FF800BF3046FBF75DF900BF9D
:104EC00000BF00BF99E70000E400002054DC002090
:104ED000DC000020E00000200021034A1160034AAA
:104EE0001180018070470000E8000020EC000020E5
:104EF0002DE9FF5F0446884691461D46002001903B
:104F000000BF00BFFBF734F9019000BFFCF728F8A1
:104F100000BF04F108073889002857D10420012870
:104F200004D0022816D004283AD127E0206AFF28AE
:104F30000FD100BFFCF72EF800BF0198FBF71CF95A
:104F400000BF00BF46F6C5502880002004B0BDE871
:104F5000F09F26E04FF6FF71206A88420DD100BF16
:104F6000FCF718F800BF0198FBF706F900BF00BF77
:104F700046F6C55028800020E8E712E0206A401C71
:104F800068B900BFFCF706F800BF0198FBF7F4F81A
:104F900000BF00BF46F6C55028800020D6E700E0DD
:104FA00000BF00BF206A401C2062D4F820A0C4F8D3
:104FB000249000BFFBF7EEFF00BF0198FBF7DCF881
:104FC00000BF00BF002028805046BFE700BF2D482B
:104FD0000078401C2B49087008460078012801D150
:104FE000FFF7D8FE00BFFBF7D5FF00BF0198FBF726
:104FF000C3F800BF00BF00BF08F4007008B13E89CD
:1050000000E00126D7F800B011E0DBF808000290BC
:10501000DBF80400039000231A46CDF800902046E8
:105020000299FFF749FCDDF80CB0701E86B2002E25
:10503000EBD1D4F820A000BF00BF00BFFBF798F869
:10504000019000BFFBF78CFF00BF0E480078401EA8
:105050000C4908700846007808B9FFF7A9FE00BFA0
:10506000FBF798FF00BF0198FBF786F800BF00BF71
:1050700000BF08F4004008B9FDF77CFA0020288042
:10508000504663E7DC00002086B00020009000BF9F
:1050900006E0D9490968480001AA0021FEF788FB0B
:1050A000D64800780128F4D101A8FDF7AFFB00270E
:1050B000D3480068D0490968884205D9D0480068BB
:1050C000CD490968B0FBF1F727B9CD4800680A213E
:1050D000B0FBF1F78EE1FBF7D1FF8246FBF72AFF29
:1050E000C849086000BF00BFFBF742F8009000BF4E
:1050F000FBF736FF00BFC4480068C44908600020C1
:10510000C149086000BFFBF745FF00BF0098FBF7EF
:1051100033F800BF00BFBE480068BC490968884238
:1051200048D9BB480068BB49884205D242F210709A
:1051300003900120029023E0B5480068B6498842F8
:1051400005D24FF47A7003900A20029018E0B0481C
:105150000068B249884203D26420039002900FE0B5
:10516000AB480068AE49884205D20A2003904FF44C
:105170007A70029004E00120039042F210700290D5
:10518000A34801680298B1FBF0F9A04903980968A7
:105190004843B0FBF9F042F21071081AA1490880A7
:1051A000A14800880988884208DA9E4800889E49FC
:1051B000088003E042F210709A490880FDF75AFC1B
:1051C000002500BF00BFFAF7D3FF009000BFFBF738
:1051D000C7FE00BF9548046800BFFBF7DBFE00BFB9
:1051E0000098FAF7C9FF00BF00BF72E000BF00BF20
:1051F00000BFFAF7BDFF009000BFFBF7B1FE00BF94
:105200008B480078401C8A490870084600780128BD
:1052100001D1FFF7BFFD00BFFBF7BCFE00BF009848
:10522000FAF7AAFF00BF00BF00BF54F89C0F6060F0
:10523000002044F89C0900BF00BF00BFFAF798FFA8
:10524000009000BFFBF78CFE00BF79480078401E3D
:105250007749087008460078D0B9FFF7A9FD75486E
:10526000008800280BDD00BFFBF794FE00BF00980C
:10527000FAF782FF00BF00BFFFF75EFD11E000BF3D
:10528000FBF788FE00BF0098FAF776FF00BF08E042
:1052900000BFFBF77FFE00BF0098FAF76DFF00BF6D
:1052A00000BF00BFD4F8A000054400BF00BFFAF75C
:1052B0005FFF009000BFFBF753FE00BFD4F8C04073
:1052C00000BFFBF767FE00BF0098FAF755FF00BF6D
:1052D00000BF002C8AD145B34E48854205D242F228
:1052E000107005904FF0010B1BE04B48854205D232
:1052F0004FF47A7005904FF00A0B12E04748854250
:1053000003D26420059083460BE04548854204D2D1
:105310000A2005904FF47A7B03E00120059042F2C9
:10532000107BB5FBFBF0049003E00020059001200A
:10533000049000BF00BFFAF71BFF009000BFFBF70F
:105340000FFE00BF3948046800BFFBF723FE00BF13
:105350000098FAF711FF00BF00BF2FE0D4F8A000BB
:10536000059948430499B0FBF1F086B242F21070FF
:10537000864200D90646A4F88C60B4F88E00B0428C
:1053800001DAA4F88E6001AB04F1AC02111D2046D5
:10539000FEF7BAF800BF00BFFAF7EAFE009000BFC0
:1053A000FBF7DEFD00BFD4F8C04000BFFBF7F2FD05
:1053B00000BF0098FAF7E0FE00BF00BF002CCDD17F
:1053C0001D480078012805D100201B49087001A85C
:1053D000FDF71CFAFBF752FEA0EB0A08174800681D
:1053E000404502D21548C0F8008001AA0021384685
:1053F000FEF7DEF96FE6000070860008000100206D
:105400008886000890000020F4000020FC000020A6
:10541000F8000020801A060000093D00005A6202D0
:105420000084D717F0000020F20000200C010020BB
:10543000DC000020A0000020EE000020040100207D
:1054400010B58AB0044600201F4908601F49086053
:105450001F4908601F4908701F4908701F480068ED
:1054600020B946F62B6020800AB010BD1C480068A9
:105470001C490968884203D246F62C602080F3E775
:10548000194800781F2803D346F62A602080EBE7EE
:10549000032000210591CDE9070406910846104933
:1054A0000968124A12680D4B1B68CDE90132CDE93B
:1054B00003100D48007800230D4A0EA100901248F9
:1054C000FDF7E2FA00BFCFE7F4000020FC00002067
:1054D000F800002000010020EE0000207486000883
:1054E0007C860008848600086C86000878860008A0
:1054F0008950000875432F4F532D49494920537453
:105500006174205461736B0070DF002038B504466D
:105510000D4685B16B4602222946204600F082FEE8
:10552000BDF8000018B9032084F8360006E0022018
:1055300084F8360002E0022084F836002046FFF7A7
:10554000CDFB38BD0021C0F8BC100949096819B964
:105550000021C0F8C01007E005490968C0F8C01074
:1055600003490968C1F8BC000149086070470000A0
:105570000C010020D0F8BC20D0F8C0104AB90D4B67
:10558000196011B10023C1F8BC300023C0F8C0304D
:105590000FE029B90023C2F8C030C0F8BC3008E0E1
:1055A000C2F8C010C1F8BC200023C0F8C030C0F859
:1055B000BC3070470C0100200021044A1160044AED
:1055C0001180044A11600180704700000C01002026
:1055D000100100200801002070B504460020206062
:1055E000A0606060E06020616061A061E0612BA06C
:1055F000206200206062A062E0622063E087206495
:10560000E065A4F86000002104F16400FEF78AFF61
:10561000002044F8740F6060E060A0822061743C58
:10562000002506E0002104F17C0040F82510681CEC
:10563000C5B2002DF6D000203434206120676067A9
:10564000606084F85600E067A06720814FF000405A
:1056500060610020A061E06120626062A4F85800EF
:10566000A4F85A00E0652066FBF708FD064666666A
:105670000020A066C4F88000C4F884002070607028
:10568000A0702020E0700020C4F88800C4F88C00CE
:1056900004A0C4F89000343C70BD00003F54617316
:1056A0006B000000200000002DE9FC4704460F4677
:1056B00090469946DDE90A654FF0000A00BF00BF39
:1056C00000BFFAF755FD824600BFFBF749FC00BF5B
:1056D0008D480078401C8C490870084600780128E5
:1056E00001D1FFF757FB00BFFBF754FC00BF50464A
:1056F000FAF742FD00BF00BF00BF0CB98348046841
:105700000020288094F8360008287CD2DFE800F0DA
:105710000405484906074A4B00BF00BF00BF4B467F
:105720004246394604F16400CDE90065FEF702FF08
:1057300000BF00BF00BFFAF71BFD824600BFFBF7AA
:105740000FFC00BF70480078401E6F490870084683
:105750000078D0B9FFF72CFB6D48008800280BDDDE
:1057600000BFFBF717FC00BF5046FAF705FD00BF6E
:1057700000BFFFF7E1FA11E000BFFBF70BFC00BF31
:105780005046FAF7F9FC00BF08E000BFFBF702FC47
:1057900000BF5046FAF7F0FC00BF00BF00BFAFE00B
:1057A00000BF00BF00BF94F8340002282CD143464C
:1057B0003A46214600200096FFF77EF800BF00BF62
:1057C00000BFFAF7D5FC824600BFFBF7C9FB00BF5C
:1057D0004D480078401E4C4908700846007808B9CA
:1057E000FFF7E6FA00BFFBF7D5FB00BF5046FAF71C
:1057F000C3FC00BF00BF00BF09F40040002843D134
:10580000FCF7B8FE40E040E04B464246394604F122
:105810006400CDE90065FEF78DFE00BF00BF00BF4C
:10582000FAF7A6FC824600BFFBF79AFB00BF36489A
:105830000078401E3449087008460078D0B9FFF758
:10584000B7FA3348008800280BDD00BFFBF7A2FB46
:1058500000BF5046FAF790FC00BF00BFFFF76CFA9C
:1058600011E000BFFBF796FB00BF5046FAF784FC3F
:1058700000BF08E000BFFBF78DFB00BF5046FAF702
:105880007BFC00BF00BF00BF3AE000BF00BF00BF0D
:10589000FAF76EFC824600BFFBF762FB00BF1A48B6
:1058A0000078401E1849087008460078D0B9FFF704
:1058B0007FFA1748008800280BDD00BFFBF76AFB62
:1058C00000BF5046FAF758FC00BF00BFFFF734FA9C
:1058D00011E000BFFBF75EFB00BF5046FAF74CFC3F
:1058E00000BF08E000BFFBF755FB00BF5046FAF7CA
:1058F00043FC00BF00BF00BF46F62D60288000BFFC
:1059000000BFBDE8FC870000DC000020340100205F
:10591000A000002010B50446204600F061FD94F878
:10592000360000F0040010B92046FFF761F910BD01
:1059300070B504460D46002600BF00BFFAF718FCFC
:10594000064600BFFBF70CFB00BF0020288094F840
:10595000360008287ED2DFE800F00405060714565A
:105960006A8000BF00BF00BF00BFFBF713FB00BF92
:105970003046FAF701FC00BF00BF47F25310288001
:105980008CE000BF48480078401C47490870084632
:105990000078012801D1FFF7FDF900BFFBF7FAFA03
:1059A00000BF3046FAF7E8FB00BF00BF00BF14F8A5
:1059B0008A0F401E207014F88A0928B9002084F844
:1059C00036002046FFF7A6FF00BF00BF00BFFAF772
:1059D000CFFB064600BFFBF7C3FA00BF3248007892
:1059E000401E314908700846007808B9FFF7E0F911
:1059F00000BFFBF7CFFA00BF3046FAF7BDFB00BF90
:105A000000BF00BF4AE014F88A0F401E207014F84F
:105A10008A0910B9012084F8360000BFFBF7BAFAF2
:105A200000BF3046FAF7A8FB00BF00BF36E014F80D
:105A30008A0F401E207014F88A0910B9022084F8D9
:105A4000360000BFFBF7A6FA00BF3046FAF794FB1A
:105A500000BF00E015E000BF20E014F88A0F401EF0
:105A6000207014F88A0910B9032084F8360000BFAA
:105A7000FBF790FA00BF3046FAF77EFB00BF00BF8D
:105A80000CE000BFFBF786FA00BF3046FAF774FB64
:105A900000BF00BF46F62D60288070BD00BFFCF738
:105AA00069FD00BFF9E70000DC00002008B50448EC
:105AB0000068FDF7F5FB69460020FDF73BF908BDDE
:105AC000340100202DE9F8430446884617461D4658
:105AD0004FF0000900BF00BF00BFFAF749FB814645
