:020000040800F2
:1000000030F5002045010008571D0008951A00082A
:10001000951C00083D100008A17B000800000000AE
:10002000000000000000000000000000297400082B
:100030004117000800000000AB0900083540000827
:100040005F0100085F0100085F0100085F01000810
:100050005F0100085F0100085F0100085F01000800
:100060005F0100085F0100085F0100085F010008F0
:100070005F0100085F0100085F0100085F010008E0
:100080005F0100085F0100085F0100085F010008D0
:100090005F0100085F0100085F0100085F010008C0
:1000A0005F0100085F0100085F0100085F010008B0
:1000B0005F0100085F0100085F0100085F010008A0
:1000C0005F0100085F0100085F0100085F01000890
:1000D0005F010008357600085F0100085F01000835
:1000E0005F0100085F0100085F0100085F01000870
:1000F0005F0100085F0100085F0100085F01000860
:100100005F0100085F0100085F0100085F0100084F
:100110005F0100085F0100085F0100085F0100083F
:100120005F0100085F0100085F0100085F0100082F
:10013000DFF80CD000F09AFB00480047F59000086B
:1001400030F500200648804706480047FEE7FEE7F6
:10015000FEE7FEE7FEE7FEE7FEE7FEE7FEE7FEE777
:10016000157500083101000872B6704762B6704715
:10017000EFF3108072B6704780F31088704730BF7D
:10018000704720BF7047B0FA80F0704790FAA0F037
:10019000B0FA80F0704790FAA0F07047A0F14101EA
:1001A000192900D82030704740EA01039B0703D08B
:1001B00009E008C9121F08C0042AFAD203E011F8A6
:1001C000013B00F8013B521EF9D27047D2B201E068
:1001D00000F8012B491EFBD270470022F6E710B54C
:1001E00013460A4604461946FFF7F0FF204610BDA5
:1001F000421E12F8013F002BFBD111F8013B02F81F
:10020000013B002BF9D17047CAB2401E10F8011F04
:100210008A4202D00029F9D100207047421C10F810
:10022000011B0029FBD1801A704710B5002200E0A5
:10023000521C835C8C5CA34201D1002BF8D1D8B254
:10024000E1B2401A10BD034611F8012B00F8012B52
:10025000002AF9D11846704730B5054600200346FC
:1002600000E05B1C934205D2EC5CC85C201A01D113
:10027000002CF6D130BD2DE9FE4F804681EA030007
:10028000C00F0C46009021F0004123F00045B8EB70
:100290000200A94105D24046214690461C460B4625
:1002A000024623F00040104347D0270DC7F30A0051
:1002B000C3F30A510290401A019040286BDAC3F34D
:1002C000130040F4801B0098924620B10023D2EB2B
:1002D000030A63EB0B0B01985946C0F140025046EC
:1002E00000F097F906460D4650465946019A00F02F
:1002F000AFF910EB08006141002487EA115284EA4B
:10030000E7731A4340D0009A62B3019A012A4FEA78
:10031000075215DC001B61EB02014FF0004202EABC
:100320000752CDE90042001C41F5801132462B46B0
:1003300000F0AFF903B0BDE8F08F40462146F9E781
:10034000001B61EB0201001C41F5801300185B41AA
:100350002018A2F5001747EB030140EAD570B61943
:100360006D4111E06D084FEA360645EAC0754FEA67
:100370000752001B61EB0201001C41F58011490886
:100380004FEA30000019514132462B4603B0BDE818
:10039000F04F00F06FB90098012240000023D0EB2D
:1003A000020263EBE073009821464FEAE074B8EB79
:1003B000000061EB0401E9E783F000435BE781F0B3
:1003C000004158E72DE9FE4F81EA030404F00044A0
:1003D00021F0004100944FF0000B23F0004350EA5D
:1003E00001045ED052EA03045BD0C3F30A54C1F3A4
:1003F0000A552C44A4F2F3340194A0FB0254C1F337
:10040000130141F48011C3F3130343F4801301FB80
:10041000024400FB034E840A970A44EA815447EAE7
:100420008357A4FB076802958D0A05FB07854FEAF1
:10043000932C04FB0C542705029D4FEA065847EA0B
:100440001637B5EB08056EEB070C870E920E47EAE0
:10045000811742EA8312A7FB0201B6EB0B0164EBA2
:1004600000042B0D43EA0C335E1844EB1C50DA46B3
:100470005146E7FB0201C5F313044FEA0B3343EA8D
:1004800014534FEA0432019C43EA0603A4F10C041E
:100490000294009CCDE900B400F0FBF803B0BDE885
:1004A000F08F00200146F9E70EB5C10F80EAE07039
:1004B0000844CA07002140F233438DE80E000A4683
:1004C0000B4600F0E6F803B000BD0EB540F2334134
:1004D00002910021CDE900110A460B4600F0D9F83F
:1004E00003B000BD70B5C1F30A5201F0004500240D
:1004F000C1F3130140F2FF3341F480119A4201DA53
:10050000002070BD40F233439A42A2F2334203DC32
:10051000524200F08DF800E090402C43F1D0404270
:1005200070BD000030B5041E71F1000404DB4FF013
:100530000044404264EB0101141E73F1000405DB2A
:100540001C464FF00043524263EB04038B4208BF4A
:10055000824230BD30B5041E71F1000404DB4FF05F
:100560000044404264EB0101141E73F1000405DBFA
:100570001C464FF00043524263EB0403994208BF0C
:10058000904230BD30B50B460146002020220124A8
:1005900009E021FA02F59D4205D303FA02F5491B51
:1005A00004FA02F52844151EA2F10102F1DC30BD67
:1005B0002DE9F05F0546002092469B468846064698
:1005C000814640241BE0284641464746224600F02B
:1005D0002FF853465A46C01A914110D31146184677
:1005E000224600F016F82D1A67EB01084F46224606
:1005F0000120002100F00DF817EB00094E41201EEC
:10060000A4F10104DFDC484631462A464346BDE8F2
:10061000F09F202A04DB203A00FA02F10020704704
:100620009140C2F1200320FA03F319439040704730
:10063000202A04DB203A21FA02F00021704721FA37
:1006400002F3D040C2F1200291400843194670479E
:10065000202A06DBCB17203A41FA02F043EAE07386
:1006600006E041FA02F3D040C2F120029140084373
:100670001946704710B5141E73F1000408DA401CC7
:1006800041F1000192185B411A4301D120F00100B1
:1006900010BD2DE9F04D92469B4611B1B1FA81F2A1
:1006A00002E0B0FA80F220329046FFF7B2FF044633
:1006B0000F4640EA0A0041EA0B0153465A460843F6
:1006C00013D0114653EA010019D0C8F14002504638
:1006D000FFF7AEFF05460E46504659464246FFF725
:1006E00098FF084305D0012004E020463946BDE8C4
:1006F000F08D0020054346EAE0762C4337430A9804
:100700006305E40AA0EB08000022FD0A44EA47540E
:100710000A3002D500200146E9E7010510196941B8
:10072000DDE9084500196941BDE8F04DA2E72DE972
:10073000F04D81EA030404F0004B21F0004514461B
:100740004FF0000A23F0004150EA050220D054EA9D
:1007500001021DD0C5F30A570246C5F31303C1F3C6
:100760001300C1F30A5640F4801543F48013A7EB3D
:100770000608101BD64608F2FD3873EB050002D3BD
:1007800008F1010801E092185B41B8F1000F03DAAB
:1007900000200146BDE8F08D00204FF48011064690
:1007A00084460EE0171B73EB050705D3121B63EBA2
:1007B000050306434CEA010C49084FEA3000921841
:1007C0005B4150EA0107EDD152EA030012D082EA00
:1007D000040083EA0501084305D0101BAB4106D293
:1007E0000122002306E000224FF0004302E06FF0F8
:1007F000010253101AEB06004CEB085110EB0A00F3
:1008000041EB0B01BDE8F04DFFF734BF70B521F0AF
:10081000004303430CD0C1F30A550024D5EB040573
:1008200064EB0403D617AD1AB34102DB0020014686
:1008300070BD201841EB025170BDC1F30A52C1F3E3
:10084000130140F2FF3341F480119A4202DA002092
:100850000146704740F233439A42A2F2334202DC2F
:100860005242FFF7E5BEFFF7D4BE0000064C074D2D
:1008700006E0E06840F0010394E807009847103470
:10088000AC42F6D3FFF758FC54B3000874B3000829
:100890002DE9F04D00231A461B1A8A4103DB002084
:1008A0000146BDE8F08DC1F30A52C1F3130141F4D2
:1008B00080154FF0000BD10702D100186D41521E78
:1008C0000027044640F2FF11384601EB620A3E461B
:1008D0008046024600204FF48011FFF7A9FEC2199E
:1008E0007141BB1846EB0100B4EB030C75EB000C37
:1008F00004D3E41A65EB000517460E46241908F1E7
:1009000001006D4180463428E3DDF91946EB06000D
:10091000091BA84103D24FF0FF32134601E0002229
:1009200013461BEB070046EB0A51BDE8F04DFFF7FD
:10093000A1BE70B58C1810F8015B15F0070301D14A
:1009400010F8013B2A1106D110F8012B03E010F832
:10095000016B01F8016B5B1EF9D12B0705D4002355
:10096000521E0DD401F8013BFAE710F8013BCB1AF7
:10097000921C03E013F8015B01F8015B521EF9D5EC
:10098000A142D8D3002070BD18484FF0FF0101707C
:10099000002080F309881648016881F3088815480B
:1009A0004FF08051016062B6FEE772B6EFF3098046
:1009B00028B1203880E8F00F0F490968086000B5B9
:1009C0000E4880475DF804EB0D480E490A78027026
:1009D00009480D490A680260106890E8F00F20305D
:1009E00080F309884EF0040E62B6704722ED00E0F5
:1009F0005C01002004ED00E054010020BD3B000834
:100A0000E2000020E30000205801002098B00026FA
:100A100000BF0124502102A8FFF7DFFB0025D9E029
:100A20003F2C00DD002417A800231A461946009029
:100A3000694801F013FD204600F0A8FE67490870E0
:100A400017AA0021644801F09DFEAD200290DA2033
:100A50000390022004900594202006900320079024
:100A6000062102A806F05AFE17A8002316AA194666
:100A7000009041F2883002F0C5FC054600BF00BF7F
:100A800000BFFFF775FB064600BF00F073FB00BF19
:100A900053480078401C52490870084600780128E5
:100AA00001D104F0E5FC00BF00F07EFB00BF304642
:100AB000FFF762FB00BF00BF00BFE868A04201D1A2
:100AC000012000E00020474908704448007820B326
:100AD0000846007880B117A800231A4619460090EE
:100AE0003D4801F0BBFC284606F092FF17AA002102
:100AF000394801F047FE23E017A800231A4619469B
:100B00000090354801F0AAFC204600F01BFE17AA11
:100B10000021314801F036FE12E03248007878B109
:100B200017A800231A46194600902B4801F096FC9E
:100B3000284600F0E9FF17AA0021274801F022FE0D
:100B400017AA2946284801F0D7FB8021274800F042
:100B5000BAFE20B18021254800F0BEFE03E08021CE
:100B6000224800F0BBFE00BF00BF00BFFFF700FB44
:100B7000064600BF00F0FEFA00BF19480078401E8C
:100B80001749087008460078D0B904F07FFC18486F
:100B9000008800280BDD00BF00F006FB00BF3046D8
:100BA000FFF7EAFA00BF00BF04F034FC11E000BF19
:100BB00000F0FAFA00BF3046FFF7DEFA00BF08E0A7
:100BC00000BF00F0F1FA00BF3046FFF7D5FA00BFD2
:100BD00000BF00BF24E70000C40100202400002063
:100BE000FC0000202500002018020020001C01400D
:100BF000C00000200EB50024002583E002A80023D9
:100C000001AA19460090184602F0FCFB044600BFFA
:100C100000BF00BFFFF7ACFA054600BF00F0AAFA1C
:100C200000BF39480078401C3749087008460078F2
:100C3000012801D104F01CFC00BF00F0B5FA00BF90
:100C40002846FFF799FA00BF00BF00BF02A80023A3
:100C50001A46194600902D4801F000FCBDF804101A
:100C6000204606F05BFD0121294800F02CFE20B152
:100C70000121274800F030FE03E00121244800F064
:100C80002DFE02AA0021214801F07CFD02AA214686
:100C9000204801F031FB00BF00BF00BFFFF768FA3A
:100CA000054600BF00F066FA00BF17480078401EF6
:100CB0001549087008460078D0B904F0E7FB1648DB
:100CC000008800280BDD00BF00F06EFA00BF284648
:100CD000FFF752FA00BF00BF04F09CFB11E000BF19
:100CE00000F062FA00BF2846FFF746FA00BF08E0AE
:100CF00000BF00F059FA00BF2846FFF73DFA00BFD9
:100D000000BF00BF7AE70000FC000020C401002003
:100D1000000C014018020020C000002070B58AB00D
:100D2000064600F07BF900F08BF900F06FF90446FD
:100D300037480068B4FBF0F5284603F09BF900F053
:100D4000B5FF09A802F06EF800F0E8F909AA002141
:100D5000012001F0F9FE09AA2EA1304801F00AFB9A
:100D600009A8642103232E4ACDE900102DA13148A2
:100D700001F0DEF909A8032100220592CDE9062140
:100D8000089032204FF4007133222B4BCDE9013211
:100D9000CDE9031003200023284A29A100902E4802
:100DA00002F0CAF809A8032100220592CDE9062124
:100DB000089032204FF400713322284BCDE90132E4
:100DC000CDE9031003200023254A26A100902948DD
:100DD00002F0B2F809A8032100220592CDE906210C
:100DE000089032204FF400713322234BCDE90132B9
:100DF000CDE9031003200023204A21A100902548BB
:100E000002F09AF809A9002002F0ECF90AB070BDCE
:100E1000C8B000084C69737400000000C4010020D1
:100E2000380200204D656D20466F72205465737442
:100E30000000000018020020980800200D0A000899
:100E40004170705F5461736B5F436865636B5F44AF
:100E5000657669636500000040040020981000205A
:100E6000F50B0008417070205461736B2050656E63
:100E7000640000000805002098180020990E000862
:100E80004170705F5461736B5F5443505F53657280
:100E900076657200D00500200EB506F083FE06F0E0
:100EA000ADFE06F0B9FF0C4806F0C2FF0B48018802
:100EB0000BA006F0BDFF11A006F0BAFF0AE007F094
:100EC00009FE02A8002132230A46CDE90010084697
:100ED00002F06EFFF3E7000008B30008760100207F
:100EE000205735353030BCE0CCFDB6CBBFDACEAACA
:100EF000A3BA202564200D0A0000000020C1ACBD6B
:100F0000D3B3C9B9A6BAF3A3AC54435020436C6918
:100F1000656E74B7A2CBCDCAFDBEDDB8F8573535C6
:100F20003030A3AC5735353030BDABB7B5BBD8B6D4
:100F3000D4D3A6CAFDBEDD200D0A000070B586B070
:100F400006460D460024287B8DF80400287D8DF888
:100F5000060000208DF8050000BF1AE06100E86976
:100F6000C84000F00200022801D1102100E0002159
:100F70000DF1070001556100E869C84000F001006B
:100F800008B1102100E000210DF10D000155601C99
:100F9000C4B2042CE2DB00241CE06100A869C84054
:100FA00000F00200022801D1102200E00022201DE2
:100FB0000DF107010A546100A869C84000F0010062
:100FC00008B1102200E00022201D0DF10D010A548D
:100FD000601CC4B2022CE0DB00240EE06100286A31
:100FE000C84000F00200022801D1102100E00021D9
:100FF0000DF113000155601CC4B2042CEEDB13226A
:1010000001A93046FFF7D0F806B070BD00B585B035
:10101000684606F0F3F8019805B000BD10B500F081
:10102000EFFD00F021FE06F083FC00F0D7FE024940
:10103000086006F0B7FD10BD2000002000BFFEE7ED
:1010400010B500F0FBF800F003F800F0F3F810BD65
:1010500070B50026002018490880184908801849F2
:10106000086018490860184908601849086018495C
:101070000860002400BFFFF77BF8064600BF00258C
:101080000BE000201049086000F074F800F08CF8C4
:101090000D4800680444681C85B2002DF1D00C484E
:1010A00004600020084908600849086000BF304615
:1010B000FFF762F800BF70BD6C0000206E000020DA
:1010C00070000020740000207C00002080000020C0
:1010D0007800002001460846044A1268904203D96D
:1010E000024A1268801A00E0002070477800002051
:1010F00070B5002500BFFFF73BF8054600BF064866
:10110000046800BF2846FFF737F800BF2046FFF706
:10111000E1FF0646304670BD7C00002070B500251A
:10112000FFF7E6FF044600BFFFF722F8054600BFC1
:1011300000200449086000BF2846FFF71DF800BFE3
:10114000204670BD7C00002070B5002500BFFFF771
:101150000FF8054600BF0648046800BF2846FFF7A1
:101160000BF800BF2046FFF7B5FF0646304670BDBE
:101170008000002010B509480088401C07490880FD
:101180000748008818B900F083F806490860044849
:101190000088401C0249088010BD00006C0000203F
:1011A0006E0000207000002010B50F480088401E1F
:1011B0000D49088008460088A0B900F069F80B497D
:1011C0000860084600680A490968441A0948006826
:1011D000A04201D20748046007480068A04201D23B
:1011E0000548046010BD00006E000020740000205F
:1011F000700000207C0000208000002010B500243A
:1012000000BF00BFFEF7B4FF044600BFFFF7B2FF08
:1012100000BF1021064800F03FFD00BFFFF7C4FFEC
:1012200000BF2046FEF7A8FF00BF00BF10BD0000B2
:101230009864002010B5FFF7E1FF10BD10B5002045
:101240000249086000F00AF810BD000068000020A4
:1012500001490860704700006800002010B50A4886
:10126000006840F080700849086000200749486025
:101270000846006840F001000860FFF7C7FE04461A
:101280002046FFF7E5FF10BDFCED00E0001000E098
:101290000148406870470000001000E02DE9F04769
:1012A0000446204600F072FA00283DD007F012FBF9
:1012B00081461EA007F017FB05462A461EA1484698
:1012C00007F0DEFA1DA007F00EFB05462A461DA119
:1012D000484607F0D5FA2046FFF7F7F8064607F02C
:1012E000E7FA05462A4619A1484607F0C9FA4846D2
:1012F00007F090FB8046484607F004FB002007F00B
:10130000D6FD17280DD14046FEF788FF1149088009
:101310000846028841461048FEF746FF01200F4963
:101320000870404607F0D6FFBDE8F0876865617237
:101330007462656174000000636D640070657266BC
:10134000653100006D6F64656C000000616464725B
:10135000000000009C01002036ED00209A010020D2
:101360002DE9F04FE7B005460E4691461C46DDF8E4
:10137000C0A1C82133A8FEF730FFC82101A8FEF79D
:101380002CFF33AB4A463146284600F0A9FA01AAA1
:101390005146204600F016FB07F09CFA669028A004
:1013A00007F0A1FA07463A4627A1669807F068FABF
:1013B00026A007F098FA07463A4626A1669807F055
:1013C0005FFA7198FFF781F8074607F071FA8346D4
:1013D0005A4622A1669807F053FA33A807F083FA19
:1013E00007463A461FA1669807F04AFA01A807F097
:1013F0007AFA07463A461CA1669807F041FA6698C1
:1014000007F008FB6590669807F07CFA002007F06B
:101410004EFD17280DD16598FEF700FF144908808E
:101420000846028813486599FEF7BEFE012012495E
:101430000870659807F04EFF67B0BDE8F08F0000B8
:101440006A6F696E00000000636D6400706572660B
:10145000653100006D6F64656C000000616464724A
:1014600000000000696F000072656C617900000087
:101470009C01002036ED00209A0100202DE9F04764
:10148000044607F027FA81461EA007F02CFA05460D
:101490002A461EA1484607F0F3F91DA007F023FADB
:1014A00005462A461CA1484607F0EAF92046FFF700
:1014B0000CF8064607F0FCF905462A4618A14846EE
:1014C00007F0DEF9484607F0A5FA8046484607F0DF
:1014D00019FA002007F0EBFC17280DD14046FEF763
:1014E0009DFE114908800846028841460F48FEF7D4
:1014F0005BFE01200E490870404607F0EBFEBDE898
:10150000F08700006F66666C696E6500636D64004D
:1015100070657266653100006D6F64656C00000077
:1015200061646472000000009C01002036ED002020
:101530009A0100202DE9F04FE7B005460E4691468E
:101540001C46DDF8C0A1C82133A8FEF746FEC8211D
:1015500001A8FEF742FE33AB4A463146284600F06A
:10156000BFF901AA5146204600F02CFA07F0B2F963
:10157000669028A007F0B7F907463A4627A1669873
:1015800007F07EF926A007F0AEF907463A4626A1F5
:10159000669807F075F97198FEF797FF074607F010
:1015A00087F983465A4622A1669807F069F933A85D
:1015B00007F099F907463A461FA1669807F060F9C7
:1015C00001A807F090F907463A461CA1669807F073
:1015D00057F9669807F01EFA6590669807F092F939
:1015E000002007F064FC17280DD16598FEF716FE61
:1015F000144908800846028813486599FEF7D4FD0F
:10160000012012490870659807F064FE67B0BDE8D4
:10161000F08F00007265706F72740000636D64007B
:1016200070657266653100006D6F64656C00000066
:101630006164647200000000696F000072656C6193
:10164000790000009C01002036ED00209A01002066
:101650002DE9F04FB3B005460E4691461C46C82111
:101660006846FEF7BAFD6B464A463146284600F00A
:1016700037F907F02FF9329023A007F034F9074625
:101680003A4624A1329807F0FBF823A007F02BF983
:1016900007463A4622A1329807F0F2F82046FEF7B4
:1016A00014FF074607F004F9824652461EA13298FD
:1016B00007F0E6F8684607F016F907463A461CA117
:1016C000329807F0DDF8329807F0A4F98346329893
:1016D00007F018F9002007F0EAFB17280DD158464B
:1016E000FEF79CFD134908800846028859461248B7
:1016F000FEF75AFD012011490870584607F0EAFD2F
:1017000033B0BDE8F08F0000646973636F76657273
:1017100079000000636D64007065726665310000D9
:101720006D6F64656C00000061646472000000000D
:10173000696F00009C01002036ED00209A01002016
:101740007047000070B506460F48006844690E48AF
:10175000056815E02078B04210D16078032809DDD3
:1017600060696861204607F025FB6C693046FFF729
:1017700085FE02E06078401C607003E025466469E5
:10178000002CE7D100BF70BD2000002002460748B2
:101790000068416905E00878904201D10120704756
:1017A00049690029F7D10020F9E700002000002056
:1017B0002DE9F041024600250026002000230024E8
:1017C000002791F803C00CF00F0591F803C00CF04E
:1017D000100CBCF1000F03D091F802C04CEA0505D3
:1017E00091F800C0BCF1000F31D0146800202BE04C
:1017F0004FF0010C0CFA00F3B1F800C00CEA03063C
:101800009E4220D183004FF00F0C0CFA03F7BC432B
:1018100005FA03FC4CEA040491F803C0BCF1280F5C
:1018200006D14FF0010C0CFA00FCC2F814C00AE01B
:1018300091F803C0BCF1480F05D14FF0010C0CFA30
:1018400000FCC2F810C0401C0828D1D31460B1F8C5
:1018500000C0BCF1FF0F34DD546800202EE000F121
:10186000080C4FF0010808FA0CF3B1F800C00CEABC
:1018700003069E4221D183004FF00F0C0CFA03F7B0
:10188000BC4305FA03FC4CEA040491F803C0BCF124
:10189000280F05D100F1080C08FA0CF8C2F81480E2
:1018A00091F803C0BCF1480F07D100F1080C4FF0CC
:1018B000010808FA0CF8C2F81080401C0828CED3A2
:1018C0005460BDE8F08102460020D3680B400BB1A4
:1018D000012000E0002070474161704701617047BE
:1018E0002DE9F0478046894616461F460024A24649
:1018F00000250A2007F02EFC82460A2007F02AFC69
:10190000054624A00088388000BF31E018F8042084
:1019100021A1504606F09CFA19F8040028B121A034
:10192000016829604068686006E020A001682960BD
:1019300041686960008928811EA13846FEF758FC7D
:1019400051463846FEF754FC1BA13846FEF750FCC2
:1019500029463846FEF74CFC16A13846FEF748FCEF
:10196000601CC4B2B44203DA14A13846FEF740FC4E
:10197000B442CBDB504607F01DFA284607F01AFAAE
:101980004FF0000A00250EA13846FEF731FCBDE8F5
:10199000F08700007B0000006368616E6E656C5F1D
:1019A000256400007072657373000000756E7072BC
:1019B0006573730022000000223A22002C00000010
:1019C0007D0000002DE9F04780460E4617460024B2
:1019D000A14600250A2007F0BDFB81460A2007F03A
:1019E000B9FB054621A00088388000BF2CE02246C4
:1019F0001FA1484606F02CFA18F8040028B11FA0D1
:101A0000018829808078A87002E01DA00068286005
:101A10001CA13846FEF7ECFB49463846FEF7E8FBCA
:101A200019A13846FEF7E4FB29463846FEF7E0FBED
:101A300014A13846FEF7DCFB601CC4B2B44203DAE2
:101A400012A13846FEF7D4FBB442D0DB484607F07B
:101A5000B1F9284607F0AEF94FF0000900250CA1B6
:101A60003846FEF7C5FBBDE8F08700007B000000AC
:101A70006368616E6E656C5F256400006F6E0000C8
:101A80006F66660022000000223A22002C0000004F
:101A90007D00000000BFFEE770B50446002507F09A
:101AA000FFFAC4F3074000F010F8C4F3072000F079
:101AB0000CF804F0F80000F008F8002000F005F839
:101AC000054607F0F2FA284670BD10B504462046D8
:101AD00005F062FC10BD70B504460D4607F0E0FA53
:101AE000C4F30740FFF7F1FFC4F30720FFF7EDFF52
:101AF00004F0F801091DC8B2FFF7E7FF2846FFF719
:101B0000E4FF07F0D2FA70BD2DE9F0438BB08146B7
:101B100000240026002009900A9007900890069063
:101B20002348006847692248D0F80080182007F051
:101B300011FB0546494601A8FFF700FA132201A947
:101B40002846FEF731FB01E0B8467F69002FFBD144
:101B5000D8F814006861C8F8145000240DE0E81C9F
:101B6000005D40B109A8845505F10900005D07A991
:101B70008855701CC6B2601CC4B2062CEFDB002472
:101B800006E005F10F00005D06A90855601CC4B20F
:101B9000A878A042F5DC2878A97806AB3246CDE9D2
:101BA000001007A909A8FFF7DBFB0BB0BDE8F08325
:101BB0002000002008B50121042005F00FFB0120C2
:101BC000ADF8000028208DF8030069460148FFF7B2
:101BD000EFFD08BD0008014008B50121102005F007
:101BE000FDFA4FF40050ADF8000028208DF80300F6
:101BF00069460248FFF7DCFD08BD00000010014007
:101C000010B5FFF7D7FFFFF7E7FF10BD08B50121BB
:101C1000082005F0E3FA0120ADF8000010208DF84F
:101C2000030003208DF8020069460D48FFF7C0FD50
:101C30000121802005F0D2FA8020ADF8000069462D
:101C40000848FFF7B5FD0121802005F0C7FA4FF4E1
:101C50008070ADF8000069460248FFF7A9FD08BD95
:101C6000000C0140001C014010B5FFF7CFFF01211F
:101C70000648FFF733FE80210548FFF72FFE4FF49B
:101C800080710348FFF72AFE10BD0000000C0140E0
:101C9000001C014000BFFEE730B505460C46224659
:101CA0000021284600F026F830BD00000D480E49FE
:101CB00001600146416000218160C16001614161B4
:101CC0008161C16101620163C1624162074981634F
:101CD000C1634FF4D841016441640146044A116074
:101CE00070470000A864002048454150F06400207F
:101CF000840000202DE9F04103460C4617460FB939
:101D0000BDE8F08103B9FBE70025002202E02D02C7
:101D10002543521C042AFAD3384603F0030C194613
:101D2000BCF1000F08D0624603E001F8014B401EF1
:101D3000521C08B1042AF8D30E4601E020C6001F49
:101D40000428FBD2314602E001F8014B401E002876
:101D5000FAD100BFD4E7704770B5002100230F22ED
:101D6000C47804B3154C246804F4E064C4F5E0645A
:101D7000210AC1F10403CA40447804FA03F18478CB
:101D80001440214309010E4C0678A155047804F053
:101D90001F050124AC4005786D11AD0005F1E0256B
:101DA000C5F8004109E0047804F01F050124AC40A7
:101DB000044D0678761145F8264070BD0CED00E024
:101DC00000E400E080E100E002490143024A1160C2
:101DD000704700000000FA050CED00E010B5182077
:101DE00007F0B8F9144908600846006820B913A044
:101DF00006F01EF8002010BD00200F490968087089
:101E00000D49096848700C49096888700A480068DB
:101E1000002140F8031F81800748006840F8091F2F
:101E2000818005480068C0F80F1000200249096849
:101E3000486101480068DEE72000002066616C739D
:101E4000653100007047000010B50348006810B10C
:101E500001480068804710BD9800002070B5044616
:101E600000F0C2F800204849087048490870484905
:101E7000087048490860484908604849087048495E
:101E8000087048490870484908604849086048494E
:101E9000086048490870484800680A21B0FBF1F022
:101EA000464908604648006858B14648056845B14B
:101EB0004348066803E0761E002028602D1D002E92
:101EC000F9D1002040490860404908604049086055
:101ED000404908604049086040490860404908603E
:101EE0004049087003F0E0F803F0DEF9204602F004
:101EF000B3F9208800B170BD204602F0E1FD2088D2
:101F000000B1F8E7204602F0E7FD208800B1F2E7D3
:101F1000204602F017FF208800B1ECE7204603F0CE
:101F2000F3F8208800B1E6E7204603F043FB208861
:101F300000B1E0E7204603F0ADFE208800B1DAE70B
:101F4000204602F015FD208800B1D4E7204602F0BB
:101F50001FFB208800B1CEE7204604F003FF208855
:101F600000B1C8E7204603F0D9FD208800B1C2E7E0
:101F7000204604F053FF208800B1BCE702F092F83D
:101F8000FFF760FF00BFB6E7AC000020B400002000
:101F9000FC0000205401002058010020E200002035
:101FA000E3000020E4000020F0000020F400002006
:101FB000F800002004010020C8B000080001002043
:101FC00098B0000894B000088C0000209000002019
:101FD00094000020980000209C000020A000002019
:101FE000A4000020320100200A4A1168002002E00B
:101FF000002204C1401C084A12689042F8D3054AE6
:102000001268054B1B6802EB8302121F034B1A6018
:102010007047000094B0000898B000085C010020F0
:1020200008480078012800D0704707480078FA284F
:1020300000DBF9E704480078401C0349087000BF42
:10204000F2E70000B4000020AC00002010B500242E
:102050002E480078012800D010BD00BFFEF788F898
:10206000044600BF2A48007828B900BF2046FEF782
:1020700083F800BFF0E726480078401E2449087026
:1020800008460078002805DD00BF2046FEF774F8FA
:1020900000BFE1E71F480078002805DD00BF2046AB
:1020A000FEF76AF800BFD7E702F0EAFF1A490870A6
:1020B0000846007800EB4000184951F82000184904
:1020C00008600846006817490968884205D100BFC2
:1020D0002046FEF751F800BFBEE711480068D0F86F
:1020E0009000401C0E490968C1F890000E48006835
:1020F000401C0D4908604FF080500C49086000BF3B
:102100002046FEF739F800BF00BFA5E7B400002065
:10211000AC000020FC000020E30000201CE70020B1
:1021200058010020540100202801002004ED00E0A7
:102130002DE9FF4F83B0044615461F46DDE9109692
:10214000002000904C480078002805DD45F2B96079
:10215000308007B0BDE8F08F1DB945F2BB6030801C
:10216000F7E7022F03DA45F2BC603080F1E7B9F1FE
:10217000040F03D245F2C1603080EAE74FF0030A52
:10218000BAF1000F0DD005EA0A0018B145F2BB60A4
:102190003080DEE709EA0A0018B145F2C1603080FC
:1021A000D7E7AB46A846781E80B201900020029087
:1021B00007E0C844CBF80080C3460298401C80B2B8
:1021C0000290DDE901108842F3DB0020CBF800002B
:1021D00000BF00BF00BFFDF7CBFF009000BFFEF7C0
:1021E000C9FF00BF25480078401C244908700846F4
:1021F0000078012801D103F03BF900BFFEF7D4FFBE
:1022000000BF0098FDF7B8FF00BF00BF00BF1C482B
:1022100020600498A0606560E560A7826782A4F8EA
:102220001090204602F038FC16480088401C1549E2
:10223000088000BF00BF00BFFDF79AFF009000BFFD
:10224000FEF798FF00BF0D480078401E0B4908704C
:102250000846007808B903F019F900BFFEF7A4FF9B
:1022600000BF0098FDF788FF00BF00BF00BF00203F
:10227000308000BF6DE70000AC000020FC000020B3
:102280004D454D20D80000202DE9F04104460D4673
:1022900000272CB945F2BF6028800020BDE8F081FE
:1022A00000BF00BFFDF764FF074600BFFEF762FFF7
:1022B00000BFA08A68B900BFFEF776FF00BF3846AE
:1022C000FDF75AFF00BF00BF45F2C2602880002022
:1022D000E4E7E6683068E060A08A401EA08200BFA4
:1022E000FEF762FF00BF3846FDF746FF00BF00BFA4
:1022F000002028803046D1E72DE9F04104460E4603
:102300001546002724B945F2BF602880BDE8F0815A
:102310001EB945F2BE602880F8E700BF00BFFDF798
:1023200027FF074600BFFEF725FF00BFA08A618A8E
:1023300088420CDB00BFFEF737FF00BF3846FDF7D1
:102340001BFF00BF00BF45F2BA602880DEE7E068EF
:102350003060E660A08A401CA08200BFFEF724FF28
:1023600000BF3846FDF708FF00BF00BF00202880EF
:1023700000BFCBE72DE9F04104460E461546002785
:1023800032480078002804DD42F6E1602880BDE88C
:10239000F0811CB945F6C3502880F8E700BF00BFA4
:1023A00000BFFDF7E5FE074600BFFEF7E3FE00BFF6
:1023B00027480078401C2649087008460078012804
:1023C00001D103F055F800BFFEF7EEFE00BF38461E
:1023D000FDF7D2FE00BF00BF00BF1E482060666050
:1023E0000020206284F82500A062202084F82400C8
:1023F00004F1080002F05DFD204602F08BFC164857
:102400000088401C1449088000BF00BF00BFFDF7D2
:10241000AFFE074600BFFEF7ADFE00BF0C480078D8
:10242000401E0B4908700846007808B903F02EF8E2
:1024300000BFFEF7B9FE00BF3846FDF79DFE00BFA6
:1024400000BF00BF0020288000BFA0E7AC00002034
:10245000FC0000204D555458E00000202DE9F047C5
:1024600088B00546894690461C46109E4FF0000AEB
:10247000BF480078002805DD46F2AE10308008B075
:10248000BDE8F0871DB945F6C3503080F7E7B8F1D5
:10249000000F03D0B8F5004F02D100E000BF03E009
:1024A00045F625603080EAE700BFB24928688842D7
:1024B00003D045F6C4503080E1E70CB10020206025
:1024C00000BF00BFFDF754FE824600BFFEF752FE7C
:1024D00000BF95F82500D0B9A74800682862A64833
:1024E000006890F8370085F82400012085F8250061
:1024F0000CB1A86A206000BFFEF756FE00BF504630
:10250000FDF73AFE00BF00BF00203080B7E79A49D0
:10251000286A0968884214D195F82500401C85F87E
:1025200025000CB1A86A206000BFFEF73DFE00BF89
:102530005046FDF721FE00BF00BF45F2827030809B
:102540009DE708F4004060B100BFFEF72DFE00BF1C
:102550005046FDF711FE00BF00BF46F2B0103080BC
:102560008DE78648007800280CDD00BFFEF71CFED2
:1025700000BF5046FDF700FE00BF00BF46F66350A7
:1025800030807CE700BF7D480078401C7B490870A4
:1025900008460078012801D102F06AFF00BFFEF76B
:1025A00003FE00BF5046FDF7E7FD00BF00BF00BFC0
:1025B0002F6A97F837007049096891F837108842F8
:1025C0006ADD97F8360008282AD2DFE800F0041503
:1025D0001E1F17162021384602F0EEFE66480068DE
:1025E00090F8370087F8370097F8370002F068FD59
:1025F000384602F081FE4EE000BF00BF5E48006832
:1026000090F8370087F8370045E000BF00BF00BFF3
:102610005948006890F83710384602F027FC3AE035
:1026200000BF00BF00BFFDF7A3FD824600BFFEF75D
:10263000A1FD00BF51480078401E5049087008466F
:102640000078D0B902F022FF4D48008800280BDD49
:1026500000BFFEF7A9FD00BF5046FDF78DFD00BF8E
:1026600000BF02F0D7FE11E000BFFEF79DFD00BFE6
:102670005046FDF781FD00BF08E000BFFEF794FD66
:1026800000BF5046FDF778FD00BF00BF00BF46F613
:102690002D603080F3E600BF4B4604222946684691
:1026A00002F05CFB00BF00BF00BFFDF761FD82468A
:1026B00000BFFEF75FFD00BF30480078401E2F4985
:1026C00008700846007808B902F0E0FE00BFFEF787
:1026D0006BFD00BF5046FDF74FFD00BF00BF00BFC0
:1026E00000F0A0F900BF00BFFDF742FD824600BF29
:1026F000FEF740FD00BF2048006890F8350030B17B
:1027000001280CD002281AD0032821D110E01CB1D6
:1027100019480068006C2060002030801CE01CB16B
:1027200015480068006C206046F2A910308013E064
:102730000CB10020206047F2D92030800CE01CB1A1
:102740000D480068006C206045F6C250308003E000
:1027500046F62E60308000BF00BF00BFFEF724FDAC
:1027600000BF5046FDF708FD00BF00BF00BF86E672
:10277000AC0000204D55545854010020FC000020AE
:10278000C00000202DE9F84F0446884615464FF05A
:10279000000A9E480078002804DD46F20E202880BA
:1027A000BDE8F88F1CB945F6C3502880F8E7B8F1AA
:1027B000000F03D0B8F5004F02D100E000BF03E0E6
:1027C00045F625602880EBE700BF914920688842E4
:1027D00003D045F6C4502880E2E700BF00BFFDF7F4
:1027E000C7FC824600BFFEF7C5FC00BF8949206ACE
:1027F000096888420CD000BFFEF7D6FC00BF5046E7
:10280000FDF7BAFC00BF00BF45F281702880C7E722
:1028100000BF81480078401C7F4908700846007856
:10282000012801D102F024FE00BFFEF7BDFC00BF6D
:102830005046FDF7A1FC00BF00BF00BFFEF728FD1A
:102840000746A76294F82500401E84F8250094F8F6
:10285000250000283ADD00BF00BF00BFFDF788FC5F
:10286000824600BFFEF786FC00BF6B480078401E22
:102870006949087008460078D0B902F007FE674839
:10288000008800280BDD00BFFEF78EFC00BF50461D
:10289000FDF772FC00BF00BF02F0BCFD11E000BFFD
:1028A000FEF782FC00BF5046FDF766FC00BF08E063
:1028B00000BFFEF779FC00BF5046FDF75DFC00BF8E
:1028C00000BF00BF45F28370288069E704F1080962
:1028D000B9F8080080BB0020206284F8250000BF02
:1028E00000BF00BFFDF744FC824600BFFEF742FC7C
:1028F00000BF49480078401E4749087008460078E4
:10290000D8B902F0C3FD4548008800280BDD00BFA0
:10291000FEF74AFC00BF5046FDF72EFC00BF00BF8B
:1029200002F078FD12E000BFFEF73EFC00BF50460B
:10293000FDF722FC00BF09E00CE000BFFEF734FC0D
:1029400000BF5046FDF718FC00BF00BF00BF0020CD
:10295000288025E72F48006890F8370094F8241065
:10296000884219D02B48006802F026FD94F8240014
:102970002849096881F837002649096891F8370025
:1029800002F09EFB2348006802F0D6FC2148006854
:1029900090F8370022490870D9F80000866826624E
:1029A00096F8370084F82400012084F825000023DD
:1029B0001A4631462046009702F0ECFA00BF00BFED
:1029C00000BFFDF7D5FB824600BFFEF7D3FB00BF7B
:1029D00011480078401E104908700846007808B970
:1029E00002F054FD00BFFEF7DFFB00BF5046FDF7CD
:1029F000C3FB00BF00BF00BF08F4004008B900F0EF
:102A000011F80020288000BFCAE60000AC000020BA
:102A10004D55545854010020FC000020C0000020F7
:102A2000E200002010B5002420480078002800DDD6
:102A300010BD1F480078002800DDF9E700BFFDF752
:102A400097FB044600BF02F01BFB1A4908700846BA
:102A5000007800EB4000184951F820001749086041
:102A60000846006816490968884205D100BF20461B
:102A7000FDF782FB00BFDBE710480068D0F890004C
:102A8000401C0E490968C1F890000E480068401CBF
:102A90000C4908604FF080500B49086000BF204689
:102AA000FDF76AFB00BF00BFC2E70000AC000020DA
:102AB000FC000020E30000201CE70020580100205B
:102AC000540100202801002004ED00E070B5044608
:102AD00000251A480078002803DD46F66250208061
:102AE00070BD17480078012803D045F68960208022
:102AF000F6E714480078FA2803DB45F20920208025
:102B0000EEE700BF00BFFDF733FB054600BFFEF751
:102B100031FB00BF0B480078401C0A49087002F0E6
:102B2000A7FC00BFFEF740FB00BF2846FDF724FBD3
:102B300000BF00BF0020208000BFD1E7AC00002014
:102B4000B4000020FC0000202DE9F04105460C46B1
:102B50001646002700BF00BFFDF70AFB074600BF6F
:102B6000FEF708FB00BF012D03D000200E490870BE
:102B700002E001200C49087014B10C48046006E022
:102B80000B4800680A21B0FBF1F00849086000BF5B
:102B9000FEF70AFB00BF3846FDF7EEFA00BF00BFA4
:102BA00000203080BDE8F0810401002000010020F9
:102BB000C8B0000870B504460025234800780028F6
:102BC00003DD46F66550208070BD2048007801285E
:102BD00003D045F689602080F6E71D48007818B9D3
:102BE00046F664502080EFE700BF00BFFDF7C0FA53
:102BF000054600BFFEF7BEFA00BF15480078401E2C
:102C0000134908700846007800280CDD00BFFEF765
:102C1000CBFA00BF2846FDF7AFFA00BF00BF46F66B
:102C200063502080D0E702F031FC00BFFEF7BCFA11
:102C300000BF2846FDF7A0FA00BF00BFFFF7F2FE75
:102C40000020208000BFBFE7AC000020B4000020BF
:102C5000FC00002010B5044612480078E8B902F0E4
:102C60000FFA1149087008460078104908700E489C
:102C7000007800EB40000E4951F820000D49086033
:102C8000084600680C490860012006490870FDF7F5
:102C90007BFE43F69920208002E045F68A60208082
:102CA00010BD0000B4000020E3000020E20000207E
:102CB0001CE7002058010020540100202DE9F041BC
:102CC00007464FF0000800BF00BFFDF751FA8046ED
:102CD00000BFFEF74FFA00BF002047490860474990
:102CE00008804749088047490860474908604749C4
:102CF000086047490860474908604749088100BFA4
:102D0000FEF752FA00BF4046FDF736FA00BF00BF9B
:102D100000BF00BFFDF72CFA804600BFFEF72AFA7D
:102D200000BF3E48046800BFFEF73EFA00BF4046C1
:102D3000FDF722FA00BF00BF26E000BF00BFFDF78D
:102D400017FA804600BFFEF715FA00BF002078345E
:102D5000E063206420602063A061A082E082606262
:102D6000A062FEF795FA2062783C04F16406002028
:102D7000B081D4F8C04000BFFEF716FA00BF40464D
:102D8000FDF7FAF900BF00BF002CD6D100BF00BF8D
:102D9000FDF7EEF9804600BFFEF7ECF900BF2048D2
:102DA000056800BFFEF700FA00BF4046FDF7E4F9F2
:102DB00000BF00BF16E000BF00BFFDF7D9F9804695
:102DC00000BFFEF7D7F900BF05F120060020B08153
:102DD000AD6900BFFEF7E8F900BF4046FDF7CCF94A
:102DE00000BF00BF002DE6D103F084FE04F012F90D
:102DF00000203880BDE8F081C8000020C20000201B
:102E0000120100202401002038010020440100208C
:102E1000B0000020F400002010E700202C0100206A
:102E2000E8000020F8B5044600266946364800F060
:102E300095FEBDF8000018B1BDF800002080F8BD77
:102E40006A460021022000F00BFFBDF8000018B117
:102E5000BDF800002080F2E700BF00BFFDF788F951
:102E6000064600BFFEF786F900BF0020274908602C
:102E700000BFFEF799F900BF3046FDF77DF900BFAE
:102E800000BF00252248006822490968884205D908
:102E90001F4800681F490968B0FBF1F525B91C48B7
:102EA00000680A21B0FBF1F56A460021284600F0CF
:102EB000D7FE6946144800F007FCBDF8000018B1C1
:102EC000BDF800002080BAE700BF00BFFDF750F951
:102ED000064600BFFEF74EF900BF00200E4908600D
:102EE0000A4800680D49086001200D49087000BFBC
:102EF000FEF75AF900BF3046FDF73EF900BF00BFAC
:102F00000020208000BF9AE72CEA00201401002056
:102F1000C8B00008B0B0000824010020180100204B
:102F20002001002010B50348006810B10148006876
:102F3000804710BD9C0000202DE9FF4F87B004465C
:102F40009046DDE91BA5DDE91496179F002003904C
:102F500095480078002805DD47F24A1028800BB01C
:102F6000BDE8F08F1CB947F2AD102880F7E7B8F143
:102F7000000F03D147F24F102880F0E71EB946F644
:102F80002F602880EBE789480068874203D246F625
:102F900030602880E3E71698B84203D346F63160E4
:102FA0002880DCE7B9F1200F03D346F27320288094
:102FB000D5E7B9F1000F06D17D48844203D046F22F
:102FC00073202880CBE7B9F11F0F06D179488442DE
:102FD00003D046F273202880C1E7204602F06AFE43
:102FE000002028800AF0010090B10AF0020078B1B8
:102FF00005960020069008E00021059801600598DC
:10300000001D05900698401C06900698B842F3D320
:10301000169806EB80000490CDE9007A32464046CF
:10302000049B0A9900F03AFD0590C4F828800A989C
:10303000E0620898206284F8379005982060049830
:10304000A06019986065199818B95B480068A06578
:1030500001E01998A0651A9860606662A763A4F8F9
:103060003CA04FF0000B08E0002104F17C0040F888
:103070002B100BF1010000F0FF0BBBF1000FF3D0A0
:1030800004F16400189901F0BBFD204600F09EF8A1
:1030900000BF00BF00BFFDF76BF8039000BFFEF755
:1030A00069F800BF45480078401C4449087008464C
:1030B0000078012801D102F0DBF900BFFEF774F8B7
:1030C00000BF0398FDF758F800BF00BF00BF94F899
:1030D000370001F0F5FF204602F02EF9204602F0FD
:1030E0009FFD37480088401C3549088035480078E6
:1030F000012837D000BF00BF00BFFDF739F80390AB
:1031000000BFFEF737F800BF2C480078401E2B495F
:10311000087008460078D0B902F0B8F92A4800884B
:1031200000280BDD00BFFEF73FF800BF0398FDF756
:1031300023F800BF00BF02F06DF911E000BFFEF7F9
:1031400033F800BF0398FDF717F800BF08E000BF91
:10315000FEF72AF800BF0398FDF70EF800BF00BF86
:1031600000BFFCE600BF00BF00BFFDF701F8039001
:1031700000BFFDF7FFFF00BF10480078401E0F4959
:1031800008700846007808B902F080F900BFFEF721
:103190000BF800BF0398FCF7EFFF00BF00BF00BFB4
:1031A000FFF740FC00BFDAE6AC000020C4B0000826
:1031B00048E6002080E5002000010020FC000020FF
:1031C00030010020B4000020C000002010B50446EB
:1031D0000348006818B1204601490968884710BDB6
:1031E0008C00002070B504460D4600267848007813
:1031F000002803DD47F24E10288070BD75488442D8
:1032000003D147F24C102880F7E77348844203D17A
:1032100047F24D102880F0E79CB900BF00BFFCF7D3
:10322000A7FF064600BFFDF7A5FF00BF6B48046877
:1032300000BFFDF7B9FF00BF3046FCF79DFF00BFA0
:1032400000BF00BF00BF00BFFCF792FF064600BFF3
:10325000FDF790FF00BF62480078401C604908708D
:1032600008460078012801D102F002F900BFFDF7FD
:103270009BFF00BF3046FCF77FFF00BF00BF00BFD1
:1032800094F8360008282DD2DFE800F004090E106B
:10329000080A0F11204602F08FF85EE05DE000BFE3
:1032A000204603F00BFC58E000BF00BF00BF2046E3
:1032B00003F004FC94F83400082810D2DFE800F092
:1032C00004070508090A0B0600BF00BF08E000BF9D
:1032D00000BF00BF00BF204601F023FE00E000BF9A
:1032E00000BF3AE000BF00BF00BFFCF741FF064649
:1032F00000BFFDF73FFF00BF39480078401E384946
:10330000087008460078D0B902F0C0F83548008847
:1033100000280BDD00BFFDF747FF00BF3046FCF77C
:103320002BFF00BF00BF02F075F811E000BFFDF7F2
:103330003BFF00BF3046FCF71FFF00BF08E000BFA7
:10334000FDF732FF00BF3046FCF716FF00BF00BF9D
:1033500000BF46F62D6028804FE700BF04F16400EF
:1033600001F0F8FB204600F041F8204602F070FC26
:103370001D480088401E1C490880204602F09AFC27
:10338000FF2084F8360000BF00BF00BFFCF7F0FE4E
:10339000064600BFFDF7EEFE00BF11480078401E54
:1033A0000F4908700846007808B902F06FF800BFAE
:1033B000FDF7FAFE00BF3046FCF7DEFE00BF00BF9F
:1033C00000BF00202880FFF72DFB00BF15E700009D
:1033D000AC00002080E5002048E6002054010020D9
:1033E000FC000020C00000203001002010B5044681
:1033F0000348006818B1204601490968884710BD94
:10340000900000202DE9F05F80460F4616461C46CE
:103410000A9D4FF0000B8A480078002805DD46F22F
:10342000AE1028800020BDE8F09F26B946F2D520D6
:1034300028800020F7E71FB1B7F5004F02D100E068
:1034400000BF04E045F6256028800020EBE700BFC0
:103450000CB10020206000BF00BFFCF789FE83464E
:1034600000BFFDF787FE00BF7648006800F16409E1
:103470002B4622463146484601F08EFB824628887C
:1034800000BBA4B1FDF704FF2168401A6D4909682B
:1034900048676C480068806F6A490968496F8842CC
:1034A00005D268480068406F66490968886700BFB0
:1034B000FDF77AFE00BF5846FCF75EFE00BF00BF76
:1034C0005046B0E707F4004068B146F2B0102880DB
:1034D00000BFFDF769FE00BF5846FCF74DFE00BF78
:1034E00000BF00209FE75848007800280DDD00BF8E
:1034F000FDF75AFE00BF5846FCF73EFE00BF00BF76
:1035000046F66350288000208DE700BF4E480078C3
:10351000401C4D49087008460078012801D101F08F
:10352000A7FF00BFFDF740FE00BF5846FCF724FE92
:1035300000BF00BF00BF434602220021084601F041
:103540000DFC00BF00BF00BFFCF712FE834600BFAA
:10355000FDF710FE00BF3C480078401E3A49087055
:103560000846007808B901F091FF00BFFDF71CFE86
:1035700000BF5846FCF700FE00BF00BF00BFFFF7CA
:1035800051FA00BF00BFFCF7F3FD834600BFFDF713
:10359000F1FD00BF2B48006890F8350020B10128EC
:1035A0002AD0032832D132E026480068D0F85CA047
:1035B00024480068B0F860003080D4B12148006829
:1035C000006C2060FDF764FE1E490968096C401A12
:1035D0001C49096848671B480068806F19490968D9
:1035E000496F884205D217480068406F154909683D
:1035F00088670020288017E04FF0000A0020308004
:1036000004B1206046F2A91028800DE000BF4FF001
:10361000000A002030801CB10A480068006C20605D
:1036200047F2D920288000BF00BF00BFFDF7BCFDD6
:1036300000BF5846FCF7A0FD00BF00BF5046F2E6B1
:10364000AC00002054010020FC0000202DE9FF47C1
:103650000746884691461D460C9E4DB1102D08D058
:10366000B5F5004F06D0A5F50040103820B902E0AE
:1036700000BF00BF00BF04E045F625603080BDE814
:10368000FF8700BFFDF704FE04460D4800780028C0
:103690000BDD00204B4642463946CDE90246CDE9D6
:1036A0000005084800F0ACFFE9E72B464A464146D2
:1036B0003846CDE9004602F065FB00BFDFE70000B9
:1036C000AC000020544D53477FB504460D460026FC
:1036D00000BF00BFFCF74CFD064600BFFDF74AFDEA
:1036E00000BF1CB11748006884420CD100BFFDF731
:1036F0005BFD00BF3046FCF73FFD00BF00BF47F257
:10370000571028807FBD00BFFDF74EFD00BF30463B
:10371000FCF732FD00BF00BF0B48007800280BDD2E
:10372000002000900190034602462146CDE90205A3
:10373000064800F065FFE5E72946204602F066FCF2
:1037400000BFDFE754010020AC0000205452455375
:1037500010B504460348006818B1204601490968BD
:10376000884710BD940000202DE9F04780460E46A2
:1037700014461D464FF000098C480078002805DDEE
:1037800046F2AE1028800020BDE8F0871EB1B6F5E5
:10379000004F02D100E000BF04E045F6256028801C
:1037A0000020F1E700BF0CB10020206000BF00BF87
:1037B000FCF7DEFC814600BFFDF7DCFC00BF7C4867
:1037C0000068406CB8B37A480068406C401E784985
:1037D0000968486476480068476C1CB17448006802
:1037E000006C2060FDF754FD71490968096C401AAE
:1037F0006F490968C1F8A4006D480068D0F8A800B6
:103800006B490968D1F8A410884207D2684800685B
:10381000D0F8A40066490968C1F8A80000BFFDF708
:10382000C3FC00BF4846FCF7A7FC00BF00BF002058
:1038300028803846A8E7FFE706F4004068B100BFDB
:10384000FDF7B2FC00BF4846FCF796FC00BF00BF86
:1038500046F2B0102880002096E7564800780028ED
:103860000DDD00BFFDF7A0FC00BF4846FCF784FC5F
:1038700000BF00BF46F663502880002084E700BFE9
:103880004C480078401C4B490870084600780128D5
:1038900001D101F0EDFD00BFFDF786FC00BF4846F9
:1038A000FCF76AFC00BF00BF00BF434607220021AF
:1038B000084601F053FA00BF00BF00BFFCF758FCF8
:1038C000814600BFFDF756FC00BF3A480078401E15
:1038D000384908700846007808B901F0D7FD00BFE4
:1038E000FDF762FC00BF4846FCF746FC00BF00BF86
:1038F00000BFFFF797F800BF00BFFCF739FC814617
:1039000000BFFDF737FC00BF2948006890F835007C
:1039100020B1012826D0032834D12CE0FCB1244862
:103920000068006C2060FDF7B3FC21490968096C50
:10393000401A1F490968C1F8A4001D480068D0F862
:10394000A8001B490968D1F8A410884207D218487A
:103950000068D0F8A40016490968C1F8A800002042
:10396000288013E01CB112480068006C206046F209
:10397000A91028800AE00CB10020206047F2D9206D
:10398000288003E046F62E60288000BF00BF08486C
:103990000068476C00BFFDF707FC00BF4846FCF716
:1039A000EBFB00BF00BF3846EEE60000AC00002095
:1039B00054010020FC0000202DE9F04705460E468A
:1039C00017461C464FF0000A32480078002804DDF4
:1039D00047F259102080BDE8F0871EB946F2D52085
:1039E0002080F8E71FB946F2D5202080F3E700BF1A
:1039F00000BFFCF7BDFB824600BFFDF7BBFB00BF6D
:103A00000DB925480568286878B900BFFDF7CCFBDB
:103A100000BF5046FCF7B0FB00BF00BF0020306085
:103A2000386047F252102080D5E795F83C0000F04E
:103A3000010078B900BFFDF7B7FB00BF5046FCF7A7
:103A40009BFB00BF00BF00203060386047F254107D
:103A50002080C0E700BFFDF7A7FB00BF5046FCF782
:103A60008BFB00BF00BF4FF00008D5F8249003E0A7
:103A700009F1040908F10108D9F800000028F7D07D
:103A8000C6F80080A86BA0EB0800386000202080FA
:103A900000BFA0E7AC00002054010020F0B50446B0
:103AA000DDE9055602EB85004FF0807C071F3846A4
:103AB000C7F800C0071F38463C60DFF89CC0071FEE
:103AC0003846C7F800C04FF0123C071F3846C7F809
:103AD00000C04FF0033C071F3846C7F800C04FF046
:103AE000023C071F3846C7F800C0071F38463B6036
:103AF000071F384639604FF0113C071F3846C7F89A
:103B000000C04FF0103C071F3846C7F800C04FF008
:103B1000093C071F3846C7F800C04FF0083C071F94
:103B20003846C7F800C04FF0073C071F3846C7F8B3
:103B300000C04FF0063C071F3846C7F800C04FF0E2
:103B4000053C071F3846C7F800C04FF0043C071F6C
:103B50003846C7F800C0F0BD896100087FB505464A
:103B60000C461248854203D147F25B1020807FBD8E
:103B70000F48854203D147F25C102080F7E70D48DB
:103B8000007800280BDD00200090019003460246DB
:103B90002946CDE90204084800F032FDE7E7214656
:103BA000284602F0D1FD00BFE1E7000080E50020DB
:103BB00048E60020AC0000205453555370B524480B
:103BC000006810B1224800688047FDF761FB044699
:103BD0002048006820490968884215D01D480068BF
:103BE000D0F89800201A1B490968C1F894001948B8
:103BF0000068D0F89C0017490968D1F8941008446F
:103C000014490968C1F89C0013480068C0F898403E
:103C1000FDF784FA05460F480068D0F8B400A842C2
:103C200003D20C480068C0F8B4500A480068D0F8C5
:103C3000B8000A490968884205D208480068054961
:103C40000968C1F8B80000200449086070BD000090
:103C5000A00000205401002058010020F80000209E
:103C60002DE9F04105460E46144600274D480078E0
:103C7000002804DD47F275202080BDE8F0814A4825
:103C80000078002803DD46F663502080F5E736B162
:103C9000022E05D0042E0AD0082E09D101E000BF63
:103CA00000BF1DB947F27E202080E6E704E003E074
:103CB00045F625602080E0E700BF00BF00BF00BFE1
:103CC000FCF756FA074600BFFDF754FA00BF364826
:103CD0000078401C3449087008460078012801D15A
:103CE00001F0C6FB00BFFDF75FFA00BF3846FCF7E6
:103CF00043FA00BF00BF00BF01202C49096881F8CA
:103D000036002346324629462848006802F0F8FD6E
:103D10002088F0B100BF00BF00BFFCF729FA0746BA
:103D200000BFFDF727FA00BF1F480078401E1E495C
:103D300008700846007808B901F0A8FB00BFFDF73D
:103D400033FA00BF3846FCF717FA00BF00BF00BFC8
:103D500093E71648006801F02FFB00BF00BF00BFCB
:103D6000FCF706FA074600BFFDF704FA00BF0E484D
:103D70000078401E0C4908700846007808B901F028
:103D800085FB00BFFDF710FA00BF3846FCF7F4F9D9
:103D900000BF00BF00BFFEF745FE0020208000BF2F
:103DA0006BE70000AC000020FC0000205401002064
:103DB0002DE9FF5F05460E4617469846DDE90EA43D
:103DC0000020009081480078002804DD47F275202B
:103DD0002080BDE8FF9F7E480078002803DD46F67E
:103DE00063502080F5E70AF00E0BBBF1000F09D0FD
:103DF000BBF1020F07D0BBF1040F10D0BBF1080FCD
:103E00000ED101E000BF00BFB8F1000F06D12FB9FD
:103E100026B91DB947F27E202080DAE704E003E0EE
:103E200045F625602080D4E700BF2AF01E0008B1C7
:103E3000012000E0002003900398012803D145F6FB
:103E400025602080C5E7CAF3001002900298C0B92F
:103E5000B8F57A7F03D347F27B202080B9E73B2F68
:103E600003DD47F27A202080B3E73B2E03DD47F2E3
:103E700079202080ADE7632D12DD47F27820208085
:103E8000A7E742F20F70864203DD47F279202080D7
:103E90009FE7B5F57A7F03DB47F27820208098E72B
:103EA0004C48D0F800904FF4FA70B0FBF9F0404461
:103EB00000FB09F04FF47A71B0FBF1F14FF461604F
:103EC0006843C6EB061200EB8200384400FB091081
:103ED00001900198002873D000BF00BF00BFFCF71D
:103EE00047F9009000BFFDF745F900BF384800785A
:103EF000401C3749087008460078012801D101F0BC
:103F0000B7FA00BFFDF750F900BF0098FCF734F98D
:103F100000BF00BF00BF01202F49096881F83600AB
:103F200023465A462C480199006802F0E9FC208893
:103F3000F0B100BF00BF00BFFCF71AF9009000BF4E
:103F4000FDF718F900BF22480078401E204908708C
:103F50000846007808B901F099FA00BFFDF724F986
:103F600000BF0098FCF708F900BF00BF00BF30E7B2
:103F70001948006801F020FA00BF00BF00BFFCF73D
:103F8000F7F8009000BFFDF7F5F800BF1048007883
:103F9000401E0F4908700846007808B901F076FA0B
:103FA00000BFFDF701F900BF0098FCF7E5F800BF7E
:103FB00000BF00BFFEF736FD0020208003E0FFE7D2
:103FC00047F27E20208000BF03E70000AC00002005
:103FD000FC000020C8B000085401002010B586B0D5
:103FE00000F01EF8FDF754F9044605A800210091E1
:103FF000CDE9011403900748007800EB4000064A21
:1040000002EB800100231A46044800F0F9FA06B0DA
:1040100010BD0000E20000201CE700205449434B83
:1040200010B50348006810B101480068804710BD12
:10403000A400002010B5002400BF00BFFCF798F8D2
:10404000044600BFFDF796F800BF09480078401C01
:104050000749087000BFFDF7A7F800BF2046FCF72E
:104060008BF800BF00BFFFF7B9FFFDF7EFFF10BDF2
:10407000AC00002001464A1E4FF0E0235A61084A76
:10408000106820F07F4000BF10601A46126942F0AD
:1040900005021A611A46126942F002021A6170475B
:1040A00020ED00E0254A2649264A274A2749284A82
:1040B0002848294A294A2A4A2A4A2B482B482C4868
:1040C0002C4A2D482D4A2E482E4A2F482F4830483A
:1040D0003048314A314A324A3248334A334A344806
:1040E000344835483548364836483748374A384ADC
:1040F000384A394A39483A483A483B4A3B4A3C4AA6
:104100003C483D483D483E493E483F4A3F4A404A78
:10411000404A414A414A424A4248434A434A444843
:104120004448454A454A4648464A474A4748484817
:10413000484800BF00BF00BF704700000CB1000836
:1041400074B200080DB100080EB1000810B10008EB
:1041500014B1000818B1000815B1000840B10008FA
:1041600041B1000842B1000844B1000846B100085E
:1041700048B100084AB100084CB100086CB1000811
:104180006EB1000870B1000872B1000874B1000887
:1041900076B1000878B10008A4B10008A5B1000804
:1041A000A6B10008A8B10008AAB10008ABB1000888
:1041B000ACB10008AEB10008B0B10008B2B100085F
:1041C000B4B10008B6B10008B8B10008E8B1000801
:1041D000E9B10008EAB10008EBB10008ECB1000851
:1041E000EEB10008F0B1000818B2000819B20008DA
:1041F0001AB200081BB200081CB200081EB2000868
:1042000020B2000824B2000825B2000826B2000837
:1042100027B2000828B2000829B200082AB2000814
:104220002BB200082CB200082EB200082FB20008F2
:1042300030B2000832B2000834B2000835B20008CB
:1042400038B200086CB200086DB200086EB2000807
:1042500070B2000872B200080021034A1160034ADC
:104260001180018070470000CC000020D0000020A9
:104270002DE9F04F85B00446894692469B46DDF80D
:1042800038800020009000BF00BFFBF771FF009056
:1042900000BFFCF76FFF00BFBAF1000F0AD0BAF100
:1042A000010F0DD0BAF5004F05D06FF40040504417
:1042B00060B906E000BF206A40EA0900206216E00B
:1042C00000BF206A20EA0900206210E000BFFCF76E
:1042D0006BFF00BF0098FBF74FFF00BF00BF45F624
:1042E0002560A8F80000002005B0BDE8F08F00BFF1
:1042F000C4F824B004F1080001900198008968B95D
:1043000000BFFCF751FF00BF0098FBF735FF00BF6F
:1043100000BF0020A8F80000206AE5E700BF714850
:104320000078401C6F49087008460078012801D1C8
:1043300001F09EF800BFFCF737FF00BF0098FBF7C5
:104340001BFF00BF00BF00BF01980768BD6889E080
:104350007868029095F8880000F00F0003900398A9
:10436000012821D002282ED0042802D0082836D1D6
:104370000EE0206AD5F8801000EA0106D5F880002A
:10438000B04204D15A463146284600F0AFF863E007
:10439000206AD5F8801000EA010626B15A46314657
:1043A000284600F0A3F857E0D5F88000216A20EAFB
:1043B0000106D5F88000B04204D15A46314628465D
:1043C00000F094F848E0D5F88000216A20EA010660
:1043D00026B15A463146284600F088F83CE000BF36
:1043E00000BF00BFFBF7C4FE009000BFFCF7C2FE99
:1043F00000BF3C480078401E3A49087008460078E3
:10440000D0B901F043F83848008800280BDD00BF20
:10441000FCF7CAFE00BF0098FBF7AEFE00BF00BF6E
:1044200000F0F8FF11E000BFFCF7BEFE00BF0098EF
:10443000FBF7A2FE00BF08E000BFFCF7B5FE00BF1F
:104440000098FBF799FE00BF00BF00BF43F6FF20B6
:10445000A8F80000002047E700BF029F0FB1BD6829
:1044600000E00025002D7FF473AF00BF00BF00BF48
:10447000FBF77EFE009000BFFCF77CFE00BF1948F2
:104480000078401E174908700846007808B900F007
:10449000FDFF00BFFCF788FE00BF0098FBF76CFE35
:1044A00000BF00BF00BF0AF4004008B9FEF7BAFA27
:1044B00000BF00BFFBF75CFE009000BFFCF75AFE98
:1044C00000BF206A049000BFFCF76EFE00BF00989A
:1044D000FBF752FE00BF00BF0020A8F800000498C0
:1044E00002E70000FC000020C000002070B5044678
:1044F0000E46154634342665002060702070E56055
:10450000A078343C082816D2DFE800F0040508093A
:104510000706101100BF00BF00BF0DE000BF20461E
:1045200001F066FD002084F8360005E000BF04209D
:1045300084F8360000E000BF00BF204600F0F1FC28
:1045400070BD0000002400BF1DE000BF00BFFBF7EE
:104550000FFE044600BFFCF70DFE00BF0A480068CE
:10456000401C0949086009480068401C0749086068
:1045700000BFFCF719FE00BF2046FBF7FDFD00BFA2
:1045800000BFFDF761FCE0E7A80000201401002057
:1045900010B58AB0044600200E4908600B200021A7
:1045A0000591CDE90704069108460B4909680B4AB5
:1045B00012680B4B1B68CDE90132CDE903101F20B7
:1045C0000023084A08A100900C48FEF7B5FC0AB089
:1045D00010BD0000A800002070B000086CB00008FA
:1045E00068B000084545000875432F4F532D4949D1
:1045F000492049646C65205461736B0080E500209C
:104600002DE9F84F04460D4616461F46DDE90BAB73
:10461000DDF82890DDF834800020009000BF00BF56
:10462000FBF7A6FD009000BFFCF7A4FD00BF2C48DF
:1046300000882C49098888423EDA29480088401CB5
:1046400027490880284800880988884203DA2448D6
:1046500000882549088025480068046023480068D0
:10466000856022480068C6602048006807821F48AD
:104670000068C0F814901D480068A0F818A01B48F6
:104680000068C0F81CB01948006840681749086005
:10469000012017490881174808604860002000F091
:1046A0000FFD1548007818B11348007813490870B9
:1046B0000020A8F8000008E011480088401C1049BC
:1046C000088044F25360A8F8000000BFFCF76CFDBE
:1046D00000BF0098FBF750FD00BF00BFBDE8F88F9A
:1046E000C00000207CB00008C2000020B8000020FC
:1046F0001CE7002048E60020E2000020E400002043
:10470000C40000203EB5594800680068584A811A24
:10471000904279D00FDC5749084400283ED05649D2
:104720000844A8B155490844002860D054490844B9
:1047300000286AD13FE053480844002850D052492D
:104740000844002862D0514908440028F1D110E003
:1047500002A8464D00902D68EB69444D2D682A8BC8
:10476000424D2D686969414D2D68A868FFF780FDAD
:104770007AE002A93D480068C0693C4DCDE90001DE
:104780002D682B8B394D2D682A8A384D2D68E968A4
:10479000364D2D68A86800F0C3FC65E0334B1B68FC
:1047A000DA69324B1B68198B304B1B68986802AB77
:1047B00000F00CFF58E002A92C480068C0692B4D9E
:1047C000CDE900012D682B8B284D2D682A8A274DB5
:1047D0002D68E968254D2D68A86801F0D3FA43E0FB
:1047E00022490968886802A901F010FC3CE01F4BCF
:1047F0001B68DA691D4B1B68198B1C4B1B6898687A
:1048000002AB01F0CDFC2FE007E02CE0174909686E
:10481000886802A901F098FF26E01D49097801EB9C
:1048200041011C4A02EB810000F04EFE0F48006877
:1048300002AB0021C269184801F0B2FC17480068B9
:10484000401E164908600846006858B914480068B8
:104850000860FCF71DFD044602AB2246002111480A
:1048600001F09EFC00E000BF00BF3EBDBC00002088
:104870005449434BADBAB2BE0DF90BFAF2F8F7FF4B
:104880000006F6FF00F7FDF700FFEFFF03FE0FFE47
:10489000E40000201CE7002064E900205001002013
:1048A0004C0100202CEA0020002700BF56E0002623
:1048B00052E000BF00BFFBF75BFC074600BFFCF700
:1048C00059FC00BF2648008898B900202549088176
:1048D0000860486000F006FC00BFFCF765FC00BF04
:1048E0003846FBF749FC00BF00BFFEF79BF80126E6
:1048F00032E000BFFCF758FC00BF3846FBF73CFC39
:1049000000BF00BFFCF7C4FC0546FFF7FBFEFCF749
:10491000BFFC441B14480068A04201D21248046046
:1049200000BF00BFFBF724FC074600BFFCF722FCDA
:1049300000BF0E48006840680C49086008480088BD
:10494000401E0749088000BFFCF72EFC00BF384618
:10495000FBF712FC00BF00BF002EAAD0A7E70000A3
:10496000C00000201CE70020C8000020BC00002080
:10497000F0B589B00546002031490880314800680B
:1049800020B944F25260288009B0F0BD2E4800885A
:10499000022803DA44F254602880F5E700202B490E
:1049A0000860284804682646203600270CE028487E
:1049B00020600020A060E06020826061208366604B
:1049C00020342036781C87B21F4800888742EEDBEF
:1049D000203C1C48066866601E4806601E4806604B
:1049E00000201E4908801E4908801E48006818B92A
:1049F00044F255602880C7E71B4800681B490968D6
:104A0000884203D244F256602880BDE7032000218B
:104A10000591CDE90705069113480068144A12680C
:104A2000104B1B68CDE90301CDE9013200910B4623
:104A3000104A11A11748FEF77FFA00BFA4E7000053
:104A4000C400002078B000087CB00008C800002036
:104A50004E4F4E45B8000020BC000020C000002092
:104A6000C200002084B000088CB00008C4B0000868
:104A700088B00008A948000875432F4F532D4949B5
:104A80004920495352205175657565205461736BF7
:104A90000000000048E60020002181610749096804
:104AA00011B90021C16105E004490968C1610349E8
:104AB000096888610149086070470000D40000203F
:104AC0000021034A1160034A1180018070470000F1
:104AD000D4000020D800002070B501461A4D2D6882
:104AE0001DB945F21E750D8070BD184D2D881DB97C
:104AF00045F21D750D80F7E7134D28682A681032BE
:104B0000124D2D886D1EACB2002308E00260002516
:104B100045600581C560103010325D1CABB2A34208
:104B2000F4DB0025056045600581C560064D2D68F4
:104B3000074E3560054D2D88B5800025F5803581FF
:104B40000D8000BFD0E70000A8B00008A0B00008AA
:104B500010E7002010B5014648894B89002B17DD6E
:104B60000A680C4B1B6813600A4C4B682360234691
:104B7000DB884C891B1B074CE38023469B884C89B0
:104B80002344044CA38000234B818B810B604B603A
:104B900010BD000010E70020F0B504460D46608906
:104BA00040B90020288002B1106046F2925018806F
:104BB0000020F0BD61684E68088928800AB1C86885
:104BC000106008686060606818B90020206060812B
:104BD00002E06089401E608108480068086007485C
:104BE00001608088401C054FB8803846C088401E50
:104BF000F880002018803046DBE7000010E7002036
:104C0000018100224281828102604260704700007F
:104C10002DE9F0410D46DDE90674B0F80AC0B0F8A0
:104C20000880C44505DB46F2935CA4F800C0BDE8EB
:104C3000F081DFF8DCC0BCF804C0BCF1000F04D187
:104C400045F21D7CA4F800C0F1E7DFF8C4C0DCF831
:104C50000010DFF8BC80D1F800C0C8F800C0C4461E
:104C6000BCF804C0ACF1010CA8F804C0C446BCF800
:104C700006C00CF1010CA8F806C0C446BCF808C078
:104C8000B8F80680C44507DADFF884C0BCF806C06F
:104C9000DFF87C80A8F808C0B0F80AC0BCF1000FAB
:104CA0000AD1016041604FF0010CA0F80AC04FF03A
:104CB000000CC1F800C017E003F0100CBCF1000FAD
:104CC00007D10668316001604FF0000CC1F800C0E8
:104CD00004E0D0F804C0C1F800C04160B0F80AC0D8
:104CE0000CF1010CA0F80AC0B0F80CC0B0F80A80B2
:104CF000C44503DAB0F80AC0A0F80CC04D600A81C0
:104D0000CF604FF0000CA4F800C000BF8FE7000098
:104D100010E7002009A1C16100214161084909682B
:104D200011B90021816105E00549096881610449E3
:104D300009684861024908607047000020000000CF
:104D4000DC0000200021034A1160034A1180018029
:104D500070470000DC000020E00000202DE9F04159
:104D600005460C4616461F461548006880F8346014
:104D700000201349096881F8350039461048006859
:104D800000F032FF6CB104F10808EC600122294602
:104D90000B48006800F016F82946404600F08EF8EF
:104DA00006E0002006490968C887054909680863C4
:104DB00003480168204600F019F8BDE8F0810000C2
:104DC0005401002010B5C287016300230AE00024CB
:104DD0004C600C600C614C610C83CC6188602031AC
:104DE0005C1CA3B29342F2DB10BD000030B548B1A9
:104DF0004568C1F8C45000F10804226893681D6A30
:104E0000C56113E091F83450022D02D0072D08D16E
:104E100003E007A5C1F8C45007E007A5C1F8C450D6
:104E200003E008A5C1F8C45000BF00BF30BD0000BA
:104E30005461736B205100005461736B2053656D96
:104E4000000000002000000030B507A5C1F8C450E4
:104E500000F1080422681AB193681D6AC56101E077
:104E600001A5C56130BD0000200000002DE9F04320
:104E700004460F4684F83770256BB4F83E8013E083
:104E8000D5F80C9009F108063089012807D9294680
:104E9000304600F05EF82946304600F00FF8203525
:104EA000A8F101001FFA80F8B8F1000FE8D1BDE8C1
:104EB000F08300210160416001817047F0B58E6888
:104EC00096F8375007893FB90127078100274F60BF
:104ED0000F600160416023E007897F1C0781026841
:104EE00006E0946894F83770AF4200DD02E0526843
:104EF000002AF6D100BF32B900274F6043680B602B
:104F0000596041600CE017682FB9116000270F60ED
:104F10004A60016004E013680B604A6059601160E8
:104F2000F0BD2DE9F0410446256BE68F0AE0D5F887
:104F30000C8008F108072946384600F00AF82035A9
:104F4000701E86B2002EF2DC0020E0872063BDE8F0
:104F5000F08110B50489012C03D100240460446061
:104F600011E00C6824B94A680024146002600AE069
:104F70004C6824B90B6800245C60436003E00B6854
:104F80004A685A6013600489641E048100244C60DE
:104F90000C6010BD2DE9F84306460C4617469846AE
:104FA000089D94F83600082850D2DFE800F0040588
:104FB000080906072B2C00BF00BF00BF47E000BF59
:104FC00094F83400032807D143463A462146304638
:104FD000009500F03FF803E0E765A4F860802564E1
:104FE00036B12046FFF79DFF21463046FFF72CFFE4
:104FF000204600F0FDFF00203434A070607004F8FB
:10500000340924E000BF94F83400032807D1434654
:105010003A4621463046009500F01CF803E0E7656B
:10502000A4F860802564204601F048FD36B1204692
:10503000FFF777FF21463046FFF706FF04203434A0
:10504000A0700020607004F8340900E000BF00BFC9
:10505000BDE8F883F0B50446059E086BCD8F0AE0E5
:10506000C768A74204D1046142610383C66104E0BA
:1050700020306F1EBDB2002DF2DC00BFF0BD00007D
:1050800070B50025074C03E005F12000C5B2241DD2
:1050900020680028F8D02068FBF775F82844C5B2CE
:1050A000284670BD88000020002004E00021034A4B
:1050B00042F82010401C0028F8D0704788000020DB
:1050C00030B5420900F01F030121C3F11F04A140C4
:1050D000034C54F822400C43014D45F8224030BDAA
:1050E0008800002030B5420900F01F030121C3F100
:1050F0001F04A140034C54F822408C43014D45F855
:10510000224030BD880000200021034A1160034A7C
:105110001180018070470000E8000020EC000020B2
:105120002DE9F04F85B007468A4693461C4600207D
:10513000029000BF00BF00BFFBF71AF8029000BF4B
:10514000FCF718F800BF56480078401C5449087016
:1051500008460078012801D100F08AF900BFFCF769
:1051600023F800BF0298FBF707F800BF00BF00BF9D
:1051700007F10806308900284CD104F0100010B95E
:105180004FF0000801E04FF01008DDE90E01434642
:105190005A46CDE90001514607F12000FFF738FDDE
:1051A00000BF00BF00BFFAF7E3FF029000BFFBF7AC
:1051B000E1FF00BF3A480078401E394908700846B0
:1051C0000078D0B900F062F93648008800280BDD7D
:1051D00000BFFBF7E9FF00BF0298FAF7CDFF00BF61
:1051E00000BF00F017F911E000BFFBF7DDFF00BFC3
:1051F0000298FAF7C1FF00BF08E000BFFBF7D4FF39
:1052000000BF0298FAF7B8FF00BF00BF00BF05B0AB
:10521000BDE8F08F04F4007008B1358900E0012585
:10522000D6F8009011E0D9F808000390D9F80400EE
:1052300004900E985B465246009038460399FFF75B
:10524000A9FEDDF81090681E85B2002DEBD100BFDD
:1052500000BF00BFFAF78CFF029000BFFBF78AFF88
:1052600000BF0F480078401E0D49087008460078BE
:1052700008B900F00BF900BFFBF796FF00BF0298DA
:10528000FAF77AFF00BF00BF00BF04F4004008B97E
:10529000FDF7C8FB00210F98018000BFB7E70000B1
:1052A000FC000020C000002000210AE001EB4102C8
:1052B000054B03EB820000220281026042604A1C1F
:1052C000D1B22029F2D370471CE7002010B5044664
:1052D00094F83700FFF7F4FE94F837000549097891
:1052E000884203D1204600F027F802E0204600F073
:1052F00003F810BDE200002010B590F8373003EB42
:1053000043030C4C04EB83010B893BB901230B8154
:105310000023C36003610860486009E00B895B1CDF
:105320000B810B68C360002303610A681061086089
:1053300010BD00001CE7002010B590F8373003EBDB
:1053400043030B4C04EB83010B893BB901230B8115
:105350000023C36003610860486008E00B895B1CA0
:105360000B810023C3604A680261D060486010BDB1
:105370001CE7002010B501460C8924B1012C03D094
:10538000022C0CD101E000BF14E008684A680261F9
:105390000024C4601461D0600A6048600AE00868B4
:1053A0004A68C36800241C61C4600261D0600B605D
:1053B000486000BF00BF10BD2DE9F041054695F8DB
:1053C000370000EB4000124901EB80042F69EE68C2
:1053D00087B946B9002020812060606095F83700C9
:1053E000FFF780FE0EE02089401E20810020306102
:1053F000266007E02089401E2081FE600EB96760AC
:1054000000E0376100202861E860BDE8F08100001D
:105410001CE7002010B5002400BFFAF7A9FE0446DF
:1054200000BF00200D4908700D480E49086008466D
:105430000068D0F89000401C0968C1F890000A4844
:105440000068401C084908604FF080500749086018
:1054500000BF2046FAF790FE00BF10BDE300002019
:1054600048E60020580100202801002004ED00E05B
:1054700010B504480078012803D1FBF709FF024961
:10548000086010BDFC000020F000002010B50A48A4
:10549000007880B9FBF7FCFE08490968441A0848FF
:1054A0000068A04201D20648046006480068A04295
:1054B00001D20448046010BDFC000020F000002070
:1054C000F4000020F800002070B50546002635489D
:1054D0000078012800D070BD00BF00BFFAF748FE79
:1054E000064600BFFBF746FE00BF2C684CB900BF64
:1054F000FBF75AFE00BF3046FAF73EFE00BF00BF82
:10550000E9E72948844209D100BFFBF74DFE00BFFF
:105510003046FAF731FE00BF00BFDCE7A06D10B1E6
:10552000A06D401EA065A06D48B100BFFBF73CFE1A
:1055300000BF3046FAF720FE00BF00BFCBE7288946
:10554000022809DA00BFFBF72FFE00BF3046FAF74A
:1055500013FE00BF00BFBEE714480078002809DD35
:1055600000BFFBF721FE00BF3046FAF705FE00BF83
:1055700000BFB0E72846FFF7FDFE2C68606D18B944
:105580000B480068A06501E0606DA06500BFFBF7F7
:105590000BFE00BF3046FAF7EFFD00BF00BF00BFB3
:1055A00099E700000401002080E50020FC000020B5
:1055B000000100200021034A1160034A118001808C
:1055C00070470000080100200C0100202DE9FF5F5A
:1055D0000446884691461D460020019000BF00BF4A
:1055E000FAF7C6FD019000BFFBF7C4FD00BF04F150
:1055F00008073889002857D10420012804D0022840
:1056000016D004283AD127E0206AFF280FD100BF26
:10561000FBF7CAFD00BF0198FAF7AEFD00BF00BF5F
:1056200046F6C5502880002004B0BDE8F09F26E073
:105630004FF6FF71206A88420DD100BFFBF7B4FD21
:1056400000BF0198FAF798FD00BF00BF46F6C550AD
:1056500028800020E8E712E0206A401C68B900BFFB
:10566000FBF7A2FD00BF0198FAF786FD00BF00BF5F
:1056700046F6C55028800020D6E700E000BF00BFF6
:10568000206A401C2062D4F820A0C4F8249000BFF7
:10569000FBF78AFD00BF0198FAF76EFD00BF00BF5F
:1056A000002028805046BFE700BF2D480078401CEE
:1056B0002B49087008460078012801D1FFF7D8FE71
:1056C00000BFFBF771FD00BF0198FAF755FD00BF61
:1056D00000BF00BF08F4007008B13E8900E0012659
:1056E000D7F800B011E0DBF808000290DBF8040006
:1056F000039000231A46CDF8009020460299FFF748
:1057000049FCDDF80CB0701E86B2002EEBD1D4F847
:1057100020A000BF00BF00BFFAF72AFD019000BF24
:10572000FBF728FD00BF0E480078401E0C490870AA
:105730000846007808B9FFF7A9FE00BFFBF734FD63
:1057400000BF0198FAF718FD00BF00BF00BF08F4C2
:10575000004008B9FDF766F900202880504663E74D
:10576000FC00002086B00020009000BF06E0D94970
:105770000968480001AA0021FEF772FAD6480078AD
:105780000128F4D101A8FDF799FA0027D348006851
:10579000D0490968884205D9D0480068CD490968D0
:1057A000B0FBF1F727B9CD4800680A21B0FBF1F74B
:1057B0008EE1FBF76DFD8246FBF7C6FCC849086029
:1057C00000BF00BFFAF7D4FC009000BFFBF7D2FC8B
:1057D00000BFC4480068C44908600020C14908608F
:1057E00000BFFBF7E1FC00BF0098FAF7C5FC00BF63
:1057F00000BFBE480068BC490968884248D9BB4818
:105800000068BB49884205D242F210700390012023
:10581000029023E0B5480068B649884205D24FF4AB
:105820007A7003900A20029018E0B0480068B249EC
:10583000884203D26420039002900FE0AB480068D6
:10584000AE49884205D20A2003904FF47A70029044
:1058500004E00120039042F210700290A348016816
:105860000298B1FBF0F9A049039809684843B0FBDE
:10587000F9F042F21071081AA1490880A148008885
:105880000988884208DA9E4800889E49088003E01B
:1058900042F210709A490880FDF744FB002500BFD2
:1058A00000BFFAF765FC009000BFFBF763FC00BF88
:1058B0009548046800BFFBF777FC00BF0098FAF733
:1058C0005BFC00BF00BF72E000BF00BF00BFFAF783
:1058D0004FFC009000BFFBF74DFC00BF8B480078E9
:1058E000401C8A49087008460078012801D1FFF75A
:1058F000BFFD00BFFBF758FC00BF0098FAF73CFC67
:1059000000BF00BF00BF54F89C0F6060002044F847
:105910009C0900BF00BF00BFFAF72AFC009000BF3F
:10592000FBF728FC00BF79480078401E77490870D3
:1059300008460078D0B9FFF7A9FD7548008800280F
:105940000BDD00BFFBF730FC00BF0098FAF714FC3A
:1059500000BF00BFFFF75EFD11E000BFFBF724FCB6
:1059600000BF0098FAF708FC00BF08E000BFFBF793
:105970001BFC00BF0098FAF7FFFB00BF00BF00BF91
:10598000D4F8A000054400BF00BFFAF7F1FB009077
:1059900000BFFBF7EFFB00BFD4F8C04000BFFBF730
:1059A00003FC00BF0098FAF7E7FB00BF00BF002C24
:1059B0008AD145B34E48854205D242F21070059017
:1059C0004FF0010B1BE04B48854205D24FF47A7033
:1059D00005904FF00A0B12E04748854203D264203D
:1059E000059083460BE04548854204D20A20059085
:1059F0004FF47A7B03E00120059042F2107BB5FB67
:105A0000FBF0049003E0002005900120049000BF0B
:105A100000BFFAF7ADFB009000BFFBF7ABFB00BF88
:105A20003948046800BFFBF7BFFB00BF0098FAF7D6
:105A3000A3FB00BF00BF2FE0D4F8A00005994843A6
:105A40000499B0FBF1F086B242F21070864200D9A0
:105A50000646A4F88C60B4F88E00B04201DAA4F8CF
:105A60008E6001AB04F1AC02111D2046FDF7A4FFCE
:105A700000BF00BFFAF77CFB009000BFFBF77AFB8A
:105A800000BFD4F8C04000BFFBF78EFB00BF0098FA
:105A9000FAF772FB00BF00BF002CCDD11D48007883
:105AA000012805D100201B49087001A8FDF706F95F
:105AB000FBF7EEFBA0EB0A0817480068404502D24E
:105AC0001548C0F8008001AA00213846FEF7C8F842
:105AD0006FE60000B0B0000820010020C8B0000848
