:020000040800F2
:10000000A8A300204501000823130008C51000081C
:1000100061120008B90C0008696B000800000000BC
:10002000000000000000000000000000DD65000886
:10003000270F00080000000047070008D53300081C
:100040005F0100085F0100085F0100085F01000810
:100050005F0100085F0100085F0100085F01000800
:100060005F0100085F0100085F0100085F010008F0
:100070005F0100085F0100085F0100085F010008E0
:100080005F0100085F0100085F0100085F010008D0
:100090005F0100085F0100085F0100085F010008C0
:1000A0005F0100085F0100085F0100085F010008B0
:1000B0005F0100085F0100085F0100085F010008A0
:1000C0005F0100085F0100085F0100085F01000890
:1000D0005F010008296700085F0100085F01000850
:1000E0005F0100085F0100085F0100085F01000870
:1000F0005F0100085F0100085F0100085F01000860
:100100005F0100085F0100085F0100085F0100084F
:100110005F0100085F0100085F0100085F0100083F
:100120005F0100085F0100085F0100085F0100082F
:10013000DFF80CD000F0E4FA00480047B57400087E
:10014000A8A300200648804706480047FEE7FEE7D0
:10015000FEE7FEE7FEE7FEE7FEE7FEE7FEE7FEE777
:10016000C96600083101000872B6704762B6704770
:10017000EFF3108072B6704780F31088704730BF7D
:10018000704720BF7047B0FA80F0704790FAA0F037
:10019000B0FA80F0704790FAA0F0704740EA01038F
:1001A0009B0703D009E008C9121F08C0042AFAD22D
:1001B00003E011F8013B00F8013B521EF9D27047F1
:1001C000D2B201E000F8012B491EFBD27047002299
:1001D000F6E710B513460A4604461946FFF7F0FF46
:1001E000204610BD2DE9FE4F804681EA0300C00F76
:1001F0000C46009021F0004123F00045B8EB0200CE
:10020000A94105D24046214690461C460B4602466F
:1002100023F00040104347D0270DC7F30A00C3F373
:100220000A510290401A019040286BDAC3F3130080
:1002300040F4801B0098924620B10023D2EB030AC1
:1002400063EB0B0B01985946C0F14002504600F099
:1002500042F906460D4650465946019A00F05AF9B1
:1002600010EB08006141002487EA115284EAE77329
:100270001A4340D0009A62B3019A012A4FEA07520A
:1002800015DC001B61EB02014FF0004202EA07524D
:10029000CDE90042001C41F5801132462B4600F0AA
:1002A0005AF903B0BDE8F08F40462146F9E7001B3C
:1002B00061EB0201001C41F5801300185B4120181E
:1002C000A2F5001747EB030140EAD570B6196D415E
:1002D00011E06D084FEA360645EAC0754FEA07524D
:1002E000001B61EB0201001C41F5801149084FEA37
:1002F00030000019514132462B4603B0BDE8F04FA3
:1003000000F01AB90098012240000023D0EB02024D
:1003100063EBE073009821464FEAE074B8EB00000D
:1003200061EB0401E9E783F000435BE781F0004102
:1003300058E72DE9FE4F81EA030404F0004421F060
:10034000004100944FF0000B23F0004350EA0104F9
:100350005ED052EA03045BD0C3F30A54C1F30A55DA
:100360002C44A4F2F3340194A0FB0254C1F3130112
:1003700041F48011C3F3130343F4801301FB0244DF
:1003800000FB034E840A970A44EA815447EA8357E4
:10039000A4FB076802958D0A05FB07854FEA932C9D
:1003A00004FB0C542705029D4FEA065847EA16370E
:1003B000B5EB08056EEB070C870E920E47EA811726
:1003C00042EA8312A7FB0201B6EB0B0164EB0004C7
:1003D0002B0D43EA0C335E1844EB1C50DA465146B1
:1003E000E7FB0201C5F313044FEA0B3343EA14534E
:1003F0004FEA0432019C43EA0603A4F10C04029480
:10040000009CCDE900B400F0A6F803B0BDE8F08F81
:1004100000200146F9E7000030B5041E71F1000428
:1004200004DB4FF00044404264EB0101141E73F101
:10043000000405DB1C464FF00043524263EB04030B
:10044000994208BF904230BD30B50B4601460020AE
:100450002022012409E021FA02F59D4205D303FA86
:1004600002F5491B04FA02F52844151EA2F1010207
:10047000F1DC30BD2DE9F05F0546002092469B4639
:1004800088460646814640241BE0284641464746AA
:10049000224600F02FF853465A46C01A914110D315
:1004A00011461846224600F016F82D1A67EB01088F
:1004B0004F4622460120002100F00DF817EB0009FD
:1004C0004E41201EA4F10104DFDC484631462A4695
:1004D0004346BDE8F09F202A04DB203A00FA02F1EF
:1004E000002070479140C2F1200320FA03F3194322
:1004F00090407047202A04DB203A21FA02F00021C4
:10050000704721FA02F3D040C2F120029140084323
:1005100019467047202A06DBCB17203A41FA02F031
:1005200043EAE07306E041FA02F3D040C2F1200250
:10053000914008431946704710B5141E73F100042A
:1005400008DA401C41F1000192185B411A4301D1C5
:1005500020F0010010BD2DE9F04D92469B4611B1EF
:10056000B1FA81F202E0B0FA80F220329046FFF751
:10057000B2FF04460F4640EA0A0041EA0B01534627
:100580005A46084313D0114653EA010019D0C8F166
:1005900040025046FFF7AEFF05460E46504659460C
:1005A0004246FFF798FF084305D0012004E02046AB
:1005B0003946BDE8F08D0020054346EAE0762C433D
:1005C00037430A986305E40AA0EB08000022FD0AFD
:1005D00044EA47540A3002D500200146E9E7010504
:1005E00010196941DDE9084500196941BDE8F04D80
:1005F000A2E72DE9F04D81EA030404F0004B21F05D
:10060000004514464FF0000A23F0004150EA05026D
:1006100020D054EA01021DD0C5F30A570246C5F3A3
:100620001303C1F31300C1F30A5640F4801543F4D9
:100630008013A7EB0608101BD64608F2FD3873EBB3
:10064000050002D308F1010801E092185B41B8F1FE
:10065000000F03DA00200146BDE8F08D00204FF4C2
:100660008011064684460EE0171B73EB050705D381
:10067000121B63EB050306434CEA010C49084FEAE1
:10068000300092185B4150EA0107EDD152EA0300B5
:1006900012D082EA040083EA0501084305D0101B4A
:1006A000AB4106D20122002306E000224FF00043B6
:1006B00002E06FF0010253101AEB06004CEB0851F8
:1006C00010EB0A0041EB0B01BDE8F04DFFF734BF22
:1006D000C1F30A52C1F3130140F2FF3341F4801118
:1006E0009A4202DA00200146704740F233439A42B0
:1006F000A2F2334202DC5242FFF7FCBEFFF7EBBE30
:10070000064C074D06E0E06840F0010394E807005E
:1007100098471034AC42F6D3FFF70EFD90770008EF
:10072000B077000818484FF0FF010170002080F3F7
:1007300009881648016881F3088815484FF08051F0
:10074000016062B6FEE772B6EFF3098028B1203887
:1007500080E8F00F0F490968086000B50E4880472F
:100760005DF804EB0D480E490A78027009480D49FE
:100770000A680260106890E8F00F203080F3098862
:100780004EF0040E62B6704722ED00E01801002022
:1007900004ED00E010010020893100089E000020D7
:1007A0009F0000201401002098B000270024502151
:1007B00002A8FFF70CFD0025A0460026CFE03F2C45
:1007C00000DD002417A800231A461946009064484B
:1007D00001F02AF9204600F0CBFB804617AA002141
:1007E0005F4801F0B5FAAD200290DA2003900220B4
:1007F0000490059420200690AA20079017A80023B3
:1008000016AA194600904FF4FA6002F0E1F8054686
:1008100000BF00BF00BFFFF7ABFC074600BF00F002
:10082000E7FA00BF4F480078401C4E490870084660
:100830000078012801D103F0EBFF00BF00F0F2FACD
:1008400000BF3846FFF798FC00BF00BF00BFE86854
:10085000A04201D1012000E000200646B8F1000FBF
:1008600022D086B117A800231A46194600903C48AA
:1008700001F0DAF8284606F021F917AA00213848D5
:1008800001F066FA21E017A800231A4619460090E5
:10089000334801F0C9F8287B00F046FB17AA002175
:1008A0002F4801F055FA10E07EB117A800231A4630
:1008B000194600902A4801F0B7F8284600F004FCD9
:1008C00017AA0021264801F043FA17AA294626480C
:1008D00000F0F8FF8021254800F0E7FB20B18021DF
:1008E000224800F0EBFB03E08021204800F0E8FB09
:1008F00000BF00BF00BFFFF73BFC074600BF00F092
:1009000077FA00BF17480078401E1649087008465D
:100910000078D0B903F08AFF1548008800280BDD65
:1009200000BF00F07FFA00BF3846FFF725FC00BF8C
:1009300000BF03F03FFF11E000BF00F073FA00BFFB
:100940003846FFF719FC00BF08E000BF00F06AFA64
:1009500000BF3846FFF710FC00BF00BF00BF2EE706
:100960003C010020B800002090010020001C014044
:100970007C0000200EB50024002583E002A800239F
:1009800001AA19460090184602F022F8044600BF5A
:1009900000BF00BFFFF7ECFB054600BF00F028FAE0
:1009A00000BF39480078401C374908700846007875
:1009B000012801D103F02CFF00BF00F033FA00BF83
:1009C0002846FFF7D9FB00BF00BF00BF02A80023E5
:1009D0001A46194600902D4801F026F8BDF804107B
:1009E000204605F015FF0121294800F05EFB20B1EB
:1009F0000121274800F062FB03E00121244800F0B8
:100A00005FFB02AA0021214801F0A2F902AA2146B7
:100A1000204800F057FF00BF00BF00BFFFF7A8FB52
:100A2000054600BF00F0E4F900BF17480078401EFB
:100A30001549087008460078D0B903F0F7FE16484B
:100A4000008800280BDD00BF00F0ECF900BF28464D
:100A5000FFF792FB00BF00BF03F0ACFE11E000BF48
:100A600000F0E0F900BF2846FFF786FB00BF08E072
:100A700000BF00F0D7F900BF2846FFF77DFB00BF9D
:100A800000BF00BF7AE70000B80000203C01002052
:100A9000000C0140900100207C00002070B58AB05D
:100AA000064600F0FBF800F009F900F0EEF8044605
:100AB0002B480068B4FBF0F5284602F0ABFC00F0D0
:100AC000DBFB09A801F094FC00F066F909AA0021FB
:100AD000012001F01FFB09AA22A1244800F030FFE9
:100AE00009A864210323224ACDE9001021A1254849
:100AF00000F004FE09A8032100220592CDE9062199
:100B0000089032204FF4007133221F4BCDE901329F
:100B1000CDE90310032000231C4A1DA100902248A8
:100B200001F0F0FC09A8032100220592CDE906217D
:100B3000089032204FF4007133221C4BCDE9013272
:100B4000CDE9031003200023194A1AA100901D4883
:100B500001F0D8FC09A9002001F02AFE0AB070BDFE
:100B6000E07500084C697374000000003C0100202F
:100B7000B00100204D656D20466F7220546573747E
:100B8000000000009001002048070020A90700088D
:100B90004170705F5461736B5F436865636B5F4462
:100BA0006576696365000000B8030020480F0020E7
:100BB00075090008417070205461736B2050656E98
:100BC000640000008004002070B586B006460D4623
:100BD0000024287B8DF80400287D8DF80600002075
:100BE0008DF8050000BF18E0E869E04000F0020061
:100BF000022801D1102100E000210DF1070001556C
:100C0000E869E04000F0010008B1102100E0002197
:100C10000DF10D000155601CC4B2042CE4DB04246A
:100C200018E0A869E04000F00200022801D110217C
:100C300000E000210DF107000155A869E04000F037
:100C4000010008B1102100E000210DF10D00015557
:100C5000601CC4B2062CE4DB00240DE0286AE040EE
:100C600000F00200022801D1102100E000210DF166
:100C700013000155601CC4B2042CEFDB132201A940
:100C80003046FFF78BFA06B070BD00B585B06846F8
:100C900005F03AFC019805B000BD000010B500F069
:100CA00095FA00F0C7FA05F0B1FE00F07DFB0149AE
:100CB000086010BD2000002000BFFEE710B500F066
:100CC000FBF800F003F800F0F3F810BD70B5002653
:100CD00000201849088018490880184908601849F8
:100CE000086018490860184908601849086000241D
:100CF00000BFFFF73DFA064600BF00250BE00020CD
:100D00001049086000F074F800F08CF80D48006895
:100D10000444681C85B2002DF1D00C48046000200A
:100D2000084908600849086000BF3046FFF724FA08
:100D300000BF70BD280000202A0000202C000020E9
:100D400030000020380000203C000020340000204B
:100D500001460846044A1268904203D9024A1268C2
:100D6000801A00E0002070473400002070B5002594
:100D700000BFFFF7FDF9054600BF0648046800BF45
:100D80002846FFF7F9F900BF2046FFF7E1FF0646C6
:100D9000304670BD3800002070B50025FFF7E6FF33
:100DA000044600BFFFF7E4F9054600BF00200449F0
:100DB000086000BF2846FFF7DFF900BF204670BD7E
:100DC0003800002070B5002500BFFFF7D1F90546B7
:100DD00000BF0648046800BF2846FFF7CDF900BFF2
:100DE0002046FFF7B5FF0646304670BD3C000020A8
:100DF00010B509480088401C07490880074800884A
:100E000018B900F083F80649086004480088401CBF
:100E10000249088010BD0000280000202A000020A0
:100E20002C00002010B50F480088401E0D49088096
:100E300008460088A0B900F069F80B490860084628
:100E400000680A490968441A09480068A04201D2AA
:100E50000748046007480068A04201D205480460C2
:100E600010BD00002A000020300000202C000020CF
:100E7000380000203C00002010B5002400BF00BF57
:100E8000FFF776F9044600BFFFF7B2FF00BF10215D
:100E9000064800F0E7F900BFFFF7C4FF00BF204697
:100EA000FFF76AF900BF00BF10BD0000481700201F
:100EB00010B5FFF7E1FF10BD10B500200249086032
:100EC00000F00AF810BD000024000020014908606D
:100ED000704700002400002010B50A48006840F068
:100EE000807008490860002007494860084600688B
:100EF00040F001000860FFF7C8FE04462046FFF7F7
:100F0000E5FF10BDFCED00E0001000E00148406886
:100F100070470000001000E010B5029C10BD704743
:100F200010B5029C10BD704770B506460F480068AA
:100F300044690E48056815E02078B04210D1607809
:100F4000032809DD60696861204606F08BFA6C6948
:100F50003046FFF7E4FF02E06078401C607003E079
:100F600025466469002CE7D100BF70BD2000002039
:100F7000024607480068416905E00878904201D1BF
:100F80000120704749690029F7D10020F9E70000E6
:100F9000200000202DE9F041024600250026002017
:100FA00000230024002791F803C00CF00F0591F8EE
:100FB00003C00CF0100CBCF1000F03D091F802C07C
:100FC0004CEA050591F800C0BCF1000F31D014685F
:100FD00000202BE04FF0010C0CFA00F3B1F800C038
:100FE0000CEA03069E4220D183004FF00F0C0CFA4E
:100FF00003F7BC4305FA03FC4CEA040491F803C070
:10100000BCF1280F06D14FF0010C0CFA00FCC2F81D
:1010100014C00AE091F803C0BCF1480F05D14FF0AD
:10102000010C0CFA00FCC2F810C0401C0828D1D3F7
:101030001460B1F800C0BCF1FF0F34DD546800202B
:101040002EE000F1080C4FF0010808FA0CF3B1F89B
:1010500000C00CEA03069E4221D183004FF00F0C22
:101060000CFA03F7BC4305FA03FC4CEA040491F8BC
:1010700003C0BCF1280F05D100F1080C08FA0CF8E8
:10108000C2F8148091F803C0BCF1480F07D100F1F9
:10109000080C4FF0010808FA0CF8C2F81080401C48
:1010A0000828CED35460BDE8F08102460020D36802
:1010B0000B400BB1012000E00020704741617047F8
:1010C0000161704700BFFEE72DE9E0438AB0814629
:1010D00000250026002008900990069007900590B2
:1010E0002648006847692548D0F800804946684688
:1010F000FFF76AFD132269462046FFF74FF80BE021
:1011000098F800002178884204DD387821788842F8
:1011100000DA03E0B8467F69002FF1D100BFD8F8AC
:1011200014006061C8F8144000250DE0E01C405D2B
:1011300040B108A8855504F10900405D06A988550D
:10114000701CC6B2681CC5B2062DEFDB002506E098
:1011500004F10F00405D05A94855681CC5B2A07890
:10116000A842F5DCA07805AB324606A9009008A895
:10117000FFF7D2FE0AB0BDE8E083000020000020A7
:1011800008B50121042005F0AFF90120ADF80000F9
:1011900028208DF8030069460148FFF7FBFE08BDD3
:1011A0000008014008B50121102005F09DF94FF419
:1011B0000050ADF8000028208DF803006946024871
:1011C000FFF7E8FE08BD00000010014010B5FFF772
:1011D000D7FFFFF7E7FF10BD08B50121082005F094
:1011E00083F90120ADF8000010208DF803000320E2
:1011F0008DF8020069460D48FFF7CCFE01218020E2
:1012000005F072F98020ADF8000069460848FFF744
:10121000C1FE0121802005F067F94FF48070ADF820
:10122000000069460248FFF7B5FE08BD000C01400A
:10123000001C014010B5FFF7CFFF01210648FFF762
:101240003FFF80210548FFF73BFF4FF480710348C3
:10125000FFF736FF10BD0000000C0140001C0140EC
:1012600000BFFEE730B505460C4622460021284661
:1012700000F026F830BD00000D480E49016001461F
:10128000416000218160C160016141618161C16192
:1012900001620163C162416207498163C1634FF426
:1012A000D841016441640146044A1160704700005E
:1012B0005817002048454150A0170020400000204A
:1012C0002DE9F04103460C4617460FB9BDE8F08101
:1012D00003B9FBE70025002202E02D022543521C42
:1012E000042AFAD3384603F0030C1946BCF1000F68
:1012F00008D0624603E001F8014B401E521C08B1C1
:10130000042AF8D30E4601E020C6001F0428FBD2B1
:10131000314602E001F8014B401E0028FAD100BF1F
:10132000D4E7704770B5002100230F22C47804B3BE
:10133000154C246804F4E064C4F5E064210AC1F1AA
:101340000403CA40447804FA03F18478144021432A
:1013500009010E4C0678A155047804F01F050124FC
:10136000AC4005786D11AD0005F1E025C5F80041F0
:1013700009E0047804F01F050124AC40044D067810
:10138000761145F8264070BD0CED00E000E400E069
:1013900080E100E002490143024A11607047000009
:1013A0000000FA050CED00E010B5182006F0B2F8C8
:1013B000144908600846006820B913A005F0D6FB60
:1013C000002010BD00200F49096808700D49096808
:1013D00048700C49096888700A480068002140F884
:1013E000031F81800748006840F8091F8180054875
:1013F0000068C0F80F1000200249096848610148E0
:101400000068DEE72000002066616C736531000033
:101410007047000010B50348006810B1014800682B
:10142000804710BD5400002070B5044600F0C2F89B
:1014300000204849087048490870484908704849E0
:101440000860484908604849087048490870484998
:101450000870484908604849086048490860484998
:101460000870484800680A21B0FBF1F0464908605E
:101470004648006858B14648056845B14348066883
:1014800003E0761E002028602D1D002EF9D10020DB
:101490004049086040490860404908604049086088
:1014A0004049086040490860404908604049087068
:1014B00002F0CAFF03F0C8F8204602F09DF8208829
:1014C00000B170BD204602F0CBFC208800B1F8E7E7
:1014D000204602F0D1FC208800B1F2E7204602F05D
:1014E00001FE208800B1ECE7204602F0DDFF2088F5
:1014F00000B1E6E7204603F02DFA208800B1E0E7CE
:10150000204603F097FD208800B1DAE7204602F07C
:10151000FFFB208800B1D4E7204602F009FA2088BA
:1015200000B1CEE7204604F0EDFD208800B1C8E709
:10153000204603F0C3FC208800B1C2E7204604F037
:101540003DFE208800B1BCE701F07CFFFFF760FFA3
:1015500000BFB6E76800002070000020B80000203F
:1015600010010020140100209E0000209F00002098
:10157000A0000020AC000020B0000020B40000203B
:10158000C0000020E0750008BC000020B075000815
:10159000AC750008480000204C00002050000020DE
:1015A00054000020580000205C0000206000002053
:1015B000EE0000200A4A1168002002E0002204C167
:1015C000401C084A12689042F8D3054A1268054B3D
:1015D0001B6802EB8302121F034B1A607047000066
:1015E000AC750008B07500081801002008480078A4
:1015F000012800D0704707480078FA2800DBF9E797
:1016000004480078401C0349087000BFF2E700005E
:10161000700000206800002010B500242E480078DB
:10162000012800D010BD00BFFEF7A2FD044600BF98
:101630002A48007828B900BF2046FEF79DFD00BF6C
:10164000F0E726480078401E2449087008460078D4
:10165000002805DD00BF2046FEF78EFD00BFE1E754
:101660001F480078002805DD00BF2046FEF784FDF6
:1016700000BFD7E702F0D4FE1A4908700846007888
:1016800000EB4000184951F820001849086008464E
:10169000006817490968884205D100BF2046FEF757
:1016A0006BFD00BFBEE711480068D0F89000401CF9
:1016B0000E490968C1F890000E480068401C0D49A9
:1016C00008604FF080500C49086000BF2046FEF7CC
:1016D00053FD00BF00BFA5E7700000206800002098
:1016E000B80000209F000020CC99002014010020A9
:1016F00010010020E400002004ED00E02DE9FF4F80
:1017000083B0044615461F46DDE910960020009080
:101710004C480078002805DD45F2B960308007B0FC
:10172000BDE8F08F1DB945F2BB603080F7E7022FAE
:1017300003DA45F2BC603080F1E7B9F1040F03D25F
:1017400045F2C1603080EAE74FF0030ABAF1000FBA
:101750000DD005EA0A0018B145F2BB603080DEE723
:1017600009EA0A0018B145F2C1603080D7E7AB46FC
:10177000A846781E80B201900020029007E0C8447D
:10178000CBF80080C3460298401C80B20290DDE98D
:1017900001108842F3DB0020CBF8000000BF00BF3F
:1017A00000BFFEF7E5FC009000BFFFF721FB00BF84
:1017B00025480078401C2449087008460078012814
:1017C00001D103F025F800BFFFF72CFB00BF009804
:1017D000FEF7D2FC00BF00BF00BF1C482060049889
:1017E000A0606560E560A7826782A4F8109020463B
:1017F00002F022FB16480088401C1549088000BFF3
:1018000000BF00BFFEF7B4FC009000BFFFF7F0FA86
:1018100000BF0D480078401E0B490870084600784C
:1018200008B903F003F800BFFFF7FCFA00BF009807
:10183000FEF7A2FC00BF00BF00BF0020308000BF49
:101840006DE7000068000020B80000204D454D20E5
:10185000940000202DE9F04104460D4600272CB9E4
:1018600045F2BF6028800020BDE8F08100BF00BFC6
:10187000FEF77EFC074600BFFFF7BAFA00BFA08A5A
:1018800068B900BFFFF7CEFA00BF3846FEF774FC18
:1018900000BF00BF45F2C26028800020E4E7E66890
:1018A0003068E060A08A401EA08200BFFFF7BAFA4D
:1018B00000BF3846FEF760FC00BF00BF0020288054
:1018C0003046D1E72DE9F04104460E461546002783
:1018D00024B945F2BF602880BDE8F0811EB945F209
:1018E000BE602880F8E700BF00BFFEF741FC074656
:1018F00000BFFFF77DFA00BFA08A618A88420CDB37
:1019000000BFFFF78FFA00BF3846FEF735FC00BF77
:1019100000BF45F2BA602880DEE7E0683060E6602C
:10192000A08A401CA08200BFFFF77CFA00BF3846A7
:10193000FEF722FC00BF00BF0020288000BFCBE7DD
:101940002DE9F04104460E4615460027324800783E
:10195000002804DD42F6E1602880BDE8F0811CB972
:1019600045F6C3502880F8E700BF00BF00BFFEF770
:10197000FFFB074600BFFFF73BFA00BF2748007890
:10198000401C2649087008460078012801D102F061
:101990003FFF00BFFFF746FA00BF3846FEF7ECFBFB
:1019A00000BF00BF00BF1E482060666000202062AC
:1019B00084F82500A062202084F8240004F10800A7
:1019C00002F047FC204602F075FB16480088401CD8
:1019D0001449088000BF00BF00BFFEF7C9FB0746DF
:1019E00000BFFFF705FA00BF0C480078401E0B4906
:1019F00008700846007808B902F018FF00BFFFF72A
:101A000011FA00BF3846FEF7B7FB00BF00BF00BFAA
:101A10000020288000BFA0E768000020B800002058
:101A20004D5554589C0000202DE9F04788B00546DC
:101A3000894690461C46109E4FF0000ABF48007829
:101A4000002805DD46F2AE10308008B0BDE8F08712
:101A50001DB945F6C3503080F7E7B8F1000F03D049
:101A6000B8F5004F02D100E000BF03E045F6256065
:101A70003080EAE700BFB2492868884203D045F6C3
:101A8000C4503080E1E70CB10020206000BF00BFEF
:101A9000FEF76EFB824600BFFFF7AAF900BF95F87C
:101AA0002500D0B9A74800682862A648006890F8C9
:101AB000370085F82400012085F825000CB1A86ABC
:101AC000206000BFFFF7AEF900BF5046FEF754FBA1
:101AD00000BF00BF00203080B7E79A49286A096834
:101AE000884214D195F82500401C85F825000CB1DA
:101AF000A86A206000BFFFF795F900BF5046FEF7C7
:101B00003BFB00BF00BF45F2827030809DE708F4C8
:101B1000004060B100BFFFF785F900BF5046FEF7F7
:101B20002BFB00BF00BF46F2B01030808DE7864827
:101B3000007800280CDD00BFFFF774F900BF5046A5
:101B4000FEF71AFB00BF00BF46F6635030807CE70B
:101B500000BF7D480078401C7B490870084600782B
:101B6000012801D102F054FE00BFFFF75BF900BF6E
:101B70005046FEF701FB00BF00BF00BF2F6A97F879
:101B800037007049096891F8371088426ADD97F884
:101B9000360008282AD2DFE800F004151E1F1716A9
:101BA0002021384602F0D8FD6648006890F83700DA
:101BB00087F8370097F8370002F052FC384602F0F9
:101BC0006BFD4EE000BF00BF5E48006890F8370034
:101BD00087F8370045E000BF00BF00BF59480068E4
:101BE00090F83710384602F011FB3AE000BF00BF12
:101BF00000BFFEF7BDFA824600BFFFF7F9F800BF4D
:101C000051480078401E5049087008460078D0B905
:101C100002F00CFE4D48008800280BDD00BFFFF7E6
:101C200001F900BF5046FEF7A7FA00BF00BF02F05F
:101C3000C1FD11E000BFFFF7F5F800BF5046FEF709
:101C40009BFA00BF08E000BFFFF7ECF800BF50466A
:101C5000FEF792FA00BF00BF00BF46F62D6030804D
:101C6000F3E600BF4B4604222946684602F046FAD6
:101C700000BF00BF00BFFEF77BFA824600BFFFF740
:101C8000B7F800BF30480078401E2F49087008465A
:101C9000007808B902F0CAFD00BFFFF7C3F800BF23
:101CA0005046FEF769FA00BF00BF00BF00F0A0F980
:101CB00000BF00BFFEF75CFA824600BFFFF798F84E
:101CC00000BF2048006890F8350030B101280CD0E2
:101CD00002281AD0032821D110E01CB1194800684D
:101CE000006C2060002030801CE01CB115480068AA
:101CF000006C206046F2A910308013E00CB1002087
:101D0000206047F2D92030800CE01CB10D480068FB
:101D1000006C206045F6C250308003E046F62E602D
:101D2000308000BF00BF00BFFFF77CF800BF504607
:101D3000FEF722FA00BF00BF00BF86E66800002061
:101D40004D55545810010020B80000207C000020A0
:101D50002DE9F84F0446884615464FF0000A9E4884
:101D60000078002804DD46F20E202880BDE8F88FB8
:101D70001CB945F6C3502880F8E7B8F1000F03D02E
:101D8000B8F5004F02D100E000BF03E045F6256042
:101D90002880EBE700BF91492068884203D045F6D0
:101DA000C4502880E2E700BF00BFFEF7E1F9824699
:101DB00000BFFFF71DF800BF8949206A0968884203
:101DC0000CD000BFFFF72EF800BF5046FEF7D4F945
:101DD00000BF00BF45F281702880C7E700BF81487F
:101DE0000078401C7F49087008460078012801D11E
:101DF00002F00EFD00BFFFF715F800BF5046FEF7DA
:101E0000BBF900BF00BF00BFFFF780F80746A7621D
:101E100094F82500401E84F8250094F82500002839
:101E20003ADD00BF00BF00BFFEF7A2F9824600BF47
:101E3000FEF7DEFF00BF6B480078401E694908705E
:101E400008460078D0B902F0F1FC67480088002805
:101E50000BDD00BFFEF7E6FF00BF5046FEF78CF932
:101E600000BF00BF02F0A6FC11E000BFFEF7DAFFE2
:101E700000BF5046FEF780F900BF08E000BFFEF744
:101E8000D1FF00BF5046FEF777F900BF00BF00BF8B
:101E900045F28370288069E704F10809B9F8080061
:101EA00080BB0020206284F8250000BF00BF00BF77
:101EB000FEF75EF9824600BFFEF79AFF00BF494871
:101EC0000078401E4749087008460078D8B902F0EB
:101ED000ADFC4548008800280BDD00BFFEF7A2FFDF
:101EE00000BF5046FEF748F900BF00BF02F062FC99
:101EF00012E000BFFEF796FF00BF5046FEF73CF928
:101F000000BF09E00CE000BFFEF78CFF00BF5046A9
:101F1000FEF732F900BF00BF00BF0020288025E790
:101F20002F48006890F8370094F82410884219D0A0
:101F30002B48006802F010FC94F824002849096836
:101F400081F837002649096891F8370002F088FACD
:101F50002348006802F0C0FB2148006890F8370071
:101F600022490870D9F800008668266296F8370082
:101F700084F82400012084F8250000231A46314605
:101F80002046009702F0D6F900BF00BF00BFFEF761
:101F9000EFF8824600BFFEF72BFF00BF1148007824
:101FA000401E104908700846007808B902F03EFC4F
:101FB00000BFFEF737FF00BF5046FEF7DDF800BF59
:101FC00000BF00BF08F4004008B900F011F800207D
:101FD000288000BFCAE60000680000204D55545814
:101FE00010010020B80000207C0000209E0000208E
:101FF00010B5002420480078002800DD10BD1F48DF
:102000000078002800DDF9E700BFFEF7B1F80446CC
:1020100000BF02F005FA1A4908700846007800EB84
:102020004000184951F82000174908600846006828
:1020300016490968884205D100BF2046FEF79CF882
:1020400000BFDBE710480068D0F89000401C0E4944
:102050000968C1F890000E480068401C0C490860EF
:102060004FF080500B49086000BF2046FEF784F80F
:1020700000BF00BFC2E7000068000020B8000020D9
:102080009F000020CC9900201401002010010020A6
:10209000E400002004ED00E070B5044600251A4875
:1020A0000078002803DD46F66250208070BD174896
:1020B0000078012803D045F689602080F6E71448AF
:1020C0000078FA2803DB45F209202080EEE700BF04
:1020D00000BFFEF74DF8054600BFFEF789FE00BFC2
:1020E0000B480078401C0A49087002F091FB00BFC1
:1020F000FEF798FE00BF2846FEF73EF800BF00BF7F
:102100000020208000BFD1E7680000207000002080
:10211000B80000202DE9F04105460C461646002780
:1021200000BF00BFFEF724F8074600BFFEF760FEC1
:1021300000BF012D03D000200E49087002E00120ED
:102140000C49087014B10C48046006E00B480068A4
:102150000A21B0FBF1F00849086000BFFEF762FEFB
:1021600000BF3846FEF708F800BF00BF00203080EF
:10217000BDE8F081C0000020BC000020E075000830
:1021800070B50446002523480078002803DD46F694
:102190006550208070BD20480078012803D045F6A6
:1021A00089602080F6E71D48007818B946F664502B
:1021B0002080EFE700BF00BFFDF7DAFF054600BF54
:1021C000FEF716FE00BF15480078401E1349087040
:1021D0000846007800280CDD00BFFEF723FE00BF94
:1021E0002846FDF7C9FF00BF00BF46F663502080B8
:1021F000D0E702F01BFB00BFFEF714FE00BF28462D
:10220000FDF7BAFF00BF00BFFFF7F2FE00202080FD
:1022100000BFBFE76800002070000020B800002069
:1022200010B5044612480078E8B902F0F9F81149EF
:10223000087008460078104908700E48007800EBD6
:1022400040000E4951F820000D490860084600681A
:102250000C490860012006490870FEF763FA43F64E
:102260009920208002E045F68A60208010BD0000A1
:10227000700000209F0000209E000020CC990020CC
:1022800014010020100100202DE9F04107464FF015
:10229000000800BF00BFFDF76BFF804600BFFEF7E0
:1022A000A7FD00BF0020474908604749088047490B
:1022B000088047490860474908604749086047491E
:1022C0000860474908604749088100BFFEF7AAFD3A
:1022D00000BF4046FDF750FF00BF00BF00BF00BF7A
:1022E000FDF746FF804600BFFEF782FD00BF3E4877
:1022F000046800BFFEF796FD00BF4046FDF73CFFB7
:1023000000BF00BF26E000BF00BFFDF731FF8046E1
:1023100000BFFEF76DFD00BF00207834E06320644D
:1023200020602063A061A082E0826062A062FEF76C
:10233000EDFD2062783C04F164060020B081D4F801
:10234000C04000BFFEF76EFD00BF4046FDF714FF22
:1023500000BF00BF002CD6D100BF00BFFDF708FFB3
:10236000804600BFFEF744FD00BF2048056800BF5F
:10237000FEF758FD00BF4046FDF7FEFE00BF00BF60
:1023800016E000BF00BFFDF7F3FE804600BFFEF77A
:102390002FFD00BF05F120060020B081AD6900BF10
:1023A000FEF740FD00BF4046FDF7E6FE00BF00BF60
:1023B000002DE6D103F06EFD03F0FCFF0020388015
:1023C000BDE8F081840000207E000020CE000020C7
:1023D000E0000020F4000020000100206C0000203C
:1023E000B0000020C0990020E8000020A4000020D8
:1023F000F8B5044600266946364800F095FEBDF85B
:10240000000018B1BDF800002080F8BD6A46002128
:10241000022000F00BFFBDF8000018B1BDF800006D
:102420002080F2E700BF00BFFDF7A2FE064600BF16
:10243000FEF7DEFC00BF00202749086000BFFEF762
:10244000F1FC00BF3046FDF797FE00BF00BF00253E
:102450002248006822490968884205D91F48006857
:102460001F490968B0FBF1F525B91C4800680A212D
:10247000B0FBF1F56A460021284600F0D7FE694618
:10248000144800F007FCBDF8000018B1BDF80000CA
:102490002080BAE700BF00BFFDF76AFE064600BF16
:1024A000FEF7A6FC00BF00200E4908600A4800683D
:1024B0000D49086001200D49087000BFFEF7B2FC0D
:1024C00000BF3046FDF758FE00BF00BF002020804F
:1024D00000BF9AE7DC9C0020D0000020E0750008D7
:1024E000C8750008E0000020D4000020DC000020B7
:1024F00010B50348006810B101480068804710BD5E
:10250000580000202DE9FF4F87B004469046DDE9D2
:102510001BA5DDE91496179F0020039095480078CD
:10252000002805DD47F24A1028800BB0BDE8F08F87
:102530001CB947F2AD102880F7E7B8F1000F03D1BE
:1025400047F24F102880F0E71EB946F62F6028802A
:10255000EBE789480068874203D246F6306028805E
:10256000E3E71698B84203D346F631602880DCE7EB
:10257000B9F1200F03D346F273202880D5E7B9F1D3
:10258000000F06D17D48844203D046F27320288094
:10259000CBE7B9F11F0F06D17948844203D046F248
:1025A00073202880C1E7204602F054FD00202880D7
:1025B0000AF0010090B10AF0020078B105960020FF
:1025C000069008E00021059801600598001D05901F
:1025D0000698401C06900698B842F3D3169806EB6E
:1025E00080000490CDE9007A32464046049B0A9967
:1025F00000F03AFD0590C4F828800A98E062089837
:10260000206284F83790059820600498A06019989B
:102610006065199818B95B480068A06501E01998D1
:10262000A0651A9860606662A763A4F83CA04FF0AA
:10263000000B08E0002104F17C0040F82B100BF1A6
:10264000010000F0FF0BBBF1000FF3D004F16400B8
:10265000189901F0A5FC204600F09EF800BF00BFCD
:1026600000BFFDF785FD039000BFFEF7C1FB00BF73
:1026700045480078401C4449087008460078012805
:1026800001D102F0C5F800BFFEF7CCFB00BF0398F4
:10269000FDF772FD00BF00BF00BF94F8370001F0E6
:1026A000DFFE204602F018F8204602F089FC374889
:1026B0000088401C3549088035480078012837D00B
:1026C00000BF00BF00BFFDF753FD039000BFFEF742
:1026D0008FFB00BF2C480078401E2B49087008462D
:1026E0000078D0B902F0A2F82A48008800280BDD53
:1026F00000BFFEF797FB00BF0398FDF73DFD00BF4D
:1027000000BF02F057F811E000BFFEF78BFB00BFDF
:102710000398FDF731FD00BF08E000BFFEF782FB24
:1027200000BF0398FDF728FD00BF00BF00BFFCE617
:1027300000BF00BF00BFFDF71BFD039000BFFEF709
:1027400057FB00BF10480078401E0F49087008462C
:10275000007808B902F06AF800BFFEF763FB00BF1B
:102760000398FDF709FD00BF00BF00BFFFF740FC65
:1027700000BFDAE668000020DC750008F898002049
:1027800030980020BC000020B8000020EC000020A1
:10279000700000207C00002010B50446034800684B
:1027A00018B1204601490968884710BD480000203B
:1027B00070B504460D46002678480078002803DDF1
:1027C00047F24E10288070BD7548844203D147F20D
:1027D0004C102880F7E77348844203D147F24D102C
:1027E0002880F0E79CB900BF00BFFDF7C1FC06469A
:1027F00000BFFEF7FDFA00BF6B48046800BFFEF79C
:1028000011FB00BF3046FDF7B7FC00BF00BF00BFA3
:1028100000BF00BFFDF7ACFC064600BFFEF7E8FABC
:1028200000BF62480078401C604908700846007884
:10283000012801D101F0ECFF00BFFEF7F3FA00BF61
:102840003046FDF799FC00BF00BF00BF94F836008A
:1028500008282DD2DFE800F004090E10080A0F1135
:10286000204601F079FF5EE05DE000BF204603F006
:10287000F5FA58E000BF00BF00BF204603F0EEFAB3
:1028800094F83400082810D2DFE800F004070508A7
:10289000090A0B0600BF00BF08E000BF00BF00BF71
:1028A00000BF204601F00DFD00E000BF00BF3AE090
:1028B00000BF00BF00BFFDF75BFC064600BFFEF790
:1028C00097FA00BF39480078401E3849087008461A
:1028D0000078D0B901F0AAFF3548008800280BDD48
:1028E00000BFFEF79FFA00BF3046FDF745FC00BF72
:1028F00000BF01F05FFF11E000BFFEF793FA00BFD9
:102900003046FDF739FC00BF08E000BFFEF78AFA49
:1029100000BF3046FDF730FC00BF00BF00BF46F6E9
:102920002D6028804FE700BF04F1640001F0E2FA57
:10293000204600F041F8204602F05AFB1D4800886E
:10294000401E1C490880204602F084FBFF2084F8CA
:10295000360000BF00BF00BFFDF70AFC064600BFFF
:10296000FEF746FA00BF11480078401E0F49087074
:102970000846007808B901F059FF00BFFEF752FA87
:1029800000BF3046FDF7F8FB00BF00BF00BF0020CE
:102990002880FFF72DFB00BF15E70000680000202E
:1029A00030980020F898002010010020B800002086
:1029B0007C000020EC00002010B5044603480068AD
:1029C00018B1204601490968884710BD4C00002015
:1029D0002DE9F05F80460F4616461C460A9D4FF0D3
:1029E000000B8A480078002805DD46F2AE102880EA
:1029F0000020BDE8F09F26B946F2D52028800020AF
:102A0000F7E71FB1B7F5004F02D100E000BF04E0C7
:102A100045F6256028800020EBE700BF0CB10020C0
:102A2000206000BF00BFFDF7A3FB834600BFFEF799
:102A3000DFF900BF7648006800F164092B462246A2
:102A40003146484601F078FA8246288800BBA4B196
:102A5000FEF75CFA2168401A6D49096848676C48BE
:102A60000068806F6A490968496F884205D26848E2
:102A70000068406F66490968886700BFFEF7D2F9B1
:102A800000BF5846FDF778FB00BF00BF5046B0E7D7
:102A900007F4004068B146F2B010288000BFFEF78E
:102AA000C1F900BF5846FDF767FB00BF00BF00201B
:102AB0009FE75848007800280DDD00BFFEF7B2F907
:102AC00000BF5846FDF758FB00BF00BF46F66350F5
:102AD000288000208DE700BF4E480078401C4D49FB
:102AE000087008460078012801D101F091FE00BF6E
:102AF000FEF798F900BF5846FDF73EFB00BF00BF48
:102B000000BF434602220021084601F0F7FA00BF49
:102B100000BF00BFFDF72CFB834600BFFEF768F93E
:102B200000BF3C480078401E3A49087008460078CB
:102B300008B901F07BFE00BFFEF774F900BF5846EC
:102B4000FDF71AFB00BF00BF00BFFFF751FA00BF3F
:102B500000BFFDF70DFB834600BFFEF749F900BF3C
:102B60002B48006890F8350020B101282AD00328AE
:102B700032D132E026480068D0F85CA024480068D2
:102B8000B0F860003080D4B121480068006C20604B
:102B9000FEF7BCF91E490968096C401A1C4909680E
:102BA00048671B480068806F19490968496F884267
:102BB00005D217480068406F1549096888670020EA
:102BC000288017E04FF0000A0020308004B1206018
:102BD00046F2A91028800DE000BF4FF0000A002047
:102BE00030801CB10A480068006C206047F2D92090
:102BF000288000BF00BF00BFFEF714F900BF584691
:102C0000FDF7BAFA00BF00BF5046F2E668000020A8
:102C100010010020B80000202DE9FF470746884634
:102C200091461D460C9E4DB1102D08D0B5F5004FB4
:102C300006D0A5F50040103820B902E000BF00BF63
:102C400000BF04E045F625603080BDE8FF8700BF87
:102C5000FEF75CF904460D48007800280BDD0020E3
:102C60004B4642463946CDE90246CDE900050848C3
:102C700000F096FEE9E72B464A4641463846CDE944
:102C8000004602F04FFA00BFDFE7000068000020B6
:102C9000544D53477FB504460D46002600BF00BF84
:102CA000FDF766FA064600BFFEF7A2F800BF1CB1AA
:102CB0001748006884420CD100BFFEF7B3F800BF8C
:102CC0003046FDF759FA00BF00BF47F25710288081
:102CD0007FBD00BFFEF7A6F800BF3046FDF74CFAF7
:102CE00000BF00BF0B48007800280BDD00200090DB
:102CF0000190034602462146CDE90205064800F050
:102D00004FFEE5E72946204602F050FB00BFDFE713
:102D100010010020680000205452455310B50446AD
:102D20000348006818B1204601490968884710BD6A
:102D3000500000202DE9F04780460E4614461D46FF
:102D40004FF000098C480078002805DD46F2AE10EF
:102D500028800020BDE8F0871EB1B6F5004F02D1F3
:102D600000E000BF04E045F6256028800020F1E780
:102D700000BF0CB10020206000BF00BFFDF7F8F9D4
:102D8000814600BFFEF734F800BF7C480068406C05
:102D9000B8B37A480068406C401E784909684864B6
:102DA00076480068476C1CB174480068006C20606D
:102DB000FEF7ACF871490968096C401A6F49096857
:102DC000C1F8A4006D480068D0F8A8006B490968F4
:102DD000D1F8A410884207D268480068D0F8A4004F
:102DE00066490968C1F8A80000BFFEF71BF800BFDC
:102DF0004846FDF7C1F900BF00BF002028803846D3
:102E0000A8E7FFE706F4004068B100BFFEF70AF844
:102E100000BF4846FDF7B0F900BF00BF46F2B01052
:102E20002880002096E75648007800280DDD00BF76
:102E3000FDF7F8FF00BF4846FDF79EF900BF00BF51
:102E400046F663502880002084E700BF4C48007895
:102E5000401C4B49087008460078012801D101F058
:102E6000D7FC00BFFDF7DEFF00BF4846FDF784F941
:102E700000BF00BF00BF434607220021084601F003
:102E80003DF900BF00BF00BFFDF772F9814600BFEA
:102E9000FDF7AEFF00BF3A480078401E3849087081
:102EA0000846007808B901F0C1FC00BFFDF7BAFF81
:102EB00000BF4846FDF760F900BF00BF00BFFFF745
:102EC00097F800BF00BFFDF753F9814600BFFDF73B
:102ED0008FFF00BF2948006890F8350020B1012815
:102EE00026D0032834D12CE0FCB124480068006CC3
:102EF0002060FEF70BF821490968096C401A1F4948
:102F00000968C1F8A4001D480068D0F8A8001B4952
:102F10000968D1F8A410884207D218480068D0F890
:102F2000A40016490968C1F8A8000020288013E011
:102F30001CB112480068006C206046F2A91028807D
:102F40000AE00CB10020206047F2D920288003E07D
:102F500046F62E60288000BF00BF08480068476C16
:102F600000BFFDF75FFF00BF4846FDF705F900BF52
:102F700000BF3846EEE60000680000201001002087
:102F8000B80000202DE9F04705460E4617461C46BE
:102F90004FF0000A32480078002804DD47F259104B
:102FA0002080BDE8F0871EB946F2D5202080F8E7E2
:102FB0001FB946F2D5202080F3E700BF00BFFDF720
:102FC000D7F8824600BFFDF713FF00BF0DB92548B3
:102FD0000568286878B900BFFDF724FF00BF504698
:102FE000FDF7CAF800BF00BF00203060386047F22C
:102FF00052102080D5E795F83C0000F0010078B928
:1030000000BFFDF70FFF00BF5046FDF7B5F800BF4A
:1030100000BF00203060386047F254102080C0E7C5
:1030200000BFFDF7FFFE00BF5046FDF7A5F800BF4B
:1030300000BF4FF00008D5F8249003E009F104091F
:1030400008F10108D9F800000028F7D0C6F8008080
:10305000A86BA0EB080038600020208000BFA0E72C
:103060006800002010010020F0B50446DDE9055697
:1030700002EB85004FF0807C071F3846C7F800C080
:10308000071F38463C60DFF89CC0071F3846C7F86A
:1030900000C04FF0123C071F3846C7F800C04FF081
:1030A000033C071F3846C7F800C04FF0023C071F1B
:1030B0003846C7F800C0071F38463B60071F384630
:1030C00039604FF0113C071F3846C7F800C04FF079
:1030D000103C071F3846C7F800C04FF0093C071FD7
:1030E0003846C7F800C04FF0083C071F3846C7F8FD
:1030F00000C04FF0073C071F3846C7F800C04FF02C
:10310000063C071F3846C7F800C04FF0053C071FB4
:103110003846C7F800C04FF0043C071F3846C7F8D0
:1031200000C0F0BD295500087FB505460C46124881
:10313000854203D147F25B1020807FBD0F48854256
:1031400003D147F25C102080F7E70D480078002893
:103150000BDD002000900190034602462946CDE990
:103160000204084800F01CFCE7E72146284602F06C
:10317000BBFC00BFE1E7000030980020F898002079
:10318000680000205453555370B52448006810B1AE
:10319000224800688047FDF7B9FE044620480068D1
:1031A00020490968884215D01D480068D0F8980069
:1031B000201A1B490968C1F8940019480068D0F822
:1031C0009C0017490968D1F894100844144909680B
:1031D000C1F89C0013480068C0F89840FDF7DCFD7A
:1031E00005460F480068D0F8B400A84203D20C4846
:1031F0000068C0F8B4500A480068D0F8B8000A491E
:103200000968884205D20848006805490968C1F87C
:10321000B80000200449086070BD00005C00002078
:103220001001002014010020B40000202DE9F0411D
:1032300005460E46144600274D480078002804DD58
:1032400047F275202080BDE8F0814A4800780028C8
:1032500003DD46F663502080F5E736B1022E05D037
:10326000042E0AD0082E09D101E000BF00BF1DB90D
:1032700047F27E202080E6E704E003E045F6256083
:103280002080E0E700BF00BF00BF00BFFCF770FF79
:10329000074600BFFDF7ACFD00BF36480078401C74
:1032A0003449087008460078012801D101F0B0FACD
:1032B00000BFFDF7B7FD00BF3846FCF75DFF00BF5C
:1032C00000BF00BF01202C49096881F83600234661
:1032D000324629462848006802F0E2FC2088F0B116
:1032E00000BF00BF00BFFCF743FF074600BFFDF76C
:1032F0007FFD00BF1F480078401E1E490870084629
:10330000007808B901F092FA00BFFDF78BFD00BF0D
:103310003846FCF731FF00BF00BF00BF93E71648F7
:10332000006801F019FA00BF00BF00BFFCF720FFE2
:10333000074600BFFDF75CFD00BF0E480078401E49
:103340000C4908700846007808B901F06FFA00BF10
:10335000FDF768FD00BF3846FCF70EFF00BF00BF59
:1033600000BFFEF745FE0020208000BF6BE7000095
:1033700068000020B80000201001002010B586B0C1
:1033800000F01EF8FDF7C2FD044605A800210091DB
:10339000CDE9011403900748007800EB4000064A8D
:1033A00002EB800100231A46044800F0F9FA06B047
:1033B00010BD00009E000020CC9900205449434BD2
:1033C00010B50348006810B101480068804710BD7F
:1033D0006000002010B5002400BF00BFFCF7C8FE4D
:1033E000044600BFFDF704FD00BF09480078401CFB
:1033F0000749087000BFFDF715FD00BF2046FCF728
:10340000BBFE00BF00BFFFF7B9FFFEF705F910BD17
:103410006800002001464A1E4FF0E0235A61084A26
:10342000106820F07F4000BF10601A46126942F019
:1034300005021A611A46126942F002021A617047C7
:1034400020ED00E0254A2649264A274A2749284AEE
:103450002848294A294A2A4A2A4A2B482B482C48D4
:103460002C4A2D482D4A2E482E4A2F482F483048A6
:103470003048314A314A324A3248334A334A344872
:10348000344835483548364836483748374A384A48
:10349000384A394A39483A483A483B4A3B4A3C4A12
:1034A0003C483D483D483E493E483F4A3F4A404AE5
:1034B000404A414A414A424A4248434A434A4448B0
:1034C0004448454A454A4648464A474A4748484884
:1034D000484800BF00BF00BF7047000024760008C6
:1034E0008C770008257600082676000828760008E4
:1034F0002C760008307600082D76000858760008F3
:10350000597600085A7600085C7600085E76000856
:103510006076000862760008647600088476000809
:1035200086760008887600088A7600088C7600087F
:103530008E76000890760008BC760008BD760008FC
:10354000BE760008C0760008C2760008C376000880
:10355000C4760008C6760008C8760008CA76000857
:10356000CC760008CE760008D076000800770008F8
:103570000177000802770008037700080477000845
:1035800006770008087700083077000831770008D0
:103590003277000833770008347700083677000860
:1035A000387700083C7700083D7700083E77000830
:1035B0003F7700084077000841770008427700080D
:1035C00043770008447700084677000847770008EB
:1035D000487700084A7700084C7700084D770008C4
:1035E0005077000884770008857700088677000800
:1035F000887700088A7700080021034A1160034A8F
:103600001180018070470000880000208C0000209D
:103610002DE9F04F85B00446894692469B46DDF879
:1036200038800020009000BF00BFFCF7A1FD009093
:1036300000BFFDF7DDFB00BFBAF1000F0AD0BAF101
:10364000010F0DD0BAF5004F05D06FF40040504483
:1036500060B906E000BF206A40EA0900206216E077
:1036600000BF206A20EA0900206210E000BFFDF7D9
:10367000D9FB00BF0098FCF77FFD00BF00BF45F6F7
:103680002560A8F80000002005B0BDE8F08F00BF5D
:10369000C4F824B004F1080001900198008968B9C9
:1036A00000BFFDF7BFFB00BF0098FCF765FD00BF42
:1036B00000BF0020A8F80000206AE5E700BF7148BD
:1036C0000078401C6F49087008460078012801D135
:1036D00001F09EF800BFFDF7A5FB00BF0098FCF7C6
:1036E0004BFD00BF00BF00BF01980768BD6889E0BF
:1036F0007868029095F8880000F00F000390039816
:10370000012821D002282ED0042802D0082836D142
:103710000EE0206AD5F8801000EA0106D5F8800096
:10372000B04204D15A463146284600F0AFF863E073
:10373000206AD5F8801000EA010626B15A463146C3
:10374000284600F0A3F857E0D5F88000216A20EA67
:103750000106D5F88000B04204D15A4631462846C9
:1037600000F094F848E0D5F88000216A20EA0106CC
:1037700026B15A463146284600F088F83CE000BFA2
:1037800000BF00BFFCF7F4FC009000BFFDF730FB6A
:1037900000BF3C480078401E3A490870084600784F
:1037A000D0B901F043F83848008800280BDD00BF8D
:1037B000FDF738FB00BF0098FCF7DEFC00BF00BF40
:1037C00000F0F8FF11E000BFFDF72CFB00BF0098F0
:1037D000FCF7D2FC00BF08E000BFFDF723FB00BFF1
:1037E0000098FCF7C9FC00BF00BF00BF43F6FF20F4
:1037F000A8F80000002047E700BF029F0FB1BD6896
:1038000000E00025002D7FF473AF00BF00BF00BFB4
:10381000FCF7AEFC009000BFFDF7EAFA00BF1948C4
:103820000078401E174908700846007808B900F073
:10383000FDFF00BFFDF7F6FA00BF0098FCF79CFC07
:1038400000BF00BF00BF0AF4004008B9FEF7D0FB7C
:1038500000BF00BFFCF78CFC009000BFFDF7C8FA6A
:1038600000BF206A049000BFFDF7DCFA00BF00989B
:10387000FCF782FC00BF00BF0020A8F800000498FD
:1038800002E70000B80000207C00002070B504466C
:103890000E46154634342665002060702070E560C1
:1038A000A078343C082816D2DFE800F004050809A7
:1038B0000706101100BF00BF00BF0DE000BF20468B
:1038C00001F066FD002084F8360005E000BF04200A
:1038D00084F8360000E000BF00BF204600F0F1FC95
:1038E00070BD0000002400BF1DE000BF00BFFCF75A
:1038F0003FFC044600BFFDF77BFA00BF0A480068A2
:10390000401C0949086009480068401C07490860D4
:1039100000BFFDF787FA00BF2046FCF72DFC00BF73
:1039200000BFFDF777FDE0E764000020D000002035
:1039300010B58AB0044600200E4908600B20002113
:103940000591CDE90704069108460B4909680B4A21
:1039500012680B4B1B68CDE90132CDE903101F2023
:103960000023084A08A100900C48FEF7CBFD0AB0DE
:1039700010BD0000640000208875000884750008F0
:1039800080750008E538000875432F4F532D4949CD
:10399000492049646C65205461736B0030980020A5
:1039A0002DE9F84F04460D4616461F46DDE90BABE0
:1039B000DDF82890DDF834800020009000BF00BFC3
:1039C000FCF7D6FB009000BFFDF712FA00BF2C48B1
:1039D00000882C49098888423EDA29480088401C22
:1039E00027490880284800880988884203DA244843
:1039F000008825490880254800680460234800683D
:103A0000856022480068C6602048006807821F4819
:103A10000068C0F814901D480068A0F818A01B4862
:103A20000068C0F81CB01948006840681749086071
:103A3000012017490881174808604860002000F0FD
:103A40000FFD1548007818B1134800781349087025
:103A50000020A8F8000008E011480088401C104928
:103A6000088044F25360A8F8000000BFFDF7DAF9BF
:103A700000BF0098FCF780FB00BF00BFBDE8F88FD7
:103A80007C000020947500087E0000207400002057
:103A9000CC990020F89800209E000020A000002073
:103AA000800000203EB5594800680068584A811AD5
:103AB000904279D00FDC5749084400283ED056493F
:103AC0000844A8B155490844002860D05449084426
:103AD00000286AD13FE053480844002850D052499A
:103AE0000844002862D0514908440028F1D110E070
:103AF00002A8464D00902D68EB69444D2D682A8B35
:103B0000424D2D686969414D2D68A868FFF780FD19
:103B10007AE002A93D480068C0693C4DCDE900014A
:103B20002D682B8B394D2D682A8A384D2D68E96810
:103B3000364D2D68A86800F0C3FC65E0334B1B6868
:103B4000DA69324B1B68198B304B1B68986802ABE3
:103B500000F00CFF58E002A92C480068C0692B4D0A
:103B6000CDE900012D682B8B284D2D682A8A274D21
:103B70002D68E968254D2D68A86801F0D3FA43E067
:103B800022490968886802A901F010FC3CE01F4B3B
:103B90001B68DA691D4B1B68198B1C4B1B689868E6
:103BA00002AB01F0CDFC2FE007E02CE017490968DB
:103BB000886802A901F098FF26E01D49097801EB09
:103BC00041011C4A02EB810000F04EFE0F480068E4
:103BD00002AB0021C269184801F0B2FC1748006826
:103BE000401E164908600846006858B91448006825
:103BF0000860FDF78BF9044602AB2246002111480C
:103C000001F09EFC00E000BF00BF3EBD7800002038
:103C10005449434BADBAB2BE0DF90BFAF2F8F7FFB7
:103C20000006F6FF00F7FDF700FFEFFF03FE0FFEB3
:103C3000A0000020CC990020149C00200C01002042
:103C400008010020DC9C0020002700BF56E0002671
:103C500052E000BF00BFFCF78BFA074600BFFDF73C
:103C6000C7F800BF2648008898B900202549088178
:103C70000860486000F006FC00BFFDF7D3F800BF05
:103C80003846FCF779FA00BF00BFFEF7B1F901260C
:103C900032E000BFFDF7C6F800BF3846FCF76CFA0B
:103CA00000BF00BFFDF732F90546FFF7FBFEFDF749
:103CB0002DF9441B14480068A04201D21248046048
:103CC00000BF00BFFCF754FA074600BFFDF790F8AD
:103CD00000BF0E48006840680C490860084800882A
:103CE000401E0749088000BFFDF79CF800BF38461A
:103CF000FCF742FA00BF00BF002EAAD0A7E70000E1
:103D00007C000020CC990020840000207800002056
:103D1000F0B589B005460020314908803148006877
:103D200020B944F25260288009B0F0BD2E480088C6
:103D3000022803DA44F254602880F5E700202B497A
:103D40000860284804682646203600270CE02848EA
:103D500020600020A060E0602082606120836660B7
:103D600020342036781C87B21F4800888742EEDB5B
:103D7000203C1C48066866601E4806601E480660B7
:103D800000201E4908801E4908801E48006818B996
:103D900044F255602880C7E71B4800681B49096842
:103DA000884203D244F256602880BDE703200021F8
:103DB0000591CDE90705069113480068144A126879
:103DC000104B1B68CDE90301CDE9013200910B4690
:103DD000104A11A11748FEF795FB00BFA4E70000A9
:103DE0008000002090750008947500088400002071
:103DF0004E4F4E4574000020780000207C000020CB
:103E00007E0000209C750008A4750008DC75000881
:103E1000A0750008493C000875432F4F532D4949B0
:103E20004920495352205175657565205461736B63
:103E300000000000F898002000218161074909680E
:103E400011B90021C16105E004490968C161034954
:103E500009688861014908607047000090000020EF
:103E60000021034A1160034A11800180704700005D
:103E7000900000209400002070B501461A4D2D6876
:103E80001DB945F21E750D8070BD184D2D881DB9E8
:103E900045F21D750D80F7E7134D28682A6810322A
:103EA000124D2D886D1EACB2002308E00260002583
:103EB00045600581C560103010325D1CABB2A34275
:103EC000F4DB0025056045600581C560064D2D6861
:103ED000074E3560054D2D88B5800025F58035816C
:103EE0000D8000BFD0E70000C0750008B87500085D
:103EF000C099002010B5014648894B89002B17DD79
:103F00000A680C4B1B6813600A4C4B6823602346FD
:103F1000DB884C891B1B074CE38023469B884C891C
:103F20002344044CA38000234B818B810B604B60A6
:103F300010BD0000C0990020F0B504460D46608910
:103F400040B90020288002B1106046F292501880DB
:103F50000020F0BD61684E68088928800AB1C868F1
:103F6000106008686060606818B900202060608197
:103F700002E06089401E60810848006808600748C8
:103F800001608088401C054FB8803846C088401EBC
:103F9000F880002018803046DBE70000C099002040
:103FA00001810022428182810260426070470000EC
:103FB0002DE9F0410D46DDE90674B0F80AC0B0F80D
:103FC0000880C44505DB46F2935CA4F800C0BDE858
:103FD000F081DFF8DCC0BCF804C0BCF1000F04D1F4
:103FE00045F21D7CA4F800C0F1E7DFF8C4C0DCF89E
:103FF0000010DFF8BC80D1F800C0C8F800C0C4468B
:10400000BCF804C0ACF1010CA8F804C0C446BCF86C
:1040100006C00CF1010CA8F806C0C446BCF808C0E4
:10402000B8F80680C44507DADFF884C0BCF806C0DB
:10403000DFF87C80A8F808C0B0F80AC0BCF1000F17
:104040000AD1016041604FF0010CA0F80AC04FF0A6
:10405000000CC1F800C017E003F0100CBCF1000F19
:1040600007D10668316001604FF0000CC1F800C054
:1040700004E0D0F804C0C1F800C04160B0F80AC044
:104080000CF1010CA0F80AC0B0F80CC0B0F80A801E
:10409000C44503DAB0F80AC0A0F80CC04D600A812C
:1040A000CF604FF0000CA4F800C000BF8FE7000005
:1040B000C099002009A1C161002141610849096836
:1040C00011B90021816105E0054909688161044950
:1040D000096848610249086070470000200000003C
:1040E000980000200021034A1160034A11800180DA
:1040F00070470000980000209C0000202DE9F0414E
:1041000005460C4616461F461548006880F8346080
:1041100000201349096881F83500394610480068C5
:1041200000F032FF6CB104F10808EC60012229466E
:104130000B48006800F016F82946404600F08EF85B
:1041400006E0002006490968C88705490968086330
:1041500003480168204600F019F8BDE8F08100002E
:104160001001002010B5C287016300230AE000247B
:104170004C600C600C614C610C83CC618860203118
:104180005C1CA3B29342F2DB10BD000030B548B115
:104190004568C1F8C45000F10804226893681D6A9C
:1041A000C56113E091F83450022D02D0072D08D1DB
:1041B00003E007A5C1F8C45007E007A5C1F8C45043
:1041C00003E008A5C1F8C45000BF00BF30BD000027
:1041D0005461736B205100005461736B2053656D03
:1041E000000000002000000030B507A5C1F8C45051
:1041F00000F1080422681AB193681D6AC56101E0E4
:1042000001A5C56130BD0000200000002DE9F0438C
:1042100004460F4684F83770256BB4F83E8013E0EF
:10422000D5F80C9009F108063089012807D92946EC
:10423000304600F05EF82946304600F00FF8203591
:10424000A8F101001FFA80F8B8F1000FE8D1BDE82D
:10425000F08300210160416001817047F0B58E68F4
:1042600096F8375007893FB90127078100274F602B
:104270000F600160416023E007897F1C07810268AD
:1042800006E0946894F83770AF4200DD02E05268AF
:10429000002AF6D100BF32B900274F6043680B6097
:1042A000596041600CE017682FB9116000270F605A
:1042B0004A60016004E013680B604A605960116055
:1042C000F0BD2DE9F0410446256BE68F0AE0D5F8F4
:1042D0000C8008F108072946384600F00AF8203516
:1042E000701E86B2002EF2DC0020E0872063BDE85D
:1042F000F08110B50489012C03D1002404604460CE
:1043000011E00C6824B94A680024146002600AE0D5
:104310004C6824B90B6800245C60436003E00B68C0
:104320004A685A6013600489641E048100244C604A
:104330000C6010BD2DE9F84306460C46174698461A
:10434000089D94F83600082850D2DFE800F00405F4
:10435000080906072B2C00BF00BF00BF47E000BFC5
:1043600094F83400032807D143463A4621463046A4
:10437000009500F03FF803E0E765A4F8608025644D
:1043800036B12046FFF79DFF21463046FFF72CFF50
:10439000204600F0FDFF00203434A070607004F867
:1043A000340924E000BF94F83400032807D14346C1
:1043B0003A4621463046009500F01CF803E0E765D8
:1043C000A4F860802564204601F048FD36B12046FF
:1043D000FFF777FF21463046FFF706FF042034340D
:1043E000A0700020607004F8340900E000BF00BF36
:1043F000BDE8F883F0B50446059E086BCD8F0AE052
:10440000C768A74204D1046142610383C66104E026
:1044100020306F1EBDB2002DF2DC00BFF0BD0000E9
:1044200070B50025074C03E005F12000C5B2241D3E
:1044300020680028F8D02068FBF7A5FE2844C5B204
:10444000284670BD44000020002004E00021034AFB
:1044500042F82010401C0028F8D07047440000208B
:1044600030B5420900F01F030121C3F11F04A14030
:10447000034C54F822400C43014D45F8224030BD16
:104480004400002030B5420900F01F030121C3F1B0
:104490001F04A140034C54F822408C43014D45F8C1
:1044A000224030BD440000200021034A1160034A2D
:1044B0001180018070470000A4000020A8000020A7
:1044C0002DE9F04F85B007468A4693461C460020EA
:1044D000029000BF00BF00BFFBF74AFE029000BF82
:1044E000FCF786FC00BF56480078401C5449087011
:1044F00008460078012801D100F08AF900BFFCF7D6
:1045000091FC00BF0298FBF737FE00BF00BF00BF61
:1045100007F10806308900284CD104F0100010B9CA
:104520004FF0000801E04FF01008DDE90E014346AE
:104530005A46CDE90001514607F12000FFF738FD4A
:1045400000BF00BF00BFFBF713FE029000BFFCF7E7
:104550004FFC00BF3A480078401E394908700846B1
:104560000078D0B900F062F93648008800280BDDE9
:1045700000BFFCF757FC00BF0298FBF7FDFD00BF32
:1045800000BF00F017F911E000BFFCF74BFC00BFC3
:104590000298FBF7F1FD00BF08E000BFFCF742FC0A
:1045A00000BF0298FBF7E8FD00BF00BF00BF05B0E9
:1045B000BDE8F08F04F4007008B1358900E00125F2
:1045C000D6F8009011E0D9F808000390D9F804005B
:1045D00004900E985B465246009038460399FFF7C8
:1045E000A9FEDDF81090681E85B2002DEBD100BF4A
:1045F00000BF00BFFBF7BCFD029000BFFCF7F8FB5B
:1046000000BF0F480078401E0D490870084600782A
:1046100008B900F00BF900BFFCF704FC00BF0298DA
:10462000FBF7AAFD00BF00BF00BF04F4004008B9BB
:10463000FDF7DEFC00210F98018000BFB7E7000006
:10464000B80000207C00002000210AE001EB4102BC
:10465000054B03EB820000220281026042604A1C8B
:10466000D1B22029F2D37047CC99002010B504466E
:1046700094F83700FFF7F4FE94F8370005490978FD
:10468000884203D1204600F027F802E0204600F0DF
:1046900003F810BD9E00002010B590F8373003EBF2
:1046A00043030C4C04EB83010B893BB901230B81C1
:1046B0000023C36003610860486009E00B895B1C4C
:1046C0000B810B68C360002303610A6810610860F6
:1046D00010BD0000CC99002010B590F8373003EBE6
:1046E00043030B4C04EB83010B893BB901230B8182
:1046F0000023C36003610860486008E00B895B1C0D
:104700000B810023C3604A680261D060486010BD1D
:10471000CC99002010B501460C8924B1012C03D09E
:10472000022C0CD101E000BF14E008684A68026165
:104730000024C4601461D0600A6048600AE0086820
:104740004A68C36800241C61C4600261D0600B60C9
:10475000486000BF00BF10BD2DE9F041054695F847
:10476000370000EB4000124901EB80042F69EE682E
:1047700087B946B9002020812060606095F8370035
:10478000FFF780FE0EE02089401E2081002030616E
:10479000266007E02089401E2081FE600EB9676018
:1047A00000E0376100202861E860BDE8F08100008A
:1047B000CC99002010B5002400BFFBF7D9FC0446BB
:1047C00000BF00200D4908700D480E4908600846DA
:1047D0000068D0F89000401C0968C1F890000A48B1
:1047E0000068401C084908604FF080500749086085
:1047F00000BF2046FBF7C0FC00BF10BD9F0000209B
:10480000F898002014010020E400002004ED00E0EE
:1048100010B504480078012803D1FCF777FB024962
:10482000086010BDB8000020AC00002010B50A4898
:10483000007880B9FCF76AFB08490968441A0848FF
:104840000068A04201D20648046006480068A04201
:1048500001D20448046010BDB8000020AC00002064
:10486000B0000020B400002070B505460026354891
:104870000078012800D070BD00BF00BFFBF778FCB6
:10488000064600BFFCF7B4FA00BF2C684CB900BF65
:10489000FCF7C8FA00BF3046FBF76EFC00BF00BF54
:1048A000E9E72948844209D100BFFCF7BBFA00BF01
:1048B0003046FBF761FC00BF00BFDCE7A06D10B124
:1048C000A06D401EA065A06D48B100BFFCF7AAFA1C
:1048D00000BF3046FBF750FC00BF00BFCBE7288984
:1048E000022809DA00BFFCF79DFA00BF3046FBF74B
:1048F00043FC00BF00BFBEE714480078002809DD74
:1049000000BFFCF78FFA00BF3046FBF735FC00BF55
:1049100000BFB0E72846FFF7FDFE2C68606D18B9B0
:104920000B480068A06501E0606DA06500BFFCF762
:1049300079FA00BF3046FBF71FFC00BF00BF00BF85
:1049400099E70000C000002030980020B800002047
:10495000BC0000200021034A1160034A118001803D
:1049600070470000C4000020C80000202DE9FF5F50
:104970000446884691461D460020019000BF00BFB6
:10498000FBF7F6FB019000BFFCF732FA00BF04F121
:1049900008073889002857D10420012804D00228AC
:1049A00016D004283AD127E0206AFF280FD100BF93
:1049B000FCF738FA00BF0198FBF7DEFB00BF00BF31
:1049C00046F6C5502880002004B0BDE8F09F26E0E0
:1049D0004FF6FF71206A88420DD100BFFCF722FA22
:1049E00000BF0198FBF7C8FB00BF00BF46F6C550EB
:1049F00028800020E8E712E0206A401C68B900BF68
:104A0000FCF710FA00BF0198FBF7B6FB00BF00BF30
:104A100046F6C55028800020D6E700E000BF00BF62
:104A2000206A401C2062D4F820A0C4F8249000BF63
:104A3000FCF7F8F900BF0198FBF79EFB00BF00BF31
:104A4000002028805046BFE700BF2D480078401C5A
:104A50002B49087008460078012801D1FFF7D8FEDD
:104A600000BFFCF7DFF900BF0198FBF785FB00BF33
:104A700000BF00BF08F4007008B13E8900E00126C5
:104A8000D7F800B011E0DBF808000290DBF8040072
:104A9000039000231A46CDF8009020460299FFF7B4
:104AA00049FCDDF80CB0701E86B2002EEBD1D4F8B4
:104AB00020A000BF00BF00BFFBF75AFB019000BF62
:104AC000FCF796F900BF0E480078401E0C490870AC
:104AD0000846007808B9FFF7A9FE00BFFCF7A2F965
:104AE00000BF0198FBF748FB00BF00BF00BF08F400
:104AF000004008B9FDF77CFA00202880504663E7A3
:104B0000B800002086B00020009000BF06E0D94920
:104B10000968480001AA0021FEF788FBD648007802
:104B20000128F4D101A8FDF7AFFB0027D3480068A6
:104B3000D0490968884205D9D0480068CD4909683C
:104B4000B0FBF1F727B9CD4800680A21B0FBF1F7B7
:104B50008EE1FCF7DBF98246FCF734F9C8490860BE
:104B600000BF00BFFBF704FB009000BFFCF740F95B
:104B700000BFC4480068C44908600020C1490860FB
:104B800000BFFCF74FF900BF0098FBF7F5FA00BF34
:104B900000BFBE480068BC490968884248D9BB4884
:104BA0000068BB49884205D242F210700390012090
:104BB000029023E0B5480068B649884205D24FF418
:104BC0007A7003900A20029018E0B0480068B24959
:104BD000884203D26420039002900FE0AB48006843
:104BE000AE49884205D20A2003904FF47A700290B1
:104BF00004E00120039042F210700290A348016883
:104C00000298B1FBF0F9A049039809684843B0FB4A
:104C1000F9F042F21071081AA1490880A1480088F1
:104C20000988884208DA9E4800889E49088003E087
:104C300042F210709A490880FDF75AFC002500BF27
:104C400000BFFBF795FA009000BFFCF7D1F800BF5A
:104C50009548046800BFFCF7E5F800BF0098FBF733
:104C60008BFA00BF00BF72E000BF00BF00BFFBF7C0
:104C70007FFA009000BFFCF7BBF800BF8B480078BC
:104C8000401C8A49087008460078012801D1FFF7C6
:104C9000BFFD00BFFCF7C6F800BF0098FBF76CFA39
:104CA00000BF00BF00BF54F89C0F6060002044F8B4
:104CB0009C0900BF00BF00BFFBF75AFA009000BF7D
:104CC000FCF796F800BF79480078401E77490870D5
:104CD00008460078D0B9FFF7A9FD7548008800287C
:104CE0000BDD00BFFCF79EF800BF0098FBF744FA0D
:104CF00000BF00BFFFF75EFD11E000BFFCF792F8B8
:104D000000BF0098FBF738FA00BF08E000BFFCF7CF
:104D100089F800BF0098FBF72FFA00BF00BF00BF63
:104D2000D4F8A000054400BF00BFFBF721FA0090B3
:104D300000BFFCF75DF800BFD4F8C04000BFFCF72F
:104D400071F800BF0098FBF717FA00BF00BF002CF6
:104D50008AD145B34E48854205D242F21070059083
:104D60004FF0010B1BE04B48854205D24FF47A709F
:104D700005904FF00A0B12E04748854203D26420A9
:104D8000059083460BE04548854204D20A200590F1
:104D90004FF47A7B03E00120059042F2107BB5FBD3
:104DA000FBF0049003E0002005900120049000BF78
:104DB00000BFFBF7DDF9009000BFFCF719F800BF5A
:104DC0003948046800BFFCF72DF800BF0098FBF7D6
:104DD000D3F900BF00BF2FE0D4F8A00005994843E5
:104DE0000499B0FBF1F086B242F21070864200D90D
:104DF0000646A4F88C60B4F88E00B04201DAA4F83C
:104E00008E6001AB04F1AC02111D2046FEF7BAF82A
:104E100000BF00BFFBF7ACF9009000BFFBF7E8FF55
:104E200000BFD4F8C04000BFFBF7FCFF00BF0098F4
:104E3000FBF7A2F900BF00BF002CCDD11D480078C0
:104E4000012805D100201B49087001A8FDF71CFAB4
:104E5000FCF75CF8A0EB0A0817480068404502D24E
:104E60001548C0F8008001AA00213846FEF7DEF997
:104E70006FE60000C8750008DC000020E07500083F
:104E80006C000020D0000020D8000020D4000020BA
:104E9000801A060000093D00005A62020084D717FC
:104EA000CC000020CE000020E8000020B800002048
:104EB0007C000020CA000020E000002010B58AB06D
:104EC000044600201F4908601F4908601F49086008
:104ED0001F4908701F4908701F48006820B946F62E
:104EE0002B6020800AB010BD1C4800681C4909686E
:104EF000884203D246F62C602080F3E719480078F8
:104F00001F2803D346F62A602080EBE70320002108
:104F10000591CDE907040691084610490968124A2F
:104F200012680D4B1B68CDE90132CDE903100D4825
:104F3000007800230D4A0EA100901248FDF7E2FA16
:104F400000BFCFE7D0000020D8000020D400002010
:104F5000DC000020CA000020CC750008D4750008D1
:104F6000DC750008C4750008D0750008054B000802
:104F700075432F4F532D4949492053746174205470
:104F800061736B004C9B002038B504460D4685B11B
:104F90006B4602222946204600F082FEBDF8000042
:104FA00018B9032084F8360006E0022084F83600A1
:104FB00002E0022084F836002046FFF7CDFB38BD22
:104FC0000021C0F8BC100949096819B90021C0F8CE
:104FD000C01007E005490968C0F8C0100349096816
:104FE000C1F8BC000149086070470000E8000020DB
:104FF000D0F8BC20D0F8C0104AB90D4B196011B1DF
:105000000023C1F8BC300023C0F8C0300FE029B93C
:105010000023C2F8C030C0F8BC3008E0C2F8C010AD
:10502000C1F8BC200023C0F8C030C0F8BC307047C5
:10503000E80000200021044A1160044A1180044A5B
:105040001160018070470000E8000020EC000020A3
:10505000E400002070B5044600202060A06060607D
:10506000E06020616061A061E0612BA0206200200F
:105070006062A062E0622063E0872064E065A4F8DB
:105080006000002104F16400FEF78AFF002044F86C
:10509000740F6060E060A0822061743C002506E02F
:1050A000002104F17C0040F82510681CC5B2002DD9
:1050B000F6D000203434206120676067606084F897
:1050C0005600E067A06720814FF00040606100203B
:1050D000A061E06120626062A4F85800A4F85A0060
:1050E000E0652066FBF712FF064666660020A066B4
:1050F000C4F88000C4F8840020706070A070202084
:10510000E0700020C4F88800C4F88C0004A0C4F843
:105110009000343C70BD00003F5461736B00000090
:10512000200000002DE9FC4704460F4690469946B2
:10513000DDE90A654FF0000A00BF00BF00BFFBF7C2
:1051400017F8824600BFFBF753FE00BF8D4800787A
:10515000401C8C49087008460078012801D1FFF7EF
:1051600057FB00BFFBF75EFE00BF5046FBF704F89D
:1051700000BF00BF00BF0CB983480468002028802E
:1051800094F8360008287CD2DFE800F0040548498E
:1051900006074A4B00BF00BF00BF4B464246394698
:1051A00004F16400CDE90065FEF702FF00BF00BF17
:1051B00000BFFAF7DDFF824600BFFBF719FE00BF14
:1051C00070480078401E6F49087008460078D0B9D2
:1051D000FFF72CFB6D48008800280BDD00BFFBF7B4
:1051E00021FE00BF5046FAF7C7FF00BF00BFFFF720
:1051F000E1FA11E000BFFBF715FE00BF5046FAF7D9
:10520000BBFF00BF08E000BFFBF70CFE00BF50462D
:10521000FAF7B2FF00BF00BF00BFAFE000BF00BFA2
:1052200000BF94F8340002282CD143463A46214668
:1052300000200096FFF77EF800BF00BF00BFFAF71E
:1052400097FF824600BFFBF7D3FD00BF4D480078B3
:10525000401E4C4908700846007808B9FFF7E6FA86
:1052600000BFFBF7DFFD00BF5046FAF785FF00BF28
:1052700000BF00BF09F40040002843D1FCF7B8FE8E
:1052800040E040E04B464246394604F16400CDE937
:105290000065FEF78DFE00BF00BF00BFFAF768FF94
:1052A000824600BFFBF7A4FD00BF36480078401ED1
:1052B0003449087008460078D0B9FFF7B7FA334888
:1052C000008800280BDD00BFFBF7ACFD00BF504697
:1052D000FAF752FF00BF00BFFFF76CFA11E000BF02
:1052E000FBF7A0FD00BF5046FAF746FF00BF08E0FD
:1052F00000BFFBF797FD00BF5046FAF73DFF00BF28
:1053000000BF00BF3AE000BF00BF00BFFAF730FFA8
:10531000824600BFFBF76CFD00BF1A480078401EB4
:105320001849087008460078D0B9FFF77FFA174887
:10533000008800280BDD00BFFBF774FD00BF50465E
:10534000FAF71AFF00BF00BFFFF734FA11E000BF01
:10535000FBF768FD00BF5046FAF70EFF00BF08E0FC
:1053600000BFFBF75FFD00BF5046FAF705FF00BF27
:1053700000BF00BF46F62D60288000BF00BFBDE81B
:10538000FC870000B8000020100100207C000020F5
:1053900010B50446204600F061FD94F8360000F098
:1053A000040010B92046FFF761F910BD70B504463E
:1053B0000D46002600BF00BFFAF7DAFE064600BF22
:1053C000FBF716FD00BF0020288094F8360008285F
:1053D0007ED2DFE800F00405060714566A8000BF9D
:1053E00000BF00BF00BFFBF71DFD00BF3046FAF74E
:1053F000C3FE00BF00BF47F2531028808CE000BFFF
:1054000048480078401C4749087008460078012841
:1054100001D1FFF7FDF900BFFBF704FD00BF3046E7
:10542000FAF7AAFE00BF00BF00BF14F88A0F401EA3
:10543000207014F88A0928B9002084F83600204624
:10544000FFF7A6FF00BF00BF00BFFAF791FE0646B8
:1054500000BFFBF7CDFC00BF32480078401E314949
:1054600008700846007808B9FFF7E0F900BFFBF7BD
:10547000D9FC00BF3046FAF77FFE00BF00BF00BF77
:105480004AE014F88A0F401E207014F88A0910B9F7
:10549000012084F8360000BFFBF7C4FC00BF304693
:1054A000FAF76AFE00BF00BF36E014F88A0F401E0C
:1054B000207014F88A0910B9022084F8360000BF61
:1054C000FBF7B0FC00BF3046FAF756FE00BF00E025
:1054D00015E000BF20E014F88A0F401E207014F879
:1054E0008A0910B9032084F8360000BFFBF79AFC44
:1054F00000BF3046FAF740FE00BF00BF0CE000BF1F
:10550000FBF790FC00BF3046FAF736FE00BF00BF45
:1055100046F62D60288070BD00BFFCF769FD00BF16
:10552000F9E70000B800002008B504480068FDF75E
:10553000F5FB69460020FDF73BF908BD100100208E
:105540002DE9F8430446884617461D464FF00009EA
:1055500000BF00BF00BFFAF70BFE814600BFFBF79C
:1055600047FC00BFFB480078401CFA490870084619
:105570000078012801D1FFF74BF900BFFBF752FC7F
:1055800000BF4846FAF7F8FD00BF00BF00BF0CB9E6
:10559000F148046827640020288094F83600082821
:1055A0007AD2DFE800F00405FEFD0607FCFB00BF31
:1055B00000BF00BF0420012804D0022843D00428E3
:1055C0006BD184E0606CFF283CD100BF00BF00BFFE
:1055D000FAF7CEFD814600BFFBF70AFC00BFDD48AD
:1055E0000078401EDB49087008460078D0B9FFF704
:1055F0001DF9DA48008800280BDD00BFFBF712FC1C
:1056000000BF4846FAF7B8FD00BF00BFFFF7D2F869
:1056100011E000BFFBF706FC00BF4846FAF7ACFDFF
:1056200000BF08E000BFFBF7FDFB00BF4846FAF7EC
:10563000A3FD00BF00BF00BF46F6C5502880002074
:10564000BDE8F88385E04FF6FF71606C88423DD17C
:1056500000BF00BF00BFFAF78BFD814600BFFBF71C
:10566000C7FB00BFBB480078401EBA490870084617
:105670000078E0B9FFF7DAF8B848008800280DDDB7
:1056800000BFFBF7CFFB00BF4846FAF775FD00BF30
:1056900000BFFFF78FF813E0E2E159E000BFFBF72E
:1056A000C1FB00BF4846FAF767FD00BF08E000BF36
:1056B000FBF7B8FB00BF4846FAF75EFD00BF00BF2E
:1056C00000BF46F6C55028800020B9E741E0606C75
:1056D000401CD8BB00BF00BF00BFFAF749FD8146A0
:1056E00000BFFBF785FB00BF9A480078401E994930
:1056F000087008460078D0B9FFF798F897480088F6
:1057000000280BDD00BFFBF78DFB00BF4846FAF712
:1057100033FD00BF00BFFFF74DF811E000BFFBF7FE
:1057200081FB00BF4846FAF727FD00BF08E000BF35
:10573000FBF778FB00BF4846FAF71EFD00BF00BF2D
:1057400000BF46F6C5502880002079E7FFE700E05B
:1057500000BF00BF606C401C6064666C00BF00BF8F
:1057600000BFFAF705FD814600BFFBF741FB00BF14
:1057700078480078401E7749087008460078F8B9E4
:10578000FFF754F875480088002810DD00BFFBF7CC
:1057900049FB00BF4846FAF7EFFC03E01EE01CE0BF
:1057A0001AE018E000BF00BFFFF704F811E000BFE7
:1057B000FBF738FB00BF4846FAF7DEFC00BF08E005
:1057C00000BFFBF72FFB00BF4846FAF7D5FC00BF30
:1057D00000BF00BF80E100BF00BF00BF94F83400ED
:1057E00007282CD100231A46214618460097FEF7B9
:1057F000A1FD666C00BF00BF00BFFAF7B9FC81468F
:1058000000BFFBF7F5FA00BF52480078401E51492F
:1058100008700846007808B9FFF708F800BFFBF7E2
:1058200001FB00BF4846FAF7A7FC00BF00BF00BF5E
:1058300008F40040002801D1FCF7DAFB0FE1042056
:10584000012804D0022842D0042872D189E0606C7B
:10585000FF283BD100BF00BF00BFFAF789FC81469B
:1058600000BFFBF7C5FA00BF3A480078401E39492F
:10587000087008460078D0B9FEF7D8FF374800888E
:1058800000280BDD00BFFBF7CDFA00BF4846FAF752
:1058900073FC00BF00BFFEF78DFF11E000BFFBF7F8
:1058A000C1FA00BF4846FAF767FC00BF08E000BF36
:1058B000FBF7B8FA00BF4846FAF75EFC00BF00BF2E
:1058C00000BF46F6C55028800020B9E68BE04FF6B1
:1058D000FF71606C884243D100BF00BF00BFFAF780
:1058E00047FC814600BFFBF783FA00BF19480078E8
:1058F000401E1849087008460078D8B9FEF796FF90
:105900001648008800280BDD00BFFBF78BFA00BFAC
:105910004846FAF731FC00BF00BFFEF74BFF12E02C
:1059200000BFFBF77FFA00BF4846FAF725FC00BF2F
:1059300009E057E000BFFBF775FA00BF4846FAF7E9
:105940001BFC00BF00BF00BF46F6C55028800020EA
:1059500076E60000B8000020100100207C00002046
:1059600041E0606C401CD8BB00BF00BF00BFFAF72D
:10597000FFFB814600BFFBF73BFA00BF58480078A9
:10598000401E5749087008460078D0B9FEF74EFF10
:105990005448008800280BDD00BFFBF743FA00BF26
:1059A0004846FAF7E9FB00BF00BFFEF703FF11E02E
:1059B00000BFFBF737FA00BF4846FAF7DDFB00BF30
:1059C00008E000BFFBF72EFA00BF4846FAF7D4FB09
:1059D00000BF00BF00BF46F6C550288000202FE65C
:1059E000FFE700E000BF00BF606C401C6064666CB5
:1059F00000BF00BF00BFFAF7BBFB814600BFFBF74B
:105A0000F7F900BF36480078401E3549087008464F
:105A10000078D0B9FEF70AFF3248008800280BDD75
:105A200000BFFBF7FFF900BF4846FAF7A5FB00BF30
:105A300000BFFEF7BFFE11E000BFFBF7F3F900BFA8
:105A40004846FAF799FB00BF08E000BFFBF7EAF908
:105A500000BF4846FAF790FB00BF00BF00BF3BE025
:105A600000BF00BF00BFFAF783FB814600BFFBF712
:105A7000BFF900BF1A480078401E1949087008464F
:105A80000078D0B9FEF7D2FE1648008800280BDD5A
:105A900000BFFBF7C7F900BF4846FAF76DFB00BF30
:105AA00000BFFEF787FE11E000BFFBF7BBF900BFA8
:105AB0004846FAF761FB00BF08E000BFFBF7B2F908
:105AC00000BF4846FAF758FB00BF00BF00BF46F6CC
:105AD0002D602880002600BF00BF3046B0E50000E2
