:020000040800F2
:10000000E8EA002045010008EB1E0008051C000876
:10001000291E0008210E00080D7C000800000000C9
:10002000000000000000000000000000ED72000869
:100030006516000800000000AB090008013D00083B
:100040005F0100085F0100085F0100085F01000810
:100050005F0100085F0100085F0100085F01000800
:100060005F0100085F010008B11700085F01000888
:100070005F0100085F0100085F0100085F010008E0
:100080005F0100085F0100085F0100085F010008D0
:100090005F0100085F0100085F0100085F010008C0
:1000A0005F0100085F0100085F0100085F010008B0
:1000B0005F0100085F0100085F0100085F010008A0
:1000C0005F0100085F0100085F0100085F01000890
:1000D0005F0100088D7600085F0100085F010008DD
:1000E0005F0100085F0100085F0100085F01000870
:1000F0005F0100085F0100085F0100085F01000860
:100100005F0100085F0100085F0100085F0100084F
:100110005F0100085F0100085F0100085F0100083F
:100120005F0100085F0100085F0100085F0100082F
:10013000DFF80CD000F09AFB00480047518F000810
:10014000E8EA00200648804706480047FEE7FEE749
:10015000FEE7FEE7FEE7FEE7FEE7FEE7FEE7FEE777
:10016000457500083101000872B6704762B67047E5
:10017000EFF3108072B6704780F31088704730BF7D
:10018000704720BF7047B0FA80F0704790FAA0F037
:10019000B0FA80F0704790FAA0F07047A0F14101EA
:1001A000192900D82030704740EA01039B0703D08B
:1001B00009E008C9121F08C0042AFAD203E011F8A6
:1001C000013B00F8013B521EF9D27047D2B201E068
:1001D00000F8012B491EFBD270470022F6E710B54C
:1001E00013460A4604461946FFF7F0FF204610BDA5
:1001F000421E12F8013F002BFBD111F8013B02F81F
:10020000013B002BF9D17047CAB2401E10F8011F04
:100210008A4202D00029F9D100207047421C10F810
:10022000011B0029FBD1801A704710B5002200E0A5
:10023000521C835C8C5CA34201D1002BF8D1D8B254
:10024000E1B2401A10BD034611F8012B00F8012B52
:10025000002AF9D11846704730B5054600200346FC
:1002600000E05B1C934205D2EC5CC85C201A01D113
:10027000002CF6D130BD2DE9FE4F804681EA030007
:10028000C00F0C46009021F0004123F00045B8EB70
:100290000200A94105D24046214690461C460B4625
:1002A000024623F00040104347D0270DC7F30A0051
:1002B000C3F30A510290401A019040286BDAC3F34D
:1002C000130040F4801B0098924620B10023D2EB2B
:1002D000030A63EB0B0B01985946C0F140025046EC
:1002E00000F097F906460D4650465946019A00F02F
:1002F000AFF910EB08006141002487EA115284EA4B
:10030000E7731A4340D0009A62B3019A012A4FEA78
:10031000075215DC001B61EB02014FF0004202EABC
:100320000752CDE90042001C41F5801132462B46B0
:1003300000F0AFF903B0BDE8F08F40462146F9E781
:10034000001B61EB0201001C41F5801300185B41AA
:100350002018A2F5001747EB030140EAD570B61943
:100360006D4111E06D084FEA360645EAC0754FEA67
:100370000752001B61EB0201001C41F58011490886
:100380004FEA30000019514132462B4603B0BDE818
:10039000F04F00F06FB90098012240000023D0EB2D
:1003A000020263EBE073009821464FEAE074B8EB79
:1003B000000061EB0401E9E783F000435BE781F0B3
:1003C000004158E72DE9FE4F81EA030404F00044A0
:1003D00021F0004100944FF0000B23F0004350EA5D
:1003E00001045ED052EA03045BD0C3F30A54C1F3A4
:1003F0000A552C44A4F2F3340194A0FB0254C1F337
:10040000130141F48011C3F3130343F4801301FB80
:10041000024400FB034E840A970A44EA815447EAE7
:100420008357A4FB076802958D0A05FB07854FEAF1
:10043000932C04FB0C542705029D4FEA065847EA0B
:100440001637B5EB08056EEB070C870E920E47EAE0
:10045000811742EA8312A7FB0201B6EB0B0164EBA2
:1004600000042B0D43EA0C335E1844EB1C50DA46B3
:100470005146E7FB0201C5F313044FEA0B3343EA8D
:1004800014534FEA0432019C43EA0603A4F10C041E
:100490000294009CCDE900B400F0FBF803B0BDE885
:1004A000F08F00200146F9E70EB5C10F80EAE07039
:1004B0000844CA07002140F233438DE80E000A4683
:1004C0000B4600F0E6F803B000BD0EB540F2334134
:1004D00002910021CDE900110A460B4600F0D9F83F
:1004E00003B000BD70B5C1F30A5201F0004500240D
:1004F000C1F3130140F2FF3341F480119A4201DA53
:10050000002070BD40F233439A42A2F2334203DC32
:10051000524200F08DF800E090402C43F1D0404270
:1005200070BD000030B5041E71F1000404DB4FF013
:100530000044404264EB0101141E73F1000405DB2A
:100540001C464FF00043524263EB04038B4208BF4A
:10055000824230BD30B5041E71F1000404DB4FF05F
:100560000044404264EB0101141E73F1000405DBFA
:100570001C464FF00043524263EB0403994208BF0C
:10058000904230BD30B50B460146002020220124A8
:1005900009E021FA02F59D4205D303FA02F5491B51
:1005A00004FA02F52844151EA2F10102F1DC30BD67
:1005B0002DE9F05F0546002092469B468846064698
:1005C000814640241BE0284641464746224600F02B
:1005D0002FF853465A46C01A914110D31146184677
:1005E000224600F016F82D1A67EB01084F46224606
:1005F0000120002100F00DF817EB00094E41201EEC
:10060000A4F10104DFDC484631462A464346BDE8F2
:10061000F09F202A04DB203A00FA02F10020704704
:100620009140C2F1200320FA03F319439040704730
:10063000202A04DB203A21FA02F00021704721FA37
:1006400002F3D040C2F1200291400843194670479E
:10065000202A06DBCB17203A41FA02F043EAE07386
:1006600006E041FA02F3D040C2F120029140084373
:100670001946704710B5141E73F1000408DA401CC7
:1006800041F1000192185B411A4301D120F00100B1
:1006900010BD2DE9F04D92469B4611B1B1FA81F2A1
:1006A00002E0B0FA80F220329046FFF7B2FF044633
:1006B0000F4640EA0A0041EA0B0153465A460843F6
:1006C00013D0114653EA010019D0C8F14002504638
:1006D000FFF7AEFF05460E46504659464246FFF725
:1006E00098FF084305D0012004E020463946BDE8C4
:1006F000F08D0020054346EAE0762C4337430A9804
:100700006305E40AA0EB08000022FD0A44EA47540E
:100710000A3002D500200146E9E7010510196941B8
:10072000DDE9084500196941BDE8F04DA2E72DE972
:10073000F04D81EA030404F0004B21F0004514461B
:100740004FF0000A23F0004150EA050220D054EA9D
:1007500001021DD0C5F30A570246C5F31303C1F3C6
:100760001300C1F30A5640F4801543F48013A7EB3D
:100770000608101BD64608F2FD3873EB050002D3BD
:1007800008F1010801E092185B41B8F1000F03DAAB
:1007900000200146BDE8F08D00204FF48011064690
:1007A00084460EE0171B73EB050705D3121B63EBA2
:1007B000050306434CEA010C49084FEA3000921841
:1007C0005B4150EA0107EDD152EA030012D082EA00
:1007D000040083EA0501084305D0101BAB4106D293
:1007E0000122002306E000224FF0004302E06FF0F8
:1007F000010253101AEB06004CEB085110EB0A00F3
:1008000041EB0B01BDE8F04DFFF734BF70B521F0AF
:10081000004303430CD0C1F30A550024D5EB040573
:1008200064EB0403D617AD1AB34102DB0020014686
:1008300070BD201841EB025170BDC1F30A52C1F3E3
:10084000130140F2FF3341F480119A4202DA002092
:100850000146704740F233439A42A2F2334202DC2F
:100860005242FFF7E5BEFFF7D4BE0000064C074D2D
:1008700006E0E06840F0010394E807009847103470
:10088000AC42F6D3FFF758FC38AC000858AC00086F
:100890002DE9F04D00231A461B1A8A4103DB002084
:1008A0000146BDE8F08DC1F30A52C1F3130141F4D2
:1008B00080154FF0000BD10702D100186D41521E78
:1008C0000027044640F2FF11384601EB620A3E461B
:1008D0008046024600204FF48011FFF7A9FEC2199E
:1008E0007141BB1846EB0100B4EB030C75EB000C37
:1008F00004D3E41A65EB000517460E46241908F1E7
:1009000001006D4180463428E3DDF91946EB06000D
:10091000091BA84103D24FF0FF32134601E0002229
:1009200013461BEB070046EB0A51BDE8F04DFFF7FD
:10093000A1BE70B58C1810F8015B15F0070301D14A
:1009400010F8013B2A1106D110F8012B03E010F832
:10095000016B01F8016B5B1EF9D12B0705D4002355
:10096000521E0DD401F8013BFAE710F8013BCB1AF7
:10097000921C03E013F8015B01F8015B521EF9D5EC
:10098000A142D8D3002070BD18484FF0FF0101707C
:10099000002080F309881648016881F3088815480B
:1009A0004FF08051016062B6FEE772B6EFF3098046
:1009B00028B1203880E8F00F0F490968086000B5B9
:1009C0000E4880475DF804EB0D480E490A78027026
:1009D00009480D490A680260106890E8F00F20305D
:1009E00080F309884EF0040E62B6704722ED00E0F5
:1009F0003801002004ED00E03001002089380008B3
:100A0000BE000020BF0000203401002070B58AB075
:100A1000064600F0F5F900F005FA00F0E9F90446A1
:100A20002B480068B4FBF0F5284603F089F901F083
:100A300007FA09A802F088F900F062FA09AA002171
:100A4000012002F013F809AA22A1244801F024FC95
:100A500009AA23A1244801F01FFC09AA23A12548C3
:100A600001F01AFC09A8032100220592CDE9062114
:100A7000089032204FF4007133221F4BCDE9013230
:100A8000CDE90310032000231C4A1DA1009021483A
:100A900002F0E4F909A8032100220592CDE906211C
:100AA000089032204FF4007133221B4BCDE9013204
:100AB000CDE9031003200023184A19A100901E4815
:100AC00002F0CCF909A9002002F01EFB0AB070BDAB
:100AD000F8A900084C697374000000008801002028
:100AE0005573617274000000B4010020536F636B92
:100AF00065740000E00100208C0E00203D0B000812
:100B00004170705F5461736B5F5443505F53657203
:100B100076657200C40300208C060020950B000847
:100B20004170705F5461736B5F436865636B5F44D2
:100B30006576696365000000FC0200200EB501F0D7
:100B400039F907F0AFF807F025F91DE007F09CF937
:100B50000E48007808B107F027F90D48007800F03A
:100B6000010040B10A48007820F0010008490870EF
:100B7000002006F007F902A800210A230A46CDE961
:100B80000010084602F07AFFE0E700006201002052
:100B90005E01002086B0002414216846FFF71DFB8B
:100BA000ADE0574800783F2802DD00205449087026
:100BB0005348007800F06EFE52490870AD208DF861
:100BC0000000DA208DF8010002208DF802004C4868
:100BD00000788DF8030020208DF8040003208DF8A4
:100BE00005000621684606F0C1FD05AB002211464E
:100BF00040F6B83002F0E8FB00BF00BF00BFFFF7CF
:100C0000B7FA044600BF00F0A7F900BF3E480078DD
:100C1000401C3D49087008460078012801D104F0C5
:100C200045FA00BF00F0B2F900BF2046FFF7A4FA72
:100C300000BF00BF00BF3348007858B13348007888
:100C400018B1334806F00AFF0AE02D48007800F09A
:100C50000BFD05E02D48007810B12D4800F0D4FFC1
:100C60002C4801782A48FFF7B8FA00202949087073
:100C7000264908708021284800F0DDFE20B180213F
:100C8000254800F0E1FE03E08021234800F0DEFE6D
:100C900000BF00BF00BFFFF76BFA044600BF00F0C3
:100CA0005BF900BF18480078401E174908700846D5
:100CB0000078D0B904F008FA1848008800280BDD45
:100CC00000BF00F063F900BF2046FFF755FA00BFF0
:100CD00000BF04F0BDF911E000BF00F057F900BFFC
:100CE0002046FFF749FA00BF08E000BF00F04EF9C8
:100CF00000BF2046FFF740FA00BF00BF00BF50E72B
:100D00001E0000201C000020D80000201D00002034
:100D10008C16002020000020001C01409C000020B8
:100D200070B586B006460D460024E8788DF80400BC
:100D300068798DF8060000208DF8050000BF1AE0E4
:100D4000E8796100084100F00200022801D1102179
:100D500000E000210DF107000155E879610008412C
:100D600000F0010008B1102100E000210DF10D009C
:100D70000155601CC4B2042CE2DB00241CE0A879FD
:100D80006100084100F00200022801D1102200E0B9
:100D90000022201D0DF107010A54A87961000841C5
:100DA00000F0010008B1102200E00022201D0DF12A
:100DB0000D010A54601CC4B2022CE0DB00240EE0DA
:100DC000287A6100084100F00200022801D11021B8
:100DD00000E000210DF113000155601CC4B2042C89
:100DE000EEDB132201A93046FFF7DEF906B070BD35
:100DF00000B585B0684606F057F8019805B000BD0B
:100E000010B500F08DFF00F0BFFF06F0B7FD01F058
:100E1000AFF80249086006F0FBFE10BD1800002084
:100E200000BFFEE710B500F0FBF800F003F800F09B
:100E3000F3F810BD70B50026002018490880184945
:100E4000088018490860184908601849086018495E
:100E5000086018490860002400BFFFF789F90646BA
:100E600000BF00250BE000201049086000F074F876
:100E700000F08CF80D4800680444681C85B2002D11
:100E8000F1D00C4804600020084908600849086057
:100E900000BF3046FFF770F900BF70BD480000206A
:100EA0004A0000204C000020500000205800002084
:100EB0005C0000205400002001460846044A1268E5
:100EC000904203D9024A1268801A00E0002070475D
:100ED0005400002070B5002500BFFFF749F9054612
:100EE00000BF0648046800BF2846FFF745F900BF69
:100EF0002046FFF7E1FF0646304670BD580000204F
:100F000070B50025FFF7E6FF044600BFFFF730F994
:100F1000054600BF00200449086000BF2846FFF7CF
:100F20002BF900BF204670BD5800002070B5002589
:100F300000BFFFF71DF9054600BF0648046800BF63
:100F40002846FFF719F900BF2046FFF7B5FF064610
:100F5000304670BD5C00002010B509480088401C78
:100F6000074908800748008818B900F083F8064947
:100F7000086004480088401C0249088010BD000039
:100F8000480000204A0000204C00002010B50F4807
:100F90000088401E0D49088008460088A0B900F06E
:100FA00069F80B490860084600680A490968441A4C
:100FB00009480068A04201D2074804600748006859
:100FC000A04201D20548046010BD00004A00002084
:100FD000500000204C000020580000205C00002041
:100FE00010B5002400BF00BFFFF7C2F8044600BFE1
:100FF000FFF7B2FF00BF1021064800F017FF00BF47
:10100000FFF7C4FF00BF2046FFF7B6F800BF00BFE0
:1010100010BD0000A05A002010B5FFF7E1FF10BD81
:1010200010B500200249086000F00AF810BD000069
:10103000440000200149086070470000440000207F
:1010400010B50A48006840F0807008490860002028
:10105000074948600846006840F001000860FFF753
:10106000C7FE04462046FFF7E5FF10BDFCED00E09B
:10107000001000E00148406870470000001000E0E8
:1010800070B502460B46002000240021002500BF59
:1010900016E0CE1C9C5D00250EE080EA040606F0FA
:1010A00001060EB9401004E080F01800401040F036
:1010B000800064106E1CF5B2082DEEDB4E1CF1B200
:1010C000D61E8E42E5DC70BD2DE9F04790B0074694
:1010D0008846002400200B900C900D900E900890F4
:1010E00009900A90142103A8FFF777F8A14600267B
:1010F000404607F0F5FD8146B9F1000F07D107F032
:10110000C9FD8246514637A007F032F864E000245A
:1011100060E0224638A103A807F03AF803A9484640
:1011200007F0BEFD0646002E52D036A13069FFF70B
:101130007CF800B9022534A13069FFF776F800B9D0
:101140000125022D01D0012D42D1AD208DF82C00BA
:101150009DF82C008DF82000DA208DF82D009DF8E8
:101160002D008DF8210004208DF82E009DF82E0012
:101170008DF822008DF82F709DF82F008DF8230038
:1011800060208DF830009DF830008DF82400601C40
:10119000C0B28DF831009DF831008DF825008DF832
:1011A00032509DF831008DF8260008A90720FFF77E
:1011B00067FF8DF8330008210BA806F0D7FA0FA8B7
:1011C0000021C8230A46CDE90010084602F056FC6B
:1011D000601CC4B2042C9CDB484607F033FD10B001
:1011E000BDE8F0874572726F72206265666F726546
:1011F0003A205B25735D0A006368616E6E656C5F03
:10120000256400006F6E00006F6666002DE9F047F0
:101210000446204600F03EFB002838D007F0FAFCD8
:1012200081461CA007F0FFFC05462A461CA1484643
:1012300007F0C6FC1BA007F0F6FC05462A461BA1DA
:10124000484607F0BDFC2046FFF73FF9064607F089
:10125000CFFC05462A4617A1484607F0B1FC484690
:1012600007F078FD8046484607F0ECFC4046FEF764
:10127000D5FF124908800846028841461048FEF70B
:1012800093FF002005F090FD404607F051FFBDE8B8
:10129000F087000068656172746265617400000027
:1012A000636D640070657266653100006D6F646522
:1012B0006C000000616464720000000060010020A6
:1012C000F0E200202DE9F04FE7B005460E469146CA
:1012D0001C46DDF8C0A1C82133A8FEF77EFFC82157
:1012E00001A8FEF77AFF33AB4A463146284600F0A4
:1012F000AFFB01AA5146204600F01CFC07F08AFC17
:10130000669025A007F08FFC07463A4624A1669810
:1013100007F056FC23A007F086FC07463A4623A1B7
:10132000669807F04DFC7198FFF7CFF8074607F075
:101330005FFC83465A461FA1669807F041FC33A81C
:1013400007F071FC07463A461CA1669807F038FC86
:1013500001A807F068FC07463A4619A1669807F00D
:101360002FFC669807F0F6FC6590669807F06AFC1B
:101370006598FEF753FF1449088008460288134811
:101380006599FEF711FF002005F00EFD659807F046
:10139000CFFE67B0BDE8F08F6A6F696E0000000095
:1013A000636D640070657266653100006D6F646521
:1013B0006C0000006164647200000000696F00004E
:1013C00072656C617900000060010020F0E200208D
:1013D0002DE9F047044607F01DFC81461BA007F0ED
:1013E00022FC05462A461BA1484607F0E9FB1AA045
:1013F00007F019FC05462A4619A1484607F0E0FB0C
:101400002046FFF762F8064607F0F2FB05462A463B
:1014100015A1484607F0D4FB484607F09BFC8046E0
:10142000484607F00FFC4046FEF7F8FE10490880DA
:101430000846028841460F48FEF7B6FE002005F038
:10144000B3FC404607F074FEBDE8F0876F66666C3B
:10145000696E6500636D64007065726665310000D9
:101460006D6F64656C0000006164647200000000D0
:1014700060010020F0E200202DE9F04FE7B00546C2
:101480000E4691461C46DDF8C0A1C82133A8FEF7E0
:10149000A4FEC82101A8FEF7A0FE33AB4A463146A0
:1014A000284600F0D5FA01AA5146204600F042FB3A
:1014B00007F0B0FB669025A007F0B5FB07463A465B
:1014C00024A1669807F07CFB23A007F0ACFB07463D
:1014D0003A4623A1669807F073FB7198FEF7F5FF73
:1014E000074607F085FB83465A461FA1669807F01A
:1014F00067FB33A807F097FB07463A461CA166989E
:1015000007F05EFB01A807F08EFB07463A4619A1DB
:10151000669807F055FB669807F01CFC6590669886
:1015200007F090FB6598FEF779FE1449088008469D
:10153000028813486599FEF737FE002005F034FC59
:10154000659807F0F5FD67B0BDE8F08F7265706FC4
:1015500072740000636D640070657266653100002E
:101560006D6F64656C0000006164647200000000CF
:10157000696F000072656C617900000060010020F5
:10158000F0E200202DE9F04FB3B005460E4691463B
:101590001C46C8216846FEF720FE6B464A46314687
:1015A000284600F055FA07F035FB329020A007F0EE
:1015B0003AFB07463A4621A1329807F001FB20A0EA
:1015C00007F031FB07463A461FA1329807F0F8FAB8
:1015D0002046FEF77AFF074607F00AFB824652468E
:1015E0001BA1329807F0ECFA684607F01CFB07468F
:1015F0003A4619A1329807F0E3FA329807F0AAFBAD
:101600008346329807F01EFB5846FEF707FE134943
:1016100008800846028859461148FEF7C5FD00209B
:1016200005F0C2FB584607F083FD33B0BDE8F08FEC
:10163000646973636F76657279000000636D64009E
:1016400070657266653100006D6F64656C00000046
:101650006164647200000000696F00006001002096
:10166000F0E20020704700007CB50646164800688E
:1016700044691548056801A800231A4619460090D8
:10168000124800F07DFE15E02078B04210D160785D
:10169000032809DD60696861204607F031FC6C6948
:1016A0003046FFF795FE02E06078401C607003E072
:1016B00025466469002CE7D100BF01AA0021034838
:1016C00000F0F2FF7CBD000018000020880100201F
:1016D0001FB536480078401CC0B28DF8080033486A
:1016E0004078401CC0B28DF8090030488078401C1A
:1016F000C0B28DF80A002D48C078401CC0B28DF8E9
:101700000B0002AA0C21002006F0E6FC01220021B9
:10171000084606F0A5FC01221146002006F0A0FCB8
:1017200003A8002105230A46CDE90010084602F06F
:10173000A5F90321002005F0D7FC132807D01022BB
:101740000121002006F08CFC002004B010BD042212
:101750000121002006F084FC00BF002402210020AB
:1017600005F0C2FC044624B122460221002006F006
:1017700077FC03A8002105230A46CDE9001008469E
:1017800002F07CF904F00800082801D10020DCE711
:101790000621002005F0A8FCFF2806D01022012118
:1017A000002006F05DFCFF20CFE7D6E74A010020CD
:1017B00010B5102000F010F828B1102000F006F845
:1017C00001200149087010BD620100200149086034
:1017D0007047000014040140014600200022074B1E
:1017E0001B6803EA0102054B14331B680B4013B15D
:1017F0000AB1012000E00020704700000004014011
:10180000002123498279002A3AD00A4612680368E7
:101810009A430B461A600A1D126803689A430B1D0F
:101820001A60027911440A6803681A430A60184A68
:101830000832126803689A43154B08331A601A1D60
:10184000126803689A43124B0C331A604279102ACB
:101850000ED11A1F126803681A430D4B08331A6021
:101860001A1D126803681A43094B0C331A600DE005
:101870000749427911440A6803681A430A6005E07F
:10188000027911440A6803689A430A6070470000AD
:10189000000401407CB505460F480068446901A872
:1018A00000231A46194600900C4800F069FD0AE032
:1018B0002078A84206D101AA0021084800F0F4FED1
:1018C00001207CBD6469002CF2D101AA00210348EB
:1018D00000F0EAFE0020F4E7180000208801002054
:1018E00030B500228B071C0F0F2303FA04F20B4BB9
:1018F0008C1053F824309343084C8D1044F8253055
:1019000023468C1053F824308C07240F00FA04F47B
:101910002343024C8D1044F8253030BD08000140AF
:101920002DE9F04102460025002600200023002476
:10193000002791F803C00CF00F0591F803C00CF0DC
:10194000100CBCF1000F03D091F802C04CEA050561
:1019500091F800C0BCF1000F31D0146800202BE0DA
:101960004FF0010C0CFA00F3B1F800C00CEA0306CA
:101970009E4220D183004FF00F0C0CFA03F7BC43BA
:1019800005FA03FC4CEA040491F803C0BCF1280FEB
:1019900006D14FF0010C0CFA00FCC2F814C00AE0AA
:1019A00091F803C0BCF1480F05D14FF0010C0CFABF
:1019B00000FCC2F810C0401C0828D1D31460B1F854
:1019C00000C0BCF1FF0F34DD546800202EE000F1B0
:1019D000080C4FF0010808FA0CF3B1F800C00CEA4B
:1019E00003069E4221D183004FF00F0C0CFA03F73F
:1019F000BC4305FA03FC4CEA040491F803C0BCF1B3
:101A0000280F05D100F1080C08FA0CF8C2F8148070
:101A100091F803C0BCF1480F07D100F1080C4FF05A
:101A2000010808FA0CF8C2F81080401C0828CED330
:101A30005460BDE8F08102460020D3680B400BB132
:101A4000012000E00020704741617047016170474C
:101A50002DE9F0478046894616461F460024A246D7
:101A600000250A2007F0A4FA82460A2007F0A0FA0F
:101A7000054624A00088388000BF31E018F8042013
:101A800021A1504606F084FB19F8040028B121A0DA
:101A9000016829604068686006E020A0016829604C
:101AA00041686960008928811EA13846FEF7A0FBC5
:101AB00051463846FEF79CFB1BA13846FEF798FBC3
:101AC00029463846FEF794FB16A13846FEF790FBF0
:101AD000601CC4B2B44203DA14A13846FEF788FB96
:101AE000B442CBDB504607F00BFA284607F008FA61
:101AF0004FF0000A00250EA13846FEF779FBBDE83D
:101B0000F08700007B0000006368616E6E656C5FAB
:101B1000256400007072657373000000756E70724A
:101B20006573730022000000223A22002C0000009E
:101B30007D0000002DE9F04780460E461746002440
:101B4000A14600250A2007F033FA81460A2007F053
:101B50002FFA054621A00088388000BF2CE02246DD
:101B60001FA1484606F014FB18F8040028B11FA076
:101B7000018829808078A87002E01DA00068286094
:101B80001CA13846FEF734FB49463846FEF730FBC9
:101B900019A13846FEF72CFB29463846FEF728FBEC
:101BA00014A13846FEF724FB601CC4B2B44203DA29
:101BB00012A13846FEF71CFBB442D0DB484607F0C2
:101BC0009FF9284607F09CF94FF0000900250CA169
:101BD0003846FEF70DFBBDE8F08700007B000000F3
:101BE0006368616E6E656C5F256400006F6E000057
:101BF0006F66660022000000223A22002C000000DE
:101C00007D00000000BFFEE72DE9F0438BB0814668
:101C10000024002600200890099006900790059067
:101C20002A48006847692948D0F80080182007F042
:101C3000BFF9054649466846FFF772F81322694620
:101C40002846FEF7B1FA0AA800231A461946009062
:101C50001F4800F095FB01E0B8467F69002FFBD1DB
:101C6000D8F814006861C8F8145000240DE0E81C8E
:101C7000005D40B108A8845505F10900005D06A982
:101C80008855701CC6B2601CC4B2062CEFDB002461
:101C900006E005F10F00005D05A90855601CC4B2FF
:101CA000A878A042F5DC2878A97805AB3246CDE9C2
:101CB000001006A908A8FFF705FB0AAA002104489E
:101CC00000F0F2FC0BB0BDE8F0830000180000202B
:101CD0008801002008B50121042005F0D5F8012075
:101CE000ADF8000028208DF8030069460148FFF791
:101CF00017FE08BD0008014008B50121102005F0BD
:101D0000C3F84FF40050ADF8000028208DF8030010
:101D100069460248FFF704FE08BD000000100140BC
:101D200010B5FFF7D7FFFFF7E7FF10BD08B501219A
:101D3000082005F0A9F80120ADF8000010208DF86A
:101D4000030003208DF8020069460D48FFF7E8FD07
:101D50000121802005F098F88020ADF80000694648
:101D60000848FFF7DDFD0121802005F08DF84FF4D4
:101D70008070ADF8000069460248FFF7D1FD08BD4C
:101D8000000C0140001C014010B5FFF7CFFF0121FE
:101D90000648FFF75BFE80210548FFF757FE4FF42A
:101DA00080710348FFF752FE10BD0000000C014097
:101DB000001C0140C02016490870A820487001206E
:101DC0008870C870FF201349087048708870002020
:101DD000C8700C201049087029204870AB2088700A
:101DE0007C20C8700020087112204871C0200B4967
:101DF0000870A8204870012088705920C8701320EE
:101E0000074908708820487000200649087070470C
:101E10003C01002040010020440100204A01002034
:101E20004E0100205C01002000BFFEE730B50546F2
:101E30000C4622460021284600F026F830BD00005E
:101E40000D480E4901600146416000218160C1607A
:101E5000016141618161C16101620163C1624162ED
:101E600007498163C1634FF4D8410164416401466D
:101E7000044A116070470000B05A002048454150A4
:101E8000F85A0020600000202DE9F04103460C467E
:101E900017460FB9BDE8F08103B9FBE70025002222
:101EA00002E02D022543521C042AFAD3384603F0DF
:101EB000030C1946BCF1000F08D0624603E001F89C
:101EC000014B401E521C08B1042AF8D30E4601E013
:101ED00020C6001F0428FBD2314602E001F8014B66
:101EE000401E0028FAD100BFD4E7704770B500212A
:101EF00000230F22C47804B3154C246804F4E06472
:101F0000C4F5E064210AC1F10403CA40447804FA2C
:101F100003F184781440214309010E4C0678A15541
:101F2000047804F01F050124AC4005786D11AD0064
:101F300005F1E025C5F8004109E0047804F01F052B
:101F40000124AC40044D0678761145F8264070BD5A
:101F50000CED00E000E400E080E100E00249014314
:101F6000024A1160704700000000FA050CED00E025
:101F700010B5182007F01CF81449086008460068DE
:101F800020B913A006F0F4F8002010BD00200F497E
:101F9000096808700D49096848700C49096888701B
:101FA0000A480068002140F8031F81800748006844
:101FB00040F8091F818005480068C0F80F10002014
:101FC00002490968486101480068DEE718000020FE
:101FD00066616C73653100007047000010B50348FE
:101FE000006810B101480068804710BD74000020EF
:101FF00070B5044600F0C2F800204849087048490E
:1020000008704849087048490860484908604849CC
:1020100008704849087048490870484908604849AC
:1020200008604849086048490870484800680A2123
:10203000B0FBF1F0464908604648006858B1464890
:10204000056845B14348066803E0761E0020286015
:102050002D1D002EF9D1002040490860404908603C
:1020600040490860404908604049086040490860AC
:10207000404908604049087002F034FE02F032FF27
:10208000204601F04FFF208800B170BD204602F0CD
:1020900069FB208800B1F8E7204602F06FFB20883A
:1020A00000B1F2E7204602F06BFC208800B1ECE7BB
:1020B000204602F047FE208800B1E6E7204603F004
:1020C00097F8208800B1E0E7204603F001FC208863
:1020D00000B1DAE7204602F0B1FA208800B1D4E777
:1020E000204602F0BBF8208800B1CEE7204604F07D
:1020F00057FC208800B1C8E7204603F02DFB20885C
:1021000000B1C2E7204604F0A7FC208800B1BCE77C
:1021100001F02EFEFFF760FF00BFB6E78800002049
:1021200090000020D8000020300100203401002061
:10213000BE000020BF000020C0000020CC00002016
:10214000D0000020D4000020E0000020F8A9000802
:10215000DC000020C8A90008C4A90008680000200D
:102160006C00002070000020740000207800002027
:102170007C000020800000200E0100200A4A116827
:10218000002002E0002204C1401C084A126890426C
:10219000F8D3054A1268054B1B6802EB8302121F35
:1021A000034B1A6070470000C4A90008C8A90008C2
:1021B0003801002010B500242E480078012800D0F6
:1021C00010BD00BFFDF7D4FF044600BF2A480078C9
:1021D00028B900BF2046FDF7CFFF00BFF0E7264833
:1021E0000078401E2449087008460078002805DD64
:1021F00000BF2046FDF7C0FF00BFE1E71F480078A1
:10220000002805DD00BF2046FDF7B6FF00BFD7E779
:1022100002F054FD1A4908700846007800EB4000AF
:10222000184951F820001849086008460068174905
:102230000968884205D100BF2046FDF79DFF00BF19
:10224000BEE711480068D0F89000401C0E490968AC
:10225000C1F890000E480068401C0D4908604FF01E
:1022600080500C49086000BF2046FDF785FF00BF85
:1022700000BFA5E79000002088000020D8000020C3
:10228000BF00002024DD00203401002030010020A8
:102290000401002004ED00E02DE9F04104460E4663
:1022A0001546002732480078002804DD42F6E16038
:1022B0002880BDE8F0811CB945F6C3502880F8E7B6
:1022C00000BF00BF00BFFDF753FF074600BFFEF78A
:1022D00043FE00BF27480078401C26490870084686
:1022E0000078012801D102F0E1FE00BFFEF74EFEAA
:1022F00000BF3846FDF740FF00BF00BF00BF1E48CB
:10230000206066600020206284F82500A062202002
:1023100084F8240004F1080002F0E9FB204602F0F2
:1023200017FB16480088401C1449088000BF00BFF6
:1023300000BFFDF71DFF074600BFFEF70DFE00BF03
:102340000C480078401E0B4908700846007808B910
:1023500002F0BAFE00BFFEF719FE00BF3846FDF7D7
:102360000BFF00BF00BF00BF0020288000BFA0E718
:1023700088000020D80000204D555458BC00002093
:102380002DE9F04788B00546894690461C46109EC8
:102390004FF0000ABF480078002805DD46F2AE1075
:1023A000308008B0BDE8F0871DB945F6C3503080D5
:1023B000F7E7B8F1000F03D0B8F5004F02D100E005
:1023C00000BF03E045F625603080EAE700BFB24970
:1023D0002868884203D045F6C4503080E1E70CB14C
:1023E0000020206000BF00BFFDF7C2FE824600BF94
:1023F000FEF7B2FD00BF95F82500D0B9A7480068E8
:102400002862A648006890F8370085F8240001206B
:1024100085F825000CB1A86A206000BFFEF7B6FD64
:1024200000BF5046FDF7A8FE00BF00BF002030806F
:10243000B7E79A49286A0968884214D195F82500B7
:10244000401C85F825000CB1A86A206000BFFEF78B
:102450009DFD00BF5046FDF78FFE00BF00BF45F257
:10246000827030809DE708F4004060B100BFFEF745
:102470008DFD00BF5046FDF77FFE00BF00BF46F256
:10248000B01030808DE78648007800280CDD00BF52
:10249000FEF77CFD00BF5046FDF76EFE00BF00BF9B
:1024A00046F6635030807CE700BF7D480078401CD2
:1024B0007B49087008460078012801D102F0F6FD3A
:1024C00000BFFEF763FD00BF5046FDF755FE00BF9D
:1024D00000BF00BF2F6A97F837007049096891F86C
:1024E000371088426ADD97F8360008282AD2DFE8DC
:1024F00000F004151E1F17162021384602F07AFD41
:102500006648006890F8370087F8370097F837007A
:1025100002F0F4FB384602F00DFD4EE000BF00BFB4
:102520005E48006890F8370087F8370045E000BF44
:1025300000BF00BF5948006890F83710384602F0D5
:10254000B3FA3AE000BF00BF00BFFDF711FE8246BC
:1025500000BFFEF701FD00BF51480078401E504902
:10256000087008460078D0B902F0AEFD4D480088EA
:1025700000280BDD00BFFEF709FD00BF5046FDF748
:10258000FBFD00BF00BF02F063FD11E000BFFEF7DE
:10259000FDFC00BF5046FDF7EFFD00BF08E000BFA7
:1025A000FEF7F4FC00BF5046FDF7E6FD00BF00BF9C
:1025B00000BF46F62D603080F3E600BF4B46042294
:1025C0002946684602F0E8F900BF00BF00BFFDF7EA
:1025D000CFFD824600BFFEF7BFFC00BF3048007849
:1025E000401E2F4908700846007808B902F06CFDBB
:1025F00000BFFEF7CBFC00BF5046FDF7BDFD00BF9E
:1026000000BF00BF00F0A0F900BF00BFFDF7B0FDA4
:10261000824600BFFEF7A0FC00BF2048006890F88B
:10262000350030B101280CD002281AD0032821D15E
:1026300010E01CB119480068006C20600020308058
:102640001CE01CB115480068006C206046F2A9101F
:10265000308013E00CB10020206047F2D920308098
:102660000CE01CB10D480068006C206045F6C250BB
:10267000308003E046F62E60308000BF00BF00BF10
:10268000FEF784FC00BF5046FDF776FD00BF00BF9B
:1026900000BF86E6880000204D55545830010020C8
:1026A000D80000209C0000202DE9F84F0446884601
:1026B00015464FF0000A9E480078002804DD46F2D7
:1026C0000E202880BDE8F88F1CB945F6C35028803D
:1026D000F8E7B8F1000F03D0B8F5004F02D100E0E1
:1026E00000BF03E045F625602880EBE700BF914975
:1026F0002068884203D045F6C4502880E2E700BF36
:1027000000BFFDF735FD824600BFFEF725FC00BF88
:102710008949206A096888420CD000BFFEF736FC60
:1027200000BF5046FDF728FD00BF00BF45F2817095
:102730002880C7E700BF81480078401C7F490870A7
:1027400008460078012801D102F0B0FC00BFFEF776
:102750001DFC00BF5046FDF70FFD00BF00BF00BFCE
:10276000FEF788FC0746A76294F82500401E84F80F
:10277000250094F8250000283ADD00BF00BF00BF07
:10278000FDF7F6FC824600BFFEF7E6FB00BF6B4894
:102790000078401E6949087008460078D0B902F0F8
:1027A00093FC6748008800280BDD00BFFEF7EEFBB6
:1027B00000BF5046FDF7E0FC00BF00BF02F048FC40
:1027C00011E000BFFEF7E2FB00BF5046FDF7D4FC6E
:1027D00000BF08E000BFFEF7D9FB00BF5046FDF781
:1027E000CBFC00BF00BF00BF45F28370288069E7C3
:1027F00004F10809B9F8080080BB0020206284F8C1
:10280000250000BF00BF00BFFDF7B2FC824600BF3D
:10281000FEF7A2FB00BF49480078401E47490870F8
:1028200008460078D8B902F04FFC454800880028D7
:102830000BDD00BFFEF7AAFB00BF5046FDF79CFC76
:1028400000BF00BF02F004FC12E000BFFEF79EFBD9
:1028500000BF5046FDF790FC00BF09E00CE000BF50
:10286000FEF794FB00BF5046FDF786FC00BF00BF9B
:1028700000BF0020288025E72F48006890F8370027
:1028800094F82410884219D02B48006802F0B2FB5B
:1028900094F824002849096881F837002649096816
:1028A00091F8370002F02AFA2348006802F062FB30
:1028B0002148006890F8370022490870D9F80000D4
:1028C0008668266296F8370084F82400012084F890
:1028D000250000231A4631462046009702F078F979
:1028E00000BF00BF00BFFDF743FC824600BFFEF7FC
:1028F00033FB00BF11480078401E1049087008469D
:10290000007808B902F0E0FB00BFFEF73FFB00BF14
:102910005046FDF731FC00BF00BF00BF08F4004087
:1029200008B900F011F80020288000BFCAE60000B6
:10293000880000204D55545830010020D800002058
:102940009C000020BE00002010B500242048007824
:10295000002800DD10BD1F480078002800DDF9E7E1
:1029600000BFFDF705FC044600BF02F0A7F91A49B5
:1029700008700846007800EB4000184951F8200024
:10298000174908600846006816490968884205D159
:1029900000BF2046FDF7F0FB00BFDBE710480068F2
:1029A000D0F89000401C0E490968C1F890000E480C
:1029B0000068401C0C4908604FF080500B490860CB
:1029C00000BF2046FDF7D8FB00BF00BFC2E70000F4
:1029D00088000020D8000020BF00002024DD002057
:1029E00034010020300100200401002004ED00E04B
:1029F00070B5044600251A480078002803DD46F625
:102A00006250208070BD17480078012803D045F639
:102A100089602080F6E714480078FA2803DB45F245
:102A200009202080EEE700BF00BFFDF7A1FB0546AF
:102A300000BFFEF791FA00BF0B480078401C0A491E
:102A4000087002F033FB00BFFEF7A0FA00BF284673
:102A5000FDF792FB00BF00BF0020208000BFD1E740
:102A60008800002090000020D80000202DE9F041CF
:102A700005460C461646002700BF00BFFDF778FB51
:102A8000074600BFFEF768FA00BF012D03D0002003
:102A90000E49087002E001200C49087014B10C487E
:102AA000046006E00B4800680A21B0FBF1F0084919
:102AB000086000BFFEF76AFA00BF3846FDF75CFB0E
:102AC00000BF00BF00203080BDE8F081E0000020A2
:102AD000DC000020F8A9000870B504460025234852
:102AE0000078002803DD46F66550208070BD204840
:102AF0000078012803D045F689602080F6E71D485C
:102B0000007818B946F664502080EFE700BF00BF98
:102B1000FDF72EFB054600BFFEF71EFA00BF154865
:102B20000078401E134908700846007800280CDD24
:102B300000BFFEF72BFA00BF2846FDF71DFB00BFC4
:102B400000BF46F663502080D0E702F0BDFA00BF18
:102B5000FEF71CFA00BF2846FDF70EFB00BF00BFC2
:102B6000FFF7F2FE0020208000BFBFE788000020B2
:102B700090000020D800002010B5044612480078CC
:102B8000E8B902F09BF8114908700846007810492E
:102B900008700E48007800EB40000E4951F8200004
:102BA0000D490860084600680C4908600120064984
:102BB0000870FDF7E9FE43F69920208002E045F613
:102BC0008A60208010BD000090000020BF0000201F
:102BD000BE00002024DD0020340100203001002050
:102BE0002DE9F04107464FF0000800BF00BFFDF798
:102BF000BFFA804600BFFEF7AFF900BF002047498B
:102C000008604749088047490880474908604749A4
:102C100008604749086047490860474908604749D4
:102C2000088100BFFEF7B2F900BF4046FDF7A4FAE5
:102C300000BF00BF00BF00BFFDF79AFA804600BF8B
:102C4000FEF78AF900BF3E48046800BFFEF79EF910
:102C500000BF4046FDF790FA00BF00BF26E000BF6E
:102C600000BFFDF785FA804600BFFEF775F900BF8B
:102C700000207834E063206420602063A061A0829B
:102C8000E0826062A062FEF7F5F92062783C04F110
:102C900064060020B081D4F8C04000BFFEF776F98A
:102CA00000BF4046FDF768FA00BF00BF002CD6D138
:102CB00000BF00BFFDF75CFA804600BFFEF74CF98D
:102CC00000BF2048056800BFFEF760F900BF40461E
:102CD000FDF752FA00BF00BF16E000BF00BFFDF7CE
:102CE00047FA804600BFFEF737F900BF05F120061E
:102CF0000020B081AD6900BFFEF748F900BF404633
:102D0000FDF73AFA00BF00BF002DE6D103F010FD39
:102D100003F09EFF00203880BDE8F081A400002071
:102D20009E000020EE000020000100201401002081
:102D3000200100208C000020D000002018DD0020A1
:102D400008010020C4000020F8B5044600266946AA
:102D5000364800F069FDBDF8000018B1BDF800006C
:102D60002080F8BD6A460021022000F0DFFDBDF89A
:102D7000000018B1BDF800002080F2E700BF00BFDE
:102D8000FDF7F6F9064600BFFEF7E6F800BF0020A3
:102D90002749086000BFFEF7F9F800BF3046FDF78D
:102DA000EBF900BF00BF00252248006822490968EE
:102DB000884205D91F4800681F490968B0FBF1F532
:102DC00025B91C4800680A21B0FBF1F56A460021CC
:102DD000284600F0ABFD6946144800F0A5FABDF89E
:102DE000000018B1BDF800002080BAE700BF00BFA6
:102DF000FDF7BEF9064600BFFEF7AEF800BF0020A3
:102E00000E4908600A4800680D49086001200D4914
:102E1000087000BFFEF7BAF800BF3046FDF7ACF906
:102E200000BF00BF0020208000BF9AE734E00020F0
:102E3000F0000020F8A90008E0A900080001002027
:102E4000F4000020FC00002010B50348006810B119
:102E500001480068804710BD780000202DE9FF4F31
:102E600087B004469046DDE91BA5DDE91496179F5F
:102E70000020039095480078002805DD47F24A10AD
:102E800028800BB0BDE8F08F1CB947F2AD10288048
:102E9000F7E7B8F1000F03D147F24F102880F0E7B1
:102EA0001EB946F62F602880EBE789480068874204
:102EB00003D246F630602880E3E71698B84203D381
:102EC00046F631602880DCE7B9F1200F03D346F2E3
:102ED00073202880D5E7B9F1000F06D17D488442E0
:102EE00003D046F273202880CBE7B9F11F0F06D13B
:102EF0007948844203D046F273202880C1E72046F7
:102F000002F0F6FC002028800AF0010090B10AF0DF
:102F1000020078B105960020069008E0002105988F
:102F200001600598001D05900698401C06900698C3
:102F3000B842F3D3169806EB80000490CDE9007AEE
:102F400032464046049B0A9900F00EFC0590C4F8F6
:102F500028800A98E0620898206284F837900598E3
:102F600020600498A06019986065199818B95B48AA
:102F70000068A06501E01998A0651A986060666213
:102F8000A763A4F83CA04FF0000B08E0002104F177
:102F90007C0040F82B100BF1010000F0FF0BBBF19F
:102FA000000FF3D004F16400189901F047FC2046AB
:102FB00000F09EF800BF00BF00BFFDF7D9F80390F6
:102FC00000BFFDF7C9FF00BF45480078401C4449D9
:102FD000087008460078012801D102F067F800BFA8
:102FE000FDF7D4FF00BF0398FDF7C6F800BF00BF90
:102FF00000BF94F8370001F081FE204601F0BAFFCF
:10300000204602F02BFC37480088401C35490880D8
:1030100035480078012837D000BF00BF00BFFDF75A
:10302000A7F8039000BFFDF797FF00BF2C4800787A
:10303000401E2B49087008460078D0B902F044F8C9
:103040002A48008800280BDD00BFFDF79FFF00BF66
:103050000398FDF791F800BF00BF01F0F9FF11E000
:1030600000BFFDF793FF00BF0398FDF785F800BF91
:1030700008E000BFFDF78AFF00BF0398FDF77CF86A
:1030800000BF00BF00BFFCE600BF00BF00BFFDF7F0
:103090006FF8039000BFFDF75FFF00BF1048007896
:1030A000401E0F4908700846007808B902F00CF875
:1030B00000BFFDF76BFF00BF0398FDF75DF800BF91
:1030C00000BF00BFFFF740FC00BFDAE68800002029
:1030D000F4A9000850DC002088DB0020DC00002080
:1030E000D80000200C010020900000209C0000204F
:1030F00010B504460348006818B120460149096824
:10310000884710BD6800002070B504460D460026B3
:1031100078480078002803DD47F24E10288070BD03
:103120007548844203D147F24C102880F7E7734872
:10313000844203D147F24D102880F0E79CB900BFCC
:1031400000BFFDF715F8064600BFFDF705FF00BFFD
:103150006B48046800BFFDF719FF00BF3046FDF75C
:103160000BF800BF00BF00BF00BF00BFFDF700F8B5
:10317000064600BFFDF7F0FE00BF62480078401C25
:103180006049087008460078012801D101F08EFFDF
:1031900000BFFDF7FBFE00BF3046FCF7EDFF00BFB0
:1031A00000BF00BF94F8360008282DD2DFE800F0F9
:1031B00004090E10080A0F11204601F01BFF5EE003
:1031C0005DE000BF204603F097FA58E000BF00BF63
:1031D00000BF204603F090FA94F83400082810D27B
:1031E000DFE800F004070508090A0B0600BF00BF6E
:1031F00008E000BF00BF00BF00BF204601F0AFFCE9
:1032000000E000BF00BF3AE000BF00BF00BFFCF716
:10321000AFFF064600BFFDF79FFE00BF39480078AC
:10322000401E3849087008460078D0B901F04CFFBC
:103230003548008800280BDD00BFFDF7A7FE00BF62
:103240003046FCF799FF00BF00BF01F001FF11E01D
:1032500000BFFDF79BFE00BF3046FCF78DFF00BFAF
:1032600008E000BFFDF792FE00BF3046FCF784FF88
:1032700000BF00BF00BF46F62D6028804FE700BFAB
:1032800004F1640001F0B8FA204600F041F820464D
:1032900002F0FCFA1D480088401E1C4908802046A8
:1032A00002F026FBFF2084F8360000BF00BF00BFFD
:1032B000FCF75EFF064600BFFDF74EFE00BF11485B
:1032C0000078401E0F4908700846007808B901F0E0
:1032D000FBFE00BFFDF75AFE00BF3046FCF74CFF77
:1032E00000BF00BF00BF00202880FFF72DFB00BFFC
:1032F00015E700008800002088DB002050DC00205B
:1033000030010020D80000209C0000200C0100208B
:1033100010B504460348006818B120460149096801
:10332000884710BD6C0000207FB504460D4600267E
:1033300000BF00BFFCF71CFF064600BFFDF70CFEF8
:1033400000BF1CB11748006884420CD100BFFDF7D4
:103350001DFE00BF3046FCF70FFF00BF00BF47F265
:10336000571028807FBD00BFFDF710FE00BF30461C
:10337000FCF702FF00BF00BF0B48007800280BDD00
:10338000002000900190034602462146CDE9020547
:10339000064800F09BFFE5E72946204602F054FC72
:1033A00000BFDFE730010020880000205452455361
:1033B00010B504460348006818B120460149096861
:1033C000884710BD700000202DE9F04780460E466A
:1033D00014461D464FF000098C480078002805DD92
:1033E00046F2AE1028800020BDE8F0871EB1B6F589
:1033F000004F02D100E000BF04E045F625602880C0
:103400000020F1E700BF0CB10020206000BF00BF2A
:10341000FCF7AEFE814600BFFDF79EFD00BF7C4875
:103420000068406CB8B37A480068406C401E784928
:103430000968486476480068476C1CB174480068A5
:10344000006C2060FDF716FE71490968096C401A8E
:103450006F490968C1F8A4006D480068D0F8A80059
:103460006B490968D1F8A410884207D268480068FF
:10347000D0F8A40066490968C1F8A80000BFFDF7AC
:1034800085FD00BF4846FCF777FE00BF00BF002067
:1034900028803846A8E7FFE706F4004068B100BF7F
:1034A000FDF774FD00BF4846FCF766FE00BF00BF95
:1034B00046F2B0102880002096E756480078002891
:1034C0000DDD00BFFDF762FD00BF4846FCF754FE6E
:1034D00000BF00BF46F663502880002084E700BF8D
:1034E0004C480078401C4B49087008460078012879
:1034F00001D101F0DBFD00BFFDF748FD00BF4846EC
:10350000FCF73AFE00BF00BF00BF43460722002180
:10351000084601F041FA00BF00BF00BFFCF728FEDB
:10352000814600BFFDF718FD00BF3A480078401EF5
:10353000384908700846007808B901F0C5FD00BF99
:10354000FDF724FD00BF4846FCF716FE00BF00BF94
:1035500000BFFFF7F9F900BF00BFFCF709FE814685
:1035600000BFFDF7F9FC00BF2948006890F835005E
:1035700020B1012826D0032834D12CE0FCB1244806
:103580000068006C2060FDF775FD21490968096C31
:10359000401A1F490968C1F8A4001D480068D0F806
:1035A000A8001B490968D1F8A410884207D218481E
:1035B0000068D0F8A40016490968C1F8A8000020E6
:1035C000288013E01CB112480068006C206046F2AD
:1035D000A91028800AE00CB10020206047F2D92011
:1035E000288003E046F62E60288000BF00BF084810
:1035F0000068476C00BFFDF7C9FC00BF4846FCF7F8
:10360000BBFD00BF00BF3846EEE60000880000208A
:1036100030010020D80000202DE9FF4106460F466A
:1036200014461FB1B7F5004F02D100E000BF06E01D
:1036300045F625602080002004B0BDE8F08100BF81
:10364000FDF718FD05460D48007800280CDD002028
:103650000090034602463146CDE9025401900848E5
:1036600000F034FE0020E7E723462A46394630467C
:1036700002F0B4FB80464046DEE7000088000020F0
:10368000545349472DE9F04705460E4617461C4658
:103690004FF0000A32480078002804DD47F2591044
:1036A0002080BDE8F0871EB946F2D5202080F8E7DB
:1036B0001FB946F2D5202080F3E700BF00BFFCF71A
:1036C00057FD824600BFFDF747FC00BF0DB92548F6
:1036D0000568286878B900BFFDF758FC00BF504660
:1036E000FCF74AFD00BF00BF00203060386047F2A1
:1036F00052102080D5E795F83C0000F0010078B921
:1037000000BFFDF743FC00BF5046FCF735FD00BF8E
:1037100000BF00203060386047F254102080C0E7BE
:1037200000BFFDF733FC00BF5046FCF725FD00BF8E
:1037300000BF4FF00008D5F8249003E009F1040918
:1037400008F10108D9F800000028F7D0C6F8008079
:10375000A86BA0EB080038600020208000BFA0E725
:103760008800002030010020F0B50446DDE9055650
:1037700002EB85004FF0807C071F3846C7F800C079
:10378000071F38463C60DFF89CC0071F3846C7F863
:1037900000C04FF0123C071F3846C7F800C04FF07A
:1037A000033C071F3846C7F800C04FF0023C071F14
:1037B0003846C7F800C0071F38463B60071F384629
:1037C00039604FF0113C071F3846C7F800C04FF072
:1037D000103C071F3846C7F800C04FF0093C071FD0
:1037E0003846C7F800C04FF0083C071F3846C7F8F6
:1037F00000C04FF0073C071F3846C7F800C04FF025
:10380000063C071F3846C7F800C04FF0053C071FAD
:103810003846C7F800C04FF0043C071F3846C7F8C9
:1038200000C0F0BDC55D00087FB505460C461248D6
:10383000854203D147F25B1020807FBD0F4885424F
:1038400003D147F25C102080F7E70D48007800288C
:103850000BDD002000900190034602462946CDE989
:103860000204084800F032FDE7E72146284602F04E
:1038700089FD00BFE1E7000088DB002050DC00206C
:10388000880000205453555370B52448006810B187
:10389000224800688047FDF7EDFB04462048006899
:1038A00020490968884215D01D480068D0F8980062
:1038B000201A1B490968C1F8940019480068D0F81B
:1038C0009C0017490968D1F8941008441449096804
:1038D000C1F89C0013480068C0F89840FDF710FB41
:1038E00005460F480068D0F8B400A84203D20C483F
:1038F0000068C0F8B4500A480068D0F8B8000A4917
:103900000968884205D20848006805490968C1F875
:10391000B80000200449086070BD00007C00002051
:103920003001002034010020D40000202DE9F041B6
:1039300005460E46144600274D480078002804DD51
:1039400047F275202080BDE8F0814A4800780028C1
:1039500003DD46F663502080F5E736B1022E05D030
:10396000042E0AD0082E09D101E000BF00BF1DB906
:1039700047F27E202080E6E704E003E045F625607C
:103980002080E0E700BF00BF00BF00BFFCF7F0FBF6
:10399000074600BFFDF7E0FA00BF36480078401C3C
:1039A0003449087008460078012801D101F07EFBF7
:1039B00000BFFDF7EBFA00BF3846FCF7DDFB00BFA8
:1039C00000BF00BF01202C49096881F8360023465A
:1039D000324629462848006802F0B0FD2088F0B140
:1039E00000BF00BF00BFFCF7C3FB074600BFFDF7E9
:1039F000B3FA00BF1F480078401E1E4908700846F1
:103A0000007808B901F060FB00BFFDF7BFFA00BF06
:103A10003846FCF7B1FB00BF00BF00BF93E7164874
:103A2000006801F0E7FA00BF00BF00BFFCF7A0FB91
:103A3000074600BFFDF790FA00BF0E480078401E11
:103A40000C4908700846007808B901F03DFB00BF3A
:103A5000FDF79CFA00BF3846FCF78EFB00BF00BFA5
:103A600000BFFEF771FF0020208000BF6BE7000061
:103A700088000020D8000020300100202DE9FF5FE1
:103A800005460E4617469846DDE90EA40020009034
:103A900081480078002804DD47F275202080BDE8C9
:103AA000FF9F7E480078002803DD46F663502080A3
:103AB000F5E70AF00E0BBBF1000F09D0BBF1020FC6
:103AC00007D0BBF1040F10D0BBF1080F0ED101E0FD
:103AD00000BF00BFB8F1000F06D12FB926B91DB93C
:103AE00047F27E202080DAE704E003E045F6256017
:103AF0002080D4E700BF2AF01E0008B1012000E0BA
:103B0000002003900398012803D145F6256020800A
:103B1000C5E7CAF3001002900298C0B9B8F57A7FE1
:103B200003D347F27B202080B9E73B2F03DD47F228
:103B30007A202080B3E73B2E03DD47F279202080F6
:103B4000ADE7632D12DD47F278202080A7E742F22F
:103B50000F70864203DD47F2792020809FE7B5F59C
:103B60007A7F03DB47F27820208098E74C48D0F832
:103B700000904FF4FA70B0FBF9F0404400FB09F0FC
:103B80004FF47A71B0FBF1F14FF461606843C6EB1A
:103B9000061200EB8200384400FB091001900198E6
:103BA000002873D000BF00BF00BFFCF7E1FA00900F
:103BB00000BFFDF7D1F900BF38480078401C3749F5
:103BC000087008460078012801D101F06FFA00BFA3
:103BD000FDF7DCF900BF0098FCF7CEFA00BF00BF8C
:103BE00000BF01202F49096881F8360023465A4654
:103BF0002C480199006802F0A1FC2088F0B100BFB8
:103C000000BF00BFFCF7B4FA009000BFFDF7A4F9B5
:103C100000BF22480078401E2049087008460078FE
:103C200008B901F051FA00BFFDF7B0F900BF0098E4
:103C3000FCF7A2FA00BF00BF00BF30E719480068D8
:103C400001F0D8F900BF00BF00BFFCF791FA009067
:103C500000BFFDF781F900BF10480078401E0F49F2
:103C600008700846007808B901F02EFA00BFFDF789
:103C70008DF900BF0098FCF77FFA00BF00BF00BFBE
:103C8000FEF762FE0020208003E0FFE747F27E207F
:103C9000208000BF03E7000088000020D80000203B
:103CA000F8A900083001002010B586B000F01EF819
:103CB000FDF7E0F9044605A800210091CDE90114C3
:103CC00003900748007800EB4000064A02EB8001B1
:103CD00000231A46044800F0F9FA06B010BD0000AF
:103CE000BE00002024DD00205449434B10B503489A
:103CF000006810B101480068804710BD80000020B6
:103D000010B5002400BF00BFFCF732FA044600BF24
:103D1000FDF722F900BF09480078401C07490870E8
:103D200000BFFDF733F900BF2046FCF725FA00BFBE
:103D300000BFFFF7B9FFFEF73DFA10BD8800002075
:103D400001464A1E4FF0E0235A61084A106820F0ED
:103D50007F4000BF10601A46126942F005021A61E6
:103D60001A46126942F002021A61704720ED00E023
:103D7000254A2649264A274A2749284A2848294ABF
:103D8000294A2A4A2A4A2B482B482C482C4A2D4893
:103D90002D4A2E482E4A2F482F4830483048314A65
:103DA000314A324A3248334A334A34483448354833
:103DB0003548364836483748374A384A384A394A03
:103DC00039483A483A483B4A3B4A3C4A3C483D48D5
:103DD0003D483E493E483F4A3F4A404A404A414AA0
:103DE000414A424A4248434A434A44484448454A71
:103DF000454A4648464A474A47484848484800BF17
:103E000000BF00BF704700003CAA0008A4AB000838
:103E10003DAA00083EAA000840AA000844AA0008DB
:103E200048AA000845AA000870AA000871AA00085C
:103E300072AA000874AA000876AA000878AA0008E6
:103E40007AAA00087CAA00089CAA00089EAA00087A
:103E5000A0AA0008A2AA0008A4AA0008A6AA00080E
:103E6000A8AA0008D4AA0008D5AA0008D6AA000863
:103E7000D8AA0008DAAA0008DBAA0008DCAA000811
:103E8000DEAA0008E0AA0008E2AA0008E4AA0008E6
:103E9000E6AA0008E8AA000818AB000819AB000859
:103EA0001AAB00081BAB00081CAB00081EAB0008D7
:103EB00020AB000848AB000849AB00084AAB00083B
:103EC0004BAB00084CAB00084EAB000850AB0008F1
:103ED00054AB000855AB000856AB000857AB0008C0
:103EE00058AB000859AB00085AAB00085BAB0008A0
:103EF0005CAB00085EAB00085FAB000860AB00087D
:103F000062AB000864AB000865AB000868AB000852
:103F10009CAB00089DAB00089EAB0008A0AB00085E
:103F2000A2AB00080021034A1160034A11800180FE
:103F300070470000A8000020AC0000202DE9F04FE1
:103F400085B00446894692469B46DDF838800020BD
:103F5000009000BF00BFFCF70BF9009000BFFCF71A
:103F6000FBFF00BFBAF1000F0AD0BAF1010F0DD06C
:103F7000BAF5004F05D06FF40040504460B906E038
:103F800000BF206A40EA0900206216E000BF206AF4
:103F900020EA0900206210E000BFFCF7F7FF00BF35
:103FA0000098FCF7E9F800BF00BF45F62560A8F8C7
:103FB0000000002005B0BDE8F08F00BFC4F824B0B9
:103FC00004F1080001900198008968B900BFFCF76E
:103FD000DDFF00BF0098FCF7CFF800BF00BF002056
:103FE000A8F80000206AE5E700BF71480078401C8F
:103FF0006F49087008460078012801D101F056F891
:1040000000BFFCF7C3FF00BF0098FCF7B5F800BF86
:1040100000BF00BF01980768BD6889E0786802901A
:1040200095F8880000F00F0003900398012821D034
:1040300002282ED0042802D0082836D10EE0206AAB
:10404000D5F8801000EA0106D5F88000B04204D10E
:104050005A463146284600F0AFF863E0206AD5F8AA
:10406000801000EA010626B15A463146284600F083
:10407000A3F857E0D5F88000216A20EA0106D5F8B8
:104080008000B04204D15A463146284600F094F8E8
:1040900048E0D5F88000216A20EA010626B15A4698
:1040A0003146284600F088F83CE000BF00BF00BF62
:1040B000FCF75EF8009000BFFCF74EFF00BF3C48E5
:1040C0000078401E3A49087008460078D0B900F0E0
:1040D000FBFF3848008800280BDD00BFFCF756FFC7
:1040E00000BF0098FCF748F800BF00BF00F0B0FF29
:1040F00011E000BFFCF74AFF00BF0098FCF73CF856
:1041000000BF08E000BFFCF741FF00BF0098FCF7CC
:1041100033F800BF00BF00BF43F6FF20A8F800003F
:10412000002047E700BF029F0FB1BD6800E00025F7
:10413000002D7FF473AF00BF00BF00BFFCF718F87D
:10414000009000BFFCF708FF00BF19480078401E30
:10415000174908700846007808B900F0B5FF00BF9D
:10416000FCF714FF00BF0098FCF706F800BF00BF83
:1041700000BF0AF4004008B9FEF7E6FB00BF00BF2D
:10418000FBF7F6FF009000BFFCF7E6FE00BF206AD9
:10419000049000BFFCF7FAFE00BF0098FBF7ECFFAD
:1041A00000BF00BF0020A8F80000049802E700004C
:1041B000D80000209C00002070B504460E4615462D
:1041C00034342665002060702070E560A078343CAF
:1041D000082816D2DFE800F00405080907061011C8
:1041E00000BF00BF00BF0DE000BF204601F01EFD74
:1041F000002084F8360005E000BF042084F8360073
:1042000000E000BF00BF204600F0A9FC70BD000028
:10421000002400BF1DE000BF00BFFBF7A9FF04465C
:1042200000BFFCF799FE00BF0A480068401C09491E
:10423000086009480068401C0749086000BFFCF797
:10424000A5FE00BF2046FBF797FF00BF00BFFDF7AC
:10425000C5FEE0E784000020F000002010B58AB021
:10426000044600200E4908600B2000210591CDE98D
:104270000704069108460B4909680B4A12680B4B64
:104280001B68CDE90132CDE903101F200023084A45
:1042900008A100900C48FEF7E1FD0AB010BD000037
:1042A00084000020A0A900089CA9000898A9000883
:1042B0001142000875432F4F532D49494920496445
:1042C0006C65205461736B0088DB00202DE9F84F8A
:1042D00004460D4616461F46DDE90BABDDF8289077
:1042E000DDF834800020009000BF00BFFBF740FFE6
:1042F000009000BFFCF730FE00BF2C4800882C491E
:10430000098888423EDA29480088401C27490880ED
:10431000284800880988884203DA2448008825490B
:1043200008802548006804602348006885602248AA
:104330000068C6602048006807821F480068C0F80F
:1043400014901D480068A0F818A01B480068C0F829
:104350001CB01948006840681749086001201749D7
:104360000881174808604860002000F0C7FC154825
:10437000007818B113480078134908700020A8F895
:10438000000008E011480088401C1049088044F2F1
:104390005360A8F8000000BFFCF7F8FD00BF0098CC
:1043A000FBF7EAFE00BF00BFBDE8F88F9C000020CD
:1043B000ACA900089E0000209400002024DD00200D
:1043C00050DC0020BE000020C0000020A000002023
:1043D0003EB5594800680068584A811A904279D021
:1043E0000FDC5749084400283ED056490844A8B17C
:1043F00055490844002860D05449084400286AD12F
:104400003FE053480844002850D05249084400284F
:1044100062D0514908440028F1D110E002A8464D6D
:1044200000902D68EB69444D2D682A8B424D2D6814
:104430006969414D2D68A868FFF780FD7AE002A9FF
:104440003D480068C0693C4DCDE900012D682B8BCB
:10445000394D2D682A8A384D2D68E968364D2D680A
:10446000A86800F07BFC65E0334B1B68DA69324BCF
:104470001B68198B304B1B68986802AB00F0C4FEB8
:1044800058E002A92C480068C0692B4DCDE9000115
:104490002D682B8B284D2D682A8A274D2D68E968B9
:1044A000254D2D68A86801F08BFA43E02249096880
:1044B000886802A901F0C8FB3CE01F4B1B68DA6961
:1044C0001D4B1B68198B1C4B1B68986802AB01F0D5
:1044D00085FC2FE007E02CE017490968886802A9ED
:1044E00001F050FF26E01D49097801EB41011C4A0B
:1044F00002EB810000F006FE0F48006802AB0021CD
:10450000C269184801F06AFC17480068401E164945
:1045100008600846006858B9144800680860FCF74D
:10452000A9FD044602AB22460021114801F056FCC9
:1045300000E000BF00BF3EBD980000205449434B3F
:10454000ADBAB2BE0DF90BFAF2F8F7FF0006F6FFAE
:1045500000F7FDF700FFEFFF03FE0FFEC000002095
:1045600024DD00206CDF00202C0100202801002029
:1045700034E00020002700BF56E0002652E000BFD4
:1045800000BFFBF7F5FD074600BFFCF7E5FC00BFE9
:104590002648008898B900202549088108604860AD
:1045A00000F0BEFB00BFFCF7F1FC00BF3846FBF794
:1045B000E3FD00BF00BFFEF7C7F9012632E000BFF0
:1045C000FCF7E4FC00BF3846FBF7D6FD00BF00BF98
:1045D000FCF750FD0546FFF7FBFEFCF74BFD441BC7
:1045E00014480068A04201D21248046000BF00BF16
:1045F000FBF7BEFD074600BFFCF7AEFC00BF0E4850
:10460000006840680C49086008480088401E074957
:10461000088000BFFCF7BAFC00BF3846FBF7ACFDD2
:1046200000BF00BF002EAAD0A7E700009C0000201A
:1046300024DD0020A400002098000020F0B589B0FF
:1046400005460020314908803148006820B944F20D
:104650005260288009B0F0BD2E480088022803DA95
:1046600044F254602880F5E700202B490860284870
:1046700004682646203600270CE0284820600020E9
:10468000A060E06020826061208366602034203674
:10469000781C87B21F4800888742EEDB203C1C480C
:1046A000066866601E4806601E48066000201E49B7
:1046B00008801E4908801E48006818B944F25560F9
:1046C0002880C7E71B4800681B490968884203D255
:1046D00044F256602880BDE7032000210591CDE912
:1046E0000705069113480068144A1268104B1B68AE
:1046F000CDE90301CDE9013200910B46104A11A129
:104700001748FEF7ABFB00BFA4E70000A0000020A5
:10471000A8A90008ACA90008A40000204E4F4E45EF
:1047200094000020980000209C0000209E000020A3
:10473000B4A90008BCA90008F4A90008B8A9000899
:104740007545000875432F4F532D4949492049535A
:1047500052205175657565205461736B000000002F
:1047600050DC00200021034A1160034A11800180BF
:1047700070470000B0000020B400002070B5014672
:104780001A4D2D681DB945F21E750D8070BD184D6E
:104790002D881DB945F21D750D80F7E7134D28686A
:1047A0002A681032124D2D886D1EACB2002308E02D
:1047B0000260002545600581C560103010325D1C27
:1047C000ABB2A342F4DB0025056045600581C560FE
:1047D000064D2D68074E3560054D2D88B5800025A6
:1047E000F58035810D8000BFD0E70000D8A9000812
:1047F000D0A9000818DD002010B5014648894B8972
:10480000002B17DD0A680C4B1B6813600A4C4B68C1
:1048100023602346DB884C891B1B074CE38023461F
:104820009B884C892344044CA38000234B818B81BB
:104830000B604B6010BD000018DD002001810022DC
:104840004281828102604260704700002DE9F041A0
:104850000D46DDE90674B0F80AC0B0F80880C4451A
:1048600005DB46F2935CA4F800C0BDE8F081DFF8F8
:10487000DCC0BCF804C0BCF1000F04D145F21D7CC3
:10488000A4F800C0F1E7DFF8C4C0DCF80010DFF8DE
:10489000BC80D1F800C0C8F800C0C446BCF804C051
:1048A000ACF1010CA8F804C0C446BCF806C00CF179
:1048B000010CA8F806C0C446BCF808C0B8F80680C9
:1048C000C44507DADFF884C0BCF806C0DFF87C8096
:1048D000A8F808C0B0F80AC0BCF1000F0AD1016006
:1048E00041604FF0010CA0F80AC04FF0000CC1F875
:1048F00000C017E003F0100CBCF1000F07D10668F0
:10490000316001604FF0000CC1F800C004E0D0F845
:1049100004C0C1F800C04160B0F80AC00CF1010C3D
:10492000A0F80AC0B0F80CC0B0F80A80C44503DA99
:10493000B0F80AC0A0F80CC04D600A81CF604FF0FB
:10494000000CA4F800C000BF8FE7000018DD0020B5
:1049500009A1C161002141610849096811B900211B
:10496000816105E005490968816104490968486178
:10497000024908607047000020000000B8000020D5
:104980000021034A1160034A118001807047000032
:10499000B8000020BC0000202DE9F04105460C467F
:1049A00016461F461548006880F8346000201349F9
:1049B000096881F8350039461048006800F032FF78
:1049C0006CB104F10808EC60012229460B4800682C
:1049D00000F016F82946404600F08EF806E0002068
:1049E00006490968C88705490968086303480168DA
:1049F000204600F019F8BDE8F081000030010020E9
:104A000010B5C287016300230AE000244C600C60EB
:104A10000C614C610C83CC61886020315C1CA3B2BA
:104A20009342F2DB10BD000030B548B14568C1F8D3
:104A3000C45000F10804226893681D6AC56113E040
:104A400091F83450022D02D0072D08D103E007A5BC
:104A5000C1F8C45007E007A5C1F8C45003E008A599
:104A6000C1F8C45000BF00BF30BD00005461736B7B
:104A7000205100005461736B2053656D00000000ED
:104A80002000000030B507A5C1F8C45000F10804AB
:104A900022681AB193681D6AC56101E001A5C5616C
:104AA00030BD0000200000002DE9F04304460F4611
:104AB00084F83770256BB4F83E8013E0D5F80C907D
:104AC00009F108063089012807D92946304600F047
:104AD0005EF82946304600F00FF82035A8F10100B5
:104AE0001FFA80F8B8F1000FE8D1BDE8F08300218B
:104AF0000160416001817047F0B58E6896F83750CB
:104B000007893FB90127078100274F600F600160C7
:104B1000416023E007897F1C0781026806E09468F2
:104B200094F83770AF4200DD02E05268002AF6D1F7
:104B300000BF32B900274F6043680B605960416085
:104B40000CE017682FB9116000270F604A60016000
:104B500004E013680B604A6059601160F0BD2DE9F4
:104B6000F0410446256BE68F0AE0D5F80C8008F189
:104B700008072946384600F00AF82035701E86B22C
:104B8000002EF2DC0020E0872063BDE8F08110B544
:104B90000489012C03D100240460446011E00C68F6
:104BA00024B94A680024146002600AE04C6824B901
:104BB0000B6800245C60436003E00B684A685A603D
:104BC00013600489641E048100244C600C6010BDD5
:104BD0002DE9F84306460C4617469846089D94F87A
:104BE0003600082850D2DFE800F00405080906075F
:104BF0002B2C00BF00BF00BF47E000BF94F834007B
:104C0000032807D143463A4621463046009500F036
:104C10003FF803E0E765A4F86080256436B12046DC
:104C2000FFF79DFF21463046FFF72CFF204600F09E
:104C3000FDFF00203434A070607004F8340924E0D3
:104C400000BF94F83400032807D143463A46214672
:104C50003046009500F01CF803E0E765A4F860809A
:104C60002564204601F048FD36B12046FFF777FF66
:104C700021463046FFF706FF04203434A0700020A0
:104C8000607004F8340900E000BF00BFBDE8F8839D
:104C9000F0B50446059E086BCD8F0AE0C768A742B1
:104CA00004D1046142610383C66104E020306F1EB9
:104CB000BDB2002DF2DC00BFF0BD000070B50025D4
:104CC000074C03E005F12000C5B2241D2068002830
:104CD000F8D02068FBF757FA2844C5B2284670BDC3
:104CE00064000020002004E00021034A42F8201064
:104CF000401C0028F8D070476400002030B54209FD
:104D000000F01F030121C3F11F04A140034C54F81C
:104D100022400C43014D45F8224030BD6400002084
:104D200030B5420900F01F030121C3F11F04A14067
:104D3000034C54F822408C43014D45F8224030BDCD
:104D4000640000200021034A1160034A11800180A1
:104D500070470000C4000020C80000202DE9F04F7B
:104D600085B007468A4693461C460020029000BF45
:104D700000BF00BFFBF7FCF9029000BFFCF7ECF8A6
:104D800000BF56480078401C544908700846007817
:104D9000012801D100F08AF900BFFCF7F7F800BF45
:104DA0000298FBF7E9F900BF00BF00BF07F1080652
:104DB000308900284CD104F0100010B94FF00008E1
:104DC00001E04FF01008DDE90E0143465A46CDE9F7
:104DD0000001514607F12000FFF738FD00BF00BF7A
:104DE00000BFFBF7C5F9029000BFFCF7B5F800BFA4
:104DF0003A480078401E3949087008460078D0B912
:104E000000F062F93648008800280BDD00BFFCF78F
:104E1000BDF800BF0298FBF7AFF900BF00BF00F07C
:104E200017F911E000BFFCF7B1F800BF0298FBF7DB
:104E3000A3F900BF08E000BFFCF7A8F800BF029884
:104E4000FBF79AF900BF00BF00BF05B0BDE8F08FC7
:104E500004F4007008B1358900E00125D6F800900F
:104E600011E0D9F808000390D9F8040004900E98D6
:104E70005B465246009038460399FFF7A9FEDDF8DD
:104E80001090681E85B2002DEBD100BF00BF00BF9F
:104E9000FBF76EF9029000BFFCF75EF800BF0F4809
:104EA0000078401E0D4908700846007808B900F0E7
:104EB0000BF900BFFCF76AF800BF0298FBF75CF93A
:104EC00000BF00BF00BF04F4004008B9FDF73CFD7F
:104ED00000210F98018000BFB7E70000D800002034
:104EE0009C00002000210AE001EB4102054B03EB8E
:104EF000820000220281026042604A1CD1B2202955
:104F0000F2D3704724DD002010B5044694F8370032
:104F1000FFF7F4FE94F8370005490978884203D179
:104F2000204600F027F802E0204600F003F810BD0C
:104F3000BE00002010B590F8373003EB43030C4C53
:104F400004EB83010B893BB901230B810023C36070
:104F500003610860486009E00B895B1C0B810B68EA
:104F6000C360002303610A681061086010BD00007F
:104F700024DD002010B590F8373003EB43030B4CD1
:104F800004EB83010B893BB901230B810023C36030
:104F900003610860486008E00B895B1C0B810023FB
:104FA000C3604A680261D060486010BD24DD002003
:104FB00010B501460C8924B1012C03D0022C0CD170
:104FC00001E000BF14E008684A6802610024C46080
:104FD0001461D0600A6048600AE008684A68C368E3
:104FE00000241C61C4600261D0600B60486000BF97
:104FF00000BF10BD2DE9F041054695F8370000EBE4
:105000004000124901EB80042F69EE6887B946B968
:10501000002020812060606095F83700FFF780FE57
:105020000EE02089401E208100203061266007E0CC
:105030002089401E2081FE600EB9676000E0376164
:1050400000202861E860BDE8F081000024DD002038
:1050500010B5002400BFFBF78BF8044600BF00200A
:105060000D4908700D480E49086008460068D0F8E0
:105070009000401C0968C1F890000A480068401C74
:10508000084908604FF080500749086000BF20467B
:10509000FBF772F800BF10BDBF00002050DC0020FD
:1050A000340100200401002004ED00E010B50448A4
:1050B0000078012803D1FBF7DDFF0249086010BD2D
:1050C000D8000020CC00002010B50A48007880B934
:1050D000FBF7D0FF08490968441A08480068A04255
:1050E00001D20648046006480068A04201D2044884
:1050F000046010BDD8000020CC000020D0000020AB
:10510000D400002070B505460026354800780128F7
:1051100000D070BD00BF00BFFBF72AF8064600BFF5
:10512000FBF71AFF00BF2C684CB900BFFBF72EFF3E
:1051300000BF3046FBF720F800BF00BFE9E7294871
:10514000844209D100BFFBF721FF00BF3046FBF7C7
:1051500013F800BF00BFDCE7A06D10B1A06D401ECA
:10516000A065A06D48B100BFFBF710FF00BF30463F
:10517000FBF702F800BF00BFCBE72889022809DA55
:1051800000BFFBF703FF00BF3046FAF7F5FF00BF93
:1051900000BFBEE714480078002809DD00BFFBF718
:1051A000F5FE00BF3046FAF7E7FF00BF00BFB0E7EB
:1051B0002846FFF7FDFE2C68606D18B90B480068A3
:1051C000A06501E0606DA06500BFFBF7DFFE00BFDA
:1051D0003046FAF7D1FF00BF00BF00BF99E70000DB
:1051E000E000002088DB0020D8000020DC00002048
:1051F0000021034A1160034A1180018070470000BA
:10520000E4000020E80000202DE9FF5F0446884606
:1052100091461D460020019000BF00BFFAF7A8FF8D
:10522000019000BFFBF798FE00BF04F10807388922
:10523000002857D10420012804D0022816D00428C1
:105240003AD127E0206AFF280FD100BFFBF79EFE6E
:1052500000BF0198FAF790FF00BF00BF46F6C550A7
:105260002880002004B0BDE8F09F26E04FF6FF71D3
:10527000206A88420DD100BFFBF788FE00BF01986D
:10528000FAF77AFF00BF00BF46F6C550288000201D
:10529000E8E712E0206A401C68B900BFFBF776FE21
:1052A00000BF0198FAF768FF00BF00BF46F6C5507F
:1052B00028800020D6E700E000BF00BF206A401C25
:1052C0002062D4F820A0C4F8249000BFFBF75EFE53
:1052D00000BF0198FAF750FF00BF00BF00202880F0
:1052E0005046BFE700BF2D480078401C2B4908708E
:1052F00008460078012801D1FFF7D8FE00BFFBF770
:1053000045FE00BF0198FAF737FF00BF00BF00BF9E
:1053100008F4007008B13E8900E00126D7F800B01B
:1053200011E0DBF808000290DBF804000390002392
:105330001A46CDF8009020460299FFF749FCDDF8A7
:105340000CB0701E86B2002EEBD1D4F820A000BFA6
:1053500000BF00BFFAF70CFF019000BFFBF7FCFD98
:1053600000BF0E480078401E0C49087008460078BF
:1053700008B9FFF7A9FE00BFFBF708FE00BF0198C0
:10538000FAF7FAFE00BF00BF00BF08F4004008B9FA
:10539000FDF7DAFA00202880504663E7D8000020A5
:1053A00086B00020009000BF06E0D9490968480097
:1053B00001AA0021FEF7BAFAD64800780128F4D1F4
:1053C00001A8FDF70DFC0027D3480068D049096803
:1053D000884205D9D0480068CD490968B0FBF1F78B
:1053E00027B9CD4800680A21B0FBF1F78EE1FBF741
:1053F00041FE8246FBF79AFDC849086000BF00BF26
:10540000FAF7B6FE009000BFFBF7A6FD00BFC44848
:105410000068C44908600020C149086000BFFBF76C
:10542000B5FD00BF0098FAF7A7FE00BF00BFBE4859
:105430000068BC490968884248D9BB480068BB4934
:10544000884205D242F2107003900120029023E0BE
:10545000B5480068B649884205D24FF47A70039087
:105460000A20029018E0B0480068B249884203D28E
:105470006420039002900FE0AB480068AE49884278
:1054800005D20A2003904FF47A70029004E00120C4
:10549000039042F210700290A34801680298B1FB99
:1054A000F0F9A049039809684843B0FBF9F042F2CB
:1054B0001071081AA1490880A1480088098888420B
:1054C00008DA9E4800889E49088003E042F2107086
:1054D0009A490880FDF7B8FC002500BF00BFFAF725
:1054E00047FE009000BFFBF737FD00BF95480468FA
:1054F00000BFFBF74BFD00BF0098FAF73DFE00BF71
:1055000000BF72E000BF00BF00BFFAF731FE00909D
:1055100000BFFBF721FD00BF8B480078401C8A4983
:10552000087008460078012801D1FFF7BFFD00BFD1
:10553000FBF72CFD00BF0098FAF71EFE00BF00BF6E
:1055400000BF54F89C0F6060002044F89C0900BF25
:1055500000BF00BFFAF70CFE009000BFFBF7FCFC99
:1055600000BF79480078401E7749087008460078E7
:10557000D0B9FFF7A9FD7548008800280BDD00BFF2
:10558000FBF704FD00BF0098FAF7F6FD00BF00BF6F
:10559000FFF75EFD11E000BFFBF7F8FC00BF0098CD
:1055A000FAF7EAFD00BF08E000BFFBF7EFFC00BF21
:1055B0000098FAF7E1FD00BF00BF00BFD4F8A000DB
:1055C000054400BF00BFFAF7D3FD009000BFFBF712
:1055D000C3FC00BFD4F8C04000BFFBF7D7FC00BF3E
:1055E0000098FAF7C9FD00BF00BF002C8AD145B36F
:1055F0004E48854205D242F2107005904FF0010BE3
:105600001BE04B48854205D24FF47A7005904FF06D
:105610000A0B12E04748854203D264200590834676
:105620000BE04548854204D20A2005904FF47A7B6E
:1056300003E00120059042F2107BB5FBFBF00490E3
:1056400003E0002005900120049000BF00BFFAF79E
:105650008FFD009000BFFBF77FFC00BF3948046856
:1056600000BFFBF793FC00BF0098FAF785FD00BF71
:1056700000BF2FE0D4F8A000059948430499B0FB7F
:10568000F1F086B242F21070864200D90646A4F8C4
:105690008C60B4F88E00B04201DAA4F88E6001ABE1
:1056A00004F1AC02111D2046FDF7ECFF00BF00BF66
:1056B000FAF75EFD009000BFFBF74EFC00BFD4F888
:1056C000C04000BFFBF762FC00BF0098FAF754FD32
:1056D00000BF00BF002CCDD11D480078012805D1A6
:1056E00000201B49087001A8FDF77AFAFBF7C2FCFD
:1056F000A0EB0A0817480068404502D21548C0F8D8
:10570000008001AA00213846FEF710F96FE600007C
:10571000E0A90008FC000020F8A900088C00002087
:10572000F0000020F8000020F4000020801A06009D
:1057300000093D00005A62020084D717EC000020E7
:10574000EE00002008010020D80000209C0000206E
:10575000EA0000200001002010B58AB004460020B5
:105760001F4908601F4908601F4908601F490870E9
:105770001F4908701F48006820B946F62B6020803A
:105780000AB010BD1C4800681C490968884203D251
:1057900046F62C602080F3E7194800781F2803D3D1
:1057A00046F62A602080EBE7032000210591CDE931
:1057B00007040691084610490968124A12680D4B01
:1057C0001B68CDE90132CDE903100D4800780023B4
:1057D0000D4A0EA100901248FDF740FB00BFCFE735
:1057E000F0000020F8000020F4000020FC00002061
:1057F000EA000020E4A90008ECA90008F4A90008C8
:10580000DCA90008E8A90008A153000875432F4F40
:10581000532D4949492053746174205461736B00BE
:10582000A4DE002038B504460D4685B16B46022241
:105830002946204600F082FEBDF8000018B903207A
:1058400084F8360006E0022084F8360002E00220E8
:1058500084F836002046FFF7CDFB38BD0021C0F8A4
:10586000BC100949096819B90021C0F8C01007E047
:1058700005490968C0F8C01003490968C1F8BC00AF
:10588000014908607047000008010020D0F8BC20E2
:10589000D0F8C0104AB90D4B196011B10023C1F8FE
:1058A000BC300023C0F8C0300FE029B90023C2F893
:1058B000C030C0F8BC3008E0C2F8C010C1F8BC204D
:1058C0000023C0F8C030C0F8BC3070470801002089
:1058D0000021044A1160044A1180044A11600180C9
:1058E00070470000080100200C0100200401002086
:1058F00070B5044600202060A0606060E060206118
:105900006061A061E0612BA0206200206062A06263
:10591000E0622063E0872064E065A4F86000002175
:1059200004F16400FEF78AFF002044F8740F606001
:10593000E060A0822061743C002506E0002104F1B3
:105940007C0040F82510681CC5B2002DF6D0002060
:105950003434206120676067606084F85600E06737
:10596000A06720814FF0004060610020A061E061ED
:1059700020626062A4F85800A4F85A00E06520662E
:10598000FBF778FB064666660020A066C4F8800038
:10599000C4F8840020706070A0702020E0700020A7
:1059A000C4F88800C4F88C0004A0C4F89000343C0B
:1059B00070BD00003F5461736B00000020000000C8
:1059C0002DE9FC4704460F4690469946DDE90A65F5
:1059D0004FF0000A00BF00BF00BFFAF7C9FB8246C4
:1059E00000BFFBF7B9FA00BF8D480078401C8C4916
:1059F000087008460078012801D1FFF757FB00BF67
:105A0000FBF7C4FA00BF5046FAF7B6FB00BF00BF71
:105A100000BF0CB9834804680020288094F8360041
:105A200008287CD2DFE800F00405484906074A4B05
:105A300000BF00BF00BF4B464246394604F1640038
:105A4000CDE90065FEF702FF00BF00BF00BFFAF717
:105A50008FFB824600BFFBF77FFA00BF70480078DB
:105A6000401E6F49087008460078D0B9FFF72CFB3C
:105A70006D48008800280BDD00BFFBF787FA00BFE8
:105A80005046FAF779FB00BF00BFFFF7E1FA11E0DB
:105A900000BFFBF77BFA00BF5046FAF76DFB00BF73
:105AA00008E000BFFBF772FA00BF5046FAF764FB4C
:105AB00000BF00BF00BFAFE000BF00BF00BF94F851
:105AC000340002282CD143463A4621460020009655
:105AD000FFF77EF800BF00BF00BFFAF749FB824620
