:020000040800F2
:10000000C8E70020450100086F1900081D17000807
:10001000AD180008290E0008E17200080000000079
:10002000000000000000000000000000296C000833
:10003000C91300080000000093080008213A0008D6
:100040005F0100085F0100085F0100085F01000810
:100050005F0100085F0100085F0100085F01000800
:100060005F0100085F0100085F0100085F010008F0
:100070005F0100085F0100085F0100085F010008E0
:100080005F0100085F0100085F0100085F010008D0
:100090005F0100085F0100085F0100085F010008C0
:1000A0005F0100085F0100085F0100085F010008B0
:1000B0005F0100085F0100085F0100085F010008A0
:1000C0005F0100085F0100085F0100085F01000890
:1000D0005F010008756D00085F0100085F010008FE
:1000E0005F0100085F0100085F0100085F01000870
:1000F0005F0100085F0100085F0100085F01000860
:100100005F0100085F0100085F0100085F0100084F
:100110005F0100085F0100085F0100085F0100083F
:100120005F0100085F0100085F0100085F0100082F
:10013000DFF80CD000F05EFB00480047B97E0008F5
:10014000C8E700200648804706480047FEE7FEE76C
:10015000FEE7FEE7FEE7FEE7FEE7FEE7FEE7FEE777
:10016000156D00083101000872B6704762B670471D
:10017000EFF3108072B6704780F31088704730BF7D
:10018000704720BF7047B0FA80F0704790FAA0F037
:10019000B0FA80F0704790FAA0F0704740EA01038F
:1001A0009B0703D009E008C9121F08C0042AFAD22D
:1001B00003E011F8013B00F8013B521EF9D27047F1
:1001C000D2B201E000F8012B491EFBD27047002299
:1001D000F6E710B513460A4604461946FFF7F0FF46
:1001E000204610BD421E12F8013F002BFBD111F832
:1001F000013B02F8013B002BF9D17047CAB2401E07
:1002000010F8011F8A4202D00029F9D1002070475E
:10021000421C10F8011B0029FBD1801A70470346CD
:1002200011F8012B00F8012B002AF9D1184670476C
:100230002DE9FE4F804681EA0300C00F0C46009076
:1002400021F0004123F00045B8EB0200A94105D29E
:100250004046214690461C460B46024623F000408D
:10026000104347D0270DC7F30A00C3F30A51029089
:10027000401A019040286BDAC3F3130040F4801B4E
:100280000098924620B10023D2EB030A63EB0B0BDC
:1002900001985946C0F14002504600F096F90646D2
:1002A0000D4650465946019A00F0AEF910EB080091
:1002B0006141002487EA115284EAE7731A4340D06F
:1002C000009A62B3019A012A4FEA075215DC001B1B
:1002D00061EB02014FF0004202EA0752CDE9004211
:1002E000001C41F5801132462B4600F0AEF903B0F8
:1002F000BDE8F08F40462146F9E7001B61EB0201A3
:10030000001C41F5801300185B412018A2F500176E
:1003100047EB030140EAD570B6196D4111E06D0855
:100320004FEA360645EAC0754FEA0752001B61EBFB
:100330000201001C41F5801149084FEA3000001904
:10034000514132462B4603B0BDE8F04F00F06EB984
:100350000098012240000023D0EB020263EBE0731F
:10036000009821464FEAE074B8EB000061EB04010D
:10037000E9E783F000435BE781F0004158E72DE9AE
:10038000FE4F81EA030404F0004421F00041009490
:100390004FF0000B23F0004350EA01045ED052EA14
:1003A00003045BD0C3F30A54C1F30A552C44A4F2EE
:1003B000F3340194A0FB0254C1F3130141F4801102
:1003C000C3F3130343F4801301FB024400FB034E09
:1003D000840A970A44EA815447EA8357A4FB0768D2
:1003E00002958D0A05FB07854FEA932C04FB0C54FC
:1003F0002705029D4FEA065847EA1637B5EB080570
:100400006EEB070C870E920E47EA811742EA8312C1
:10041000A7FB0201B6EB0B0164EB00042B0D43EAD2
:100420000C335E1844EB1C50DA465146E7FB0201E0
:10043000C5F313044FEA0B3343EA14534FEA043273
:10044000019C43EA0603A4F10C040294009CCDE94C
:1004500000B400F0FAF803B0BDE8F08F00200146C8
:10046000F9E70EB5C10F80EAE0700844CA07002121
:1004700040F233438DE80E000A460B4600F0E5F8E3
:1004800003B000BD0EB540F2334102910021CDE929
:1004900000110A460B4600F0D8F803B000BD70B555
:1004A000C1F30A5201F000450024C1F3130140F2E8
:1004B000FF3341F480119A4201DA002070BD40F20E
:1004C00033439A42A2F2334203DC524200F08CF8EA
:1004D00000E090402C43F1D0404270BD30B5041E86
:1004E00071F1000404DB4FF00044404264EB010171
:1004F000141E73F1000405DB1C464FF0004352420A
:1005000063EB04038B4208BF824230BD30B5041E4A
:1005100071F1000404DB4FF00044404264EB010140
:10052000141E73F1000405DB1C464FF000435242D9
:1005300063EB0403994208BF904230BD30B50B46CF
:10054000014600202022012409E021FA02F59D4203
:1005500005D303FA02F5491B04FA02F52844151ED7
:10056000A2F10102F1DC30BD2DE9F05F054600206B
:1005700092469B4688460646814640241BE0284614
:1005800041464746224600F02FF853465A46C01AC5
:10059000914110D311461846224600F016F82D1A44
:1005A00067EB01084F4622460120002100F00DF8BC
:1005B00017EB00094E41201EA4F10104DFDC484680
:1005C00031462A464346BDE8F09F202A04DB203A04
:1005D00000FA02F1002070479140C2F1200320FA96
:1005E00003F3194390407047202A04DB203A21FA94
:1005F00002F00021704721FA02F3D040C2F120023C
:100600009140084319467047202A06DBCB17203A51
:1006100041FA02F043EAE07306E041FA02F3D04007
:10062000C2F12002914008431946704710B5141ECC
:1006300073F1000408DA401C41F1000192185B419B
:100640001A4301D120F0010010BD2DE9F04D924672
:100650009B4611B1B1FA81F202E0B0FA80F2203289
:100660009046FFF7B2FF04460F4640EA0A0041EA0F
:100670000B0153465A46084313D0114653EA010072
:1006800019D0C8F140025046FFF7AEFF05460E46AE
:10069000504659464246FFF798FF084305D00120CF
:1006A00004E020463946BDE8F08D0020054346EAC7
:1006B000E0762C4337430A986305E40AA0EB080070
:1006C0000022FD0A44EA47540A3002D500200146C0
:1006D000E9E7010510196941DDE90845001969419B
:1006E000BDE8F04DA2E72DE9F04D81EA030404F0E6
:1006F000004B21F0004514464FF0000A23F0004162
:1007000050EA050220D054EA01021DD0C5F30A5771
:100710000246C5F31303C1F31300C1F30A5640F4B4
:10072000801543F48013A7EB0608101BD64608F289
:10073000FD3873EB050002D308F1010801E09218BF
:100740005B41B8F1000F03DA00200146BDE8F08DEF
:1007500000204FF48011064684460EE0171B73EB11
:10076000050705D3121B63EB050306434CEA010C96
:1007700049084FEA300092185B4150EA0107EDD179
:1007800052EA030012D082EA040083EA050108431A
:1007900005D0101BAB4106D20122002306E0002247
:1007A0004FF0004302E06FF0010253101AEB060015
:1007B0004CEB085110EB0A0041EB0B01BDE8F04D8A
:1007C000FFF734BFC1F30A52C1F3130140F2FF3304
:1007D00041F480119A4202DA00200146704740F24B
:1007E00033439A42A2F2334202DC5242FFF7FCBE8C
:1007F000FFF7EBBE064C074D06E0E06840F0010352
:1008000094E8070098471034AC42F6D3FFF794FC05
:10081000DC890008FC89000870B58C1810F8015BB1
:1008200015F0070301D110F8013B2A1106D110F889
:10083000012B03E010F8016B01F8016B5B1EF9D18D
:100840002B0705D40023521E0DD401F8013BFAE713
:1008500010F8013BCB1A921C03E013F8015B01F87E
:10086000015B521EF9D5A142D8D3002070BD000013
:1008700018484FF0FF010170002080F309881648E6
:10088000016881F3088815484FF08051016062B615
:10089000FEE772B6EFF3098028B1203880E8F00F48
:1008A0000F490968086000B50E4880475DF804EB01
:1008B0000D480E490A78027009480D490A6802601D
:1008C000106890E8F00F203080F309884EF0040E95
:1008D00062B6704722ED00E03C01002004ED00E02C
:1008E00034010020D5370008C2000020C3000020DA
:1008F0003801002098B000260124502102A8FFF7FB
:1009000066FC0025D9E03F2C00DD002417A8002359
:100910001A4619460090694801F0ACFB204600F0E9
:1009200079FD6749087017AA0021644801F036FD77
:10093000AD200290DA20039002200490059420203C
:10094000069003200790062102A806F087FA17A850
:10095000002316AA1946009041F2883002F05EFB8F
:10096000054600BF00BF00BFFFF702FC064600BF00
:1009700000F0F6FA00BF53480078401C5149087057
:1009800008460078012801D104F068FA00BF00F0A1
:1009900001FB00BF3046FFF7EFFB00BF00BF00BF09
:1009A000E868A04201D1012000E00020464908701B
:1009B0004348007820B30846007880B117A8002388
:1009C0001A46194600903D4801F054FB284606F0AF
:1009D000BFFB17AA0021394801F0E0FC23E017A86B
:1009E00000231A4619460090344801F043FB204684
:1009F00000F0ECFC17AA0021304801F0CFFC12E017
:100A00003148007878B117A800231A46194600909B
:100A10002A4801F02FFB284600F082FE17AA002189
:100A2000264801F0BBFC17AA2946284801F070FAB5
:100A30008021274800F08BFD20B18021244800F060
:100A40008FFD03E08021224800F08CFD00BF00BF35
:100A500000BFFFF78DFB064600BF00F081FA00BF24
:100A600018480078401E1749087008460078D0B929
:100A700004F002FA1748008800280BDD00BF00F0E0
:100A800089FA00BF3046FFF777FB00BF00BF04F0D4
:100A9000B7F911E000BF00F07DFA00BF3046FFF764
:100AA0006BFB00BF08E000BF00F074FA00BF3046E7
:100AB000FFF762FB00BF00BF00BF24E7600100201A
:100AC00024000020DC00002025000020B4010020CC
:100AD000001C0140A00000200EB50024002583E08A
:100AE00002A8002301AA19460090184602F096FABF
:100AF000044600BF00BF00BFFFF73AFB054600BF3A
:100B000000F02EFA00BF39480078401C37490870C1
:100B100008460078012801D104F0A0F900BF00F0D8
:100B200039FA00BF2846FFF727FB00BF00BF00BF10
:100B300002A800231A46194600902D4801F09AFA9F
:100B4000BDF80410204606F089F90121294800F07B
:100B5000FEFC20B10121274800F002FD03E0012145
:100B6000244800F0FFFC02AA0021214801F016FCF5
:100B700002AA2146204801F0CBF900BF00BF00BF08
:100B8000FFF7F6FA054600BF00F0EAF900BF174884
:100B90000078401E1549087008460078D0B904F066
:100BA0006BF91648008800280BDD00BF00F0F2F951
:100BB00000BF2846FFF7E0FA00BF00BF04F020F9AD
:100BC00011E000BF00F0E6F900BF2846FFF7D4FAB5
:100BD00000BF08E000BF00F0DDF900BF2846FFF7C6
:100BE000CBFA00BF00BF00BF7AE70000DC000020A6
:100BF00060010020000C0140B4010020A000002092
:100C000070B58AB0064600F001F900F00FF900F067
:100C1000F5F804462B480068B4FBF0F5284602F0CE
:100C20001FFF00F04FFE09A801F008FF00F06CF96B
:100C300009AA0021012001F093FD09AA22A124485C
:100C400001F0A4F909A864210323224ACDE9001088
:100C500021A1254801F078F809A803210022059276
:100C6000CDE90621089032204FF4007133221F4B4A
:100C7000CDE90132CDE90310032000231C4A1DA158
:100C80000090224801F064FF09A803210022059288
:100C9000CDE90621089032204FF4007133221C4B1D
:100CA000CDE90132CDE9031003200023194A1AA12E
:100CB00000901D4801F04CFF09A9002002F09EF8A9
:100CC0000AB070BD2C8800084C69737400000000E5
:100CD00060010020D40100204D656D20466F722018
:100CE0005465737400000000B40100206C070020FC
:100CF000F50800084170705F5461736B5F4368656D
:100D0000636B5F446576696365000000DC03002067
:100D10006C0F0020D90A0008417070205461736B79
:100D20002050656E64000000A404002070B586B0F9
:100D300006460D460024287B8DF80400287D8DF89A
:100D4000060000208DF8050000BF1AE06100E86988
:100D5000C84000F00200022801D1102100E000216B
:100D60000DF1070001556100E869C84000F001007D
:100D700008B1102100E000210DF10D000155601CAB
:100D8000C4B2042CE2DB00241CE06100A869C84066
:100D900000F00200022801D1102200E00022201DF4
:100DA0000DF107010A546100A869C84000F0010074
:100DB00008B1102200E00022201D0DF10D010A549F
:100DC000601CC4B2022CE0DB00240EE06100286A43
:100DD000C84000F00200022801D1102100E00021EB
:100DE0000DF113000155601CC4B2042CEEDB13227C
:100DF00001A93046FFF7D2F906B070BD00B585B045
:100E0000684605F0A7FE019805B000BD10B500F0DA
:100E100003FD00F035FD06F02BF900F0EBFD014974
:100E2000086010BD2000002000BFFEE710B500F0F4
:100E3000FBF800F003F800F0F3F810BD70B50026E1
:100E40000020184908801849088018490860184986
:100E500008601849086018490860184908600024AB
:100E600000BFFFF785F9064600BF00250BE0002014
:100E70001049086000F074F800F08CF80D48006824
:100E80000444681C85B2002DF1D00C480460002099
:100E9000084908600849086000BF3046FFF76CF950
:100EA00000BF70BD4C0000204E000020500000200C
:100EB000540000205C00002060000020580000204A
:100EC00001460846044A1268904203D9024A126851
:100ED000801A00E0002070475800002070B50025FF
:100EE00000BFFFF745F9054600BF0648046800BF8C
:100EF0002846FFF741F900BF2046FFF7E1FF06460D
:100F0000304670BD5C00002070B50025FFF7E6FF9D
:100F1000044600BFFFF72CF9054600BF0020044936
:100F2000086000BF2846FFF727F900BF204670BDC4
:100F30005C00002070B5002500BFFFF719F90546D9
:100F400000BF0648046800BF2846FFF715F900BF38
:100F50002046FFF7B5FF0646304670BD6000002012
:100F600010B509480088401C0749088007480088D8
:100F700018B900F083F80649086004480088401C4E
:100F80000249088010BD00004C0000204E000020E7
:100F90005000002010B50F480088401E0D49088001
:100FA00008460088A0B900F069F80B4908600846B7
:100FB00000680A490968441A09480068A04201D239
:100FC0000748046007480068A04201D20548046051
:100FD00010BD00004E0000205400002050000020F2
:100FE0005C0000206000002010B5002400BF00BF9E
:100FF000FFF7BEF8044600BFFFF7B2FF00BF1021A5
:10100000064800F055FC00BFFFF7C4FF00BF2046B4
:10101000FFF7B2F800BF00BF10BD00006C5B0020FE
:1010200010B5FFF7E1FF10BD10B5002002490860C0
:1010300000F00AF810BD00004800002001490860D7
:10104000704700004800002010B50A48006840F0D2
:101050008070084908600020074948600846006819
:1010600040F001000860FFF7C9FE04462046FFF784
:10107000E5FF10BDFCED00E0001000E00148406815
:1010800070470000001000E02DE9F04FE7B0054682
:101090000E4691461C46DDF8C0A1C82133A8FFF7D3
:1010A00096F8C82101A8FFF792F833AB4A463146BB
:1010B000284600F059FA01AA5146204600F0C6FA27
:1010C00006F0D2FD669020A006F0D7FD07463A460E
:1010D0001FA1669806F09EFD1EA006F0CEFD0746F5
:1010E0003A461EA1669806F095FD7198FFF7CAF979
:1010F000074606F0A7FD83465A461AA1669806F0F1
:1011000089FD33A806F0B9FD07463A4617A166984F
:1011100006F080FD01A806F0B0FD07463A4614A18E
:10112000669806F077FD669806F0EEFD6590669885
:1011300006F0B2FD10A0659906F0D4F8659806F0A7
:10114000ABFF67B0BDE8F08F6A6F696E000000000A
:10115000636D640070657266653100006D6F646573
:101160006C0000006164647200000000696F0000A0
:1011700072656C617900000025730A002DE9F04763
:10118000044606F071FD814616A006F076FD054680
:101190002A4616A1484606F03DFD15A006F06DFD55
:1011A00005462A4614A1484606F034FD2046FFF7BE
:1011B00069F9064606F046FD05462A4610A148464E
:1011C00006F028FD484606F09FFD8046484606F09A
:1011D00063FD41460CA006F085F8404606F05CFF32
:1011E000BDE8F0876F66666C696E6500636D6400CC
:1011F00070657266653100006D6F64656C0000009B
:10120000616464720000000025730A002DE9F04F4C
:10121000E7B005460E4691461C46DDF8C0A1C82140
:1012200033A8FEF7D4FFC82101A8FEF7D0FF33ABE7
:101230004A463146284600F097F901AA5146204611
:1012400000F004FA06F010FD669020A006F015FDEF
:1012500007463A461FA1669806F0DCFC1EA006F081
:101260000CFD07463A461EA1669806F0D3FC71981D
:10127000FFF708F9074606F0E5FC83465A461AA12F
:10128000669806F0C7FC33A806F0F7FC07463A4616
:1012900017A1669806F0BEFC01A806F0EEFC074612
:1012A0003A4614A1669806F0B5FC669806F02CFD47
:1012B0006590669806F0F0FC10A0659906F012F8AB
:1012C000659806F0E9FE67B0BDE8F08F7265706F53
:1012D00072740000636D64007065726665310000B1
:1012E0006D6F64656C000000616464720000000052
:1012F000696F000072656C617900000025730A0057
:101300002DE9F04FB3B005460E4691461C46C82164
:101310006846FEF75CFF6B464A463146284600F0B9
:1013200023F906F0A1FC32901BA006F0A6FC0746AC
:101330003A461CA1329806F06DFC1BA006F09DFCFD
:1013400007463A461AA1329806F064FC2046FFF799
:1013500099F8074606F076FC8246524616A1329866
:1013600006F058FC684606F088FC07463A4614A189
:10137000329806F04FFC329806F0C6FC834632984D
:1013800006F08AFC59460FA005F0ACFF584606F05F
:1013900083FE33B0BDE8F08F646973636F76657266
:1013A00079000000636D640070657266653100004D
:1013B0006D6F64656C000000616464720000000081
:1013C000696F000025730A007047000070B506467B
:1013D0000F48006844690E48056815E02078B0425F
:1013E00010D16078032809DD60696861204606F045
:1013F0003BFD6C693046FFF7C1FE02E06078401C9F
:10140000607003E025466469002CE7D100BF70BD21
:1014100020000020024607480068416905E008787E
:10142000904201D10120704749690029F7D100207D
:10143000F9E70000200000202DE9F04102460025D8
:101440000026002000230024002791F803C00CF0A0
:101450000F0591F803C00CF0100CBCF1000F03D085
:1014600091F802C04CEA050591F800C0BCF1000FEC
:1014700031D0146800202BE04FF0010C0CFA00F37F
:10148000B1F800C00CEA03069E4220D183004FF061
:101490000F0C0CFA03F7BC4305FA03FC4CEA0404F6
:1014A00091F803C0BCF1280F06D14FF0010C0CFAE3
:1014B00000FCC2F814C00AE091F803C0BCF1480F68
:1014C00005D14FF0010C0CFA00FCC2F810C0401C12
:1014D0000828D1D31460B1F800C0BCF1FF0F34DD8F
:1014E000546800202EE000F1080C4FF0010808FAC3
:1014F0000CF3B1F800C00CEA03069E4221D1830030
:101500004FF00F0C0CFA03F7BC4305FA03FC4CEA4E
:10151000040491F803C0BCF1280F05D100F1080CB8
:1015200008FA0CF8C2F8148091F803C0BCF1480F17
:1015300007D100F1080C4FF0010808FA0CF8C2F8C6
:101540001080401C0828CED35460BDE8F0810246CC
:101550000020D3680B400BB1012000E00020704751
:1015600041617047016170472DE9F0478046894627
:1015700016461F460024A24600250A2006F0CCFC91
:1015800082460A2006F0C8FC054624A00088388060
:1015900000BF31E018F8042021A1504605F0B2FE4A
:1015A00019F8040028B121A001682960406868602A
:1015B00006E020A0016829604168696000892881EF
:1015C0001EA13846FEF70EFE51463846FEF70AFECB
:1015D0001BA13846FEF706FE29463846FEF702FEF6
:1015E00016A13846FEF7FEFD601CC4B2B44203DA11
:1015F00014A13846FEF7F6FDB442CBDB504606F0A8
:1016000033FC284606F030FC4FF0000A00250EA1FE
:101610003846FEF7E7FDBDE8F08700007B000000DC
:101620006368616E6E656C5F25640000707265733F
:1016300073000000756E7072657373002200000005
:10164000223A22002C0000007D0000002DE9F04726
:1016500080460E4617460024A14600250A2006F0C3
:101660005BFC81460A2006F057FC054621A0008855
:10167000388000BF2CE022461FA1484605F042FEFC
:1016800018F8040028B11FA0018829808078A8706C
:1016900002E01DA0006828601CA13846FEF7A2FDEC
:1016A00049463846FEF79EFD19A13846FEF79AFDD9
:1016B00029463846FEF796FD14A13846FEF792FDFE
:1016C000601CC4B2B44203DA12A13846FEF78AFDA8
:1016D000B442D0DB484606F0C7FB284606F0C4FB00
:1016E0004FF0000900250CA13846FEF77BFDBDE850
:1016F000F08700007B0000006368616E6E656C5FC0
:10170000256400006F6E00006F6666002200000016
:10171000223A22002C0000007D00000000BFFEE7FE
:101720002DE9F0438BB0814600240026002009906B
:101730000A9007900890069023480068476922485D
:10174000D0F80080182006F0E7FB0546494601A8BE
:10175000FFF7ECFA132201A92846FEF71FFD01E06E
:10176000B8467F69002FFBD1D8F814006861C8F82B
:10177000145000240DE0E81C005D40B109A8845518
:1017800005F10900005D07A98855701CC6B2601CF0
:10179000C4B2062CEFDB002406E005F10F00005D6B
:1017A00006A90855601CC4B2A878A042F5DC2878C8
:1017B000A97806AB3246CDE9001007A909A8FFF7C2
:1017C00063FC0BB0BDE8F0832000002008B50121C8
:1017D000042005F0AFF90120ADF8000028208DF8B5
:1017E000030069460148FFF727FE08BD00080140D5
:1017F00008B50121102005F09DF94FF40050ADF817
:10180000000028208DF8030069460248FFF714FE07
:1018100008BD00000010014010B5FFF7D7FFFFF72B
:10182000E7FF10BD08B50121082005F083F901206C
:10183000ADF8000010208DF8030003208DF80200A1
:1018400069460D48FFF7F8FD0121802005F072F987
:101850008020ADF8000069460848FFF7EDFD012142
:10186000802005F067F94FF48070ADF800006946FC
:101870000248FFF7E1FD08BD000C0140001C0140DB
:1018800010B5FFF7CFFF01210648FFF76BFE80215F
:101890000548FFF767FE4FF480710348FFF762FECB
:1018A00010BD0000000C0140001C014000BFFEE71D
:1018B00030B505460C4622460021284600F026F8A1
:1018C00030BD00000D480E49016001464160002115
:1018D0008160C160016141618161C1610162016337
:1018E000C162416207498163C1634FF4D841016419
:1018F00041640146044A1160704700007C5B00208F
:1019000048454150C45B0020640000202DE9F041AF
:1019100003460C4617460FB9BDE8F08103B9FBE753
:101920000025002202E02D022543521C042AFAD38E
:10193000384603F0030C1946BCF1000F08D062468C
:1019400003E001F8014B401E521C08B1042AF8D3F1
:101950000E4601E020C6001F0428FBD2314602E0FB
:1019600001F8014B401E0028FAD100BFD4E77047B0
:1019700070B5002100230F22C47804B3154C2468ED
:1019800004F4E064C4F5E064210AC1F10403CA4030
:10199000447804FA03F184781440214309010E4C81
:1019A0000678A155047804F01F050124AC400578A1
:1019B0006D11AD0005F1E025C5F8004109E004789E
:1019C00004F01F050124AC40044D0678761145F85B
:1019D000264070BD0CED00E000E400E080E100E096
:1019E00002490143024A1160704700000000FA05F5
:1019F0000CED00E010B5182006F08EFA14490860CE
:101A00000846006820B913A005F06CFC002010BD4A
:101A100000200F49096808700D49096848700C4991
:101A2000096888700A480068002140F8031F818017
:101A30000748006840F8091F818005480068C0F821
:101A40000F10002002490968486101480068DEE77C
:101A50002000002066616C73653100007047000053
:101A600010B50348006810B101480068804710BDF8
:101A70007800002070B5044600F0C2F80020484904
:101A80000870484908704849087048490860484942
:101A90000860484908704849087048490870484932
:101AA0000860484908604849086048490870484843
:101AB00000680A21B0FBF1F046490860464800681A
:101AC00058B14648056845B14348066803E0761EAC
:101AD000002028602D1D002EF9D10020404908600B
:101AE0004049086040490860404908604049086032
:101AF00040490860404908604049087002F0CAFF48
:101B000003F0C8F8204602F09DF8208800B170BDAF
:101B1000204602F0CBFC208800B1F8E7204602F016
:101B2000D1FC208800B1F2E7204602F001FE2088B7
:101B300000B1ECE7204602F0DDFF208800B1E6E7C7
:101B4000204603F02DFA208800B1E0E7204603F09C
:101B500097FD208800B1DAE7204602F0FFFB2088DD
:101B600000B1D4E7204602F009FA208800B1CEE7A0
:101B7000204604F0EDFD208800B1C8E7204603F0C0
:101B8000C3FC208800B1C2E7204604F03DFE208857
:101B900000B1BCE701F07CFFFFF760FF00BFB6E7D4
:101BA0008C00002094000020DC0000203401002084
:101BB00038010020C2000020C3000020C400002023
:101BC000D0000020D4000020D8000020E400002035
:101BD0002C880008E0000020FC870008F887000837
:101BE0006C000020700000207400002078000020AD
:101BF0007C000020800000208400002012010020D2
:101C00000A4A1168002002E0002204C1401C084A70
:101C100012689042F8D3054A1268054B1B6802EB24
:101C20008302121F034B1A6070470000F8870008F8
:101C3000FC8700083C01002008480078012800D0FB
:101C4000704707480078FA2800DBF9E70448007875
:101C5000401C0349087000BFF2E700009400002018
:101C60008C00002010B500242E480078012800D0F8
:101C700010BD00BFFEF77CFA044600BF2A4800787A
:101C800028B900BF2046FEF777FA00BFF0E72648E4
:101C90000078401E2449087008460078002805DDB9
:101CA00000BF2046FEF768FA00BFE1E71F48007852
:101CB000002805DD00BF2046FEF75EFA00BFD7E72B
:101CC00002F0D4FE1A4908700846007800EB400084
:101CD000184951F82000184908600846006817495B
:101CE0000968884205D100BF2046FEF745FA00BFCB
:101CF000BEE711480068D0F89000401C0E49096802
:101D0000C1F890000E480068401C0D4908604FF073
:101D100080500C49086000BF2046FEF72DFA00BF36
:101D200000BFA5E7940000208C000020DC0000200C
:101D3000C3000020F0DD0020380100203401002025
:101D40000801002004ED00E02DE9FF4F83B00446B8
:101D500015461F46DDE91096002000904C4800789B
:101D6000002805DD45F2B960308007B0BDE8F08F8E
:101D70001DB945F2BB603080F7E7022F03DA45F268
:101D8000BC603080F1E7B9F1040F03D245F2C160C5
:101D90003080EAE74FF0030ABAF1000F0DD005EAF0
:101DA0000A0018B145F2BB603080DEE709EA0A009C
:101DB00018B145F2C1603080D7E7AB46A846781E1F
:101DC00080B201900020029007E0C844CBF8008068
:101DD000C3460298401C80B20290DDE9011088429F
:101DE000F3DB0020CBF8000000BF00BF00BFFEF710
:101DF000BFF9009000BFFFF7B3F800BF2548007897
:101E0000401C2449087008460078012801D103F0DD
:101E100025F800BFFFF7BEF800BF0098FEF7ACF949
:101E200000BF00BF00BF1C4820600498A060656030
:101E3000E560A7826782A4F81090204602F022FB9A
:101E400016480088401C1549088000BF00BF00BF2D
:101E5000FEF78EF9009000BFFFF782F800BF0D4833
:101E60000078401E0B4908700846007808B903F056
:101E700003F800BFFFF78EF800BF0098FEF77CF96B
:101E800000BF00BF00BF0020308000BF6DE7000032
:101E90008C000020DC0000204D454D20B8000020C3
:101EA0002DE9F04104460D4600272CB945F2BF60EC
:101EB00028800020BDE8F08100BF00BFFEF758F980
:101EC000074600BFFFF74CF800BFA08A68B900BF03
:101ED000FFF760F800BF3846FEF74EF900BF00BFBD
:101EE00045F2C26028800020E4E7E6683068E060E0
:101EF000A08A401EA08200BFFFF74CF800BF384602
:101F0000FEF73AF900BF00BF002028803046D1E735
:101F10002DE9F04104460E461546002724B945F246
:101F2000BF602880BDE8F0811EB945F2BE60288000
:101F3000F8E700BF00BFFEF71BF9074600BFFFF739
:101F40000FF800BFA08A618A88420CDB00BFFFF750
:101F500021F800BF3846FEF70FF900BF00BF45F279
:101F6000BA602880DEE7E0683060E660A08A401C46
:101F7000A08200BFFFF70EF800BF3846FEF7FCF85E
:101F800000BF00BF0020288000BFCBE72DE9F04153
:101F900004460E461546002732480078002804DD26
:101FA00042F6E1602880BDE8F0811CB945F6C350D7
:101FB0002880F8E700BF00BF00BFFEF7D9F807464A
:101FC00000BFFEF7CDFF00BF27480078401C264920
:101FD000087008460078012801D102F03FFF00BFD9
:101FE000FEF7D8FF00BF3846FEF7C6F800BF00BFB7
:101FF00000BF1E48206066600020206284F8250033
:10200000A062202084F8240004F1080002F047FCBC
:10201000204602F075FB16480088401C14490880D1
:1020200000BF00BF00BFFEF7A3F8074600BFFEF7E2
:1020300097FF00BF0C480078401E0B490870084607
:10204000007808B902F018FF00BFFEF7A3FF00BF39
:102050003846FEF791F800BF00BF00BF002028807F
:1020600000BFA0E78C000020DC0000204D55545834
:10207000C00000202DE9F04788B00546894690460B
:102080001C46109E4FF0000ABF480078002805DD6E
:1020900046F2AE10308008B0BDE8F0871DB945F6B5
:1020A000C3503080F7E7B8F1000F03D0B8F5004F08
:1020B00002D100E000BF03E045F625603080EAE78A
:1020C00000BFB2492868884203D045F6C45030802A
:1020D000E1E70CB10020206000BF00BFFEF748F828
:1020E000824600BFFEF73CFF00BF95F82500D0B93F
:1020F000A74800682862A648006890F8370085F86D
:102100002400012085F825000CB1A86A206000BFDA
:10211000FEF740FF00BF5046FEF72EF800BF00BF9D
:1021200000203080B7E79A49286A0968884214D1AC
:1021300095F82500401C85F825000CB1A86A2060A0
:1021400000BFFEF727FF00BF5046FEF715F800BF9F
:1021500000BF45F2827030809DE708F4004060B116
:1021600000BFFEF717FF00BF5046FEF705F800BF9F
:1021700000BF46F2B01030808DE786480078002816
:102180000CDD00BFFEF706FF00BF5046FDF7F4FF71
:1021900000BF00BF46F6635030807CE700BF7D483B
:1021A0000078401C7B49087008460078012801D15E
:1021B00002F054FE00BFFEF7EDFE00BF5046FDF7F3
:1021C000DBFF00BF00BF00BF2F6A97F837007049E0
:1021D000096891F8371088426ADD97F836000828B8
:1021E0002AD2DFE800F004151E1F171620213846FA
:1021F00002F0D8FD6648006890F8370087F837008D
:1022000097F8370002F052FC384602F06BFD4EE0C2
:1022100000BF00BF5E48006890F8370087F83700BD
:1022200045E000BF00BF00BF5948006890F8371074
:10223000384602F011FB3AE000BF00BF00BFFDF7D7
:1022400097FF824600BFFEF78BFE00BF5148007823
:10225000401E5049087008460078D0B902F00CFEC4
:102260004D48008800280BDD00BFFEF793FE00BF3D
:102270005046FDF781FF00BF00BF02F0C1FD11E035
:1022800000BFFEF787FE00BF5046FDF775FF00BF99
:1022900008E000BFFEF77EFE00BF5046FDF76CFF72
:1022A00000BF00BF00BF46F62D603080F3E600BFE0
:1022B0004B4604222946684602F046FA00BF00BF9A
:1022C00000BFFDF755FF824600BFFEF749FE00BF85
:1022D00030480078401E2F4908700846007808B939
:1022E00002F0CAFD00BFFEF755FE00BF5046FDF7E5
:1022F00043FF00BF00BF00BF00F0A0F900BF00BF58
:10230000FDF736FF824600BFFEF72AFE00BF2048D9
:10231000006890F8350030B101280CD002281AD09E
:10232000032821D110E01CB119480068006C20601E
:10233000002030801CE01CB115480068006C206053
:1023400046F2A910308013E00CB10020206047F263
:10235000D92030800CE01CB10D480068006C206072
:1023600045F6C250308003E046F62E60308000BF54
:1023700000BF00BFFEF70EFE00BF5046FDF7FCFE9B
:1023800000BF00BF00BF86E68C0000204D555458AA
:1023900034010020DC000020A00000202DE9F84FCF
:1023A0000446884615464FF0000A9E4800780028EB
:1023B00004DD46F20E202880BDE8F88F1CB945F6F2
:1023C000C3502880F8E7B8F1000F03D0B8F5004FEC
:1023D00002D100E000BF03E045F625602880EBE76E
:1023E00000BF91492068884203D045F6C450288038
:1023F000E2E700BF00BFFDF7BBFE824600BFFEF76D
:10240000AFFD00BF8949206A096888420CD000BF2F
:10241000FEF7C0FD00BF5046FDF7AEFE00BF00BF97
:1024200045F281702880C7E700BF81480078401CD2
:102430007F49087008460078012801D102F00EFD9E
:1024400000BFFEF7A7FD00BF5046FDF795FE00BF99
:1024500000BF00BFFEF712FE0746A76294F82500F2
:10246000401E84F8250094F8250000283ADD00BFBE
:1024700000BF00BFFDF77CFE824600BFFEF770FD87
:1024800000BF6B480078401E694908700846007814
:10249000D0B902F0F1FC6748008800280BDD00BFCE
:1024A000FEF778FD00BF5046FDF766FE00BF00BF97
:1024B00002F0A6FC11E000BFFEF76CFD00BF504625
:1024C000FDF75AFE00BF08E000BFFEF763FD00BF46
:1024D0005046FDF751FE00BF00BF00BF45F28370BC
:1024E000288069E704F10809B9F8080080BB0020DA
:1024F000206284F8250000BF00BF00BFFDF738FE52
:10250000824600BFFEF72CFD00BF49480078401E00
:102510004749087008460078D8B902F0ADFC454834
:10252000008800280BDD00BFFEF734FD00BF5046D9
:10253000FDF722FE00BF00BF02F062FC12E000BF08
:10254000FEF728FD00BF5046FDF716FE00BF09E06C
:102550000CE000BFFEF71EFD00BF5046FDF70CFE6D
:1025600000BF00BF00BF0020288025E72F4800687B
:1025700090F8370094F82410884219D02B4800684E
:1025800002F010FC94F824002849096881F837000B
:102590002649096891F8370002F088FA2348006854
:1025A00002F0C0FB2148006890F83700224908700B
:1025B000D9F800008668266296F8370084F824006F
:1025C000012084F8250000231A4631462046009752
:1025D00002F0D6F900BF00BF00BFFDF7C9FD82467B
:1025E00000BFFEF7BDFC00BF11480078401E104937
:1025F00008700846007808B902F03EFC00BFFEF7FC
:10260000C9FC00BF5046FDF7B7FD00BF00BF00BFCB
:1026100008F4004008B900F011F80020288000BF3D
:10262000CAE600008C0000204D55545834010020AB
:10263000DC000020A0000020C200002010B5002413
:1026400020480078002800DD10BD1F4800780028D1
:1026500000DDF9E700BFFDF78BFD044600BF02F087
:1026600005FA1A4908700846007800EB400018493E
:1026700051F82000174908600846006816490968A3
:10268000884205D100BF2046FDF776FD00BFDBE79D
:1026900010480068D0F89000401C0E490968C1F845
:1026A00090000E480068401C0C4908604FF08050B4
:1026B0000B49086000BF2046FDF75EFD00BF00BF6C
:1026C000C2E700008C000020DC000020C3000020D6
:1026D000F0DD002038010020340100200801002036
:1026E00004ED00E070B5044600251A480078002883
:1026F00003DD46F66250208070BD1748007801283F
:1027000003D045F689602080F6E714480078FA285F
:1027100003DB45F209202080EEE700BF00BFFDF794
:1027200027FD054600BFFEF71BFC00BF0B480078E5
:10273000401C0A49087002F091FB00BFFEF72AFC1A
:1027400000BF2846FDF718FD00BF00BF0020208015
:1027500000BFD1E78C00002094000020DC000020A6
:102760002DE9F04105460C461646002700BF00BF84
:10277000FDF7FEFC074600BFFEF7F2FB00BF012D90
:1027800003D000200E49087002E001200C490870B7
:1027900014B10C48046006E00B4800680A21B0FB45
:1027A000F1F00849086000BFFEF7F4FB00BF3846AF
:1027B000FDF7E2FC00BF00BF00203080BDE8F081E3
:1027C000E4000020E00000202C88000870B50446DA
:1027D000002523480078002803DD46F66550208058
:1027E00070BD20480078012803D045F6896020801C
:1027F000F6E71D48007818B946F664502080EFE7E8
:1028000000BF00BFFDF7B4FC054600BFFEF7A8FB04
:1028100000BF15480078401E13490870084600782C
:1028200000280CDD00BFFEF7B5FB00BF2846FDF712
:10283000A3FC00BF00BF46F663502080D0E702F043
:102840001BFB00BFFEF7A6FB00BF2846FDF794FC6C
:1028500000BF00BFFFF7F2FE0020208000BFBFE7EF
:102860008C00002094000020DC00002010B50446FD
:1028700012480078E8B902F0F9F8114908700846E2
:102880000078104908700E48007800EB40000E49AF
:1028900051F820000D490860084600680C4908609E
:1028A000012006490870FDF7E3FF43F699202080D8
:1028B00002E045F68A60208010BD000094000020F0
:1028C000C3000020C2000020F0DD002038010020FD
:1028D000340100202DE9F04107464FF0000800BF09
:1028E00000BFFDF745FC804600BFFEF739FB00BF87
:1028F0000020474908604749088047490880474900
:1029000008604749086047490860474908604749E7
:1029100008604749088100BFFEF73CFB00BF404606
:10292000FDF72AFC00BF00BF00BF00BFFDF720FC81
:10293000804600BFFEF714FB00BF3E48046800BF9E
:10294000FEF728FB00BF4046FDF716FC00BF00BFA6
:1029500026E000BF00BFFDF70BFC804600BFFEF77E
:10296000FFFA00BF00207834E06320642060206319
:10297000A061A082E0826062A062FEF77FFB20621D
:10298000783C04F164060020B081D4F8C04000BF58
:10299000FEF700FB00BF4046FDF7EEFB00BF00BFA7
:1029A000002CD6D100BF00BFFDF7E2FB804600BF80
:1029B000FEF7D6FA00BF2048056800BFFEF7EAFA26
:1029C00000BF4046FDF7D8FB00BF00BF16E000BFC8
:1029D00000BFFDF7CDFB804600BFFEF7C1FA00BF88
:1029E00005F120060020B081AD6900BFFEF7D2FAE4
:1029F00000BF4046FDF7C0FB00BF00BF002DE6D181
:102A000003F06EFD03F0FCFF00203880BDE8F0818C
:102A1000A8000020A2000020F200002004010020F5
:102A2000180100202401002090000020D400002084
:102A3000E4DD00200C010020C8000020F8B50446A9
:102A400000266946364800F095FEBDF8000018B132
:102A5000BDF800002080F8BD6A460021022000F089
:102A60000BFFBDF8000018B1BDF800002080F2E7B0
:102A700000BF00BFFDF77CFB064600BFFEF770FA03
:102A800000BF00202749086000BFFEF783FA00BF9F
:102A90003046FDF771FB00BF00BF002522480068EB
:102AA00022490968884205D91F4800681F490968FA
:102AB000B0FBF1F525B91C4800680A21B0FBF1F51F
:102AC0006A460021284600F0D7FE6946144800F007
:102AD00007FCBDF8000018B1BDF800002080BAE77F
:102AE00000BF00BFFDF744FB064600BFFEF738FA03
:102AF00000BF00200E4908600A4800680D490860C0
:102B000001200D49087000BFFEF744FA00BF3046AF
:102B1000FDF732FB00BF00BF0020208000BF9AE716
:102B200000E10020F40000202C8800081488000830
:102B300004010020F80000200001002010B5034827
:102B4000006810B101480068804710BD7C0000207B
:102B50002DE9FF4F87B004469046DDE91BA5DDE96E
:102B60001496179F0020039095480078002805DDF3
:102B700047F24A1028800BB0BDE8F08F1CB947F22D
:102B8000AD102880F7E7B8F1000F03D147F24F10DE
:102B90002880F0E71EB946F62F602880EBE78948C9
:102BA0000068874203D246F630602880E3E7169833
:102BB000B84203D346F631602880DCE7B9F1200F34
:102BC00003D346F273202880D5E7B9F1000F06D170
:102BD0007D48844203D046F273202880CBE7B9F1C8
:102BE0001F0F06D17948844203D046F27320288013
:102BF000C1E7204602F054FD002028800AF00100C1
:102C000090B10AF0020078B105960020069008E025
:102C10000021059801600598001D05900698401C4C
:102C200006900698B842F3D3169806EB80000490FD
:102C3000CDE9007A32464046049B0A9900F03AFDFD
:102C40000590C4F828800A98E0620898206284F809
:102C50003790059820600498A060199860651998CD
:102C600018B95B480068A06501E01998A0651A983A
:102C700060606662A763A4F83CA04FF0000B08E018
:102C8000002104F17C0040F82B100BF1010000F052
:102C9000FF0BBBF1000FF3D004F16400189901F0B1
:102CA000A5FC204600F09EF800BF00BF00BFFDF766
:102CB0005FFA039000BFFEF753F900BF4548007864
:102CC000401C4449087008460078012801D102F0F0
:102CD000C5F800BFFEF75EF900BF0398FDF74CFA98
:102CE00000BF00BF00BF94F8370001F0DFFE2046B0
:102CF00002F018F8204602F089FC37480088401C92
:102D00003549088035480078012837D000BF00BF1A
:102D100000BFFDF72DFA039000BFFEF721F900BFB9
:102D20002C480078401E2B49087008460078D0B91E
:102D300002F0A2F82A48008800280BDD00BFFEF749
:102D400029F900BF0398FDF717FA00BF00BF02F092
:102D500057F811E000BFFEF71DF900BF0398FDF71B
:102D60000BFA00BF08E000BFFEF714F900BF03989C
:102D7000FDF702FA00BF00BF00BFFCE600BF00BFC6
:102D800000BFFDF7F5F9039000BFFEF7E9F800BFBB
:102D900010480078401E0F4908700846007808B9AE
:102DA00002F06AF800BFFEF7F5F800BF0398FDF7E0
:102DB000E3F900BF00BF00BFFFF740FC00BFDAE649
:102DC0008C000020288800081CDD002054DC002036
:102DD000E0000020DC000020100100209400002012
:102DE000A000002010B504460348006818B1204632
:102DF00001490968884710BD6C00002070B5044681
:102E00000D46002678480078002803DD47F24E1072
:102E1000288070BD7548844203D147F24C10288049
:102E2000F7E77348844203D147F24D102880F0E75A
:102E30009CB900BF00BFFDF79BF9064600BFFEF737
:102E40008FF800BF6B48046800BFFEF7A3F800BF0F
:102E50003046FDF791F900BF00BF00BF00BF00BFC3
:102E6000FDF786F9064600BFFEF77AF800BF624814
:102E70000078401C6049087008460078012801D19C
:102E800001F0ECFF00BFFEF785F800BF3046FDF70C
:102E900073F900BF00BF00BF94F8360008282DD298
:102EA000DFE800F004090E10080A0F11204601F0B7
:102EB00079FF5EE05DE000BF204603F0F5FA58E0E0
:102EC00000BF00BF00BF204603F0EEFA94F83400C4
:102ED000082810D2DFE800F004070508090A0B06ED
:102EE00000BF00BF08E000BF00BF00BF00BF20461A
:102EF00001F00DFD00E000BF00BF3AE000BF00BFE1
:102F000000BFFDF735F9064600BFFEF729F800BF00
:102F100039480078401E3849087008460078D0B912
:102F200001F0AAFF3548008800280BDD00BFFEF73E
:102F300031F800BF3046FDF71FF900BF00BF01F0B8
:102F40005FFF11E000BFFEF725F800BF3046FDF738
:102F500013F900BF08E000BFFEF71CF800BF3046C1
:102F6000FDF70AF900BF00BF00BF46F62D602880BC
:102F70004FE700BF04F1640001F0E2FA204600F0E0
:102F800041F8204602F05AFB1D480088401E1C49AB
:102F90000880204602F084FBFF2084F8360000BF42
:102FA00000BF00BFFDF7E4F8064600BFFDF7D8FFFD
:102FB00000BF11480078401E0F490870084600788D
:102FC00008B901F059FF00BFFDF7E4FF00BF30462C
:102FD000FDF7D2F800BF00BF00BF00202880FFF738
:102FE0002DFB00BF15E700008C00002054DC002002
:102FF0001CDD002034010020DC000020A0000020A7
:103000001001002010B504460348006818B120469E
:1030100001490968884710BD700000202DE9F05F64
:1030200080460F4616461C460A9D4FF0000B8A4804
:103030000078002805DD46F2AE1028800020BDE8AB
:10304000F09F26B946F2D52028800020F7E71FB16F
:10305000B7F5004F02D100E000BF04E045F625605F
:1030600028800020EBE700BF0CB10020206000BFEB
:1030700000BFFDF77DF8834600BFFDF771FF00BF7D
:103080007648006800F164092B46224631464846DE
:1030900001F078FA8246288800BBA4B1FDF7EEFF64
:1030A0002168401A6D49096848676C480068806F5C
:1030B0006A490968496F884205D268480068406FCC
:1030C00066490968886700BFFDF764FF00BF58467E
:1030D000FDF752F800BF00BF5046B0E707F40040CC
:1030E00068B146F2B010288000BFFDF753FF00BF63
:1030F0005846FDF741F800BF00BF00209FE7584841
:10310000007800280DDD00BFFDF744FF00BF5846E2
:10311000FDF732F800BF00BF46F66350288000205C
:103120008DE700BF4E480078401C4D4908700846A6
:103130000078012801D101F091FE00BFFDF72AFFC0
:1031400000BF5846FDF718F800BF00BF00BF434658
:1031500002220021084601F0F7FA00BF00BF00BFBD
:10316000FDF706F8834600BFFDF7FAFE00BF3C48B6
:103170000078401E3A4908700846007808B901F006
:103180007BFE00BFFDF706FF00BF5846FCF7F4FFCB
:1031900000BF00BF00BFFFF751FA00BF00BFFCF740
:1031A000E7FF834600BFFDF7DBFE00BF2B4800684A
:1031B00090F8350020B101282AD0032832D132E01E
:1031C00026480068D0F85CA024480068B0F8600089
:1031D0003080D4B121480068006C2060FDF74EFFBC
:1031E0001E490968096C401A1C49096848671B4850
:1031F0000068806F19490968496F884205D21748ED
:103200000068406F1549096888670020288017E02A
:103210004FF0000A0020308004B1206046F2A9106F
:1032200028800DE000BF4FF0000A002030801CB164
:103230000A480068006C206047F2D920288000BF4F
:1032400000BF00BFFDF7A6FE00BF5846FCF794FF85
:1032500000BF00BF5046F2E68C0000203401002081
:10326000DC0000202DE9FF470746884691461D46B1
:103270000C9E4DB1102D08D0B5F5004F06D0A5F528
:103280000040103820B902E000BF00BF00BF04E0DA
:1032900045F625603080BDE8FF8700BFFDF7EEFEF4
:1032A00004460D48007800280BDD00204B464246BE
:1032B0003946CDE90246CDE90005084800F096FE02
:1032C000E9E72B464A4641463846CDE9004602F03A
:1032D0004FFA00BFDFE700008C000020544D534739
:1032E0007FB504460D46002600BF00BFFCF740FF37
:1032F000064600BFFDF734FE00BF1CB1174800684A
:1033000084420CD100BFFDF745FE00BF3046FCF7FC
:1033100033FF00BF00BF47F2571028807FBD00BFBA
:10332000FDF738FE00BF3046FCF726FF00BF00BFA8
:103330000B48007800280BDD002000900190034628
:1033400002462146CDE90205064800F04FFEE5E7BA
:103350002946204602F050FB00BFDFE73401002081
:103360008C0000205452455310B5044603480068B1
:1033700018B1204601490968884710BD7400002033
:103380002DE9F04780460E4614461D464FF00009D1
:103390008C480078002805DD46F2AE102880002019
:1033A000BDE8F0871EB1B6F5004F02D100E000BFC6
:1033B00004E045F6256028800020F1E700BF0CB14D
:1033C0000020206000BF00BFFCF7D2FE814600BF96
:1033D000FDF7C6FD00BF7C480068406CB8B37A4872
:1033E0000068406C401E7849096848647648006867
:1033F000476C1CB174480068006C2060FDF73EFE0D
:1034000071490968096C401A6F490968C1F8A4003C
:103410006D480068D0F8A8006B490968D1F8A4107D
:10342000884207D268480068D0F8A4006649096855
:10343000C1F8A80000BFFDF7ADFD00BF4846FCF78E
:103440009BFE00BF00BF002028803846A8E7FFE7AA
:1034500006F4004068B100BFFDF79CFD00BF484680
:10346000FCF78AFE00BF00BF46F2B01028800020A3
:1034700096E75648007800280DDD00BFFDF78AFD6D
:1034800000BF4846FCF778FE00BF00BF46F6635019
:103490002880002084E700BF4C480078401C4B493E
:1034A000087008460078012801D101F0D7FC00BF60
:1034B000FDF770FD00BF4846FCF75EFE00BF00BF91
:1034C00000BF434607220021084601F03DF900BF36
:1034D00000BF00BFFCF74CFE814600BFFDF740FD7A
:1034E00000BF3A480078401E384908700846007806
:1034F00008B901F0C1FC00BFFDF74CFD00BF484614
:10350000FCF73AFE00BF00BF00BFFFF797F800BF0F
:1035100000BFFCF72DFE814600BFFDF721FD00BF77
:103520002948006890F8350020B1012826D00328EA
:1035300034D12CE0FCB124480068006C2060FDF719
:103540009DFD21490968096C401A1F490968C1F8A5
:10355000A4001D480068D0F8A8001B490968D1F8EC
:10356000A410884207D218480068D0F8A400164971
:103570000968C1F8A8000020288013E01CB1124897
:103580000068006C206046F2A91028800AE00CB1A7
:103590000020206047F2D920288003E046F62E6004
:1035A000288000BF00BF08480068476C00BFFDF7D7
:1035B000F1FC00BF4846FCF7DFFD00BF00BF384606
:1035C000EEE600008C00002034010020DC0000202A
:1035D0002DE9F04705460E4617461C464FF0000AF7
:1035E00032480078002804DD47F259102080BDE8F9
:1035F000F0871EB946F2D5202080F8E71FB946F2C1
:10360000D5202080F3E700BF00BFFCF7B1FD824664
:1036100000BFFDF7A5FC00BF0DB925480568286867
:1036200078B900BFFDF7B6FC00BF5046FCF7A4FD1B
:1036300000BF00BF00203060386047F25210208089
:10364000D5E795F83C0000F0010078B900BFFDF720
:10365000A1FC00BF5046FCF78FFD00BF00BF00205B
:103660003060386047F254102080C0E700BFFDF79B
:1036700091FC00BF5046FCF77FFD00BF00BF4FF03C
:103680000008D5F8249003E009F1040908F10108C5
:10369000D9F800000028F7D0C6F80080A86BA0EB8E
:1036A000080038600020208000BFA0E78C000020C8
:1036B00034010020F0B50446DDE9055602EB850033
:1036C0004FF0807C071F3846C7F800C0071F3846F8
:1036D0003C60DFF89CC0071F3846C7F800C04FF0B9
:1036E000123C071F3846C7F800C04FF0033C071FC5
:1036F0003846C7F800C04FF0023C071F3846C7F8ED
:1037000000C0071F38463B60071F384639604FF03E
:10371000113C071F3846C7F800C04FF0103C071F88
:103720003846C7F800C04FF0093C071F3846C7F8B5
:1037300000C04FF0083C071F3846C7F800C04FF0E4
:10374000073C071F3846C7F800C04FF0063C071F6C
:103750003846C7F800C04FF0053C071F3846C7F889
:1037600000C04FF0043C071F3846C7F800C0F0BD4A
:10377000755B00087FB505460C461248854203D1AB
:1037800047F25B1020807FBD0F48854203D147F28E
:103790005C102080F7E70D48007800280BDD002042
:1037A00000900190034602462946CDE902040848EC
:1037B00000F01CFCE7E72146284602F0BBFC00BFF6
:1037C000E1E7000054DC00201CDD00208C0000201C
:1037D0005453555370B52448006810B1224800680E
:1037E0008047FDF74BFC04462048006820490968E3
:1037F000884215D01D480068D0F89800201A1B494F
:103800000968C1F8940019480068D0F89C0017496D
:103810000968D1F89410084414490968C1F89C005B
:1038200013480068C0F89840FDF76EFB05460F4846
:103830000068D0F8B400A84203D20C480068C0F871
:10384000B4500A480068D0F8B8000A4909688842AC
:1038500005D20848006805490968C1F8B800002089
:103860000449086070BD0000800000203401002081
:1038700038010020D80000202DE9F04105460E4611
:10388000144600274D480078002804DD47F27520D3
:103890002080BDE8F0814A480078002803DD46F624
:1038A00063502080F5E736B1022E05D0042E0AD0F1
:1038B000082E09D101E000BF00BF1DB947F27E20EC
:1038C0002080E6E704E003E045F625602080E0E79D
:1038D00000BF00BF00BF00BFFCF74AFC074600BFA7
:1038E000FDF73EFB00BF36480078401C34490870A5
:1038F00008460078012801D101F0B0FA00BFFDF7B9
:1039000049FB00BF3846FCF737FC00BF00BF00BFD3
:1039100001202C49096881F83600234632462946A1
:103920002848006802F0E2FC2088F0B100BF00BF28
:1039300000BFFCF71DFC074600BFFDF711FB00BFF1
:103940001F480078401E1E4908700846007808B9D4
:1039500001F092FA00BFFDF71DFB00BF3846FCF7EF
:103960000BFC00BF00BF00BF93E71648006801F0E2
:1039700019FA00BF00BF00BFFCF7FAFB074600BF03
:10398000FDF7EEFA00BF0E480078401E0C490870A3
:103990000846007808B901F06FFA00BFFDF7FAFA9F
:1039A00000BF3846FCF7E8FB00BF00BF00BFFEF7D2
:1039B00045FE0020208000BF6BE700008C00002047
:1039C000DC0000203401002010B586B000F01EF8A5
:1039D000FDF754FB044605A800210091CDE9011430
:1039E00003900748007800EB4000064A02EB800194
:1039F00000231A46044800F0F9FA06B010BD000092
:103A0000C2000020F0DD00205449434B10B50348AC
:103A1000006810B101480068804710BD8400002094
:103A200010B5002400BF00BFFCF7A2FB044600BF96
:103A3000FDF796FA00BF09480078401C0749087056
:103A400000BFFDF7A7FA00BF2046FCF795FB00BFBB
:103A500000BFFFF7B9FFFEF705F910BD8C0000208D
:103A600001464A1E4FF0E0235A61084A106820F0D0
:103A70007F4000BF10601A46126942F005021A61C9
:103A80001A46126942F002021A61704720ED00E006
:103A9000254A2649264A274A2749284A2848294AA2
:103AA000294A2A4A2A4A2B482B482C482C4A2D4876
:103AB0002D4A2E482E4A2F482F4830483048314A48
:103AC000314A324A3248334A334A34483448354816
:103AD0003548364836483748374A384A384A394AE6
:103AE00039483A483A483B4A3B4A3C4A3C483D48B8
:103AF0003D483E493E483F4A3F4A404A404A414A83
:103B0000414A424A4248434A434A44484448454A53
:103B1000454A4648464A474A47484848484800BFF9
:103B200000BF00BF7047000070880008D8890008F7
:103B30007188000872880008748800087888000876
:103B40007C88000879880008A4880008A5880008F7
:103B5000A6880008A8880008AA880008AC88000881
:103B6000AE880008B0880008D0880008D288000815
:103B7000D4880008D6880008D8880008DA880008A9
:103B8000DC88000808890008098900080A890008FB
:103B90000C8900080E8900080F89000810890008A8
:103BA000128900081489000816890008188900087D
:103BB0001A8900081C8900084C8900084D890008F2
:103BC0004E8900084F890008508900085289000872
:103BD000548900087C8900087D8900087E890008D6
:103BE0007F8900088089000882890008848900088C
:103BF00088890008898900088A8900088B8900085B
:103C00008C8900088D8900088E8900088F8900083A
:103C10009089000892890008938900089489000817
:103C20009689000898890008998900089C890008ED
:103C3000D0890008D1890008D2890008D4890008F9
:103C4000D68900080021034A1160034A11800180CF
:103C500070470000AC000020B00000202DE9F04FBC
:103C600085B00446894692469B46DDF838800020A0
:103C7000009000BF00BFFCF77BFA009000BFFDF78B
:103C80006FF900BFBAF1000F0AD0BAF1010F0DD0E1
:103C9000BAF5004F05D06FF40040504460B906E01B
:103CA00000BF206A40EA0900206216E000BF206AD7
:103CB00020EA0900206210E000BFFDF76BF900BFA9
:103CC0000098FCF759FA00BF00BF45F62560A8F838
:103CD0000000002005B0BDE8F08F00BFC4F824B09C
:103CE00004F1080001900198008968B900BFFDF750
:103CF00051F900BF0098FCF73FFA00BF00BF002059
:103D0000A8F80000206AE5E700BF71480078401C71
:103D10006F49087008460078012801D101F09EF82B
:103D200000BFFDF737F900BF0098FCF725FA00BF88
:103D300000BF00BF01980768BD6889E078680290FD
:103D400095F8880000F00F0003900398012821D017
:103D500002282ED0042802D0082836D10EE0206A8E
:103D6000D5F8801000EA0106D5F88000B04204D1F1
:103D70005A463146284600F0AFF863E0206AD5F88D
:103D8000801000EA010626B15A463146284600F066
:103D9000A3F857E0D5F88000216A20EA0106D5F89B
:103DA0008000B04204D15A463146284600F094F8CB
:103DB00048E0D5F88000216A20EA010626B15A467B
:103DC0003146284600F088F83CE000BF00BF00BF45
:103DD000FCF7CEF9009000BFFDF7C2F800BF3C48E9
:103DE0000078401E3A49087008460078D0B901F0C2
:103DF00043F83848008800280BDD00BFFDF7CAF8FB
:103E000000BF0098FCF7B8F900BF00BF00F0F8FF52
:103E100011E000BFFDF7BEF800BF0098FCF7ACF959
:103E200000BF08E000BFFDF7B5F800BF0098FCF741
:103E3000A3F900BF00BF00BF43F6FF20A8F80000B1
:103E4000002047E700BF029F0FB1BD6800E00025DA
:103E5000002D7FF473AF00BF00BF00BFFCF788F9EF
:103E6000009000BFFDF77CF800BF19480078401EA5
:103E7000174908700846007808B900F0FDFF00BF38
:103E8000FDF788F800BF0098FCF776F900BF00BF87
:103E900000BF0AF4004008B9FEF7D0FB00BF00BF26
:103EA000FCF766F9009000BFFDF75AF800BF206AE2
:103EB000049000BFFDF76EF800BF0098FCF75CF9B6
:103EC00000BF00BF0020A8F80000049802E700002F
:103ED000DC000020A000002070B504460E46154608
:103EE00034342665002060702070E560A078343C92
:103EF000082816D2DFE800F00405080907061011AB
:103F000000BF00BF00BF0DE000BF204601F066FD0E
:103F1000002084F8360005E000BF042084F8360055
:103F200000E000BF00BF204600F0F1FC70BD0000C3
:103F3000002400BF1DE000BF00BFFCF719F90446D4
:103F400000BFFDF70DF800BF0A480068401C094992
:103F5000086009480068401C0749086000BFFDF779
:103F600019F800BF2046FCF707F900BF00BFFDF7B6
:103F700077FDE0E788000020F400002010B58AB04B
:103F8000044600200E4908600B2000210591CDE970
:103F90000704069108460B4909680B4A12680B4B47
:103FA0001B68CDE90132CDE903101F200023084A28
:103FB00008A100900C48FEF7CBFD0AB010BD000030
:103FC00088000020D4870008D0870008CC8700082C
:103FD000313F000875432F4F532D4949492049640B
:103FE0006C65205461736B0054DC00202DE9F84FA0
:103FF00004460D4616461F46DDE90BABDDF828905A
:10400000DDF834800020009000BF00BFFCF7B0F85E
:10401000009000BFFCF7A4FF00BF2C4800882C498B
:10402000098888423EDA29480088401C27490880D0
:10403000284800880988884203DA244800882549EE
:10404000088025480068046023480068856022488D
:104050000068C6602048006807821F480068C0F8F2
:1040600014901D480068A0F818A01B480068C0F80C
:104070001CB01948006840681749086001201749BA
:104080000881174808604860002000F00FFD1548BF
:10409000007818B113480078134908700020A8F878
:1040A000000008E011480088401C1049088044F2D4
:1040B0005360A8F8000000BFFCF76CFF00BF009839
:1040C000FCF75AF800BF00BFBDE8F88FA000002041
:1040D000E0870008A200002098000020F0DD00200A
:1040E0001CDD0020C2000020C4000020A40000202D
:1040F0003EB5594800680068584A811A904279D004
:104100000FDC5749084400283ED056490844A8B15E
:1041100055490844002860D05449084400286AD111
:104120003FE053480844002850D052490844002832
:1041300062D0514908440028F1D110E002A8464D50
:1041400000902D68EB69444D2D682A8B424D2D68F7
:104150006969414D2D68A868FFF780FD7AE002A9E2
:104160003D480068C0693C4DCDE900012D682B8BAE
:10417000394D2D682A8A384D2D68E968364D2D68ED
:10418000A86800F0C3FC65E0334B1B68DA69324B6A
:104190001B68198B304B1B68986802AB00F00CFF52
:1041A00058E002A92C480068C0692B4DCDE90001F8
:1041B0002D682B8B284D2D682A8A274D2D68E9689C
:1041C000254D2D68A86801F0D3FA43E0224909681B
:1041D000886802A901F010FC3CE01F4B1B68DA69FB
:1041E0001D4B1B68198B1C4B1B68986802AB01F0B8
:1041F000CDFC2FE007E02CE017490968886802A988
:1042000001F098FF26E01D49097801EB41011C4AA5
:1042100002EB810000F04EFE0F48006802AB002167
:10422000C269184801F0B2FC17480068401E1649E0
:1042300008600846006858B9144800680860FCF730
:104240001DFF044602AB22460021114801F09EFCEE
:1042500000E000BF00BF3EBD9C0000205449434B1E
:10426000ADBAB2BE0DF90BFAF2F8F7FF0006F6FF91
:1042700000F7FDF700FFEFFF03FE0FFEC400002074
:10428000F0DD002038E00020300100202C0100206B
:1042900000E10020002700BF56E0002652E000BFEA
:1042A00000BFFBF765FF074600BFFCF759FE00BFE4
:1042B0002648008898B90020254908810860486090
:1042C00000F006FC00BFFCF765FE00BF3846FBF7B8
:1042D00053FF00BF00BFFEF7B1F9012632E000BF77
:1042E000FCF758FE00BF3846FBF746FF00BF00BF93
:1042F000FCF7C4FE0546FFF7FBFEFCF7BFFE441BC0
:1043000014480068A04201D21248046000BF00BFF8
:10431000FBF72EFF074600BFFCF722FE00BF0E484A
:10432000006840680C49086008480088401E07493A
:10433000088000BFFCF72EFE00BF3846FBF71CFFCD
:1043400000BF00BF002EAAD0A7E70000A0000020F9
:10435000F0DD0020A80000209C000020F0B589B00E
:1043600005460020314908803148006820B944F2F0
:104370005260288009B0F0BD2E480088022803DA78
:1043800044F254602880F5E700202B490860284853
:1043900004682646203600270CE0284820600020CC
:1043A000A060E06020826061208366602034203657
:1043B000781C87B21F4800888742EEDB203C1C48EF
:1043C000066866601E4806601E48066000201E499A
:1043D00008801E4908801E48006818B944F25560DC
:1043E0002880C7E71B4800681B490968884203D238
:1043F00044F256602880BDE7032000210591CDE9F5
:104400000705069113480068144A1268104B1B6890
:10441000CDE90301CDE9013200910B46104A11A10B
:104420001748FEF795FB00BFA4E70000A40000209A
:10443000DC870008E0870008A80000204E4F4E45AA
:10444000980000209C000020A0000020A200002076
:10445000E8870008F087000828880008EC87000833
:104460009542000875432F4F532D49494920495320
:1044700052205175657565205461736B0000000012
:104480001CDD0020002181610749096811B9002164
:10449000C16105E004490968C1610349096888618F
:1044A0000149086070470000B40000200021034A61
:1044B0001160034A1180018070470000B4000020A1
:1044C000B800002070B501461A4D2D681DB945F29F
:1044D0001E750D8070BD184D2D881DB945F21D75D6
:1044E0000D80F7E7134D28682A681032124D2D8889
:1044F0006D1EACB2002308E0026000254560058116
:10450000C560103010325D1CABB2A342F4DB002555
:10451000056045600581C560064D2D68074E356014
:10452000054D2D88B5800025F58035810D8000BFB3
:10453000D0E700000C88000804880008E4DD0020B3
:1045400010B5014648894B89002B17DD0A680C4BD2
:104550001B6813600A4C4B6823602346DB884C8938
:104560001B1B074CE38023469B884C892344044C47
:10457000A38000234B818B810B604B6010BD00003A
:10458000E4DD0020F0B504460D46608940B9002006
:10459000288002B1106046F2925018800020F0BDD1
:1045A00061684E68088928800AB1C8681060086888
:1045B0006060606818B900202060608102E0608956
:1045C000401E6081084800680860074801608088D4
:1045D000401C054FB8803846C088401EF880002037
:1045E00018803046DBE70000E4DD00200181002276
:1045F0004281828102604260704700002DE9F041F3
:104600000D46DDE90674B0F80AC0B0F80880C4456C
:1046100005DB46F2935CA4F800C0BDE8F081DFF84A
:10462000DCC0BCF804C0BCF1000F04D145F21D7C15
:10463000A4F800C0F1E7DFF8C4C0DCF80010DFF830
:10464000BC80D1F800C0C8F800C0C446BCF804C0A3
:10465000ACF1010CA8F804C0C446BCF806C00CF1CB
:10466000010CA8F806C0C446BCF808C0B8F806801B
:10467000C44507DADFF884C0BCF806C0DFF87C80E8
:10468000A8F808C0B0F80AC0BCF1000F0AD1016058
:1046900041604FF0010CA0F80AC04FF0000CC1F8C7
:1046A00000C017E003F0100CBCF1000F07D1066842
:1046B000316001604FF0000CC1F800C004E0D0F898
:1046C00004C0C1F800C04160B0F80AC00CF1010C90
:1046D000A0F80AC0B0F80CC0B0F80A80C44503DAEC
:1046E000B0F80AC0A0F80CC04D600A81CF604FF04E
:1046F000000CA4F800C000BF8FE70000E4DD00203C
:1047000009A1C161002141610849096811B900216D
:10471000816105E0054909688161044909684861CA
:10472000024908607047000020000000BC00002023
:104730000021034A1160034A118001807047000084
:10474000BC000020C00000202DE9F04105460C46C9
:1047500016461F461548006880F83460002013494B
:10476000096881F8350039461048006800F032FFCA
:104770006CB104F10808EC60012229460B4800687E
:1047800000F016F82946404600F08EF806E00020BA
:1047900006490968C887054909680863034801682C
:1047A000204600F019F8BDE8F08100003401002037
:1047B00010B5C287016300230AE000244C600C603E
:1047C0000C614C610C83CC61886020315C1CA3B20D
:1047D0009342F2DB10BD000030B548B14568C1F826
:1047E000C45000F10804226893681D6AC56113E093
:1047F00091F83450022D02D0072D08D103E007A50F
:10480000C1F8C45007E007A5C1F8C45003E008A5EB
:10481000C1F8C45000BF00BF30BD00005461736BCD
:10482000205100005461736B2053656D000000003F
:104830002000000030B507A5C1F8C45000F10804FD
:1048400022681AB193681D6AC56101E001A5C561BE
:1048500030BD0000200000002DE9F04304460F4663
:1048600084F83770256BB4F83E8013E0D5F80C90CF
:1048700009F108063089012807D92946304600F099
:104880005EF82946304600F00FF82035A8F1010007
:104890001FFA80F8B8F1000FE8D1BDE8F0830021DD
:1048A0000160416001817047F0B58E6896F837501D
:1048B00007893FB90127078100274F600F6001601A
:1048C000416023E007897F1C0781026806E0946845
:1048D00094F83770AF4200DD02E05268002AF6D14A
:1048E00000BF32B900274F6043680B6059604160D8
:1048F0000CE017682FB9116000270F604A60016053
:1049000004E013680B604A6059601160F0BD2DE946
:10491000F0410446256BE68F0AE0D5F80C8008F1DB
:1049200008072946384600F00AF82035701E86B27E
:10493000002EF2DC0020E0872063BDE8F08110B596
:104940000489012C03D100240460446011E00C6848
:1049500024B94A680024146002600AE04C6824B953
:104960000B6800245C60436003E00B684A685A608F
:1049700013600489641E048100244C600C6010BD27
:104980002DE9F84306460C4617469846089D94F8CC
:104990003600082850D2DFE800F0040508090607B1
:1049A0002B2C00BF00BF00BF47E000BF94F83400CD
:1049B000032807D143463A4621463046009500F089
:1049C0003FF803E0E765A4F86080256436B120462F
:1049D000FFF79DFF21463046FFF72CFF204600F0F1
:1049E000FDFF00203434A070607004F8340924E026
:1049F00000BF94F83400032807D143463A462146C5
:104A00003046009500F01CF803E0E765A4F86080EC
:104A10002564204601F048FD36B12046FFF777FFB8
:104A200021463046FFF706FF04203434A0700020F2
:104A3000607004F8340900E000BF00BFBDE8F883EF
:104A4000F0B50446059E086BCD8F0AE0C768A74203
:104A500004D1046142610383C66104E020306F1E0B
:104A6000BDB2002DF2DC00BFF0BD000070B5002526
:104A7000074C03E005F12000C5B2241D2068002882
:104A8000F8D02068FBF77FFB2844C5B2284670BDEC
:104A900068000020002004E00021034A42F82010B2
:104AA000401C0028F8D070476800002030B542094B
:104AB00000F01F030121C3F11F04A140034C54F86F
:104AC00022400C43014D45F8224030BD68000020D3
:104AD00030B5420900F01F030121C3F11F04A140BA
:104AE000034C54F822408C43014D45F8224030BD20
:104AF000680000200021034A1160034A11800180F0
:104B000070470000C8000020CC0000202DE9F04FC5
:104B100085B007468A4693461C460020029000BF97
:104B200000BF00BFFBF724FB029000BFFCF718FAA0
:104B300000BF56480078401C544908700846007869
:104B4000012801D100F08AF900BFFCF723FA00BF69
:104B50000298FBF711FB00BF00BF00BF07F108067A
:104B6000308900284CD104F0100010B94FF0000833
:104B700001E04FF01008DDE90E0143465A46CDE949
:104B80000001514607F12000FFF738FD00BF00BFCC
:104B900000BFFBF7EDFA029000BFFCF7E1F900BFA0
:104BA0003A480078401E3949087008460078D0B964
:104BB00000F062F93648008800280BDD00BFFCF7E2
:104BC000E9F900BF0298FBF7D7FA00BF00BF00F079
:104BD00017F911E000BFFCF7DDF900BF0298FBF701
:104BE000CBFA00BF08E000BFFCF7D4F900BF029881
:104BF000FBF7C2FA00BF00BF00BF05B0BDE8F08FF1
:104C000004F4007008B1358900E00125D6F8009061
:104C100011E0D9F808000390D9F8040004900E9828
:104C20005B465246009038460399FFF7A9FEDDF82F
:104C30001090681E85B2002DEBD100BF00BF00BFF1
:104C4000FBF796FA029000BFFCF78AF900BF0F4805
:104C50000078401E0D4908700846007808B900F039
:104C60000BF900BFFCF796F900BF0298FBF784FA36
:104C700000BF00BF00BF04F4004008B9FDF7DEFC30
:104C800000210F98018000BFB7E70000DC00002082
:104C9000A000002000210AE001EB4102054B03EBDC
:104CA000820000220281026042604A1CD1B22029A7
:104CB000F2D37047F0DD002010B5044694F83700B9
:104CC000FFF7F4FE94F8370005490978884203D1CC
:104CD000204600F027F802E0204600F003F810BD5F
:104CE000C200002010B590F8373003EB43030C4CA2
:104CF00004EB83010B893BB901230B810023C360C3
:104D000003610860486009E00B895B1C0B810B683C
:104D1000C360002303610A681061086010BD0000D1
:104D2000F0DD002010B590F8373003EB43030B4C57
:104D300004EB83010B893BB901230B810023C36082
:104D400003610860486008E00B895B1C0B8100234D
:104D5000C3604A680261D060486010BDF0DD002089
:104D600010B501460C8924B1012C03D0022C0CD1C2
:104D700001E000BF14E008684A6802610024C460D2
:104D80001461D0600A6048600AE008684A68C36835
:104D900000241C61C4600261D0600B60486000BFE9
:104DA00000BF10BD2DE9F041054695F8370000EB36
:104DB0004000124901EB80042F69EE6887B946B9BB
:104DC000002020812060606095F83700FFF780FEAA
:104DD0000EE02089401E208100203061266007E01F
:104DE0002089401E2081FE600EB9676000E03761B7
:104DF00000202861E860BDE8F0810000F0DD0020BF
:104E000010B5002400BFFBF7B3F9044600BF002033
:104E10000D4908700D480E49086008460068D0F832
:104E20009000401C0968C1F890000A480068401CC6
:104E3000084908604FF080500749086000BF2046CD
:104E4000FBF79AF900BF10BDC30000201CDD002055
:104E5000380100200801002004ED00E010B50448EE
:104E60000078012803D1FCF709F90249086010BD58
:104E7000DC000020D000002010B50A48007880B97E
:104E8000FCF7FCF808490968441A08480068A04281
:104E900001D20648046006480068A04201D20448D6
:104EA000046010BDDC000020D0000020D4000020F1
:104EB000D800002070B50546002635480078012846
:104EC00000D070BD00BF00BFFBF752F9064600BF1F
:104ED000FCF746F800BF2C684CB900BFFCF75AF845
:104EE00000BF3046FBF748F900BF00BFE9E729489B
:104EF000844209D100BFFCF74DF800BF3046FBF7F4
:104F00003BF900BF00BFDCE7A06D10B1A06D401EF3
:104F1000A065A06D48B100BFFCF73CF800BF30466B
:104F2000FBF72AF900BF00BFCBE72889022809DA7E
:104F300000BFFCF72FF800BF3046FBF71DF900BF9C
:104F400000BFBEE714480078002809DD00BFFCF769
:104F500021F800BF3046FBF70FF900BF00BFB0E7F4
:104F60002846FFF7FDFE2C68606D18B90B480068F5
:104F7000A06501E0606DA06500BFFCF70BF800BF05
:104F80003046FBF7F9F800BF00BF00BF99E700000B
:104F9000E400002054DC0020DC000020E0000020C1
:104FA0000021034A1160034A11800180704700000C
:104FB000E8000020EC0000202DE9FF5F0446884651
:104FC00091461D460020019000BF00BFFBF7D0F8BE
:104FD000019000BFFBF7C4FF00BF04F10807388948
:104FE000002857D10420012804D0022816D0042814
:104FF0003AD127E0206AFF280FD100BFFBF7CAFF94
:1050000000BF0198FBF7B8F800BF00BF46F6C550D7
:105010002880002004B0BDE8F09F26E04FF6FF7125
:10502000206A88420DD100BFFBF7B4FF00BF019892
:10503000FBF7A2F800BF00BF46F6C550288000204D
:10504000E8E712E0206A401C68B900BFFBF7A2FF46
:1050500000BF0198FBF790F800BF00BF46F6C550AF
:1050600028800020D6E700E000BF00BF206A401C77
:105070002062D4F820A0C4F8249000BFFBF78AFF78
:1050800000BF0198FBF778F800BF00BF0020288020
:105090005046BFE700BF2D480078401C2B490870E0
:1050A00008460078012801D1FFF7D8FE00BFFBF7C2
:1050B00071FF00BF0198FBF75FF800BF00BF00BFA2
:1050C00008F4007008B13E8900E00126D7F800B06E
:1050D00011E0DBF808000290DBF8040003900023E5
:1050E0001A46CDF8009020460299FFF749FCDDF8FA
:1050F0000CB0701E86B2002EEBD1D4F820A000BFF9
:1051000000BF00BFFBF734F8019000BFFBF728FF9A
:1051100000BF0E480078401E0C4908700846007811
:1051200008B9FFF7A9FE00BFFBF734FF00BF0198E5
:10513000FBF722F800BF00BF00BF08F4004008B929
:10514000FDF77CFA00202880504663E7DC00002051
:1051500086B00020009000BF06E0D94909684800E9
:1051600001AA0021FEF788FBD64800780128F4D177
:1051700001A8FDF7AFFB0027D3480068D0490968B4
:10518000884205D9D0480068CD490968B0FBF1F7DD
:1051900027B9CD4800680A21B0FBF1F78EE1FBF793
:1051A0006DFF8246FBF7C6FEC849086000BF00BF1E
:1051B000FAF7DEFF009000BFFBF7D2FE00BFC44845
:1051C0000068C44908600020C149086000BFFBF7BF
:1051D000E1FE00BF0098FAF7CFFF00BF00BFBE4856
:1051E0000068BC490968884248D9BB480068BB4987
:1051F000884205D242F2107003900120029023E011
:10520000B5480068B649884205D24FF47A700390D9
:105210000A20029018E0B0480068B249884203D2E0
:105220006420039002900FE0AB480068AE498842CA
:1052300005D20A2003904FF47A70029004E0012016
:10524000039042F210700290A34801680298B1FBEB
:10525000F0F9A049039809684843B0FBF9F042F21D
:105260001071081AA1490880A1480088098888425D
:1052700008DA9E4800889E49088003E042F21070D8
:105280009A490880FDF75AFC002500BF00BFFAF7D5
:105290006FFF009000BFFBF763FE00BF95480468F6
:1052A00000BFFBF777FE00BF0098FAF765FF00BF6D
:1052B00000BF72E000BF00BF00BFFAF759FF0090C7
:1052C00000BFFBF74DFE00BF8B480078401C8A49A9
:1052D000087008460078012801D1FFF7BFFD00BF24
:1052E000FBF758FE00BF0098FAF746FF00BF00BF6B
:1052F00000BF54F89C0F6060002044F89C0900BF78
:1053000000BF00BFFAF734FF009000BFFBF728FE94
:1053100000BF79480078401E774908700846007839
:10532000D0B9FFF7A9FD7548008800280BDD00BF44
:10533000FBF730FE00BF0098FAF71EFF00BF00BF6A
:10534000FFF75EFD11E000BFFBF724FE00BF0098F1
:10535000FAF712FF00BF08E000BFFBF71BFE00BF1B
:105360000098FAF709FF00BF00BF00BFD4F8A00003
:10537000054400BF00BFFAF7FBFE009000BFFBF73B
:10538000EFFD00BFD4F8C04000BFFBF703FE00BF35
:105390000098FAF7F1FE00BF00BF002C8AD145B398
:1053A0004E48854205D242F2107005904FF0010B35
:1053B0001BE04B48854205D24FF47A7005904FF0C0
:1053C0000A0B12E04748854203D2642005908346C9
:1053D0000BE04548854204D20A2005904FF47A7BC1
:1053E00003E00120059042F2107BB5FBFBF0049036
:1053F00003E0002005900120049000BF00BFFAF7F1
:10540000B7FE009000BFFBF7ABFD00BF3948046852
:1054100000BFFBF7BFFD00BF0098FAF7ADFE00BF6D
:1054200000BF2FE0D4F8A000059948430499B0FBD1
:10543000F1F086B242F21070864200D90646A4F816
:105440008C60B4F88E00B04201DAA4F88E6001AB33
:1054500004F1AC02111D2046FEF7BAF800BF00BFF0
:10546000FAF786FE009000BFFBF77AFD00BFD4F884
:10547000C04000BFFBF78EFD00BF0098FAF77CFE2E
:1054800000BF00BF002CCDD11D480078012805D1F8
:1054900000201B49087001A8FDF71CFAFBF7EEFD80
:1054A000A0EB0A0817480068404502D21548C0F82A
:1054B000008001AA00213846FEF7DEF96FE6000001
:1054C00014880008000100202C88000890000020AB
:1054D000F4000020FC000020F8000020801A0600E4
:1054E00000093D00005A62020084D717F000002036
:1054F000F20000200C010020DC000020A0000020B1
:10550000EE0000200401002010B58AB004460020FF
:105510001F4908601F4908601F4908601F4908703B
:105520001F4908701F48006820B946F62B6020808C
:105530000AB010BD1C4800681C490968884203D2A3
:1055400046F62C602080F3E7194800781F2803D323
:1055500046F62A602080EBE7032000210591CDE983
:1055600007040691084610490968124A12680D4B53
:105570001B68CDE90132CDE903100D480078002306
:105580000D4A0EA100901248FDF7E2FA00BFCFE7E6
:10559000F4000020FC000020F800002000010020A2
:1055A000EE000020188800082088000828880008DD
:1055B000108800081C8800085151000875432F4FBF
:1055C000532D4949492053746174205461736B0011
:1055D00070DF002038B504460D4685B16B460222C7
:1055E0002946204600F082FEBDF8000018B90320CD
:1055F00084F8360006E0022084F8360002E002203B
:1056000084F836002046FFF7CDFB38BD0021C0F8F6
:10561000BC100949096819B90021C0F8C01007E099
:1056200005490968C0F8C01003490968C1F8BC0001
:1056300001490860704700000C010020D0F8BC2030
:10564000D0F8C0104AB90D4B196011B10023C1F850
:10565000BC300023C0F8C0300FE029B90023C2F8E5
:10566000C030C0F8BC3008E0C2F8C010C1F8BC209F
:105670000023C0F8C030C0F8BC3070470C010020D7
:105680000021044A1160044A1180044A116001801B
:10569000704700000C0100201001002008010020CC
:1056A00070B5044600202060A0606060E06020616A
:1056B0006061A061E0612BA0206200206062A062B6
:1056C000E0622063E0872064E065A4F860000021C8
:1056D00004F16400FEF78AFF002044F8740F606054
:1056E000E060A0822061743C002506E0002104F106
:1056F0007C0040F82510681CC5B2002DF6D00020B3
:105700003434206120676067606084F85600E06789
:10571000A06720814FF0004060610020A061E0613F
:1057200020626062A4F85800A4F85A00E065206680
:10573000FBF7A4FC064666660020A066C4F880005D
:10574000C4F8840020706070A0702020E0700020F9
:10575000C4F88800C4F88C0004A0C4F89000343C5D
:1057600070BD00003F5461736B000000200000001A
:105770002DE9FC4704460F4690469946DDE90A6547
:105780004FF0000A00BF00BF00BFFAF7F1FC8246ED
:1057900000BFFBF7E5FB00BF8D480078401C8C493B
:1057A000087008460078012801D1FFF757FB00BFB9
:1057B000FBF7F0FB00BF5046FAF7DEFC00BF00BF6E
:1057C00000BF0CB9834804680020288094F8360094
:1057D00008287CD2DFE800F00405484906074A4B58
:1057E00000BF00BF00BF4B464246394604F164008B
:1057F000CDE90065FEF702FF00BF00BF00BFFAF76A
:10580000B7FC824600BFFBF7ABFB00BF70480078D7
:10581000401E6F49087008460078D0B9FFF72CFB8E
:105820006D48008800280BDD00BFFBF7B3FB00BF0D
:105830005046FAF7A1FC00BF00BFFFF7E1FA11E004
:1058400000BFFBF7A7FB00BF5046FAF795FC00BF6F
:1058500008E000BFFBF79EFB00BF5046FAF78CFC48
:1058600000BF00BF00BFAFE000BF00BF00BF94F8A3
:10587000340002282CD143463A46214600200096A7
:10588000FFF77EF800BF00BF00BFFAF771FC824649
:1058900000BFFBF765FB00BF4D480078401E4C4938
:1058A00008700846007808B9FFF7E6FA00BFFBF772
:1058B00071FB00BF5046FAF75FFC00BF00BF00BF9E
:1058C00009F40040002843D1FCF7B8FE40E040E076
:1058D0004B464246394604F16400CDE90065FEF7C7
:1058E0008DFE00BF00BF00BFFAF742FC824600BF3A
:1058F000FBF736FB00BF36480078401E344908707D
:1059000008460078D0B9FFF7B7FA33480088002876
:105910000BDD00BFFBF73EFB00BF5046FAF72CFC47
:1059200000BF00BFFFF76CFA11E000BFFBF732FBCE
:1059300000BF5046FAF720FC00BF08E000BFFBF7AD
:1059400029FB00BF5046FAF717FC00BF00BF00BF9D
:105950003AE000BF00BF00BFFAF70AFC824600BF72
:10596000FBF7FEFA00BF1A480078401E184908707D
:1059700008460078D0B9FFF77FFA1748008800285A
:105980000BDD00BFFBF706FB00BF5046FAF7F4FB48
:1059900000BF00BFFFF734FA11E000BFFBF7FAFACF
:1059A00000BF5046FAF7E8FB00BF08E000BFFBF776
:1059B000F1FA00BF5046FAF7DFFB00BF00BF00BF9F
:1059C00046F62D60288000BF00BFBDE8FC870000C0
:1059D000DC00002034010020A000002010B50446A7
:1059E000204600F061FD94F8360000F0040010B984
:1059F0002046FFF761F910BD70B504460D4600263C
:105A000000BF00BFFAF7B4FB064600BFFBF7A8FAD9
:105A100000BF0020288094F8360008287ED2DFE8F6
:105A200000F00405060714566A8000BF00BF00BFDF
:105A300000BFFBF7AFFA00BF3046FAF79DFB00BF8F
:105A400000BF47F2531028808CE000BF4848007820
:105A5000401C4749087008460078012801D1FFF72B
:105A6000FDF900BFFBF796FA00BF3046FAF784FB5A
:105A700000BF00BF00BF14F88A0F401E207014F84A
:105A80008A0928B9002084F836002046FFF7A6FFCF
:105A900000BF00BF00BFFAF76BFB064600BFFBF775
:105AA0005FFA00BF32480078401E3149087008464E
:105AB000007808B9FFF7E0F900BFFBF76BFA00BF09
:105AC0003046FAF759FB00BF00BF00BF4AE014F8A8
:105AD0008A0F401E207014F88A0910B9012084F83A
