:020000040800F2
:10000000D0F300204501000887200008011C0008EB
:10001000C51F0008D10D0008097F0008000000007E
:10002000000000000000000000000000BD75000896
:100030000914000800000000AB0900089D3E0008FC
:100040005F0100085F0100085F0100085F01000810
:100050005F0100085F0100085F0100085F01000800
:100060005F0100085F010008391600085F01000801
:100070005F0100085F0100085F0100085F010008E0
:100080005F0100085F0100085F0100085F010008D0
:100090005F0100085F0100085F0100085F010008C0
:1000A0005F0100085F0100085F0100085F010008B0
:1000B0005F0100085F0100085F0100085F010008A0
:1000C0005F0100085F0100085F0100085F01000890
:1000D0005F010008FD7900085F0100085F0100086A
:1000E0005F0100085F0100085F0100085F01000870
:1000F0005F0100085F0100085F0100085F01000860
:100100005F0100085F0100085F0100085F0100084F
:100110005F0100085F0100085F0100085F0100083F
:100120005F0100085F0100085F0100085F0100082F
:10013000DFF80CD000F09AFB00480047A5920008B9
:10014000D0F300200648804706480047FEE7FEE758
:10015000FEE7FEE7FEE7FEE7FEE7FEE7FEE7FEE777
:10016000157800083101000872B6704762B6704712
:10017000EFF3108072B6704780F31088704730BF7D
:10018000704720BF7047B0FA80F0704790FAA0F037
:10019000B0FA80F0704790FAA0F07047A0F14101EA
:1001A000192900D82030704740EA01039B0703D08B
:1001B00009E008C9121F08C0042AFAD203E011F8A6
:1001C000013B00F8013B521EF9D27047D2B201E068
:1001D00000F8012B491EFBD270470022F6E710B54C
:1001E00013460A4604461946FFF7F0FF204610BDA5
:1001F000421E12F8013F002BFBD111F8013B02F81F
:10020000013B002BF9D17047CAB2401E10F8011F04
:100210008A4202D00029F9D100207047421C10F810
:10022000011B0029FBD1801A704710B5002200E0A5
:10023000521C835C8C5CA34201D1002BF8D1D8B254
:10024000E1B2401A10BD034611F8012B00F8012B52
:10025000002AF9D11846704730B5054600200346FC
:1002600000E05B1C934205D2EC5CC85C201A01D113
:10027000002CF6D130BD2DE9FE4F804681EA030007
:10028000C00F0C46009021F0004123F00045B8EB70
:100290000200A94105D24046214690461C460B4625
:1002A000024623F00040104347D0270DC7F30A0051
:1002B000C3F30A510290401A019040286BDAC3F34D
:1002C000130040F4801B0098924620B10023D2EB2B
:1002D000030A63EB0B0B01985946C0F140025046EC
:1002E00000F097F906460D4650465946019A00F02F
:1002F000AFF910EB08006141002487EA115284EA4B
:10030000E7731A4340D0009A62B3019A012A4FEA78
:10031000075215DC001B61EB02014FF0004202EABC
:100320000752CDE90042001C41F5801132462B46B0
:1003300000F0AFF903B0BDE8F08F40462146F9E781
:10034000001B61EB0201001C41F5801300185B41AA
:100350002018A2F5001747EB030140EAD570B61943
:100360006D4111E06D084FEA360645EAC0754FEA67
:100370000752001B61EB0201001C41F58011490886
:100380004FEA30000019514132462B4603B0BDE818
:10039000F04F00F06FB90098012240000023D0EB2D
:1003A000020263EBE073009821464FEAE074B8EB79
:1003B000000061EB0401E9E783F000435BE781F0B3
:1003C000004158E72DE9FE4F81EA030404F00044A0
:1003D00021F0004100944FF0000B23F0004350EA5D
:1003E00001045ED052EA03045BD0C3F30A54C1F3A4
:1003F0000A552C44A4F2F3340194A0FB0254C1F337
:10040000130141F48011C3F3130343F4801301FB80
:10041000024400FB034E840A970A44EA815447EAE7
:100420008357A4FB076802958D0A05FB07854FEAF1
:10043000932C04FB0C542705029D4FEA065847EA0B
:100440001637B5EB08056EEB070C870E920E47EAE0
:10045000811742EA8312A7FB0201B6EB0B0164EBA2
:1004600000042B0D43EA0C335E1844EB1C50DA46B3
:100470005146E7FB0201C5F313044FEA0B3343EA8D
:1004800014534FEA0432019C43EA0603A4F10C041E
:100490000294009CCDE900B400F0FBF803B0BDE885
:1004A000F08F00200146F9E70EB5C10F80EAE07039
:1004B0000844CA07002140F233438DE80E000A4683
:1004C0000B4600F0E6F803B000BD0EB540F2334134
:1004D00002910021CDE900110A460B4600F0D9F83F
:1004E00003B000BD70B5C1F30A5201F0004500240D
:1004F000C1F3130140F2FF3341F480119A4201DA53
:10050000002070BD40F233439A42A2F2334203DC32
:10051000524200F08DF800E090402C43F1D0404270
:1005200070BD000030B5041E71F1000404DB4FF013
:100530000044404264EB0101141E73F1000405DB2A
:100540001C464FF00043524263EB04038B4208BF4A
:10055000824230BD30B5041E71F1000404DB4FF05F
:100560000044404264EB0101141E73F1000405DBFA
:100570001C464FF00043524263EB0403994208BF0C
:10058000904230BD30B50B460146002020220124A8
:1005900009E021FA02F59D4205D303FA02F5491B51
:1005A00004FA02F52844151EA2F10102F1DC30BD67
:1005B0002DE9F05F0546002092469B468846064698
:1005C000814640241BE0284641464746224600F02B
:1005D0002FF853465A46C01A914110D31146184677
:1005E000224600F016F82D1A67EB01084F46224606
:1005F0000120002100F00DF817EB00094E41201EEC
:10060000A4F10104DFDC484631462A464346BDE8F2
:10061000F09F202A04DB203A00FA02F10020704704
:100620009140C2F1200320FA03F319439040704730
:10063000202A04DB203A21FA02F00021704721FA37
:1006400002F3D040C2F1200291400843194670479E
:10065000202A06DBCB17203A41FA02F043EAE07386
:1006600006E041FA02F3D040C2F120029140084373
:100670001946704710B5141E73F1000408DA401CC7
:1006800041F1000192185B411A4301D120F00100B1
:1006900010BD2DE9F04D92469B4611B1B1FA81F2A1
:1006A00002E0B0FA80F220329046FFF7B2FF044633
:1006B0000F4640EA0A0041EA0B0153465A460843F6
:1006C00013D0114653EA010019D0C8F14002504638
:1006D000FFF7AEFF05460E46504659464246FFF725
:1006E00098FF084305D0012004E020463946BDE8C4
:1006F000F08D0020054346EAE0762C4337430A9804
:100700006305E40AA0EB08000022FD0A44EA47540E
:100710000A3002D500200146E9E7010510196941B8
:10072000DDE9084500196941BDE8F04DA2E72DE972
:10073000F04D81EA030404F0004B21F0004514461B
:100740004FF0000A23F0004150EA050220D054EA9D
:1007500001021DD0C5F30A570246C5F31303C1F3C6
:100760001300C1F30A5640F4801543F48013A7EB3D
:100770000608101BD64608F2FD3873EB050002D3BD
:1007800008F1010801E092185B41B8F1000F03DAAB
:1007900000200146BDE8F08D00204FF48011064690
:1007A00084460EE0171B73EB050705D3121B63EBA2
:1007B000050306434CEA010C49084FEA3000921841
:1007C0005B4150EA0107EDD152EA030012D082EA00
:1007D000040083EA0501084305D0101BAB4106D293
:1007E0000122002306E000224FF0004302E06FF0F8
:1007F000010253101AEB06004CEB085110EB0A00F3
:1008000041EB0B01BDE8F04DFFF734BF70B521F0AF
:10081000004303430CD0C1F30A550024D5EB040573
:1008200064EB0403D617AD1AB34102DB0020014686
:1008300070BD201841EB025170BDC1F30A52C1F3E3
:10084000130140F2FF3341F480119A4202DA002092
:100850000146704740F233439A42A2F2334202DC2F
:100860005242FFF7E5BEFFF7D4BE0000064C074D2D
:1008700006E0E06840F0010394E807009847103470
:10088000AC42F6D3FFF758FC90AF0008B0AF0008B9
:100890002DE9F04D00231A461B1A8A4103DB002084
:1008A0000146BDE8F08DC1F30A52C1F3130141F4D2
:1008B00080154FF0000BD10702D100186D41521E78
:1008C0000027044640F2FF11384601EB620A3E461B
:1008D0008046024600204FF48011FFF7A9FEC2199E
:1008E0007141BB1846EB0100B4EB030C75EB000C37
:1008F00004D3E41A65EB000517460E46241908F1E7
:1009000001006D4180463428E3DDF91946EB06000D
:10091000091BA84103D24FF0FF32134601E0002229
:1009200013461BEB070046EB0A51BDE8F04DFFF7FD
:10093000A1BE70B58C1810F8015B15F0070301D14A
:1009400010F8013B2A1106D110F8012B03E010F832
:10095000016B01F8016B5B1EF9D12B0705D4002355
:10096000521E0DD401F8013BFAE710F8013BCB1AF7
:10097000921C03E013F8015B01F8015B521EF9D5EC
:10098000A142D8D3002070BD18484FF0FF0101707C
:10099000002080F309881648016881F3088815480B
:1009A0004FF08051016062B6FEE772B6EFF3098046
:1009B00028B1203880E8F00F0F490968086000B5B9
:1009C0000E4880475DF804EB0D480E490A78027026
:1009D00009480D490A680260106890E8F00F20305D
:1009E00080F309884EF0040E62B6704722ED00E0F5
:1009F0005801002004ED00E050010020253A0008D5
:100A0000DE000020DF0000205401002070B58AB015
:100A1000064600F0CDF900F0DDF900F0C0F904461B
:100A20002B480068B4FBF0F5284603F057FA01F0B4
:100A3000D5FA09A802F056FA00F03AFA09AA0021FC
:100A4000012002F0E1F809AA22A1244801F0F2FCF9
:100A500009AA23A1244801F0EDFC09AA23A12548F5
:100A600001F0E8FC09A8032100220592CDE9062146
:100A7000089032204FF4007133221F4BCDE9013230
:100A8000CDE90310032000231C4A1DA1009021483A
:100A900002F0B2FA09A8032100220592CDE906214D
:100AA000089032204FF4007133221B4BCDE9013204
:100AB000CDE9031003200023184A19A100901E4815
:100AC00002F09AFA09A9002002F0ECFB0AB070BD0E
:100AD0004CAD00084C69737400000000A8010020B0
:100AE0005573617274000000D4010020536F636B72
:100AF0006574000000020020740F00207D0C0008C7
:100B00004170705F5461736B5F5443505F53657203
:100B100076657200E4030020741700203D0B000886
:100B20004170705F5461736B5F506F6C6C5F4465B4
:100B30007669636500000000AC04002008B500255C
:100B4000012491E0102C00DD0124204600F094FAED
:100B50006B46002211464FF4FA6002F003FD00BF1D
:100B600000BF00BFFFF704FB054600BF00F0CCF953
:100B700000BF3E480078401C3C4908700846007899
:100B8000012801D104F060FB00BF00F0D7F900BFDD
:100B90002846FFF7F1FA00BF00BF00BF34480078D5
:100BA000D0B13448C078A0420DD1204600F0B6FD47
:100BB00018B1304800F0FCFA02E02E4801F022F8AB
:100BC000601CC4B211E02B49C87800F0A7FD60B1E9
:100BD000284800F0EDFA08E0204600F09FFD10B133
:100BE000204600F013FC601CC4B221480178214863
:100BF000FFF7F3FA00201E49087000BF00BF00BFD6
:100C0000FFF7B6FA054600BF00F07EF900BF1748AF
:100C10000078401E1549087008460078D0B904F0E5
:100C200021FB1548008800280BDD00BF00F086F985
:100C300000BF2846FFF7A0FA00BF00BF04F0D6FAB5
:100C400011E000BF00F07AF900BF2846FFF794FAE0
:100C500000BF08E000BF00F071F900BF2846FFF7B1
:100C60008BFA00BF00BF00BF6CE70000F800002057
:100C70001F000020741F0020BC0000200EB501F0F2
:100C800067F907F08DF907F003FA1DE007F07AFA2B
:100C90000E48007808B107F005FA0D48007800F01A
:100CA000010040B10A48007820F0010008490870AE
:100CB000002006F035F902A800210A230A46CDE9F2
:100CC0000010084602F0A8FFE0E7000082010020C3
:100CD0007E01002070B586B006460D460024E878F7
:100CE0008DF8040068798DF8060000BF1AE0E879F5
:100CF0006100084100F00200022801D1102100E04B
:100D000000210DF107000155E8796100084100F06C
:100D1000010008B1102100E000210DF10D00015586
:100D2000601CC4B2042CE2DB00241CE0A879610042
:100D3000084100F00200022801D1102200E0002248
:100D4000201D0DF107010A54A8796100084100F047
:100D5000010008B1102200E00022201D0DF10D015C
:100D60000A54601CC4B2022CE0DB00240EE0287A96
:100D70006100084100F00200022801D1102100E0CA
:100D800000210DF113000155601CC4B2042CEEDBF0
:100D9000132201A93046FFF707FA06B070BD00B56F
:100DA00085B0684606F062F9019805B000BD000004
:100DB00010B501F017F801F049F806F0A3FF01F0B3
:100DC000A5F90249086007F0A1F810BD180000203D
:100DD00000BFFEE710B500F0FBF800F003F800F0EC
:100DE000F3F810BD70B50026002018490880184996
:100DF00008801849086018490860184908601849AF
:100E0000086018490860002400BFFFF7B1F90646E2
:100E100000BF00250BE000201049086000F074F8C6
:100E200000F08CF80D4800680444681C85B2002D61
:100E3000F1D00C48046000200849086008490860A7
:100E400000BF3046FFF798F900BF70BD6800002072
:100E50006A0000206C000020700000207800002054
:100E60007C0000207400002001460846044A1268F5
:100E7000904203D9024A1268801A00E000207047AD
:100E80007400002070B5002500BFFFF771F905461A
:100E900000BF0648046800BF2846FFF76DF900BF91
:100EA0002046FFF7E1FF0646304670BD780000207F
:100EB00070B50025FFF7E6FF044600BFFFF758F9BD
:100EC000054600BF00200449086000BF2846FFF720
:100ED00053F900BF204670BD7800002070B5002592
:100EE00000BFFFF745F9054600BF0648046800BF8C
:100EF0002846FFF741F900BF2046FFF7B5FF064639
:100F0000304670BD7C00002010B509480088401CA8
:100F1000074908800748008818B900F083F8064997
:100F2000086004480088401C0249088010BD000089
:100F3000680000206A0000206C00002010B50F48F7
:100F40000088401E0D49088008460088A0B900F0BE
:100F500069F80B490860084600680A490968441A9C
:100F600009480068A04201D20748046007480068A9
:100F7000A04201D20548046010BD00006A000020B4
:100F8000700000206C000020780000207C00002011
:100F900010B5002400BF00BFFFF7EAF8044600BF09
:100FA000FFF7B2FF00BF1021064801F00DF800BFA7
:100FB000FFF7C4FF00BF2046FFF7DEF800BF00BF09
:100FC00010BD00008863002010B5FFF7E1FF10BDE1
:100FD00010B500200249086000F00AF810BD0000BA
:100FE0006400002001490860704700006400002090
:100FF00010B50A48006840F0807008490860002079
:10100000074948600846006840F001000860FFF7A3
:10101000C6FE04462046FFF7E5FF10BDFCED00E0EC
:10102000001000E00148406870470000001000E038
:1010300070B502460B46002000240021002500BFA9
:1010400016E0CE1C9C5D00250EE080EA040606F04A
:1010500001060EB9401004E080F01800401040F086
:10106000800064106E1CF5B2082DEEDB4E1CF1B250
:10107000D61E8E42E5DC70BD1CB50446AD208DF851
:101080000000DA208DF8010002208DF802008DF8B2
:10109000034020208DF8040003208DF80500062170
:1010A000684606F00FFD1CBDF0B585B0064631461A
:1010B0006846FFF70FFE3D48006845693B480768F2
:1010C0006FE028789DF80010884268D10020687091
:1010D00000F0EAF8002444E0E81C015D0DF1030093
:1010E000005D814224D0E81C005D80B10DF1030059
:1010F000015DE81C01550DF10900015D05F10900D4
:1011000001552A78015D204600F0B6FE27E00DF17A
:101110000300015DE81C01550DF10900015D05F1B9
:10112000090001552A78015D204600F017FA16E003
:10113000E81C005D98B105F10900015D0DF10900A1
:10114000005D81420BD00DF10900015D05F1090040
:1011500001552B78025D0121204606F043FE601CFC
:10116000C4B2062CB8DB002415E005F10F00015DC8
:101170000DF10F00005D81420BD00DF10F00015DFC
:1011800005F10F0001552B78025D0221204606F083
:1011900029FE601CC4B2A878A042E6DC03E02F461A
:1011A0006D69002D8DD100BF05B0F0BD1800002085
:1011B0001CB5044601A800231A46194600900648AB
:1011C00001F0ACF92046FFF76FFF01AA00210248A9
:1011D00001F038FB1CBD0000A80100202DE9F047FC
:1011E00086B081460F4600240025142101A8FEF791
:1011F000F4FFA0460026384607F01CFF8046B8F1F1
:10120000000F07D107F0F0FE824651461CA007F000
:1012100059F92FE000242BE022461EA101A807F077
:1012200061F901A9404607F0E5FE064601A9306ACA
:10123000FEF7FBFFD0B91AA13069FEF7F6FF08B937
:10124000022505E017A13069FEF7EFFF00B901257F
:10125000022D01D0012D09D12A462146484606F02B
:1012600089FB2A462146484606F0C2FF601CC4B2EC
:10127000042CD1DB404607F08FFE06B0BDE8F087B6
:101280004572726F72206265666F72653A205B25E7
:10129000735D0A006368616E6E656C5F25640000B3
:1012A0006F6E00006F6666002DE9F0470446204629
:1012B00000F034FA002838D007F056FE81461CA012
:1012C00007F05BFE05462A461CA1484607F022FEB1
:1012D0001BA007F052FE05462A461BA1484607F010
:1012E00019FE2046FFF7F1F8064607F02BFE0546EB
:1012F0002A4617A1484607F00DFE484607F0D4FEDF
:101300008046484607F048FE4046FEF787FF1249F0
:1013100008800846028841461048FEF745FF002035
:1013200005F010FE404608F0ADF8BDE8F08700007B
:10133000686561727462656174000000636D6400C9
:1013400070657266653100006D6F64656C00000049
:10135000616464720000000080010020D8EB00206E
:101360002DE9F047044607F0FFFD81461BA007F07A
:1013700004FE05462A461BA1484607F0CBFD1AA0ED
:1013800007F0FBFD05462A4619A1484607F0C2FDB5
:101390002046FFF79AF8064607F0D4FD05462A4690
:1013A00015A1484607F0B6FD484607F07DFE804689
:1013B000484607F0F1FD4046FEF730FF104908802F
:1013C0000846028841460F48FEF7EEFE002005F071
:1013D000B9FD404608F056F8BDE8F0876F66666CC8
:1013E000696E6500636D640070657266653100004A
:1013F0006D6F64656C000000616464720000000041
:1014000080010020D8EB0020704700007CB5064624
:101410001748006844691648056801A800231A4661
:1014200019460090134801F079F818E02078B0428E
:1014300013D16078052809DD60696861204607F0EE
:1014400009FF6C693046FFF78BFF05E06078401CB0
:10145000607060780849087003E025466469002CD4
:10146000E4D100BF01AA0021024801F0EBF97CBDE4
:1014700018000020A8010020200000201FB53648D9
:101480000078401CC0B28DF8080033484078401CFA
:10149000C0B28DF8090030488078401CC0B28DF889
:1014A0000A002D48C078401CC0B28DF80B0002AA7B
:1014B0000C21002006F0BAFF01220021084606F0A8
:1014C00079FF01221146002006F074FF03A80021D5
:1014D00005230A46CDE90010084602F09DFB0321D2
:1014E000002005F0E3FE132807D010220121002080
:1014F00006F060FF002004B010BD0422012100208E
:1015000006F058FF00BF00240221002005F0CEFEA7
:10151000044624B122460221002006F04BFF03A816
:10152000002105230A46CDE90010084602F074FBAD
:1015300004F00800082801D10020DCE70621002083
:1015400005F0B4FEFF2806D010220121002006F08D
:1015500031FFFF20CFE7D6E76A0100202DE9F04FE9
:10156000B3B005460E461446C82101A8FEF735FE65
:1015700001AA3146284600F08BFA07F0F5FC8346B5
:1015800020A007F0FAFC07463A4621A1584607F08A
:10159000C1FC20A007F0F1FC07463A461FA15846BF
:1015A00007F0B8FC2046FEF790FF074607F0CAFC9C
:1015B00081464A461BA1584607F0ACFC01A807F03B
:1015C000DCFC07463A4619A1584607F0A3FC5846EA
:1015D00007F06AFD8246584607F0DEFC5046FEF7EB
:1015E0001DFE134908800846028851461148FEF73F
:1015F000DBFD002005F0A6FC504607F043FF33B0AA
:10160000BDE8F08F646973636F76657279000000DE
:10161000636D640070657266653100006D6F6465AE
:101620006C0000006164647200000000696F0000DB
:1016300080010020D8EB002010B5102000F010F839
:1016400028B1102000F006F801200149087010BDF3
:101650008201002001490860704700001404014025
:10166000014600200022074B1B6803EA0102054BDC
:1016700014331B680B4013B10AB1012000E00020B5
:101680007047000000040140002123498279002AAC
:101690003AD00A46126803689A430B461A600A1D3C
:1016A000126803689A430B1D1A60027911440A6894
:1016B00003681A430A60184A0832126803689A439A
:1016C000154B08331A601A1D126803689A43124BAF
:1016D0000C331A604279102A0ED11A1F126803685F
:1016E0001A430D4B08331A601A1D126803681A4317
:1016F000094B0C331A600DE00749427911440A681E
:1017000003681A430A6005E0027911440A68036815
:101710009A430A6070470000000401401CB504466B
:1017200001A800231A46194600900A4800F0F6FE68
:10173000204600F011F830B101AA0021054801F05F
:1017400081F801201CBD01AA0021024801F07AF8AD
:101750000020F7E7A8010020024607480068416919
:1017600005E00878904201D10120704749690029BD
:10177000F7D10020F9E700001800002030B5002262
:101780008B071C0F0F2303FA04F20B4B8C1053F83A
:1017900024309343084C8D1044F8253023468C1098
:1017A00053F824308C07240F00FA04F42343024C2E
:1017B0008D1044F8253030BD080001402DE9F0417E
:1017C000024600250026002000230024002791F86F
:1017D00003C00CF00F0591F803C00CF0100CBCF125
:1017E000000F03D091F802C04CEA050591F800C043
:1017F000BCF1000F31D0146800202BE04FF0010C39
:101800000CFA00F3B1F800C00CEA03069E4220D1A6
:1018100083004FF00F0C0CFA03F7BC4305FA03FCEE
:101820004CEA040491F803C0BCF1280F06D14FF034
:10183000010C0CFA00FCC2F814C00AE091F803C0D5
:10184000BCF1480F05D14FF0010C0CFA00FCC2F8B6
:1018500010C0401C0828D1D31460B1F800C0BCF1FE
:10186000FF0F34DD546800202EE000F1080C4FF02B
:10187000010808FA0CF3B1F800C00CEA03069E4216
:1018800021D183004FF00F0C0CFA03F7BC4305FA8B
:1018900003FC4CEA040491F803C0BCF1280F05D105
:1018A00000F1080C08FA0CF8C2F8148091F803C093
:1018B000BCF1480F07D100F1080C4FF0010808FAFD
:1018C0000CF8C2F81080401C0828CED35460BDE844
:1018D000F081416170470161704700002DE9F047D8
:1018E0008046894616461F460024A24600250A2047
:1018F00007F008FD82460A2007F004FD054624A0F3
:101900000088388000BF31E018F8042021A150463B
:1019100006F0E8FD19F8040028B121A0016829604B
:101920004068686006E020A001682960416869603D
:10193000008928811EA13846FEF75AFC51463846D8
:10194000FEF756FC1BA13846FEF752FC29463846E6
:10195000FEF74EFC16A13846FEF74AFC601CC4B2E6
:10196000B44203DA14A13846FEF742FCB442CBDBA2
:10197000504607F06FFC284607F06CFC4FF0000A59
:1019800000250EA13846FEF733FCBDE8F0870000C5
:101990007B0000006368616E6E656C5F256400000B
:1019A0007072657373000000756E707265737300FA
:1019B00022000000223A22002C0000007D000000DE
:1019C0002DE9F04780460E4617460024A146002523
:1019D0000A2007F097FC81460A2007F093FC054691
:1019E00021A00088388000BF2CE022461FA1484675
:1019F00006F078FD18F8040028B11FA0018829809E
:101A00008078A87002E01DA0006828601CA13846FC
:101A1000FEF7EEFB49463846FEF7EAFB19A13846C9
:101A2000FEF7E6FB29463846FEF7E2FB14A13846EE
:101A3000FEF7DEFB601CC4B2B44203DA12A13846E2
:101A4000FEF7D6FBB442D0DB484607F003FC28463D
:101A500007F000FC4FF0000900250CA13846FEF706
:101A6000C7FBBDE8F08700007B0000006368616E83
:101A70006E656C5F256400006F6E00006F66660027
:101A800022000000223A22002C0000007D0000000D
:101A90002DE9F04106460F4615464FF00008002498
:101AA0000A2007F02FFC80460A2007F02BFC044692
:101AB00032461CA1404606F015FD2FB11CA001685E
:101AC00021604068606006E01BA0016821604168F9
:101AD0006160008920811AA00088288019A1284609
:101AE000FEF786FB41462846FEF782FB16A12846F4
:101AF000FEF77EFB21462846FEF77AFB11A1284619
:101B0000FEF776FB404607F0A5FB204607F0A2FB58
:101B10004FF0000800240DA12846FEF769FBBDE840
:101B2000F08100006368616E6E656C5F2564000083
:101B30007072657373000000756E70726573730068
:101B40007B00000022000000223A22007D000000FD
:101B50002DE9F04106460F4615464FF000080024D7
:101B60000A2007F0CFFB80460A2007F0CBFB044693
:101B700032461AA1404606F0B5FC2FB11AA00188E2
:101B800021808078A07002E018A00068206018A072
:101B90000088288017A12846FEF72AFB41462846E0
:101BA000FEF726FB14A12846FEF722FB2146284615
:101BB000FEF71EFB0FA12846FEF71AFB404607F072
:101BC00049FB204607F046FB4FF0000800240BA11C
:101BD0002846FEF70DFBBDE8F08100006368616EEA
:101BE0006E656C5F256400006F6E00006F666600B6
:101BF0007B00000022000000223A22007D0000004D
:101C000000BFFEE71CB5044601A800231A4619468A
:101C10000090064800F082FC204600F009F801AA76
:101C20000021024800F00EFE1CBD0000A8010020AB
:101C3000F0B585B007461248006845691048066847
:101C4000182007F05FFB044639466846FFF742F864
:101C5000132269462046FEF7A7FA0020607001E0D3
:101C60002E466D69002DFBD170696061746120782A
:101C700000F03EF8204600F005F805B0F0BD000089
:101C80001800002070B588B005460024002600200A
:101C90000690079004900590039000BF0DE0E81CAB
:101CA000005D40B106A8845505F10900005D04A956
:101CB0008855701CC6B2601CC4B2062CEFDB002431
:101CC00006E005F10F00005D03A90855601CC4B2D1
:101CD000A878A042F5DC2878A97803AB3246CDE994
:101CE000001004A906A805F03DFB08B070BD000077
:101CF0002DE9F047044607F037F981461BA007F0AD
:101D00003CF905462A461BA1484607F003F91AA0EC
:101D100007F033F905462A4619A1484607F0FAF8B4
:101D20002046FEF7D2FB064607F00CF905462A4688
:101D300015A1484607F0EEF8484607F0B5F9804689
:101D4000484607F029F94046FEF768FA104908802E
:101D50000846028841460F48FEF726FA002005F0A3
:101D6000F1F8404607F08EFBBDE8F0876A6F696EB8
:101D700000000000636D64007065726665310000EC
:101D80006D6F64656C0000006164647200000000A7
:101D900080010020D8EB002008B50121042005F0C7
:101DA00055F90120ADF8000028208DF803006946A0
:101DB0000148FFF703FD08BD0008014008B50121F7
:101DC000102005F043F94FF40050ADF80000282032
:101DD0008DF8030069460248FFF7F0FC08BD0000DB
:101DE0000010014010B5FFF7D7FFFFF7E7FF10BD68
:101DF00008B50121082005F029F90120ADF80000FF
:101E000010208DF8030003208DF8020069460D486C
:101E1000FFF7D4FC0121802005F018F98020ADF8EF
:101E2000000069460848FFF7C9FC0121802005F041
:101E30000DF94FF48070ADF8000069460248FFF7D5
:101E4000BDFC08BD000C0140001C014010B5FFF7AF
:101E5000CFFF01210648FFF73EFD80210548FFF72F
:101E60003AFD4FF480710348FFF735FD10BD0000C7
:101E7000000C0140001C01402DE9F04FB3B00546B5
:101E80000E461446C82101A8FEF7A7F901AA31465B
:101E90002846FFF7FDFD07F067F8834620A007F00E
:101EA0006CF807463A4620A1584607F033F81FA0C1
:101EB00007F063F807463A461EA1584607F02AF88D
:101EC0002046FEF702FB074607F03CF881464A46EB
:101ED0001AA1584607F01EF801A807F04EF8074669
:101EE0003A4618A1584607F015F8584607F0DCF8AE
:101EF0008246584607F050F85046FEF78FF91249CF
:101F000008800846028851461048FEF74DF9002027
:101F100005F018F8504607F0B5FA33B0BDE8F08F79
:101F20006C65617665000000636D640070657266C3
:101F3000653100006D6F64656C000000616464725F
:101F400000000000696F000080010020D8EB002035
:101F5000C02016490870A820487001208870C870F9
:101F6000FF2013490870487088700020C8700C204A
:101F70001049087029204870AB2088707C20C870F8
:101F80000020087112204871C0200B490870A82059
:101F90004870012088705920C870132007490870C4
:101FA0008820487000200649087070475C010020B6
:101FB00060010020640100206A0100206E01002001
:101FC0007C01002000BFFEE730B505460C462246E6
:101FD0000021284600F026F830BD00000D480E49CB
:101FE00001600146416000218160C1600161416181
:101FF0008161C16101620163C1624162074981631C
:10200000C1634FF4D841016441640146044A116040
:10201000704700009863002048454150E06300206D
:10202000800000202DE9F04103460C4617460FB909
:10203000BDE8F08103B9FBE70025002202E02D0294
:102040002543521C042AFAD3384603F0030C1946E0
:10205000BCF1000F08D0624603E001F8014B401EBE
:10206000521C08B1042AF8D30E4601E020C6001F16
:102070000428FBD2314602E001F8014B401E002843
:10208000FAD100BFD4E7704770B5002100230F22BA
:10209000C47804B3154C246804F4E064C4F5E06427
:1020A000210AC1F10403CA40447804FA03F1847898
:1020B0001440214309010E4C0678A155047804F020
:1020C0001F050124AC4005786D11AD0005F1E02538
:1020D000C5F8004109E0047804F01F050124AC4074
:1020E000044D0678761145F8264070BD0CED00E0F1
:1020F00000E400E080E100E002490143024A11608F
:10210000704700000000FA050CED00E010B5182043
:1021100007F0F8F8144908600846006820B913A0D1
:1021200006F0D0F9002010BD00200F4909680870A2
:102130000D49096848700C49096888700A480068A8
:10214000002140F8031F81800748006840F8091FFC
:10215000818005480068C0F80F1000200249096816
:10216000486101480068DEE71800002066616C7372
:10217000653100007047000010B50348006810B1D9
:1021800001480068804710BD9400002070B50446E7
:1021900000F0C2F8002048490870484908704849D2
:1021A000087048490860484908604849087048492B
:1021B000087048490870484908604849086048491B
:1021C000086048490870484800680A21B0FBF1F0EF
:1021D000464908604648006858B14648056845B118
:1021E0004348066803E0761E002028602D1D002E5F
:1021F000F9D1002040490860404908604049086022
:10220000404908604049086040490860404908600A
:102210004049087002F034FE02F032FF204601F01F
:102220004FFF208800B170BD204602F069FB208876
:1022300000B1F8E7204602F06FFB208800B1F2E71A
:10224000204602F06BFC208800B1ECE7204602F04B
:1022500047FE208800B1E6E7204603F097F8208883
:1022600000B1E0E7204603F001FC208800B1DAE786
:10227000204602F0B1FA208800B1D4E7204602F0EF
:10228000BBF8208800B1CEE7204604F057FC208838
:1022900000B1C8E7204603F02DFB208800B1C2E75B
:1022A000204604F0A7FC208800B1BCE701F02EFE18
:1022B000FFF760FF00BFB6E7A8000020B0000020D5
:1022C000F80000205001002054010020DE00002012
:1022D000DF000020E0000020EC000020F0000020E3
:1022E000F4000020000100204CAD0008FC0000209C
:1022F0001CAD000818AD0008880000208C000020EC
:102300009000002094000020980000209C000020F5
:10231000A00000202E0100200A4A1168002002E0DF
:10232000002204C1401C084A12689042F8D3054AB2
:102330001268054B1B6802EB8302121F034B1A60E5
:102340007047000018AD00081CAD000858010020BF
:1023500010B500242E480078012800D010BD00BF21
:10236000FDF706FF044600BF2A48007828B900BFE1
:102370002046FDF701FF00BFF0E726480078401E29
:102380002449087008460078002805DD00BF204673
:10239000FDF7F2FE00BFE1E71F480078002805DDE9
:1023A00000BF2046FDF7E8FE00BFD7E702F054FD6E
:1023B0001A4908700846007800EB4000184951F8A7
:1023C00020001849086008460068174909688842D3
:1023D00005D100BF2046FDF7CFFE00BFBEE7114884
:1023E0000068D0F89000401C0E490968C1F89000C0
:1023F0000E480068401C0D4908604FF080500C49A1
:10240000086000BF2046FDF7B7FE00BF00BFA5E78C
:10241000B0000020A8000020F8000020DF0000200D
:102420000CE600205401002050010020240100206F
:1024300004ED00E02DE9F04104460E461546002764
:1024400032480078002804DD42F6E1602880BDE8CB
:10245000F0811CB945F6C3502880F8E700BF00BFE3
:1024600000BFFDF785FE074600BFFEF74DFD00BF2C
:1024700027480078401C2649087008460078012843
:1024800001D102F0E1FE00BFFEF758FD00BF384663
:10249000FDF772FE00BF00BF00BF1E4820606660EF
:1024A0000020206284F82500A062202084F8240007
:1024B00004F1080002F0E9FB204602F017FB164881
:1024C0000088401C1449088000BF00BF00BFFDF712
:1024D0004FFE074600BFFEF717FD00BF0C4800780F
:1024E000401E0B4908700846007808B902F0BAFE91
:1024F00000BFFEF723FD00BF3846FDF73DFE00BFDD
:1025000000BF00BF0020288000BFA0E7A800002077
:10251000F80000204D555458DC0000202DE9F0470C
:1025200088B00546894690461C46109E4FF0000A2A
:10253000BF480078002805DD46F2AE10308008B0B4
:10254000BDE8F0871DB945F6C3503080F7E7B8F114
:10255000000F03D0B8F5004F02D100E000BF03E048
:1025600045F625603080EAE700BFB2492868884216
:1025700003D045F6C4503080E1E70CB10020206064
:1025800000BF00BFFDF7F4FD824600BFFEF7BCFCB4
:1025900000BF95F82500D0B9A74800682862A64872
:1025A000006890F8370085F82400012085F82500A0
:1025B0000CB1A86A206000BFFEF7C0FC00BF504607
:1025C000FDF7DAFD00BF00BF00203080B7E79A4971
:1025D000286A0968884214D195F82500401C85F8BE
:1025E00025000CB1A86A206000BFFEF7A7FC00BF61
:1025F0005046FDF7C1FD00BF00BF45F2827030803C
:102600009DE708F4004060B100BFFEF797FC00BFF3
:102610005046FDF7B1FD00BF00BF46F2B01030805C
:102620008DE78648007800280CDD00BFFEF786FCA9
:1026300000BF5046FDF7A0FD00BF00BF46F6635047
:1026400030807CE700BF7D480078401C7B490870E3
:1026500008460078012801D102F0F6FD00BFFEF720
:102660006DFC00BF5046FDF787FD00BF00BF00BFF7
:102670002F6A97F837007049096891F83710884237
:102680006ADD97F8360008282AD2DFE800F0041542
:102690001E1F17162021384602F07AFD6648006892
:1026A00090F8370087F8370097F8370002F0F4FB0E
:1026B000384602F00DFD4EE000BF00BF5E480068E6
:1026C00090F8370087F8370045E000BF00BF00BF33
:1026D0005948006890F83710384602F0B3FA3AE0EB
:1026E00000BF00BF00BFFDF743FD824600BFFEF7FD
:1026F0000BFC00BF51480078401E50490870084646
:102700000078D0B902F0AEFD4D48008800280BDDFE
:1027100000BFFEF713FC00BF5046FDF72DFD00BFC4
:1027200000BF02F063FD11E000BFFEF707FC00BF31
:102730005046FDF721FD00BF08E000BFFEF7FEFB9D
:1027400000BF5046FDF718FD00BF00BF00BF46F6B2
:102750002D603080F3E600BF4B46042229466846D0
:1027600002F0E8F900BF00BF00BFFDF701FD82469F
:1027700000BFFEF7C9FB00BF30480078401E2F495C
:1027800008700846007808B902F06CFD00BFFEF73B
:10279000D5FB00BF5046FDF7EFFC00BF00BF00BFF8
:1027A00000F0A0F900BF00BFFDF7E2FC824600BFC9
:1027B000FEF7AAFB00BF2048006890F8350030B152
:1027C00001280CD002281AD0032821D110E01CB116
:1027D00019480068006C2060002030801CE01CB1AB
:1027E00015480068006C206046F2A910308013E0A4
:1027F0000CB10020206047F2D92030800CE01CB1E1
:102800000D480068006C206045F6C250308003E03F
:1028100046F62E60308000BF00BF00BFFEF78EFB83
:1028200000BF5046FDF7A8FC00BF00BF00BF86E612
:10283000A80000204D55545850010020F8000020F9
:10284000BC0000202DE9F84F0446884615464FF09D
:10285000000A9E480078002804DD46F20E202880F9
:10286000BDE8F88F1CB945F6C3502880F8E7B8F1E9
:10287000000F03D0B8F5004F02D100E000BF03E025
:1028800045F625602880EBE700BF91492068884223
:1028900003D045F6C4502880E2E700BF00BFFDF733
:1028A00067FC824600BFFEF72FFB00BF8949206A04
:1028B000096888420CD000BFFEF740FB00BF5046BD
:1028C000FDF75AFC00BF00BF45F281702880C7E7C2
:1028D00000BF81480078401C7F4908700846007896
:1028E000012801D102F0B0FC00BFFEF727FB00BFBA
:1028F0005046FDF741FC00BF00BF00BFFEF792FB52
:102900000746A76294F82500401E84F8250094F835
:10291000250000283ADD00BF00BF00BFFDF728FCFE
:10292000824600BFFEF7F0FA00BF6B480078401EF9
:102930006949087008460078D0B902F093FC6748EE
:10294000008800280BDD00BFFEF7F8FA00BF5046F4
:10295000FDF712FC00BF00BF02F048FC11E000BF11
:10296000FEF7ECFA00BF5046FDF706FC00BF08E09A
:1029700000BFFEF7E3FA00BF5046FDF7FDFB00BFC6
:1029800000BF00BF45F28370288069E704F10809A1
:10299000B9F8080080BB0020206284F8250000BF41
:1029A00000BF00BFFDF7E4FB824600BFFEF7ACFAB4
:1029B00000BF49480078401E474908700846007823
:1029C000D8B902F04FFC4548008800280BDD00BF55
:1029D000FEF7B4FA00BF5046FDF7CEFB00BF00BFC4
:1029E00002F004FC12E000BFFEF7A8FA00BF504658
:1029F000FDF7C2FB00BF09E00CE000BFFEF79EFA46
:102A000000BF5046FDF7B8FB00BF00BF00BF00206D
:102A1000288025E72F48006890F8370094F82410A4
:102A2000884219D02B48006802F0B2FB94F82400C9
:102A30002849096881F837002649096891F8370064
:102A400002F02AFA2348006802F062FB214800687D
:102A500090F8370022490870D9F80000866826628D
:102A600096F8370084F82400012084F8250000231C
:102A70001A4631462046009702F078F900BF00BFA1
:102A800000BFFDF775FB824600BFFEF73DFA00BFB1
:102A900011480078401E104908700846007808B9AF
:102AA00002F0E0FB00BFFEF749FA00BF5046FDF719
:102AB00063FB00BF00BF00BF08F4004008B900F08E
:102AC00011F80020288000BFCAE60000A8000020FE
:102AD0004D55545850010020F8000020BC00002043
:102AE000DE00002010B5002420480078002800DD1A
:102AF00010BD1F480078002800DDF9E700BFFDF792
:102B000037FB044600BF02F0A7F91A4908700846CF
:102B1000007800EB4000184951F820001749086080
:102B20000846006816490968884205D100BF20465A
:102B3000FDF722FB00BFDBE710480068D0F89000EB
:102B4000401C0E490968C1F890000E480068401CFE
:102B50000C4908604FF080500B49086000BF2046C8
:102B6000FDF70AFB00BF00BFC2E70000A80000207D
:102B7000F8000020DF0000200CE6002054010020B7
:102B8000500100202401002004ED00E070B504464F
:102B900000251A480078002803DD46F662502080A0
:102BA00070BD17480078012803D045F68960208061
:102BB000F6E714480078FA2803DB45F20920208064
:102BC000EEE700BF00BFFDF7D3FA054600BFFEF7F2
:102BD0009BF900BF0B480078401C0A49087002F0BE
:102BE00033FB00BFFEF7AAF900BF2846FDF7C4FA81
:102BF00000BF00BF0020208000BFD1E7A800002058
:102C0000B0000020F80000202DE9F04105460C46F8
:102C10001646002700BF00BFFDF7AAFA074600BF0F
:102C2000FEF772F900BF012D03D000200E49087095
:102C300002E001200C49087014B10C48046006E061
:102C40000B4800680A21B0FBF1F00849086000BF9A
:102C5000FEF774F900BF3846FDF78EFA00BF00BFDB
:102C600000203080BDE8F08100010020FC00002041
:102C70004CAD000870B504460025234800780028B4
:102C800003DD46F66550208070BD2048007801289D
:102C900003D045F689602080F6E71D48007818B912
:102CA00046F664502080EFE700BF00BFFDF760FAF2
:102CB000054600BFFEF728F900BF15480078401E02
:102CC000134908700846007800280CDD00BFFEF7A5
:102CD00035F900BF2846FDF74FFA00BF00BF46F6A2
:102CE00063502080D0E702F0BDFA00BFFEF726F95E
:102CF00000BF2846FDF740FA00BF00BFFFF7F2FE15
:102D00000020208000BFBFE7A8000020B000002006
:102D1000F800002010B5044612480078E8B902F027
:102D20009BF81149087008460078104908700E4851
:102D3000007800EB40000E4951F820000D49086072
:102D4000084600680C490860012006490870FDF734
:102D50001BFE43F69920208002E045F68A60208021
:102D600010BD0000B0000020DF000020DE000020C9
:102D70000CE6002054010020500100202DE9F04114
:102D800007464FF0000800BF00BFFDF7F1F980468D
:102D900000BFFEF7B9F800BF002047490860474967
:102DA0000880474908804749086047490860474903
:102DB000086047490860474908604749088100BFE3
:102DC000FEF7BCF800BF4046FDF7D6F900BF00BFD4
:102DD00000BF00BFFDF7CCF9804600BFFEF794F8B6
:102DE00000BF3E48046800BFFEF7A8F800BF404699
:102DF000FDF7C2F900BF00BF26E000BF00BFFDF72E
:102E0000B7F9804600BFFEF77FF800BF0020783496
:102E1000E063206420602063A061A082E0826062A1
:102E2000A062FEF7FFF82062783C04F164060020FF
:102E3000B081D4F8C04000BFFEF780F800BF404624
:102E4000FDF79AF900BF00BF002CD6D100BF00BF2C
:102E5000FDF78EF9804600BFFEF756F800BF204808
:102E6000056800BFFEF76AF800BF4046FDF784F929
:102E700000BF00BF16E000BF00BFFDF779F9804634
:102E800000BFFEF741F800BF05F120060020B08129
:102E9000AD6900BFFEF752F800BF4046FDF76CF980
:102EA00000BF00BF002DE6D103F010FD03F09EFF30
:102EB00000203880BDE8F081C4000020BE00002062
:102EC0000E010020200100203401002040010020DC
:102ED000AC000020F000002000E6002028010020C7
:102EE000E4000020F8B5044600266946364800F0A4
:102EF00069FDBDF8000018B1BDF800002080F8BDE4
:102F00006A460021022000F0DFFDBDF8000018B184
:102F1000BDF800002080F2E700BF00BFFDF728F9F0
:102F2000064600BFFDF7F0FF00BF002027490860FC
:102F300000BFFEF703F800BF3046FDF71DF900BFE4
:102F400000BF00252248006822490968884205D947
:102F50001F4800681F490968B0FBF1F525B91C48F6
:102F600000680A21B0FBF1F56A460021284600F00E
:102F7000ABFD6946144800F0A5FABDF8000018B191
:102F8000BDF800002080BAE700BF00BFFDF7F0F8F1
:102F9000064600BFFDF7B8FF00BF00200E490860DD
:102FA0000A4800680D49086001200D49087000BFFB
:102FB000FDF7C4FF00BF3046FDF7DEF800BF00BFDD
:102FC0000020208000BF9AE71CE9002010010020AB
:102FD0004CAD000834AD0008200100201401002091
:102FE0001C01002010B50348006810B101480068BA
:102FF000804710BD980000202DE9FF4F87B00446A0
:103000009046DDE91BA5DDE91496179F002003908B
:1030100095480078002805DD47F24A1028800BB05B
:10302000BDE8F08F1CB947F2AD102880F7E7B8F182
:10303000000F03D147F24F102880F0E71EB946F683
:103040002F602880EBE789480068874203D246F664
:1030500030602880E3E71698B84203D346F6316023
:103060002880DCE7B9F1200F03D346F273202880D3
:10307000D5E7B9F1000F06D17D48844203D046F26E
:1030800073202880CBE7B9F11F0F06D1794884421D
:1030900003D046F273202880C1E7204602F0F6FCF8
:1030A000002028800AF0010090B10AF0020078B1F7
:1030B00005960020069008E000210598016005981B
:1030C000001D05900698401C06900698B842F3D360
:1030D000169806EB80000490CDE9007A324640460F
:1030E000049B0A9900F00EFC0590C4F828800A9809
:1030F000E0620898206284F8379005982060049870
:10310000A06019986065199818B95B480068A065B7
:1031100001E01998A0651A9860606662A763A4F838
:103120003CA04FF0000B08E0002104F17C0040F8C7
:103130002B100BF1010000F0FF0BBBF1000FF3D0DF
:1031400004F16400189901F047FC204600F09EF855
:1031500000BF00BF00BFFDF70BF8039000BFFDF7F5
:10316000D3FE00BF45480078401C4449087008461B
:103170000078012801D102F067F800BFFDF7DEFEFC
:1031800000BF0398FCF7F8FF00BF00BF00BF94F832
:10319000370001F081FE204601F0BAFF204602F020
:1031A0002BFC37480088401C35490880354800789A
:1031B000012837D000BF00BF00BFFCF7D9FF039044
:1031C00000BFFDF7A1FE00BF2C480078401E2B4930
:1031D000087008460078D0B902F044F82A48008800
:1031E00000280BDD00BFFDF7A9FE00BF0398FCF728
:1031F000C3FF00BF00BF01F0F9FF11E000BFFDF702
:103200009DFE00BF0398FCF7B7FF00BF08E000BFBA
:10321000FDF794FE00BF0398FCF7AEFF00BF00BFB0
:1032200000BFFCE600BF00BF00BFFCF7A1FF03909A
:1032300000BFFDF769FE00BF10480078401E0F492F
:1032400008700846007808B902F00CF800BFFDF7D6
:1032500075FE00BF0398FCF78FFF00BF00BF00BFE3
:10326000FFF740FC00BFDAE6A800002048AD0008E8
:1032700038E5002070E40020FC000020F800002069
:103280002C010020B0000020BC00002010B5044636
:103290000348006818B1204601490968884710BDF5
:1032A0008800002070B504460D4600267848007856
:1032B000002803DD47F24E10288070BD7548844217
:1032C00003D147F24C102880F7E77348844203D1BA
:1032D00047F24D102880F0E79CB900BF00BFFCF713
:1032E00047FF064600BFFDF70FFE00BF6B480468AE
:1032F00000BFFDF723FE00BF3046FCF73DFF00BFD7
:1033000000BF00BF00BF00BFFCF732FF064600BF92
:10331000FDF7FAFD00BF62480078401C6049087064
:1033200008460078012801D101F08EFF00BFFDF7AB
:1033300005FE00BF3046FCF71FFF00BF00BF00BF07
:1033400094F8360008282DD2DFE800F004090E10AA
:10335000080A0F11204601F01BFF5EE05DE000BF90
:10336000204603F097FA58E000BF00BF00BF204698
:1033700003F090FA94F83400082810D2DFE800F047
:1033800004070508090A0B0600BF00BF08E000BFDC
:1033900000BF00BF00BF204601F0AFFC00E000BF4F
:1033A00000BF3AE000BF00BF00BFFCF7E1FE0646E9
:1033B00000BFFDF7A9FD00BF39480078401E38491D
:1033C000087008460078D0B901F04CFF35480088F5
:1033D00000280BDD00BFFDF7B1FD00BF3046FCF754
:1033E000CBFE00BF00BF01F001FF11E000BFFDF701
:1033F000A5FD00BF3046FCF7BFFE00BF08E000BFE0
:10340000FDF79CFD00BF3046FCF7B6FE00BF00BFD5
:1034100000BF46F62D6028804FE700BF04F164002E
:1034200001F0B8FA204600F041F8204602F0FCFA1C
:103430001D480088401E1C490880204602F026FBDB
:10344000FF2084F8360000BF00BF00BFFCF790FEED
:10345000064600BFFDF758FD00BF11480078401E2A
:103460000F4908700846007808B901F0FBFE00BF5C
:10347000FDF764FD00BF3046FCF77EFE00BF00BFD5
:1034800000BF00202880FFF72DFB00BF15E70000DC
:10349000A800002070E4002038E500205001002042
:1034A000F8000020BC0000202C01002010B50446CC
:1034B0000348006818B1204601490968884710BDD3
:1034C0008C0000207FB504460D46002600BF00BFDB
:1034D000FCF74EFE064600BFFDF716FD00BF1CB10F
:1034E0001748006884420CD100BFFDF727FD00BFDC
:1034F0003046FCF741FE00BF00BF47F2571028805E
:103500007FBD00BFFDF71AFD00BF3046FCF734FE5B
:1035100000BF00BF0B48007800280BDD00200090A2
:103520000190034602462146CDE90205064800F017
:103530009BFFE5E72946204602F054FC00BFDFE789
:1035400050010020A80000205452455310B50446F5
:103550000348006818B1204601490968884710BD32
:10356000900000202DE9F04780460E4614461D4687
:103570004FF000098C480078002805DD46F2AE10B7
:1035800028800020BDE8F0871EB1B6F5004F02D1BB
:1035900000E000BF04E045F6256028800020F1E748
:1035A00000BF0CB10020206000BF00BFFCF7E0FDB1
:1035B000814600BFFDF7A8FC00BF7C480068406C56
:1035C000B8B37A480068406C401E7849096848647E
:1035D00076480068476C1CB174480068006C206035
:1035E000FDF720FD71490968096C401A6F490968A7
:1035F000C1F8A4006D480068D0F8A8006B490968BC
:10360000D1F8A410884207D268480068D0F8A40016
:1036100066490968C1F8A80000BFFDF78FFC00BF2C
:103620004846FCF7A9FD00BF00BF002028803846AF
:10363000A8E7FFE706F4004068B100BFFDF77EFC95
:1036400000BF4846FCF798FD00BF00BF46F2B0102F
:103650002880002096E75648007800280DDD00BF3E
:10366000FDF76CFC00BF4846FCF786FD00BF00BFBD
:1036700046F663502880002084E700BF4C4800785D
:10368000401C4B49087008460078012801D101F020
:10369000DBFD00BFFDF752FC00BF4846FCF76CFDA8
:1036A00000BF00BF00BF434607220021084601F0CB
:1036B00041FA00BF00BF00BFFCF75AFD814600BFC2
:1036C000FDF722FC00BF3A480078401E38490870D8
:1036D0000846007808B901F0C5FD00BFFDF72EFCD3
:1036E00000BF4846FCF748FD00BF00BF00BFFFF722
:1036F000F9F900BF00BFFCF73BFD814600BFFDF7B5
:1037000003FC00BF2948006890F8350020B101286B
:1037100026D0032834D12CE0FCB124480068006C8A
:103720002060FDF77FFC21490968096C401A1F4998
:103730000968C1F8A4001D480068D0F8A8001B491A
:103740000968D1F8A410884207D218480068D0F858
:10375000A40016490968C1F8A8000020288013E0D9
:103760001CB112480068006C206046F2A910288045
:103770000AE00CB10020206047F2D920288003E045
:1037800046F62E60288000BF00BF08480068476CDE
:1037900000BFFDF7D3FB00BF4846FCF7EDFC00BFC0
:1037A00000BF3846EEE60000A800002050010020CF
:1037B000F80000202DE9FF4106460F4614461FB1D0
:1037C000B7F5004F02D100E000BF06E045F62560E6
:1037D0002080002004B0BDE8F08100BFFDF722FC8E
:1037E00005460D48007800280CDD002000900346B7
:1037F00002463146CDE902540190084800F034FEFB
:103800000020E7E723462A463946304602F0B4FB5B
:1038100080464046DEE70000A80000205453494798
:103820002DE9F04705460E4617461C464FF0000AA4
:1038300032480078002804DD47F259102080BDE8A6
:10384000F0871EB946F2D5202080F8E71FB946F26E
:10385000D5202080F3E700BF00BFFCF789FC82463B
:1038600000BFFDF751FB00BF0DB92548056828686A
:1038700078B900BFFDF762FB00BF5046FCF77CFC47
:1038800000BF00BF00203060386047F25210208037
:10389000D5E795F83C0000F0010078B900BFFDF7CE
:1038A0004DFB00BF5046FCF767FC00BF00BF002087
:1038B0003060386047F254102080C0E700BFFDF749
:1038C0003DFB00BF5046FCF757FC00BF00BF4FF068
:1038D0000008D5F8249003E009F1040908F1010873
:1038E000D9F800000028F7D0C6F80080A86BA0EB3C
:1038F000080038600020208000BFA0E7A80000205A
:1039000050010020F0B50446DDE9055602EB8500C4
:103910004FF0807C071F3846C7F800C0071F3846A5
:103920003C60DFF89CC0071F3846C7F800C04FF066
:10393000123C071F3846C7F800C04FF0033C071F72
:103940003846C7F800C04FF0023C071F3846C7F89A
:1039500000C0071F38463B60071F384639604FF0EC
:10396000113C071F3846C7F800C04FF0103C071F36
:103970003846C7F800C04FF0093C071F3846C7F863
:1039800000C04FF0083C071F3846C7F800C04FF092
:10399000073C071F3846C7F800C04FF0063C071F1A
:1039A0003846C7F800C04FF0053C071F3846C7F837
:1039B00000C04FF0043C071F3846C7F800C0F0BDF8
:1039C000615F00087FB505460C461248854203D169
:1039D00047F25B1020807FBD0F48854203D147F23C
:1039E0005C102080F7E70D48007800280BDD0020F0
:1039F00000900190034602462946CDE9020408489A
:103A000000F032FDE7E72146284602F089FD00BFBD
:103A1000E1E7000070E4002038E50020A800002065
:103A20005453555370B52448006810B122480068BB
:103A30008047FDF7F7FA04462048006820490968E6
:103A4000884215D01D480068D0F89800201A1B49FC
:103A50000968C1F8940019480068D0F89C0017491B
:103A60000968D1F89410084414490968C1F89C0009
:103A700013480068C0F89840FDF71AFA05460F4849
:103A80000068D0F8B400A84203D20C480068C0F81F
:103A9000B4500A480068D0F8B8000A49096888425A
:103AA00005D20848006805490968C1F8B800002037
:103AB0000449086070BD00009C00002050010020F7
:103AC00054010020F40000202DE9F04105460E4687
:103AD000144600274D480078002804DD47F2752081
:103AE0002080BDE8F0814A480078002803DD46F6D2
:103AF00063502080F5E736B1022E05D0042E0AD09F
:103B0000082E09D101E000BF00BF1DB947F27E2099
:103B10002080E6E704E003E045F625602080E0E74A
:103B200000BF00BF00BF00BFFCF722FB074600BF7D
:103B3000FDF7EAF900BF36480078401C34490870A8
:103B400008460078012801D101F07EFB00BFFDF797
:103B5000F5F900BF3846FCF70FFB00BF00BF00BF00
:103B600001202C49096881F836002346324629464F
:103B70002848006802F0B0FD2088F0B100BF00BF07
:103B800000BFFCF7F5FA074600BFFDF7BDF900BF1F
:103B90001F480078401E1E4908700846007808B982
:103BA00001F060FB00BFFDF7C9F900BF3846FCF724
:103BB000E3FA00BF00BF00BF93E71648006801F0BA
:103BC000E7FA00BF00BF00BFFCF7D2FA074600BF0C
:103BD000FDF79AF900BF0E480078401E0C490870A6
:103BE0000846007808B901F03DFB00BFFDF7A6F9D3
:103BF00000BF3846FCF7C0FA00BF00BF00BFFEF7A9
:103C000071FF0020208000BF6BE70000A8000020AB
:103C1000F8000020500100202DE9FF5F05460E4608
:103C200017469846DDE90EA40020009081480078F0
:103C3000002804DD47F275202080BDE8FF9F7E4804
:103C40000078002803DD46F663502080F5E70AF08F
:103C50000E0BBBF1000F09D0BBF1020F07D0BBF177
:103C6000040F10D0BBF1080F0ED101E000BF00BF60
:103C7000B8F1000F06D12FB926B91DB947F27E2041
:103C80002080DAE704E003E045F625602080D4E7F1
:103C900000BF2AF01E0008B1012000E000200390C0
:103CA0000398012803D145F625602080C5E7CAF3B3
:103CB000001002900298C0B9B8F57A7F03D347F29A
:103CC0007B202080B9E73B2F03DD47F27A2020805C
:103CD000B3E73B2E03DD47F279202080ADE7632D6B
:103CE00012DD47F278202080A7E742F20F7086426B
:103CF00003DD47F2792020809FE7B5F57A7F03DB6B
:103D000047F27820208098E74C48D0F800904FF494
:103D1000FA70B0FBF9F0404400FB09F04FF47A71FF
:103D2000B0FBF1F14FF461606843C6EB061200EBA3
:103D30008200384400FB091001900198002873D0DC
:103D400000BF00BF00BFFCF713FA009000BFFDF7F3
:103D5000DBF800BF38480078401C37490870084637
:103D60000078012801D101F06FFA00BFFDF7E6F8F5
:103D700000BF0098FCF700FA00BF00BF00BF0120A1
:103D80002F49096881F8360023465A462C48019984
:103D9000006802F0A1FC2088F0B100BF00BF00BFA6
:103DA000FCF7E6F9009000BFFDF7AEF800BF22482F
:103DB0000078401E204908700846007808B901F0D4
:103DC00051FA00BFFDF7BAF800BF0098FCF7D4F92C
:103DD00000BF00BF00BF30E71948006801F0D8F904
:103DE00000BF00BF00BFFCF7C3F9009000BFFDF7A4
:103DF0008BF800BF10480078401E0F490870084635
:103E0000007808B901F02EFA00BFFDF797F800BF5F
:103E10000098FCF7B1F900BF00BF00BFFEF762FEDB
:103E20000020208003E0FFE747F27E20208000BFD3
:103E300003E70000A8000020F80000204CAD0008B7
:103E40005001002010B586B000F01EF8FDF7EAF82A
:103E5000044605A800210091CDE90114039007480C
:103E6000007800EB4000064A02EB800100231A466E
:103E7000044800F0F9FA06B010BD0000DE00002092
:103E80000CE600205449434B10B50348006810B1BC
:103E900001480068804710BDA000002010B5002434
:103EA00000BF00BFFCF764F9044600BFFDF72CF823
:103EB00000BF09480078401C0749087000BFFDF7A3
:103EC0003DF800BF2046FCF757F900BF00BFFFF7E1
:103ED000B9FFFEF73DFA10BDA800002001464A1EBA
:103EE0004FF0E0235A61084A106820F07F4000BF7D
:103EF00010601A46126942F005021A611A461269E8
:103F000042F002021A61704720ED00E0254A26497E
:103F1000264A274A2749284A2848294A294A2A4A14
:103F20002A4A2B482B482C482C4A2D482D4A2E48EB
:103F30002E4A2F482F4830483048314A314A324AB9
:103F40003248334A334A344834483548354836488D
:103F500036483748374A384A384A394A39483A4859
:103F60003A483B4A3B4A3C4A3C483D483D483E492A
:103F70003E483F4A3F4A404A404A414A414A424AF3
:103F80004248434A434A44484448454A454A4648C9
:103F9000464A474A47484848484800BF00BF00BF14
:103FA0007047000090AD0008F8AE000891AD000821
:103FB00092AD000894AD000898AD00089CAD0008D3
:103FC00099AD0008C4AD0008C5AD0008C6AD000835
:103FD000C8AD0008CAAD0008CCAD0008CEAD0008E1
:103FE000D0AD0008F0AD0008F2AD0008F4AD000857
:103FF000F6AD0008F8AD0008FAAD0008FCAD000809
:1040000028AE000829AE00082AAE00082CAE000831
:104010002EAE00082FAE000830AE000832AE000809
:1040200034AE000836AE000838AE00083AAE0008DC
:104030003CAE00086CAE00086DAE00086EAE000825
:104040006FAE000870AE000872AE000874AE0008D3
:104050009CAE00089DAE00089EAE00089FAE000812
:10406000A0AE0008A2AE0008A4AE0008A8AE0008EA
:10407000A9AE0008AAAE0008ABAE0008ACAE0008BE
:10408000ADAE0008AEAE0008AFAE0008B0AE00089E
:10409000B2AE0008B3AE0008B4AE0008B6AE000879
:1040A000B8AE0008B9AE0008BCAE0008F0AE00081B
:1040B000F1AE0008F2AE0008F4AE0008F6AE00085B
:1040C0000021034A1160034A1180018070470000FB
:1040D000C8000020CC0000202DE9F04F85B0044638
:1040E000894692469B46DDF838800020009000BF4C
:1040F00000BFFCF73DF8009000BFFCF705FF00BFD4
:10410000BAF1000F0AD0BAF1010F0DD0BAF5004F85
:1041100005D06FF40040504460B906E000BF206A4B
:1041200040EA0900206216E000BF206A20EA090088
:10413000206210E000BFFCF701FF00BF0098FCF711
:104140001BF800BF00BF45F62560A8F8000000205E
:1041500005B0BDE8F08F00BFC4F824B004F108003A
:1041600001900198008968B900BFFCF7E7FE00BF25
:104170000098FCF701F800BF00BF0020A8F800007D
:10418000206AE5E700BF71480078401C6F4908705D
:1041900008460078012801D101F056F800BFFCF76D
:1041A000CDFE00BF0098FBF7E7FF00BF00BF00BFD8
:1041B00001980768BD6889E07868029095F88800E2
:1041C00000F00F0003900398012821D002282ED080
:1041D000042802D0082836D10EE0206AD5F88010D5
:1041E00000EA0106D5F88000B04204D15A463146B3
:1041F000284600F0AFF863E0206AD5F8801000EAA6
:10420000010626B15A463146284600F0A3F857E089
:10421000D5F88000216A20EA0106D5F88000B04276
:1042200004D15A463146284600F094F848E0D5F8C3
:104230008000216A20EA010626B15A463146284606
:1042400000F088F83CE000BF00BF00BFFBF790FF24
:10425000009000BFFCF758FE00BF3C480078401EAD
:104260003A49087008460078D0B900F0FBFF38489A
:10427000008800280BDD00BFFCF760FE00BF00983F
:10428000FBF77AFF00BF00BF00F0B0FF11E000BFF6
:10429000FCF754FE00BF0098FBF76EFF00BF08E07C
:1042A00000BFFCF74BFE00BF0098FBF765FF00BFA7
:1042B00000BF00BF43F6FF20A8F80000002047E73A
:1042C00000BF029F0FB1BD6800E00025002D7FF404
:1042D00073AF00BF00BF00BFFBF74AFF009000BFF5
:1042E000FCF712FE00BF19480078401E17490870FD
:1042F0000846007808B900F0B5FF00BFFCF71EFEC5
:1043000000BF0098FBF738FF00BF00BF00BF0AF4F2
:10431000004008B9FEF7E6FB00BF00BFFBF728FF2F
:10432000009000BFFCF7F0FD00BF206A049000BFC2
:10433000FCF704FE00BF0098FBF71EFF00BF00BFA4
:104340000020A8F80000049802E70000F800002010
:10435000BC00002070B504460E4615463434266570
:10436000002060702070E560A078343C082816D2E8
:10437000DFE800F0040508090706101100BF00BFC0
:1043800000BF0DE000BF204601F01EFD002084F8B4
:10439000360005E000BF042084F8360000E000BFCE
:1043A00000BF204600F0A9FC70BD0000002400BF43
:1043B0001DE000BF00BFFBF7DBFE044600BFFCF7BB
:1043C000A3FD00BF0A480068401C0949086009486D
:1043D0000068401C0749086000BFFCF7AFFD00BF44
:1043E0002046FBF7C9FE00BF00BFFDF7C5FEE0E7B2
:1043F000A40000201001002010B58AB0044600205F
:104400000E4908600B2000210591CDE907040691B3
:1044100008460B4909680B4A12680B4B1B68CDE92B
:104420000132CDE903101F200023084A08A10090A3
:104430000C48FEF7E1FD0AB010BD0000A40000200A
:10444000F4AC0008F0AC0008ECAC0008AD43000888
:1044500075432F4F532D4949492049646C652054B9
:1044600061736B0070E400202DE9F84F04460D469F
:1044700016461F46DDE90BABDDF82890DDF83480E9
:104480000020009000BF00BFFBF772FE009000BF4D
:10449000FCF73AFD00BF2C4800882C490988884267
:1044A0003EDA29480088401C2749088028480088AF
:1044B0000988884203DA244800882549088025486D
:1044C0000068046023480068856022480068C66070
:1044D0002048006807821F480068C0F814901D48F3
:1044E0000068A0F818A01B480068C0F81CB0194864
:1044F000006840681749086001201749088117487B
:1045000008604860002000F0C7FC1548007818B12A
:1045100013480078134908700020A8F8000008E04C
:1045200011480088401C1049088044F25360A8F8E4
:10453000000000BFFCF702FD00BF0098FBF71CFE67
:1045400000BF00BFBDE8F88FBC00002000AD000830
:10455000BE000020B40000200CE6002038E500205A
:10456000DE000020E0000020C00000203EB55948D9
:1045700000680068584A811A904279D00FDC574988
:10458000084400283ED056490844A8B1554908447B
:10459000002860D05449084400286AD13FE05348BD
:1045A0000844002850D052490844002862D051499C
:1045B00008440028F1D110E002A8464D00902D6873
:1045C000EB69444D2D682A8B424D2D686969414D38
:1045D0002D68A868FFF780FD7AE002A93D480068D1
:1045E000C0693C4DCDE900012D682B8B394D2D68FC
:1045F0002A8A384D2D68E968364D2D68A86800F084
:104600007BFC65E0334B1B68DA69324B1B68198B06
:10461000304B1B68986802AB00F0C4FE58E002A95A
:104620002C480068C0692B4DCDE900012D682B8B0B
:10463000284D2D682A8A274D2D68E968254D2D685B
:10464000A86801F08BFA43E022490968886802A94A
:1046500001F0C8FB3CE01F4B1B68DA691D4B1B686F
:10466000198B1C4B1B68986802AB01F085FC2FE08E
:1046700007E02CE017490968886802A901F050FF9B
:1046800026E01D49097801EB41011C4A02EB81003B
:1046900000F006FE0F48006802AB0021C26918480E
:1046A00001F06AFC17480068401E16490860084679
:1046B000006858B9144800680860FCF7B3FC044669
:1046C00002AB22460021114801F056FC00E000BF79
:1046D00000BF3EBDB80000205449434BADBAB2BE46
:1046E0000DF90BFAF2F8F7FF0006F6FF00F7FDF7F9
:1046F00000FFEFFF03FE0FFEE00000200CE60020AD
:1047000054E800204C010020480100201CE9002052
:10471000002700BF56E0002652E000BF00BFFBF7B5
:1047200027FD074600BFFCF7EFFB00BF26480088C7
:1047300098B90020254908810860486000F0BEFB58
:1047400000BFFCF7FBFB00BF3846FBF715FD00BFC1
:1047500000BFFEF7C7F9012632E000BFFCF7EEFB11
:1047600000BF3846FBF708FD00BF00BFFCF75AFC4E
:104770000546FFF7FBFEFCF755FC441B1448006898
:10478000A04201D21248046000BF00BFFBF7F0FC5A
:10479000074600BFFCF7B8FB00BF0E480068406842
:1047A0000C49086008480088401E0749088000BF7F
:1047B000FCF7C4FB00BF3846FBF7DEFC00BF00BFC0
:1047C000002EAAD0A7E70000BC0000200CE60020C5
:1047D000C4000020B8000020F0B589B005460020D4
:1047E000314908803148006820B944F2526028807D
:1047F00009B0F0BD2E480088022803DA44F2546064
:104800002880F5E700202B490860284804682646E0
:10481000203600270CE0284820600020A060E060DF
:10482000208260612083666020342036781C87B245
:104830001F4800888742EEDB203C1C480668666003
:104840001E4806601E48066000201E4908801E495A
:1048500008801E48006818B944F255602880C7E7F0
:104860001B4800681B490968884203D244F256601D
:104870002880BDE7032000210591CDE907050691B9
:1048800013480068144A1268104B1B68CDE90301F5
:10489000CDE9013200910B46104A11A11748FEF7ED
:1048A000ABFB00BFA4E70000C0000020FCAC000888
:1048B00000AD0008C40000204E4F4E45B40000205B
:1048C000B8000020BC000020BE00002008AD000899
:1048D00010AD000848AD00080CAD000811470008F5
:1048E00075432F4F532D4949492049535220517543
:1048F000657565205461736B0000000038E5002089
:104900000021034A1160034A1180018070470000B2
:10491000D0000020D400002070B501461A4D2D684B
:104920001DB945F21E750D8070BD184D2D881DB93D
:1049300045F21D750D80F7E7134D28682A6810327F
:10494000124D2D886D1EACB2002308E002600025D8
:1049500045600581C560103010325D1CABB2A342CA
:10496000F4DB0025056045600581C560064D2D68B6
:10497000074E3560054D2D88B5800025F5803581C1
:104980000D8000BFD0E700002CAD000824AD00086A
:1049900000E6002010B5014648894B89002B17DD41
:1049A0000A680C4B1B6813600A4C4B682360234653
:1049B000DB884C891B1B074CE38023469B884C8972
:1049C0002344044CA38000234B818B810B604B60FC
:1049D00010BD000000E6002001810022428182819A
:1049E00002604260704700002DE9F0410D46DDE9AC
:1049F0000674B0F80AC0B0F80880C44505DB46F27A
:104A0000935CA4F800C0BDE8F081DFF8DCC0BCF81E
:104A100004C0BCF1000F04D145F21D7CA4F800C015
:104A2000F1E7DFF8C4C0DCF80010DFF8BC80D1F893
:104A300000C0C8F800C0C446BCF804C0ACF1010C0A
:104A4000A8F804C0C446BCF806C00CF1010CA8F8D4
:104A500006C0C446BCF808C0B8F80680C44507DAEA
:104A6000DFF884C0BCF806C0DFF87C80A8F808C076
:104A7000B0F80AC0BCF1000F0AD1016041604FF0EC
:104A8000010CA0F80AC04FF0000CC1F800C017E0FC
:104A900003F0100CBCF1000F07D106683160016013
:104AA0004FF0000CC1F800C004E0D0F804C0C1F819
:104AB00000C04160B0F80AC00CF1010CA0F80AC0B7
:104AC000B0F80CC0B0F80A80C44503DAB0F80AC0E8
:104AD000A0F80CC04D600A81CF604FF0000CA4F824
:104AE00000C000BF8FE7000000E6002009A1C161FF
:104AF000002141610849096811B90021816105E07F
:104B000005490968816104490968486102490860EA
:104B10007047000020000000D80000200021034A58
:104B20001160034A1180018070470000D800002006
:104B3000DC0000202DE9F04105460C4616461F46D4
:104B40001548006880F8346000201349096881F82E
:104B5000350039461048006800F032FF6CB104F1AE
:104B60000808EC60012229460B48006800F016F89E
:104B70002946404600F08EF806E000200649096804
:104B8000C88705490968086303480168204600F0A2
:104B900019F8BDE8F08100005001002010B5C2876F
:104BA000016300230AE000244C600C600C614C613E
:104BB0000C83CC61886020315C1CA3B29342F2DB91
:104BC00010BD000030B548B14568C1F8C45000F1CF
:104BD0000804226893681D6AC56113E091F8345097
:104BE000022D02D0072D08D103E007A5C1F8C4505B
:104BF00007E007A5C1F8C45003E008A5C1F8C450F8
:104C000000BF00BF30BD00005461736B2051000035
:104C10005461736B2053656D00000000200000009C
:104C200030B507A5C1F8C45000F1080422681AB1D4
:104C300093681D6AC56101E001A5C56130BD000032
:104C4000200000002DE9F04304460F4684F8377039
:104C5000256BB4F83E8013E0D5F80C9009F10806F6
:104C60003089012807D92946304600F05EF82946E8
:104C7000304600F00FF82035A8F101001FFA80F847
:104C8000B8F1000FE8D1BDE8F08300210160416078
:104C900001817047F0B58E6896F8375007893FB9A3
:104CA0000127078100274F600F600160416023E00A
:104CB00007897F1C0781026806E0946894F83770C2
:104CC000AF4200DD02E05268002AF6D100BF32B9DF
:104CD00000274F6043680B60596041600CE0176823
:104CE0002FB9116000270F604A60016004E013686B
:104CF0000B604A6059601160F0BD2DE9F041044637
:104D0000256BE68F0AE0D5F80C8008F108072946E4
:104D1000384600F00AF82035701E86B2002EF2DC0C
:104D20000020E0872063BDE8F08110B50489012CE4
:104D300003D100240460446011E00C6824B94A687F
:104D40000024146002600AE04C6824B90B68002457
:104D50005C60436003E00B684A685A601360048932
:104D6000641E048100244C600C6010BD2DE9F843E2
:104D700006460C4617469846089D94F836000828C3
:104D800050D2DFE800F00405080906072B2C00BF0D
:104D900000BF00BF47E000BF94F83400032807D1EC
:104DA00043463A4621463046009500F03FF803E07E
:104DB000E765A4F86080256436B12046FFF79DFFC3
:104DC00021463046FFF72CFF204600F0FDFF002073
:104DD0003434A070607004F8340924E000BF94F803
:104DE0003400032807D143463A4621463046009511
:104DF00000F01CF803E0E765A4F860802564204615
:104E000001F048FD36B12046FFF777FF21463046D6
:104E1000FFF706FF04203434A0700020607004F80F
:104E2000340900E000BF00BFBDE8F883F0B50446D8
:104E3000059E086BCD8F0AE0C768A74204D10461C4
:104E400042610383C66104E020306F1EBDB2002DB5
:104E5000F2DC00BFF0BD000070B50025074C03E098
:104E600005F12000C5B2241D20680028F8D0206874
:104E7000FBF789F92844C5B2284670BD840000209C
:104E8000002004E00021034A42F82010401C0028C2
:104E9000F8D070478400002030B5420900F01F03AD
:104EA0000121C3F11F04A140034C54F822400C43DC
:104EB000014D45F8224030BD8400002030B5420944
:104EC00000F01F030121C3F11F04A140034C54F85B
:104ED00022408C43014D45F8224030BD8400002023
:104EE0000021034A1160034A1180018070470000CD
:104EF000E4000020E80000202DE9F04F85B00746CF
:104F00008A4693461C460020029000BF00BF00BFA7
:104F1000FBF72EF9029000BFFBF7F6FF00BF5648E3
:104F20000078401C5449087008460078012801D1D7
:104F300000F08AF900BFFCF701F800BF0298FBF708
:104F40001BF900BF00BF00BF07F108063089002829
:104F50004CD104F0100010B94FF0000801E04FF000
:104F60001008DDE90E0143465A46CDE900015146DD
:104F700007F12000FFF738FD00BF00BF00BFFBF7BF
:104F8000F7F8029000BFFBF7BFFF00BF3A48007878
:104F9000401E3949087008460078D0B900F062F91F
:104FA0003648008800280BDD00BFFBF7C7FF00BFB5
:104FB0000298FBF7E1F800BF00BF00F017F911E01D
:104FC00000BFFBF7BBFF00BF0298FBF7D5F800BF9F
:104FD00008E000BFFBF7B2FF00BF0298FBF7CCF878
:104FE00000BF00BF00BF05B0BDE8F08F04F4007043
:104FF00008B1358900E00125D6F8009011E0D9F814
:1050000008000390D9F8040004900E985B465246BD
:10501000009038460399FFF7A9FEDDF81090681E4E
:1050200085B2002DEBD100BF00BF00BFFBF7A0F899
:10503000029000BFFBF768FF00BF0F480078401EDA
:105040000D4908700846007808B900F00BF900BF58
:10505000FBF774FF00BF0298FBF78EF800BF00BF9C
:1050600000BF04F4004008B9FDF73CFD00210F9893
:10507000018000BFB7E70000F8000020BC0000205E
:1050800000210AE001EB4102054B03EB8200002204
:105090000281026042604A1CD1B22029F2D37047DB
:1050A0000CE6002010B5044694F83700FFF7F4FE34
:1050B00094F8370005490978884203D1204600F06A
:1050C00027F802E0204600F003F810BDDE000020C3
:1050D00010B590F8373003EB43030C4C04EB83011D
:1050E0000B893BB901230B810023C3600361086076
:1050F000486009E00B895B1C0B810B68C3600023CF
:1051000003610A681061086010BD00000CE6002011
:1051100010B590F8373003EB43030B4C04EB8301DD
:105120000B893BB901230B810023C3600361086035
:10513000486008E00B895B1C0B810023C3604A6850
:105140000261D060486010BD0CE6002010B5014639
:105150000C8924B1012C03D0022C0CD101E000BF3A
:1051600014E008684A6802610024C4601461D060D9
:105170000A6048600AE008684A68C36800241C6145
:10518000C4600261D0600B60486000BF00BF10BD0A
:105190002DE9F041054695F8370000EB4000124933
:1051A00001EB80042F69EE6887B946B900202081A1
:1051B0002060606095F83700FFF780FE0EE02089E0
:1051C000401E208100203061266007E02089401EBB
:1051D0002081FE600EB9676000E037610020286121
:1051E000E860BDE8F08100000CE6002010B5002466
:1051F00000BFFAF7BDFF044600BF00200D4908704C
:105200000D480E49086008460068D0F89000401C20
:105210000968C1F890000A480068401C0849086005
:105220004FF080500749086000BF2046FAF7A4FFFE
:1052300000BF10BDDF00002038E500205401002031
:105240002401002004ED00E010B504480078012896
:1052500003D1FBF7E7FE0249086010BDF80000200B
:10526000EC00002010B50A48007880B9FBF7DAFEA0
:1052700008490968441A08480068A04201D2064853
:10528000046006480068A04201D20448046010BDD2
:10529000F8000020EC000020F0000020F4000020C6
:1052A00070B50546002635480078012800D070BD4D
:1052B00000BF00BFFAF75CFF064600BFFBF724FE05
:1052C00000BF2C684CB900BFFBF738FE00BF30466A
:1052D000FAF752FF00BF00BFE9E72948844209D12D
:1052E00000BFFBF72BFE00BF3046FAF745FF00BFBB
:1052F00000BFDCE7A06D10B1A06D401EA065A06DE1
:1053000048B100BFFBF71AFE00BF3046FAF734FF82
:1053100000BF00BFCBE72889022809DA00BFFBF7EE
:105320000DFE00BF3046FAF727FF00BF00BFBEE703
:1053300014480078002809DD00BFFBF7FFFD00BF1F
:105340003046FAF719FF00BF00BFB0E72846FFF765
:10535000FDFE2C68606D18B90B480068A06501E07F
:10536000606DA06500BFFBF7E9FD00BF3046FAF7AE
:1053700003FF00BF00BF00BF99E70000000100204D
:1053800070E40020F8000020FC0000200021034A07
:105390001160034A11800180704700000401002061
:1053A000080100202DE9FF5F0446884691461D460E
:1053B0000020019000BF00BFFAF7DAFE019000BFA5
:1053C000FBF7A2FD00BF04F108073889002857D178
:1053D0000420012804D0022816D004283AD127E05E
:1053E000206AFF280FD100BFFBF7A8FD00BF01987E
:1053F000FAF7C2FE00BF00BF46F6C5502880002065
:1054000004B0BDE8F09F26E04FF6FF71206A8842A5
:105410000DD100BFFBF792FD00BF0198FAF7ACFE7B
:1054200000BF00BF46F6C55028800020E8E712E024
:10543000206A401C68B900BFFBF780FD00BF0198DF
:10544000FAF79AFE00BF00BF46F6C550288000203C
:10545000D6E700E000BF00BF206A401C2062D4F8FD
:1054600020A0C4F8249000BFFBF768FD00BF01989E
:10547000FAF782FE00BF00BF002028805046BFE739
:1054800000BF2D480078401C2B4908700846007862
:10549000012801D1FFF7D8FE00BFFBF74FFD00BF89
:1054A0000198FAF769FE00BF00BF00BF08F4007062
:1054B00008B13E8900E00126D7F800B011E0DBF822
:1054C00008000290DBF80400039000231A46CDF890
:1054D000009020460299FFF749FCDDF80CB0701EE1
:1054E00086B2002EEBD1D4F820A000BF00BF00BFD1
:1054F000FAF73EFE019000BFFBF706FD00BF0E4825
:105500000078401E0C4908700846007808B9FFF77B
:10551000A9FE00BFFBF712FD00BF0198FAF72CFEB1
:1055200000BF00BF00BF08F4004008B9FDF7DAFA79
:1055300000202880504663E7F800002086B0002055
:10554000009000BF06E0D9490968480001AA00217F
:10555000FEF7BAFAD64800780128F4D101A8FDF781
:105560000DFC0027D3480068D0490968884205D956
:10557000D0480068CD490968B0FBF1F727B9CD489C
:1055800000680A21B0FBF1F78EE1FBF74BFD824684
:10559000FBF7A4FCC849086000BF00BFFAF7E8FDAC
:1055A000009000BFFBF7B0FC00BFC4480068C449CE
:1055B00008600020C149086000BFFBF7BFFC00BFC6
:1055C0000098FAF7D9FD00BF00BFBE480068BC498B
:1055D0000968884248D9BB480068BB49884205D25F
:1055E00042F2107003900120029023E0B548006859
:1055F000B649884205D24FF47A7003900A2002908F
:1056000018E0B0480068B249884203D26420039091
:1056100002900FE0AB480068AE49884205D20A20EC
:1056200003904FF47A70029004E00120039042F25C
:1056300010700290A34801680298B1FBF0F9A049EC
:10564000039809684843B0FBF9F042F21071081A58
:10565000A1490880A14800880988884208DA9E4844
:1056600000889E49088003E042F210709A49088041
:10567000FDF7B8FC002500BF00BFFAF779FD0090E8
:1056800000BFFBF741FC00BF9548046800BFFBF773
:1056900055FC00BF0098FAF76FFD00BF00BF72E035
:1056A00000BF00BF00BFFAF763FD009000BFFBF72B
:1056B0002BFC00BF8B480078401C8A4908700846C4
:1056C0000078012801D1FFF7BFFD00BFFBF736FCD2
:1056D00000BF0098FAF750FD00BF00BF00BF54F8AC
:1056E0009C0F6060002044F89C0900BF00BF00BF11
:1056F000FAF73EFD009000BFFBF706FC00BF7948BB
:105700000078401E7749087008460078D0B9FFF746
:10571000A9FD7548008800280BDD00BFFBF70EFCD3
:1057200000BF0098FAF728FD00BF00BFFFF75EFD3D
:1057300011E000BFFBF702FC00BF0098FAF71CFD68
:1057400000BF08E000BFFBF7F9FB00BF0098FAF7C5
:1057500013FD00BF00BF00BFD4F8A000054400BF88
:1057600000BFFAF705FD009000BFFBF7CDFB00BFBF
:10577000D4F8C04000BFFBF7E1FB00BF0098FAF788
:10578000FBFC00BF00BF002C8AD145B34E488542C8
:1057900005D242F2107005904FF0010B1BE04B4810
:1057A000854205D24FF47A7005904FF00A0B12E053
:1057B0004748854203D26420059083460BE0454864
:1057C000854204D20A2005904FF47A7B03E0012041
:1057D000059042F2107BB5FBFBF0049003E0002043
:1057E00005900120049000BF00BFFAF7C1FC0090B3
:1057F00000BFFBF789FB00BF3948046800BFFBF717
:105800009DFB00BF0098FAF7B7FC00BF00BF2FE078
:10581000D4F8A000059948430499B0FBF1F086B292
:1058200042F21070864200D90646A4F88C60B4F8A3
:105830008E00B04201DAA4F88E6001AB04F1AC0234
:10584000111D2046FDF7ECFF00BF00BFFAF790FCEA
:10585000009000BFFBF758FB00BFD4F8C04000BF6A
:10586000FBF76CFB00BF0098FAF786FC00BF00BF97
:10587000002CCDD11D480078012805D100201B49FE
:10588000087001A8FDF77AFAFBF7CCFBA0EB0A0839
:1058900017480068404502D21548C0F8008001AAA8
:1058A00000213846FEF710F96FE6000034AD00081D
:1058B0001C0100204CAD0008AC00002010010020AD
:1058C0001801002014010020801A060000093D0084
:1058D000005A62020084D7170C0100200E0100203C
:1058E00028010020F8000020BC0000200A01002050
:1058F0002001002010B58AB0044600201F4908602E
:105900001F4908601F4908601F4908701F49087037
:105910001F48006820B946F62B6020800AB010BDF1
:105920001C4800681C490968884203D246F62C606E
:105930002080F3E7194800781F2803D346F62A6031
:105940002080EBE7032000210591CDE907040691B3
:10595000084610490968124A12680D4B1B68CDE9C8
:105960000132CDE903100D48007800230D4A0EA145
:1059700000901248FDF740FB00BFCFE71001002068
:1059800018010020140100201C0100200A01002041
:1059900038AD000840AD000848AD000830AD000843
:1059A0003CAD00083D55000875432F4F532D494924
:1059B000492053746174205461736B008CE700209C
:1059C00038B504460D4685B16B460222294620466D
:1059D00000F082FEBDF8000018B9032084F83600FC
:1059E00006E0022084F8360002E0022084F8360047
:1059F0002046FFF7CDFB38BD0021C0F8BC10094997
:105A0000096819B90021C0F8C01007E00549096804
:105A1000C0F8C01003490968C1F8BC00014908601A
:105A20007047000028010020D0F8BC20D0F8C0103A
:105A30004AB90D4B196011B10023C1F8BC300023E5
:105A4000C0F8C0300FE029B90023C2F8C030C0F858
:105A5000BC3008E0C2F8C010C1F8BC200023C0F878
:105A6000C030C0F8BC307047280100200021044A33
:105A70001160044A1180044A1160018070470000DF
:105A8000280100202C0100202401002070B50446CC
:105A900000202060A0606060E06020616061A06123
:105AA000E0612BA0206200206062A062E0622063BF
:105AB000E0872064E065A4F86000002104F1640040
:105AC000FEF78AFF002044F8740F6060E060A08257
:105AD0002061743C002506E0002104F17C0040F8C0
